:100000000C94DE090C940F0A0C940F0A0C940F0A3E
:100010000C940F0A0C940F0A0C940F0A0C940F0AFC
:100020000C940F0A0C940F0A0C940F0A0C940F0AEC
:100030000C940F0A0C940F0A0C940F0A0C940F0ADC
:100040000C940F0A0C940F0A0C940F0A0C940F0ACC
:100050000C940F0A0C940F0A0C940F0A0C94E025D0
:100060000C940F0A0C94AA250C9480250C940F0A6A
:100070000C940F0A0C940F0A0C940F0A0C940F0A9C
:100080000C940F0A0C940F0A0C940F0A0C940F0A8C
:100090000C944A250C9420250C940F0A0C942A26C3
:1000A0000C940F0A0C940F0A0C940F0A0C940F0A6C
:1000B0000C940F0A0C940F0A0C940F0A0C940F0A5C
:1000C0000C940F0A0C940F0A0C940F0A0C940F0A4C
:1000D0000C940F0A0C940F0A0C940F0A0C940F0A3C
:1000E0000C940F0A0A4D454D3A464154414C3A2072
:1000F000636F6E206E6F7420696E69742070616327
:100100006B65742025750A4372617368696E672E8A
:100110002E2E0A000A4D454D3A206E6577207061FB
:10012000636B657420257320286D616C6C6F632090
:1001300025752062797465732900000000656D7073
:100140007479207061636B6574000000000000002A
:10015000000000000000000000000000000000009F
:10016000000000000000000000000000000100008E
:10017000696E6974206279746500000000000000F7
:10018000000000000000000000000000000000006F
:10019000000000000000000000000000000000005F
:1001A000020000726573657420636F6D6D616E642B
:1001B000000000000000000000000000000000003F
:1001C000000000000000000000000000000000002F
:1001D000000000030000636F6E666967207265713E
:1001E000756573740000000000000000000000004E
:1001F00000000000000000000000000000000000FF
:100200000000000000000400007374617475732026
:1002100072657175657374000000000000000000D5
:1002200000000000000000000000000000000000CE
:10023000000000000000000000050001636F6D6D0C
:10024000616E6420737472696E67000000000000C4
:10025000000000000000000000000000010000009D
:100260000000000000000000000000000A0001740F
:10027000696D657374616D7000000000000000001E
:100280000000000000000000000000000000000668
:100290000000000000000000000000000000000F4F
:1002A000000467656E65726963207265706F7274B1
:1002B000000000000000000000000000000000003E
:1002C000000000020619000000000000000000000D
:1002D000000019000161636B6E6F776C6564676580
:1002E000000000000000000000000000000000000E
:1002F00000000000000700000000000000000000F7
:1003000000000000001E0000666163746F727920B7
:1003100072657365740000000000000000000000BA
:1003200000000000000000000000000000000000CD
:1003300000000000000000002D01017364206361D3
:1003400072642073657474696E67000000000000B9
:10035000000000000000000000000001000000009C
:100360000000000000000000000000F501046465CA
:10037000766963652073657474696E6700000000B8
:100380000000000000000000000000000000010567
:100390001C19000000000000000000000000E9033C
:1003A000047374616E6461726420636F6E66000032
:1003B000000000000000000000000000000000003D
:1003C000000203041B000000000000000000000009
:1003D00000EB030465737020636F6E66000000001D
:1003E000000000000000000000000000000000000D
:1003F000000000001D18171A000000000000000097
:1004000000000000ED030273616D706C6572206383
:100410006F6E660000000000000000000000000099
:1004200000000000000000151600000000000000A1
:1004300000000000000000150504616E616C6F672C
:100440002073656E736F7220636F6E66000000002C
:1004500000000000000000000000051C0F1000005C
:10046000000000000000000000001605027377691C
:1004700074636820636F6E66000000000000000077
:1004800000000000000000000000000000051C004B
:10049000000000000000000000000000001E050435
:1004A0006C64722073656E736F7220636F6E66008A
:1004B000000000000000000000000000000000003C
:1004C000051C0F10000000000000000000000000EC
:1004D000F2050644485432322073656E736F722001
:1004E000636F6E6600000000000000000000000066
:1004F000000000051C0F1011120000000000000099
:10050000000000A4060372656C617920636F6E665B
:1005100000000000000000000000000000000000DB
:10052000000000000000051C1A0000000000000090
:10053000000000000000D007026465766963652052
:1005400067656E6572696320636F6E660000000008
:10055000000000000000000000051C00000000007A
:10056000000000000000000000D107057374616EF8
:10057000646172642073746174757300000000001C
:100580000000000000000000000000000206090852
:100590000A0000000000000000000000D30705650D
:1005A00073702073746174757300000000000000A4
:1005B0000000000000000000000000000000000734
:1005C0000C0B0E0D0000000000000000000000D524
:1005D000070373616D706C65722073746174757359
:1005E000000000000000000000000000000000000B
:1005F00000000215070000000000000000000000DD
:100600000000FD0803616E616C6F672073656E7397
:100610006F7220737461740000000000000000001D
:10062000000000000005071A0000000000000000A4
:100630000000000000FE080373776974636820738C
:10064000656E736F722073746174000000000000A7
:10065000000000000000000005071A000000000074
:1006600000000000000000000609036C64722073A3
:10067000656E736F72207374617400000000000077
:10068000000000000000000000000005071A000044
:100690000000000000000000000000DA09044448E7
:1006A0005432322073656E736F72207374617400FC
:1006B0000000000000000000000000000000051322
:1006C000141A0000000000000000000000008C0A66
:1006D0000272656C6179207374617400000000001F
:1006E000000000000000000000000000000000000A
:1006F00000051900000000000000000000000000DC
:1007000000400B04736420737461746973746963CB
:100710007300000000000000000000000000000066
:1007200000000000021C0F08000000000000000094
:1007300000000000B80B0264657669636520676598
:100740006E657269632073746174000000000000BC
:1007500000000000000000051A000000000000007A
:1007600000000000000000B90B04616C6C61726D48
:100770000000000000000000000000000000000079
:100780000000000000000000000003040619000043
:1007900000000000000000000000BA0B0467656E56
:1007A0006572616C207761726E696E67000000008F
:1007B000000000000000000000000000000304062C
:1007C00019000000000000000000000000850C007F
:1007D00070726F62652072657175657374000000D8
:1007E0000000000000000000000000000000000009
:1007F00000000000000000000000000000000000F9
:10080000B10D04616D6269656E742070726F62650E
:1008100000000000000000000000000000000000D8
:1008200000000005030607000000000000000000B3
:100830000000008913046E6574776F726B20616429
:10084000647265737320736574000000000000001B
:1008500000000000000001051D180000000000005D
:100860000000000000008A13036573702061646457
:1008700072657373000000000000000000000000BB
:10088000000000000000000000051D18000000002E
:10089000000000000000000000FAFF01646F6F72AA
:1008A00062656C6C207369676E616C00000000000B
:1008B0000000000000000000000000000500000033
:1008C0000000000000000000000000006340006D18
:1008D0006573736167650000000000634000636F2B
:1008E0006D6D616E6400000000006310006E616D4C
:1008F000650000000000000000631000747970655E
:100900000000000000000000631000626F6172646C
:10091000000000000000006308006465766E616DF1
:100920006500000000006C040065706F63680000E3
:1009300000000000006C040076616C75650000002A
:10094000000000006C0400667265656D656D000056
:100950000000006C04006C6F6F7074696D650000BE
:1009600000006C04006572726F727300000000007A
:10097000006C0400746F74616C72780000000000F9
:100980006C0400746F74616C747800000000006C7B
:10099000040073657269616C7278000000006C0479
:1009A0000073657269616C7478000000006C04006B
:1009B000706172616D310000000000006C04007015
:1009C0006172616D320000000000006C0400706113
:1009D00072616D330000000000006C0400706172F1
:1009E000616D340000000000006C040074656D70DF
:1009F00065726174757265006C040068756D696478
:100A0000697479000000006C04007374657064619F
:100A10007931000000006C040073746570686F75B4
:100A200072310000006C040074696D656F757400AC
:100A3000000000006C0400706F7274000000000081
:100A40000000007301006C6576656C00000000001A
:100A5000000073010073746174757300000000007E
:100A6000007301006465766E756D00000000000083
:100A700073010070696E0000000000000000006358
:100A800011006970000000000000000000000A7002
:100A900061727365723A626567696E002E2E2E640C
:100AA0006F6E65000A4D454D3A20666F7267696E3C
:100AB00067207061636B65742025733A2573202568
:100AC000733A5B25755D00FF0101FF5445535400E7
:100AD0000A4552524F523A436F6E66426173653A0D
:100AE0006465766963653A20696E76616C69642035
:100AF00063616C6C20666F72206465766963652043
:100B00006174205B25755D00646F6E652100726500
:100B10006164696E672E2E2E000A416C6C6F6361F2
:100B200074696E6720646576202575202E2E2E0050
:100B30000A696F703A73656E64436F6E6669673AEF
:100B40006465766E756D206973202575000A696F7E
:100B5000703A73656E64436F6E6669673A64657672
:100B60006E756D206973202575004D4547413235FE
:100B700036300053414D504C4552005445535400BB
:100B80002A2A2048697421202A2A002A2A204D690D
:100B9000737321202A2A001F1C1F1E1F1E1F1F1EC9
:100BA0001F1E0A44656C6574696E6720436F6E662C
:100BB00042617365000A4445564E554D2075706478
:100BC00061746564206973202575000A526561644B
:100BD000696E6720626173652070726F7020257581
:100BE000203A20000A57726974696E672062617347
:100BF000652070726F70202575203A202573004D96
:100C0000454741323536300053414D504C45520036
:100C100054455354000A436F6E66426173653A62ED
:100C20006567696E3A20636F6D706C657465210A43
:100C300000546F6F206D616E792061747461636818
:100C400065642064657669636573203C25753E00A4
:100C50000A436F6E66426173653A626567696E3A10
:100C600020746F6F206D616E7920646576696365AD
:100C700073203A20257520286D617820257529007C
:100C80003E3E204641494C4544210A00205B202538
:100C900073205D20000A436F6E66426173653A629D
:100CA0006567696E3A20506172616D657465722086
:100CB00025753A2573005D0A00257520000A436FEB
:100CC0006E66426173653A696E69746465763A204E
:100CD000706F736974696F6E2061727261793A2006
:100CE0005B20000A436F6E66426173653A696E6904
:100CF000746465763A207472756E636174696E67A8
:100D00002061727261792061742025752F2575002C
:100D1000202D206C6F61646564202573206F6E2028
:100D200070696E20257500496E76616C6964206477
:100D30006576696365205B25753A25735D2061746E
:100D400020706F736974696F6E202575000A436F98
:100D50006E66426173653A696E69746465763A20BD
:100D60005B25752F25755D203C25753E206174201F
:100D7000696E64657820257500476F7420696E760A
:100D8000616C6964207061636B6574203C25733EFF
:100D900020666F7220636F6E66000A4445563A57AC
:100DA00041524E494E473A76616C69646174653AC6
:100DB00020676F74206E756C6C706F696E746572ED
:100DC000000A4445563A5741524E494E473A7661D9
:100DD0006C69646174653A20676F74206E756C6C21
:100DE000706F696E746572005D0A0A0025752000D7
:100DF0000A09546F74616C20646576696365733A9F
:100E0000202575205B20000A0A09636F6E663A642C
:100E100065764164643A6164646564202573206F7B
:100E20006E2070696E20257521000A52656D6F76FF
:100E3000696E672066726F6D20257520746F20259E
:100E40007500446576696365202573206E6F742094
:100E5000666F756E64004E6F206465766963652009
:100E6000746F2072656D6F766500636F6E663A64AD
:100E700065766164643A2000257370696E2025757B
:100E800020616C7265647920696E207573650063FA
:100E90006F6E663A6465766D6F643A2000257369FB
:100EA0006E76616C6964206465766963652025737C
:100EB00000257364657669636520257300636F6E32
:100EC000663A7365743A6465766E616D653A206959
:100ED0006E76616C6964200025736E616D652025F6
:100EE00073000A454550524F4D3A53616D706C6521
:100EF0007220626567696E20636F6D706C657465E2
:100F0000002573434F4F4C2054494D45203C2575D7
:100F10003E00257353544550203C25753E00466FD6
:100F2000756E6420696E76616C696420000A577280
:100F30006F74652073656E736F722025753A257323
:100F4000202D206E6F2070696E2025750A00257394
:100F5000202D206F6E2070696E202575000A577253
:100F60006974696E672073656E736F722025753AB8
:100F7000202575202D200044485431000000000534
:100F8000F205444854320000000006F2054448547B
:100F9000330000000007F20546414E31000000001A
:100FA00008A40646414E320000000009A4060A6368
:100FB0006C6F636B3A204D494C4C495320737461FC
:100FC00072743A0A636C6F636B3A20637572726570
:100FD0006E74206461746574696D653A20257300D0
:100FE0000A636C6F636B3A2063616E206E6F7420CE
:100FF000696E697420445333323331006265676926
:101000006E3A2063616E206E6F7420696E69742081
:1010100044533332333120636C617373000A636C61
:101020006F636B3A2063757272656E7420646174CD
:101030006574696D653A20257300626567696E3A6B
:1010400020696E76616C69642065706F63682E201C
:10105000506C6561736520636865636B20636F6EB8
:101060006E656374696F6E00626567696E3A2070C1
:101070006F776572206C6F73732E20506C6561738F
:101080006520636865636B20636C6F636B206261CE
:1010900074746572790030363A34353A3536004D1D
:1010A000617920203920323032300030363A343500
:1010B0003A3536004D617920203920323032300007
:1010C00030363A34353A3536004D617920203920B2
:1010D00032303230000A636C6F636B3A25733A62C8
:1010E0006567696E0065706F63683A2052544320EB
:1010F0007369676E616C206C6F7374210065706F2B
:1011000063683A2052544320666F756E6421000074
:10111000000A0B02090C0D0E080703040100000071
:1011200000000000000000000000000000000000BF
:10113000000000000000000000000012111000007C
:10114000000000000000000000000000000000009F
:10115000000000000000002200250028002B002EC7
:10116000003100340002010000050108010B0100FC
:10117000002100240027002A002D00300033000148
:10118000010000040107010A01050505050705081E
:10119000080808020202020A0A08080404040401FA
:1011A000010101010101010303030303030303041C
:1011B0000707070C0C0C0C0C0C0C0C0202020206AC
:1011C000060606060606060B0B0B0B0B0B0B0B019C
:1011D0000210202008081020401020408002010248
:1011E0000108040201010204081020408080402010
:1011F000100804020180040201804020100804024B
:1012000001080402010102040810204080010204C8
:101210000810204080424F415244205245414459D9
:101220000053414D504C4552000A3C494E49543AF6
:10123000434F4E463E0A00424F41524420535441D0
:10124000525453000A3C494E49543A25733E0054C7
:10125000455354000A70617273653A707265616D2E
:10126000626C65205041535300FF0101FF2563006C
:101270000A494F3A0A5741524E494E473A706172F5
:1012800073653A6E616D653A20636F756C64206EAC
:101290006F742066696E6420696E69742062797467
:1012A00065000A494F3A5741524E494E473A7061DC
:1012B0007273653A6E616D653A205B25733A2573EA
:1012C0005D20636F6D70617269736F6E2046414976
:1012D0004C454421000A70617273653A6E616D6518
:1012E0003A205B25733A25735D2050415353000A21
:1012F00070617273653A6E616D653A202575205B89
:1013000025755D0054455354000A70617273653A47
:101310007061796C6F61643A20646F776E6C6F6195
:10132000646564203C25733E205B257520427974FA
:1013300065735D000A70617273653A7061796C6FF4
:1013400061643A20676F74202575202825752F2544
:10135000752920666F722025730025755D203D3E3E
:10136000202575000A70617273653A636F6D6D6157
:101370006E643A205B25752E0053414D504C45520A
:101380003A4C4F4F50004545434F4E4600494F534E
:1013900059530030363A34353A3536004D617920AC
:1013A00020392032303230005254434C4F434B20CE
:1013B00044533332333100004E27D22B11241FBE49
:1013C000CFEFD1E2DEBFCDBF00E00CBF13E0A0E065
:1013D000B2E0E0E0F2E600E00BBF02C007900D9241
:1013E000A635B107D9F726E0A6E5B3E001C01D9206
:1013F000A430B207E1F719E0CDEDD9E000E006C076
:1014000021970109802FFE010E945630CC3DD10763
:1014100080E00807A9F70E944F280C94EF300C9445
:101420000000FC01A089B18982E08C93A485B58578
:101430001C92A685B78580E18C93108EA489B5890E
:1014400086E08C93A289B3898C9180618C93A28968
:10145000B3898C9188608C93A289B3898C918068C0
:101460008C930288F389E02D80818F7D808308959D
:10147000909166049111FCCF91E090936604909353
:1014800065042FEF2093640410926304260F2093C9
:1014900062049093610490916104880F892B80937A
:1014A0006104809160048130F9F4109260048091AD
:1014B00061048093BB008091BC0083FDF8CF85EC74
:1014C0008093BC00809166048130E1F380916304D5
:1014D000861710F460916304A0E4B4E0E0E2F4E065
:1014E00080E0861303C0089585EEEACF9D91919325
:1014F0008F5FF7CF20911F0481E0213208F044C0B4
:10150000809166048111FCCF80911E0492E090933B
:10151000660491E0909365049FEF909364041092A9
:10152000630420936204AEEFB3E0E0E4F4E090E003
:10153000291331C01092610490916104880F892BA6
:101540008093610480916004813049F510926004B9
:10155000809161048093BB008091BC0083FDF8CF33
:1015600085EC8093BC00809166048230E1F3809129
:1015700064048F3FB1F0809164048032A1F08091C7
:101580006404803391F084E01092FD0310921F04F4
:101590001092FC0308953D9131939F5FC9CF85EE72
:1015A000E0CF80E0F1CF82E0EFCF83E0EDCFAF92EC
:1015B000BF92CF92DF92EF92FF920F931F93CF9340
:1015C000DF936C017B018B01040F151FEB015E01A2
:1015D000AE18BF08C017D10759F06991D601ED9137
:1015E000FC910190F081E02DC6011995892B79F7C6
:1015F000C501DF91CF911F910F91FF90EF90DF9088
:10160000CF90BF90AF900895FC01538D448D252F4E
:1016100030E0842F90E0821B930B541710F0CF968C
:10162000089501970895FC01918D828D981761F0BE
:10163000A28DAE0FBF2FB11D5D968C91928D9F5FD5
:101640009F73928F90E008958FEF9FEF0895FC01B4
:10165000918D828D981731F0828DE80FF11D858D67
:1016600090E008958FEF9FEF0895FC01918D228DFA
:10167000892F90E0805C9F4F821B91098F7399277F
:10168000089587E694E0F1DF21E0892B09F420E05A
:10169000822F089584E095E0E8DF21E0892B09F4AA
:1016A00020E0822F0895FC01A48DA80FB92FB11D51
:1016B000A35ABF4F2C91848D90E001968F73992788
:1016C000848FA689B7892C93A089B1898C91837066
:1016D00080648C93938D848D981306C00288F3895F
:1016E000E02D80818F7D80830895EF92FF920F938C
:1016F0001F93CF93DF93EC0181E0888F9B8D8C8DBE
:1017000098131AC0E889F989808185FF15C09FB7B1
:10171000F894EE89FF896083E889F9898081837074
:10172000806480839FBF81E090E0DF91CF911F9123
:101730000F91FF90EF900895F62E0B8D10E00F5F44
:101740001F4F0F731127E02E8C8D8E110BC00FB61B
:1017500007FCFACFE889F989808185FFF5CFCE01B2
:10176000A2DFF2CFEB8DEC0FFD2FF11DE35AFF4FFF
:10177000F0829FB7F8940B8FEA89FB8980818062A1
:10178000D0CFCF93DF93EC01888D8823B1F0AA8965
:10179000BB89E889F9898C9185FD03C0808186FD2C
:1017A0000CC00FB607FCF7CF8C9185FFF2CF80817C
:1017B00085FFEDCFCE0177DFEACFDF91CF9108959E
:1017C00080E090E0892B21F065DF81110E9400000C
:1017D00080E090E0892B21F054DF81110E9400000D
:1017E00080E090E0892B49F080E090E0892B29F09F
:1017F0000E94000081110E94000080E090E0892B8F
:1018000049F080E090E0892B29F00E9400008111CE
:101810000C9400000895282F30E0F901E15FFE4E9E
:101820009491F901E153FE4E449127573E4EF90140
:101830002491222309F435C0992311F1915092315A
:10184000F8F4E92FF0E08827E75DF34F8F4F0C9411
:1018500056305A0C5E0C3B0C520C560C400C610C72
:10186000670C6B0C710C750C790C7F0C830C400CA5
:10187000870C8D0C910C809180008F778093800075
:10188000E22FF0E0EE0FFF1FEB5AFE4EA591B49150
:101890008FB7F894EC91611148C040954E234C935A
:1018A0008FBF0895809180008F7DE8CF8091800068
:1018B000877FE4CF84B58F7784BDE2CF84B58F7DF9
:1018C000FBCF8091B0008F778093B000D9CF80910B
:1018D000B0008F7DF9CF809190008F77809390003A
:1018E000CFCF809190008F7DF9CF80919000877F3E
:1018F000F5CF8091A0008F778093A000C1CF809119
:10190000A0008F7DF9CF8091A000877FF5CF8091D7
:1019100020018F7780932001B3CF809120018F7DAC
:10192000F9CF80912001877FF5CF4E2BB8CF3FB7FD
:10193000F8948091EE039091EF03A091F003B091A1
:10194000F10326B5A89B05C02F3F19F00196A11DF4
:10195000B11D3FBFBA2FA92F982F8827BC01CD01F9
:10196000620F711D811D911D42E0660F771F881F58
:10197000991F4A95D1F708958F929F92AF92BF9287
:10198000CF92DF92EF92FF924B015C01D0DF6B01AF
:101990007C01CDDF6C197D098E099F09683E73407B
:1019A00081059105B0F321E0821A9108A108B108E0
:1019B00088EEC80E83E0D81EE11CF11C811491044E
:1019C000A104B10431F7FF90EF90DF90CF90BF906A
:1019D000AF909F908F9008952FB7F8946091EA038D
:1019E0007091EB038091EC039091ED032FBF08956C
:1019F00085ED8093BC008091BC0084FDFCCF1092EB
:101A0000660408952091C403260F3327331F213223
:101A10003105ECF420916604FC0190E080E0243074
:101A200069F082E00895A091C4032191AC014E5564
:101A30005C4FA40FB52FB11D2C930196861798F318
:101A40008091C403680F6093C40380E0089581E02F
:101A50000895089508950895E091FB038091FA0395
:101A6000E81730F4F0E0E05EFB4F808190E00895ED
:101A70008FEF9FEF08959091FB038091FA032FEF72
:101A80003FEF981748F4E92FF0E0E05EFB4F20812C
:101A900030E09F5F9093FB03C90108958091FA03A2
:101AA0009091FB03891B990B0895CF92DF92EF92DF
:101AB000FF920F931F93CF93DF937C01CB018A0199
:101AC0002091FC03222389F0EB016B01C40ED51E8B
:101AD000CC15DD0561F06991D701ED91FC91019084
:101AE000F081E02DC7011995F3CF642F8BDFC8017A
:101AF000DF91CF911F910F91FF90EF90DF90CF90EA
:101B00000895CF93DF931F92CDB7DEB769832091FD
:101B1000FC032223F9F020911F04203258F021E029
:101B200030E0FC013383228390E080E00F90DF916E
:101B3000CF9108958091FD03E82FF0E0E250FC4F33
:101B4000998190838F5F8093FD0380931F0481E0D0
:101B500090E0ECCF61E0CE01019654DFF8CF90E049
:101B600080E00895FC0184890895FC0160897189F1
:101B7000828993890895089508950895089580E0CD
:101B80000895EF92FF920F931F93CF93DF93EC0191
:101B900069813881432F50E02A81822F90E0E7E964
:101BA000FBE021E0261730F47491870F911D2F5F21
:101BB0003196F8CF633018F0337009F401966DE672
:101BC00071E0469F9001479F300D569F300D1124C4
:101BD000215031094D5F5F4F569547955695479572
:101BE000240F351F280F391FA8E1B0E00E941930DB
:101BF0002B817B018C01E20EF11C011D111DA8013E
:101C00009701ACE3B0E00E940F302C817B018C0186
:101C1000E20EF11C011D111DA80197010E940F3059
:101C2000AB01BC019D81892F90E0B0E0A0E080581D
:101C30009C4BA249B74C8A019B01080F191F2A1F10
:101C40003B1FC901B801DF91CF911F910F91FF9008
:101C5000EF900895CF93DF93EC01BEDE60939E0377
:101C600070939F038093A0039093A103CE0189DF1B
:101C700060939A0370939B0380939C0390939D03BE
:101C8000DF91CF910895FC01908190539A3008F034
:101C900090E0818180532AE0929F800D1124089565
:101CA0008F929F92AF92BF92CF92DF92EF92FF926C
:101CB000CF93DF93EC016A017B0180E8C81A83E4CB
:101CC000D80A8DE6E80A88E3F80A8CE3882E912C7E
:101CD000A12CB12CC701B601A50194010E9434309A
:101CE0006D83CA01B901A50194010E9434306C834F
:101CF000C701B60120E13EE040E050E00E943430F0
:101D0000CA01B90128E130E040E050E00E943430DF
:101D10006B83C701B60120E831E541E050E00E9445
:101D20003430188263E97EEF8881982F937041E008
:101D300050E011F050E040E0FA01E359FE4F2E1759
:101D40003F0740F0FB01E41BF50B2E0F3F1F8F5F99
:101D50008883EACF81E0898389818C30A0F4482F81
:101D60004150550BFA01E956F44FE491911103C02B
:101D7000823009F4EF5FF0E02E173F0720F02E1BB2
:101D80003F0B8F5FE8CF2F5F2A83DF91CF91FF90CA
:101D9000EF90DF90CF90BF90AF909F908F9008957D
:101DA0000F931F93CF93DF9300D000D0CDB7DEB752
:101DB0008C01E7DEAB01BC01CE01019671DFF801B9
:101DC00090818981981314C091818A81981310C0E1
:101DD00092818B8198130CC093818C81981308C0D9
:101DE00094818D81981304C081E025819E812913FF
:101DF00080E026960FB6F894DEBF0FBECDBFDF9110
:101E0000CF911F910F910895CF92DF92EF92FF92A1
:101E10000F931F93CF93DF93EC0189DD009156035D
:101E20001091570320915803309159036B017C01A5
:101E3000C01AD10AE20AF30A970186010C8B1D8BA6
:101E40002E8B3F8B609356037093570380935803F8
:101E500090935903DF91CF911F910F91FF90EF90D5
:101E6000DF90CF900895CF92DF92FF920F931F9350
:101E7000CF93DF936C0181E08093FC0388E680932D
:101E80001E041092FD0310921F0460E081EA95E0A9
:101E900038DE30DB67E088E6EBDA1092FB038093F4
:101EA000FA0381EA95E0E7DD8F77282F30E094E0B0
:101EB000359527959A95E1F7922F990F990FC22F93
:101EC000C91BCC0FC80F81EA95E0D5DD9C0144E029
:101ED000359527954A95E1F72F703327922F990F63
:101EE000990FD22FD91BDD0FD80F81EA95E0C3DD02
:101EF0009C0154E0359527955A95E1F72F703327CB
:101F0000922F990F990F122F191B110F180F81EA99
:101F100095E0B1DD81EA95E0AEDD9C0164E03595A8
:101F200027956A95E1F72F703327922F990F990F14
:101F3000022F091B000F080F81EA95E09CDD9C0130
:101F400074E0359527957A95E1F72F703327922F16
:101F5000990F990FF22EF91AFF0CF80E81EA95E00D
:101F60008ADD9C01E4E035952795EA95E1F72F702D
:101F70003327922F990F990F291B220F820FF601F9
:101F80008083F18202831383D483C583C601DF91EA
:101F9000CF911F910F91FF90DF90CF90089581E036
:101FA0008093FC0388E680931E041092FD03109238
:101FB0001F046FE081EA95E0A4DD9CDA61E088E629
:101FC00057DA1092FB038093FA0381EA95E053CD30
:101FD0000895FF920F931F93CF93DF93EC0101E0DD
:101FE0000093FC0318E610931E041092FD03109258
:101FF0001F0460E081EA95E084DD2D818AE0F82EFF
:10200000822F6F2D0E942830682F660F680F660F91
:10201000620F81EA95E075DD2C81822F6F2D0E9481
:102020002830682F660F680F660F620F81EA95E00F
:1020300068DD2B81822F6F2D0E942830682F660F5C
:10204000680F660F620F81EA95E05BDD60E081EA70
:1020500095E057DD2A81822F6F2D0E942830682F4E
:10206000660F680F660F620F81EA95E04ADD2981ED
:10207000822F6F2D0E942830682F660F680F660F21
:10208000620F81EA95E03DDD2881822F6F2D0E944D
:102090002830682F660F680F660F620F81EA95E09F
:1020A00030DD28DA7CDFC82F0093FC0310931E0478
:1020B0001092FD0310921F046FE081EA95E021DD8C
:1020C0006C2F6F7781EA95E01CDDDF91CF911F9136
:1020D0000F91FF900FCAFC018489882311F0CB0176
:1020E00078CFCB01B7CDEF92FF920F931F93CF9391
:1020F000DF93EC0109900020E9F721978E01081B7E
:10210000190B29F16017110610F1EC018881082ED6
:10211000000C990B0E947A30892BC9F07E018FEF59
:10212000E81AF80AC00FD11FEC16FD06C1F0F7013E
:1021300001917F01002E000C110BC8010E947A3022
:10214000892B91F7005311090A30110568F380E0DB
:10215000DF91CF911F910F91FF90EF90089581E053
:10216000F7CF24E932E0FC0131832083848195811B
:10217000009711F00C94762C0895CF93DF93EC0127
:10218000F0DFCE01DF91CF910C94762C0C94762C5D
:10219000FC0182819381009711F00C94762C0895B4
:1021A000CF93DF93EC0188E892E0998388838E8156
:1021B0009F810E94762C8C859D850E94762C888537
:1021C00099850E94762C0A84DB85C02D209739F0F2
:1021D000CE01DEDFCE01DF91CF910C94762CDF9122
:1021E000CF910895CF93DF93EC01DADFCE01DF9139
:1021F000CF910C94762CCF92DF92EF92FF920F93B7
:102200001F93CF93DF93EB017B0124E0E20EF11CDF
:102210008B016C01C61AD70AC601800F911F0E945C
:10222000F92FF80181938F01EE15FF05A9F7CE0173
:10223000DF91CF911F910F91FF90EF90DF90CF90A2
:1022400008950F931F93CF93DF938C01EB010E94AE
:10225000F92F8883C80101960E94F92F8983CE0146
:10226000DF91CF911F910F9108950C94F92FFF9258
:102270000F931F93CF93DF938C01F62E80E390E0B2
:10228000F4DFD82F0A5F1F4FC0E0CD1751F0F801DF
:10229000819191918F010A96E8DFF81619F0CF5FCE
:1022A000F4CFCFEF8C2FDF91CF911F910F91FF9043
:1022B0000895EF92FF920F931F93CF93DF9300D077
:1022C00000D000D01F921F92CDB7DEB78C017A01EB
:1022D0004BE050E0CE0101960E940C2DCE010A96F3
:1022E000D2DCF8018083E981E154E33128F50E2E38
:1022F000000CFF0B8827E058FE4E8F4F0C94563091
:10230000CA119C119C11DE119C11C8119C119C11C9
:102310009C1193119C119C11D111DC11DA119C11AB
:102320009C119C11D8118A81813671F18B818E3676
:1023300069F187E0F8018183CE010596A4DCF801FC
:10234000828348E050E0B701CE0101960E940C2D37
:10235000CE01019698DCF8018383CE01049693DCCC
:10236000F8018483CE0107968EDCF80185832B96D5
:102370000FB6F894DEBF0FBECDBFDF91CF911F9196
:102380000F91FF90EF90089581E0D4CF86E0D2CFF7
:1023900082E0D0CF8B81823711F088E0CBCF84E010
:1023A000C9CF8B81823711F085E0C4CF83E0C2CFE3
:1023B00089E0C0CF8AE0BECF8BE0BCCF8CE0BACF43
:1023C000AF92BF92CF92DF92EF92FF920F931F9343
:1023D000CF93DF93CDB7DEB7C254D1090FB6F894CF
:1023E000DEBF0FBECDBFFC016481758143E350E0C9
:1023F000CE0101960E940C2D10E0F12CE12C8B8176
:10240000181718F58CECC82E88E0D82E00E094E25E
:10241000A92EB12CAC0EBD1EA10EB11CF501808100
:1024200080130BC04FE050E0B601CE01C4960E946D
:102430000C2D8DA99EA9E80EF91E0F5FFFE0CF0EAF
:10244000D11C0E3159F71F5FDACFC701CE5BDF4FCA
:102450000FB6F894DEBF0FBECDBFDF91CF911F91B5
:102460000F91FF90EF90DF90CF90BF90AF900895C5
:10247000EF92FF921F93CF93DF93EC01162FE8802A
:10248000F9809EDFE816F90698F4EA81FB818881DD
:102490009981E80FF91F10838881998101969983AA
:1024A000888381E0DF91CF911F91FF90EF90089595
:1024B00080E0F8CFCF93DF93CDB7DEB7E3970FB6C9
:1024C000F894DEBF0FBECDBFFC016481758143E38C
:1024D00050E0CE0101960E940C2D89819A81E396ED
:1024E0000FB6F894DEBF0FBECDBFDF91CF91089538
:1024F000CF93DF93EC01DEDF8E3125E09207A9F068
:1025000060F4853F21E09207F9F020F08551954075
:10251000029758F090E080E01BC0843A26E09207D2
:1025200021F038F4823F9540A9F78A819B81089673
:102530000FC0803D27E09207C1F380349B4051F7E4
:102540008A819B81409604C08A819B81885B9F4FD2
:10255000DF91CF910895CF93DF93EC01ABDF8E3104
:1025600025E0920791F030F48531954071F090E0CC
:1025700080E00EC0823F25E0920739F080349B4016
:10258000B1F78A819B81419603C08A819B8109961C
:10259000DF91CF910895CF93DF93EC018BDF8F3FD5
:1025A00028E0920728F58D3F28E09207E0F48E316D
:1025B00025E09207C1F060F4853F21E09207C9F160
:1025C00020F085519540029770F090E080E00DC0BA
:1025D000843A26E0920739F0803D27E0920719F00F
:1025E000823F954091F78A819B81DF91CF91089539
:1025F000883B2BE09207B9F360F48A3D29E092070B
:1026000091F38C382AE0920771F386309940E9F60D
:10261000EACF893823E1920761F020F4813B9D40A5
:1026200011F3D3CF8A3823E19207E9F20696D9F263
:10263000CCCF8A819B81805C9F4FD7CFCF93DF9394
:10264000EC0138DF813D27E0920789F048F48F30B4
:10265000910581F0893E934051F090E080E00EC0FA
:10266000853D27E0920719F080349B40B1F78A81BD
:102670009B8104C08A819B81805C9F4FDF91CF91B9
:102680000895FF920F931F93CF93DF93EC01F62EE3
:1026900008811981C8010E94F92FF81621F06F2DC9
:1026A000C8010E940130CE01DF91CF911F910F919F
:1026B000FF900895AF92BF92CF92DF92EF92FF9278
:1026C0000F931F93CF93DF931F921F92CDB7DEB767
:1026D0008B016B0124E0C20ED11C7B015C01A61AA8
:1026E000B70AC5018E0D9F1D9A838983F7016191F9
:1026F0007F01CE010196C5DFEC14FD0491F7C801FE
:102700000F900F90DF91CF911F910F91FF90EF905D
:10271000DF90CF90BF90AF9008954F925F926F92ED
:102720007F928F929F92AF92BF92CF92DF92EF9261
:10273000FF920F931F93CF93DF9300D000D01F928F
:102740001F92CDB7DEB75C014B01512C98E0492EAA
:10275000CE0101966C0180E390E087DD581648F5C4
:10276000F601842D11928A95E9F7E52DF0E0339674
:10277000EE0FFF1FEA0DFB1D00811181780192E031
:10278000E90EF11C3601065F1F4FC7010E94F92FA9
:10279000F30181933F01FFEFEF1AFF0AE016F10604
:1027A000A1F7B601C4010E94A230892B21F05394F5
:1027B000D2CF55245A94852D28960FB6F894DEBFB3
:1027C0000FBECDBFDF91CF911F910F91FF90EF9082
:1027D000DF90CF90BF90AF909F908F907F906F9041
:1027E0005F904F9008950F931F93CF93DF9300D086
:1027F00000D0CDB7DEB7182F092FE82FF92F86E1CB
:10280000DF011D928A95E9F7CE01019649DA8E81A2
:102810001F928F938D811F928F938C811F928F9324
:102820008B811F928F938A811F928F93898190E071
:102830008053984F9F938F9382EA92E09F938F9358
:102840000F931F930E94C0300FB6F894DEBF0FBEE7
:10285000CDBF26960FB6F894DEBF0FBECDBFDF9179
:10286000CF911F910F9108950F931F93CF93DF93F3
:10287000CDB7DEB79E01285F3F4FF90141915191DD
:102880009F010AE513E080E4F80111928A95E9F7C7
:1028900060E470E0C8010E94252DF801019000203D
:1028A000E9F7AF014B555340B80187E694E00E9429
:1028B000D70ADF91CF911F910F9108954F925F92A8
:1028C0006F927F928F929F92AF92BF92CF92DF9240
:1028D000EF92FF920F931F93CF93DF93CDB7DEB7A5
:1028E000C155D1090FB6F894DEBF0FBECDBF80E150
:1028F0008E010F5F1F4FF801982F11929A95E9F7FB
:102900006E01E1E1CE0ED11CF601982F11929A953D
:10291000E9F77E01E1E2EE0EF11CF70111928A95D2
:10292000E9F760E17CE0C8010E941E2D68E07CE0D0
:10293000C6010E941E2D6FEF7BE0C7010E941E2D75
:10294000B12CA12CF12CE12C24EE822E2BE0922E26
:102950001F930F93FF92EF929F928F9285DF0F90BC
:102960000F900F900F900F900F90D12CC12CF80169
:10297000EC0DFD1D6081C6018A0D9B1D9AAB89ABD4
:10298000CE01C1967EDEFFEFCF1ADF0A80E1C816C6
:10299000D10469F79FEFE91AF90A005F1F4FE0E1E0
:1029A000AE0EB11CF3E0EF16F10491F665E080E3A2
:1029B00090E00E940130B12CA12CF12CE12C8BEC89
:1029C000882E8BE0982E9AE0492E512C612C712C88
:1029D000FF92EF929F928F9247DF0F900F900F9090
:1029E0000F90D12CC12CC5018C0D9D1D3EDC282FD4
:1029F00030E050E040E062961FAE629701E310E0E5
:102A00000C0F1D1F005E1F4FCA01B901A3019201E7
:102A10000E943430605DF80162938F012115310509
:102A20004105510589F7309761F001900020E9F7E1
:102A30003197AF01401B510BB80184E095E00E9433
:102A4000D70AFFEFCF1ADF0A80E1C816D10459F682
:102A50009FEFE91AF90AE0E1AE0EB11CF3E0EF16C0
:102A6000F10409F0B5CF80E390E0FFDB1F928F9374
:102A700085EB9BE09F938F93F7DE0F900F900F9065
:102A80000F90CF5ADF4F0FB6F894DEBF0FBECDBF09
:102A9000DF91CF911F910F91FF90EF90DF90CF903A
:102AA000BF90AF909F908F907F906F905F904F906E
:102AB000089526E432E0FC013183208382EA9BE022
:102AC0009F938F93D1DE0F900F900895CF93DF9354
:102AD000EC01EFDFCE01DF91CF910C94762C2CE549
:102AE00032E0FC0131832083E4CFCF93DF93EC010C
:102AF000F6DFCE01DF91CF910C94762C22E732E005
:102B0000FC0131832083EBCFCF93DF93EC01F6DF21
:102B1000CE01DF91CF910C94762CCF92DF92EF9281
:102B2000FF920F931F93CF93DF93CDB7DEB7C357B9
:102B3000D1090FB6F894DEBF0FBECDBF8C016B017B
:102B4000FC011182108213821282158214828AE3A0
:102B5000E82E81E0F82E43E350E0B701CE018F5B11
:102B60009F4F0E940C2D23968EAD9FAD23978C1501
:102B70009D05D1F5F801F582E482C80121DC61E010
:102B800070E00E945E30F80193838283C80118DCF4
:102B9000F82EE92EF801648175816D5F7F4F8E01FB
:102BA0000F5F1F4FC8010E941E2DEF92FF921F93CF
:102BB0000F9384E191E09F938F9356DE0F900F90D7
:102BC0000F900F900F900F90CD58DF4F0FB6F894E5
:102BD000DEBF0FBECDBFDF91CF911F910F91FF9050
:102BE000EF90DF90CF900895F3E3EF0EF11C8CECA3
:102BF000E81688E0F80609F0AECFDF92CF9284EEB7
:102C000090E09F938F9330DE8AE391E0F801958303
:102C100084830F900F900F900F90D6CF2F923F92FA
:102C20004F925F926F927F928F929F92AF92BF92DC
:102C3000CF92DF92EF92FF920F931F93CF93DF9388
:102C4000CDB7DEB763970FB6F894DEBF0FBECDBF2A
:102C500035DE8CE291E0A0E0B0E08C879D87AE8706
:102C6000BF87BE01645F7F4F81E390E023DD88E290
:102C700090E0A0E0B0E08C879D87AE87BF87BE0163
:102C8000645F7F4F85E390E015DD87E7282E8FE0B6
:102C9000382ED12CC12C99E3E92EF12C9E012F5F07
:102CA0003F4F490124E6422E512C612C712CCA8AD7
:102CB000DB8A4BE050E0B101C4010E940C2D86E09C
:102CC00090E00E94DA2B8C016A857B8526DFF98AE9
:102CD000E88A6A85CE014096D4DCC7010196998BBB
:102CE000888B6B85CE014096CCDC32E0E30EF11C84
:102CF0008B858F938A858F93DF92CF928DE59FE0AE
:102D00009F938F93B1DD89851F928F939F928F92AE
:102D1000EEE4FFE0FF93EF93A7DDC8013CDCB401D4
:102D20000E94AB30C801E4DB2985DC012C93C8018B
:102D300012DC0FB6F894DEBF0FBECDBF892B41F079
:102D4000C80109DCDC014D925D926D927C92139773
:102D5000C801B0DB823F9540A9F4F80182819381DC
:102D6000419681F0C801A6DBF0E0E0E0823F9540AB
:102D700029F4D8011296ED91FC917196408251820E
:102D800062827382B12CA12CC8011ADBA816B90685
:102D900098F4D8011296ED91FC91EA0DFB1D60812B
:102DA000F98AE88ACE0140966CDCBFEFEB1AFB0A89
:102DB000EFEFAE1ABE0AE8CFC8019ADBDC01BC9087
:102DC000C801E9DB1F92BF929F938F93BB89BF938A
:102DD000EA89EF932DE23FE03F932F9345DD0FB655
:102DE000F894DEBF0FBECDBF0115110529F0C80153
:102DF000CFD9C8010E94762CBFEFCB1ADB0AEBE0DB
:102E00002E0E311CF5E0CF16D10409F050CF10E0A2
:102E100000E0C701800F911F998B888B60E0CE0185
:102E200040962FDC0F5F1F4F0436110591F7639614
:102E30000FB6F894DEBF0FBECDBFDF91CF911F91CB
:102E40000F91FF90EF90DF90CF90BF90AF909F9049
:102E50008F907F906F905F904F903F902F9008954C
:102E60000F931F93CF93DF93EC018B01009709F130
:102E700021DB80179107C1F4CE01A2DAAC0170E02A
:102E800060E08A819B810E949B301982188280E8D1
:102E90009BE09F938F93E8DC0F900F90CE01DF9122
:102EA000CF911F910F910895CE0172D9CE010E944A
:102EB000762C86E090E00E94DA2BEC01B8012DDE42
:102EC0008BE89BE0E6CF0F931F93CF93DF93EC014A
:102ED00086E090E00E94DA2B8C0170E060E01DDE5D
:102EE0001B870A878EE89AE09F938F93BDDC61E091
:102EF00070E084E090E00E945E309F838E8361E00A
:102F000070E080E190E00E945E309D878C8762E0F7
:102F100070E081E090E00E945E30998788870F9092
:102F20000F90DF91CF911F910F9108956F927F9233
:102F30008F929F92AF92BF92CF92DF92EF92FF92C9
:102F40000F931F93CF93DF93CDB7DEB7C058D1094E
:102F50000FB6F894DEBF0FBECDBF7C018B016E01B2
:102F600081E4C80ED11C6BEC7AE0C6010E941E2DD4
:102F7000F70180819181A281B3810196A11DB11DCC
:102F800080839183A283B3830115110509F491C055
:102F9000C80116DA61E070E048960E945E307C015C
:102FA00044E050E067EC7AE00E940C2D5701F4E019
:102FB000AF0EB11C80E1F601D50101900D928A950A
:102FC000E1F7C80177DA782E692EF80164817581FE
:102FD0006D5F7F4FCE0101964C010E941E2D6F92B6
:102FE0007F92BF92AF929F928F92DF92CF9284EAAC
:102FF0009AE09F938F9338DC81E0F701848BC801BE
:1030000059DAF701968B858BC801DAD9F80162810C
:103010007381AC01C70147960E948130C801D0D9A5
:103020008E0D9F1DFC01178A8CE99AE09F938F9368
:103030001BDCC801C5D948966C010FB6F894DEBFF9
:103040000FBECDBF10E000E084E095E00C151D053B
:10305000B0F40E94040B02975CF0F701E00FF11F3F
:10306000608184E095E00E94750B0F5F1F4FECCFED
:1030700065E070E080E090E00E94BC0CE5CF0E942B
:10308000C10BC701C058DF4F0FB6F894DEBF0FBEAB
:10309000CDBFDF91CF911F910F91FF90EF90DF9007
:1030A000CF90BF90AF909F908F907F906F900C9437
:1030B000762CC058DF4F0FB6F894DEBF0FBECDBFE1
:1030C000DF91CF911F910F91FF90EF90DF90CF9004
:1030D000BF90AF909F908F907F906F9008953F9298
:1030E0004F925F926F927F928F929F92AF92BF9218
:1030F000CF92DF92EF92FF920F931F93CF93DF93C4
:10310000CDB7DEB7C45DD1090FB6F894DEBF0FBEF0
:10311000CDBF86E090E00E94DA2B8C0169EE73E06F
:10312000FCDC6BE77BE0CE018F579F4F0E941E2D8A
:10313000BE016F577F4FCE018F539F4F0E94AB3020
:10314000C8017CDABE016F537F4F0E94AB3063E74A
:103150007BE0CE018F5B9F4F0E941E2DBE016F5BF7
:103160007F4FCE018F539F4F0E94AB30C801A2D931
:103170008B3B2BE0920758F4893BEBE09E0708F06D
:1031800075C0893E934059F090E080E00CC0813BCF
:103190009D40D1F7F80182819381089604C0F8011F
:1031A000828193814096BE016F537F4F0E94AB3066
:1031B0006AE67BE0CE0101960E941E2DBE016F5F84
:1031C0007F4FCE018F539F4F0E94AB30C80172D901
:1031D000893BFBE09F0709F44DC08A3B2BE0920737
:1031E00009F448C0893E934009F049C0F801828142
:1031F00093818096BE016F537F4F0E94AB30C80110
:1032000059D9F12CE12C893E934031F4F801E28048
:10321000F380F0E3EF0EF11C80E390E026D8F70195
:103220008083B8018091DD059091DE057FDE80E32B
:1032300090E01BD81F928F938DE49BE09F938F9318
:1032400013DB6DEE73E0C8010BDE8C0133D90F90F8
:103250000F900F900F908D3EF3E09F0799F0853D02
:10326000974009F4C3C0F12CE12C0FC0F801828112
:10327000938199CFF801828193814096BBCF90E0F2
:1032800080E0B8CFF801E280F380BE016F527F4F3B
:1032900081E390E00E94FB10CF52DF4F888199813B
:1032A000AA81BB81C15DD040F70180839183A28355
:1032B000B383C801FFD8F12CE12C8D3E934031F44B
:1032C000F801E280F380F4E0EF0EF11CBE016F52D2
:1032D0007F4F85E390E00E94FB10CF52DF4F888143
:1032E0009981AA81BB81C15DD040F7018083918320
:1032F000A283B38380E390E00E9435111F928F93E5
:1033000080E39BE09F938F93AFDA0F900F900F9025
:103310000F90312C90ED492E9AE0592E29E1622E22
:103320002BE0722E3EE0A32E3BE0B32E48E0842E2D
:103330004BE0942E80E390E00E943511381608F09F
:1033400073C0CF52DF4F19821882C15DD04080E335
:1033500090E00E943511E32CF12C381608F05AC089
:10336000EE0CFF1CC7018D549A4F7C01BE016F52B9
:103370007F4FFC01808191810E942111CE52DF4F4D
:103380008881C25DD0408F93CF52DF4F8881C15D6D
:10339000D0408F937F926F9267DACF52DF4F688170
:1033A0007981C15DD040C8015BDD8C01BF92AF92D5
:1033B0005BDA0F900F900F900F900F900F90D12C21
:1033C000C12CC8010E94E011C816D906B0F4F7015B
:1033D0008081918102968C0D9D1D0E943511682F70
:1033E000C80146D8FFEFCF1ADF0AEBCFF801E28021
:1033F000F380F0E1EF0EF11C48CF9F928F9234DA08
:103400000F900F90B8018091DD059091DE058EDD63
:10341000339490CF1F923F925F924F9225DA0F9094
:103420000F900F900F90EECF0115110531F0C801EC
:103430000E94C810C8010E94762CCC52DF4F0FB6F4
:10344000F894DEBF0FBECDBFDF91CF911F910F91DA
:10345000FF90EF90DF90CF90BF90AF909F908F90B4
:103460007F906F905F904F903F900895AF92BF9282
:10347000CF92DF92EF92FF920F931F93CF93DF9340
:103480001F921F92CDB7DEB78C016A0146D990E03A
:103490000396880F991F800F911FFC0100811181F5
:1034A0007801F2E0EF0EF11C5601065F1F4FF501A7
:1034B00061915F01FA82E982CE010196E2D8FFEFC5
:1034C000EF1AFF0AE016F10691F709DE81E00F908E
:1034D0000F90DF91CF911F910F91FF90EF90DF90B0
:1034E000CF90BF90AF900895CF92DF92EF92FF926E
:1034F0000F931F93CF93DF931F921F92CDB7DEB729
:103500007C018A010AD990E00396880F991F8E0DDD
:103510009F1DDC01CD90DC90B2E0CB0ED11CF12CD4
:10352000E12CC8010E94E011E816F90698F4D801D0
:103530001296ED91FC91EE0DFF1D6081C7018C0D7F
:103540009D1D9A838983CE0101969BD8BFEFEB1A0C
:10355000FB0AE7CFC4DD81E00F900F90DF91CF91A0
:103560001F910F91FF90EF90DF90CF9008958F9271
:103570009F92BF92CF92DF92EF92FF920F931F9391
:10358000CF93DF931F921F92CDB7DEB78C016B01F3
:1035900080E390E00E943511B82EE82FF0E03396DA
:1035A000EE0FFF1FE00FF11FE080F180C6010E94C7
:1035B0005A12992EFA82E982682FCE01019661D8BB
:1035C000C70101969A838983692DCE01019659D846
:1035D00082E0E80EF11C912C812CC6010E94E011C2
:1035E0008816990698F4D6011296ED91FC91E80D93
:1035F000F91D6081FA82E982CE01019642D8BFEFBF
:10360000EB1AFB0AEFEF8E1A9E0AE7CFB3946B2DED
:1036100080E390E00E94013080E390E00E94351149
:10362000E82FF0E03396EE0FFF1FE00FF11FF1825D
:10363000E082C6010E947812DC01FC90C6010E9463
:10364000CB121F92FF929F938F9387E09EE09F93F0
:103650008F930AD91F92BF9280EF9DE09F938F9323
:1036600003D90A5F1F4F0FB6F894DEBF0FBECDBF60
:10367000F12C9CEEC92E9DE0D92EFB1488F4D801C4
:103680008C9111969C910E5F1F4F9F938F93DF92A9
:10369000CF92EAD8F3940F900F900F900F90EDCF48
:1036A00088EE9DE09F938F93DFD819DD81E00F9026
:1036B0000F900F900F90DF91CF911F910F91FF907E
:1036C000EF90DF90CF90BF909F908F900895AF9232
:1036D000BF92CF92DF92FF920F931F93CF93DF930E
:1036E000F82E6B01EA01590161E070E080E490E09E
:1036F0000E945E308C019501AE0160E470E00E9492
:10370000252D86E090E00E94DA2BEC016FE070E05E
:1037100004DACE010E945A120F97E1F48A819B814C
:10372000B8010E94AB30CE010E941E13B6010E9468
:10373000AB30CE010E945A12813D27E0920709F476
:1037400040C058F48A309105B9F00F97A9F1F0E024
:10375000E0E014C090E080E0E3CF8A3B2BE09207EA
:1037600039F0813B2DE0920781F1893B9B4079F74D
:10377000EA81FB81B09602C0EA81FB818091EF056E
:103780009091F005A091F105B091F20580839183AD
:10379000A283B383CE010E945A128C382AE092078A
:1037A00009F446C0B0F48F309105F1F0853F9140A7
:1037B000D1F1F0E0E0E01CC0EA81FB81E05BFF4F6B
:1037C000DDCFEA81FB817096D9CFEA81FB817896C3
:1037D000D5CF893B2BE0920719F08A3B9B4049F7F4
:1037E000EA81FB81B49604C0EA81FB81EC5AFF4F69
:1037F000F082BE018091DD059091DE0597DBC80166
:103800000E94762C2097C1F0CE010E94C810CE01F4
:10381000DF91CF911F910F91FF90DF90CF90BF90DC
:10382000AF900C94762CEA81FB81E75BFF4FE0CFF1
:10383000EA81FB813896DCCFDF91CF911F910F9108
:10384000FF90DF90CF90BF90AF900895CF93DF931C
:10385000CDB7DEB7C054D1090FB6F894DEBF0FBEA6
:10386000CDBF63E77BE0CE0101960E941E2D9E0135
:10387000275B3F4F29964EAD5FAD2997BE016F5F25
:103880007F4F27968FAD279722DFC05CDF4F0FB6A3
:10389000F894DEBF0FBECDBFDF91CF910895AF92F8
:1038A000BF92CF92DF92EF92FF920F931F93CF932D
:1038B000DF93CDB7DEB7C058D1400FB6F894DEBF66
:1038C0000FBECDBF8C017B01DC01ED91FC9101901D
:1038D000F081E02D1995D82E882309F475C0B2E047
:1038E0008B1709F1E3E08E1709F446C0F1E08F135E
:1038F00018C08AE69EE09F938F9380EC92E09F939E
:103900008F93D80115968C9115978F9314968C915F
:103910008F9382E08F939ADF0FB6F894DEBF0FBECD
:10392000CDBF80E08BC0D70114966D917C916D5F07
:103930007F4F5E01B1ECAB0EB11CC5010E941E2D84
:103940007E01E1E8EE0EF11C6AE67EE0C7010E940E
:103950001E2DBF92AF92FF92EF9283ED92E09F9364
:103960008F93D80115968C9115978F9314968C91FF
:103970008F93DF926BDFD0CFD70114966D917C913E
:103980006D5F7F4F7E01B1E4EB0EF11CC7010E9419
:103990001E2D6AE67EE0FE0131966F01CF010E9486
:1039A0001E2DFF92EF92DF92CF9287EE92E09F93CF
:1039B0008F93D80115968C9115978F9314968C91AF
:1039C0008F9382E08F93D6CFC7010E947812DC01DB
:1039D000BC906B2DC8010E9437118F3F61F1F70138
:1039E000648175816D5F7F4F6E01FFEBCF1AFEEF33
:1039F000DF0AC6010E941E2D7E0181E0E80EF81E3E
:103A00006AE67EE0C7010E941E2D1F92BF92DF92E0
:103A1000CF92FF92EF928BE093E09F938F93D80128
:103A200015968C9115978F9314968C918F9382E0B5
:103A30008F930CDF71CFB701C80199DDC058DE4FFD
:103A40000FB6F894DEBF0FBECDBFDF91CF911F91AF
:103A50000F91FF90EF90DF90CF90BF90AF900895BF
:103A6000CF93DF93CDB7DEB7C054D1090FB6F8942A
:103A7000DEBF0FBECDBF29966EAD7FAD2997CE01BB
:103A800001960E941E2D9E01255B3F4F2B964EAD49
:103A90005FAD2B97BE016F5F7F4F27968FAD279746
:103AA00016DEC05CDF4F0FB6F894DEBF0FBECDBF91
:103AB000DF91CF9108958F929F92AF92BF92CF9254
:103AC000DF92EF92FF920F931F93CF93DF93CDB7C7
:103AD000DEB72C970FB6F894DEBF0FBECDBF8C01BA
:103AE000CE0107960E94330F8F81843608F045C0BF
:103AF000CE0107960E94D00E882309F43EC0CE0165
:103B000007960E94C10DF801608B718B828B938B9D
:103B1000848981111FC081E0848B86819781009701
:103B200011F00E94762CF801178216821092F5058A
:103B30001092F6058DEF90E19F938F9383818F9381
:103B400082818F9381E08F938BDF0F900F900F9086
:103B50000F900F902C960FB6F894DEBF0FBECDBF1E
:103B6000DF91CF911F910F91FF90EF90DF90CF9059
:103B7000BF90AF909F908F900895F801848988231B
:103B800049F1148A81E090E00E94DA2BF8019783D2
:103B900086834089518962897389CE0101960E948A
:103BA000500ECE0101960E942A0E83E08093F50507
:103BB0001092F60525EE30E13F932F93F8019381A3
:103BC0009F9392819F938F934BDF0F900F900F9055
:103BD0000F900F900E94EC0C80909E0390909F039A
:103BE000A090A003B090A103681979098A099B09E4
:103BF00028EE33E040E050E00E94343069017A0161
:103C0000A8EEB3E00E940F30860E971EA81EB91EC4
:103C100080929E0390929F03A092A003B092A10372
:103C200040919A0350919B0360919C0370919D0376
:103C30004C0D5D1D6E1D7F1D40939A0350939B0399
:103C400060939C0370939D03CE0101960E94500ED9
:103C5000CE0101960E94C10DF801608B718B828BA1
:103C6000938B78CFCF93DF93EC010E94EC0CAB01E8
:103C7000BC018C859D85AE85BF858C599F4FAF4F0C
:103C8000BF4F84179507A607B70758F50E94EC0C9D
:103C90006C877D878E879F87CE010DDF8C89811190
:103CA00020C00E94EC0CAB01BC0188859985AA85D7
:103CB000BB85805D9A48AF4FBF4F84179507A60715
:103CC000B70778F40E94EC0C688779878A879B870E
:103CD000E881F9810480F581E02DCE01DF91CF915B
:103CE0001994DF91CF9108958F929F92AF92BF92D6
:103CF000DF92EF92FF920F931F93CF93DF93CDB795
:103D0000DEB7CC55D1090FB6F894DEBF0FBECDBFDC
:103D10007C01FC01148A628173818E010F5F1F4F49
:103D2000C8010E941E2D1F930F9385ED90E19F9374
:103D30008F930E94341440EC50E169EC70E1CE01A5
:103D4000895A9F4F0E945911CE01895A9F4F0E9454
:103D5000C10D0F900F900F900F90F7018088918800
:103D6000A288B388005C1F4F86169706A806B9067E
:103D700050F44BEA50E164EB70E1C8010E94591124
:103D8000C8010E94C10D46E950E16FE970E1C80128
:103D90000E945911C8010E94C10D4B015C01109293
:103DA000FB031092FA031092FD0310921F0410926D
:103DB0006604DD24D394D09265041092600461E01F
:103DC00084E10E940B0C61E085E10E940B0C809164
:103DD000B9008E7F8093B9008091B9008D7F809368
:103DE000B90088E48093B80085E48093BC0089E240
:103DF0009DE09093C3038093C2038AE29DE0909379
:103E0000C7038093C603D092FC0388E680931E0408
:103E10001092FD0310921F040E947A0A811139C08A
:103E20000E94CF0F90E0880F892F881F990B892B54
:103E3000C9F0B501A401C8010E94500EC8010E943A
:103E4000E90F88E690E19F938F93F70183818F9329
:103E500082818F9383E08F9303DE0F900F900F90FA
:103E60000F900F90C8010E94330FF80180818436B3
:103E700028F4C8010E94D00E811165C0B501A401CB
:103E8000C8010E94500EC8010E94E90F8AE390E128
:103E900002C08CEF9FE09F938F93F70183818F93F4
:103EA00082818F9383E08F93DBDD0F900F900F90D3
:103EB0000F900F90F7014089518962897389C80179
:103EC0000E94F31380EE9FE09F938F930E9434141F
:103ED0001F930F938EEA9FE09F938F930E94341459
:103EE00081E090E00E94DA2BF70197838683408976
:103EF000518962897389CE01895A9F4F0E94500E61
:103F0000CE01895A9F4F0E942A0E83E08093F505C7
:103F10001092F6050F900F900F900F900F900F904A
:103F2000C45ADF4F0FB6F894DEBF0FBECDBFDF918E
:103F3000CF911F910F91FF90EF90DF90BF90AF90C6
:103F40009F908F90089581E0F701848BC701B3DDC6
:103F5000F7014089518962897389C8010E94F3136E
:103F60001F930F938DE190E19F938F930E943414E0
:103F70000F900F900F900F90D3CFEF92FF920F936F
:103F80001F93CF93DF93EC018B017A010E948D1375
:103F90008F3F09F51F930F938DEB9EE09F938F93B7
:103FA00081EB9EE09F938F938D818F938C818F9374
:103FB00082E08F9355DD8DB79EB709960FB6F894C2
:103FC0009EBF0FBE8DBF80E0DF91CF911F910F91FB
:103FD000FF90EF90089568E0C7010E94731081116F
:103FE0001AC0FF92EF928DEB9EE09F938F9388ED26
:103FF0009EE09F938F938D818F938C818F9382E02E
:104000008F932EDD8DB79EB709960FB6F8949EBF9D
:104010000FBE8DBFD8CFA701B801CE01DF91CF91E0
:104020001F910F91FF90EF9021CACF92DF92EF92F4
:10403000FF920F931F93CF93DF93EC018B017A01D3
:104040000E948D13C82E8FEFC81223C01F930F93A9
:104050008FE89EE09F938F938DE99EE09F938F93CF
:104060008D818F938C818F9382E08F93F9DCEDB7F4
:10407000FEB739960FB6F894FEBF0FBEEDBF80E0D5
:10408000DF91CF911F910F91FF90EF90DF90CF9034
:104090000895E881F9810190F081E02DB701CE010A
:1040A00019958111ECCFC7010E947812FC01D080D4
:1040B0006D2DCE010E9437118F3FE1F0C816D1F06F
:1040C0001F92DF928FE89EE09F938F9388E79EE098
:1040D0009F938F938D818F938C818F9382E08F93A9
:1040E000BFDC8DB79EB709960FB6F8949EBF0FBE82
:1040F0008DBFC5CFA701B801CE01DF91CF911F9130
:104100000F91FF90EF90DF90CF90EEC9EF92FF926A
:104110000F931F93CF93DF93CDB7DEB7C054D10970
:104120000FB6F894DEBF0FBECDBF7C018B016115C9
:104130007105B9F481EC9DE09F938F930E94341434
:104140000F900F9081E0C05CDF4F0FB6F894DEBF98
:104150000FBECDBFDF91CF911F910F91FF90EF90D8
:104160000895CB010E94E011892B31F58AE99DE089
:104170009F938F930E943414F801648175816D5F61
:104180007F4F8E010F5F1F4FC8010E941E2D1F938E
:104190000F9389E79DE09F938F93F70185818F931C
:1041A00084818F9382E08F935BDC0FB6F894DEBF3F
:1041B0000FBECDBF82E0C7CF80E0C5CF0F931F9366
:1041C000CF938B01A3DFC82F81111BC0C8010E94B0
:1041D0005A12853125E09207A1F0863125E0920739
:1041E00081F08E3125E0920761F0823F25E0920751
:1041F00041F0843A26E0920721F0803D974009F093
:10420000C3E08C2FCF911F910F9108952F923F9271
:104210004F925F926F927F928F929F92AF92BF92D6
:10422000CF92DF92EF92FF920F931F93CF93DF9382
:10423000CDB7DEB7C254D1090FB6F894DEBF0FBEBA
:10424000CDBF6C018B01FC017783668380E390E036
:104250000E943511282E23961FAE1EAE23973601DD
:10426000F8E06F0E711CB12CA12C312C482E512C72
:10427000321409F467C0BE016F5B7F4FC8010E9412
:1042800021111F930F9323968FAD23978F9322961F
:104290008FAD22978F931F922F92BF92AF922DE4F2
:1042A0003DE03F932F930E9434140E5F1F4F86E032
:1042B00090E00E94DA2B7C0123966EAD7FAD2397B0
:1042C0000E948D15C7010E94E0110FB6F894DEBF61
:1042D0000FBECDBF892B09F05CC0F70164817581E9
:1042E0006D5F7F4F8E010F5F1F4FC8010E941E2D13
:1042F0001F930F9323968FAD23978F9322968FADA5
:1043000022978F9387E29DE09F938F93F60185819B
:104310008F9384818F9383E08F93A2DB5F924F9280
:104320001F923F9283EE9CE09F938F930E943414E0
:10433000632D80E390E00E9401300FB6F894DEBF59
:104340000FBECDBF8DEB9CE09F938F930E943414E2
:104350000F900F90F12C09EB1CE080E390E00E949D
:1043600035118F1508F454C0EF2DF0E03396EE0FA1
:10437000FF1FEC0DFD1D81818F9380818F931F9313
:104380000F930E943414F3940F900F900F900F909E
:10439000E4CF912C812CC7010E94E0118816990668
:1043A00068F4C8010E943511682FC7010E943812B5
:1043B0000F5F1F4F3FEF831A930AEDCFC7010E9493
:1043C0007812FC019080C7010E94CB121F929F922D
:1043D0009F938F9320E13DE03F932F930E943414ED
:1043E000F301019311933F010F900F900F900F90E5
:1043F0000F900F90E114F10431F0C7010E94C81032
:10440000C7010E94762C3394FFEFAF1ABF0A30CF5A
:1044100086EB9CE09F938F930E9434140F900F9033
:10442000CE5BDF4F0FB6F894DEBF0FBECDBFDF917E
:10443000CF911F910F91FF90EF90DF90CF90BF90A1
:10444000AF909F908F907F906F905F904F903F9034
:104450002F9008957F928F929F92AF92BF92CF92AA
:10446000DF92EF92FF920F931F93CF93DF9300D0D1
:104470001F92CDB7DEB78C01F62EE72E80E390E0D9
:104480000E943511782E6F2D7E2DC8010E948D134C
:10449000772009F467C08F3F09F488C0E82FF0E067
:1044A0003396EE0FFF1FE00FF11FE080F1801C82BA
:1044B0001B82E72DF0E03396EE0FFF1FE00FF11F98
:1044C00080809180BE016D5F7F4FC7010E942111E6
:1044D000CB80DC8086E090E00E94DA2B5C01B601A4
:1044E0000E948D15D12CC12CA114B10451F0C5012D
:1044F0000E94E0116C01C5010E94C810C5010E9414
:10450000762C6FEF670D80E390E00E940130C701C9
:1045100002968C0D9D1D9F938F93FF92EF928AE2DE
:104520009EE09F938F930E9434140F900F900F90F2
:104530000F900F900F9092E0C90ED11CE814F9046F
:1045400008F048C0C6018E0D9F1D0E943511FA82E9
:10455000E982682FCE0101960E944113EFEFEE1A17
:10456000FE0AECCF86E59EE09F938F93F80185814C
:104570008F9384818F9382E08F9372DA0F900F90E4
:104580000F900F900F9080E00F900F900F900F9072
:10459000DF91CF911F910F91FF90EF90DF90CF901F
:1045A000BF90AF909F908F907F900895EF92FF9271
:1045B00082E49EE09F938F93F80185818F9384819D
:1045C0008F9382E08F934CDA0FB6F894DEBF0FBE64
:1045D000CDBFD9CFF80166817781C80117DE0E946F
:1045E0006F1881E0D1CF2F923F924F925F926F92DE
:1045F0007F928F929F92AF92BF92CF92DF92EF9273
:10460000FF920F931F93CF93DF93CDB7DEB7CC59B3
:10461000D1090FB6F894DEBF0FBECDBF8C0186E086
:10462000E6E0F2E0DE01AF56BF4F01900D928A95B1
:10463000E1F7CE018F569F4FC956DF4F998388838C
:10464000C759D0407E0191E8E90EF11C6624772419
:104650006E187F08D12CC12C2E01A1E44A0E511CEA
:10466000F7017096C756DF4FF983E883C959D040E8
:10467000CE0101961C01C556DF4FC882CB59D040F0
:10468000C456DF4FD882CC59D040C956DF4FA881DD
:10469000B981C759D0408D909D90C956DF4FB983DD
:1046A000A883C759D040B401C2010E941E2D5F9259
:1046B0004F92DF92CF92E5E9FCE0FF93EF930E94E7
:1046C0003414D701E0E11D92EA95E9F70F900F90BD
:1046D0000F900F900F900F905701C501860D971DF9
:1046E0000E943511D5018D935D01C756DF4FE881DA
:1046F000F981C959D040AE17BF0779F7FF92EF9201
:104700008CE89CE09F938F930E943414B401C701FE
:104710000E94152D0F900F900F900F90892B09F488
:1047200044C0E0E8FCE0FF93EF930E943414B4012E
:10473000C1010E941E2DFF92EF923F922F92C4560C
:10474000DF4F8881CC59D0408F93C556DF4F988179
:10475000CB59D0409F93A9E2B3E0BF93AF93D80168
:1047600015968C9115978F9314968C918F93B3E037
:10477000BF936CD868EC70E080E090E00E94BC0CC5
:10478000D801ED91FC910084F185E02DC8011995C7
:10479000D801ED91FC910680F781E02DC8011995B3
:1047A0000FB6F894DEBF0FBECDBFFFEFCF1ADF0A02
:1047B00020E1620E711C83E0C816D10409F05BCFC2
:1047C00080E390E00E9435118531D8F11F9294E189
:1047D0009F931F928F9380E59CE09F938F930E94FD
:1047E000341480E390E00E9435111F928F9381E38F
:1047F0009CE09F938F93D80115968C9115978F937A
:1048000014968C918F9383E08F932AD9D801ED91E0
:10481000FC910084F185E02DC801199568EC70E0E9
:1048200080E090E00E94BC0CD801ED91FC910680E4
:10483000F781E02DC80119950FB6F894DEBF0FBEC1
:10484000CDBF85E19CE09F938F930E9434140F901D
:104850000F90C456DF4F0FB6F894DEBF0FBECDBF2A
:10486000DF91CF911F910F91FF90EF90DF90CF904C
:10487000BF90AF909F908F907F906F905F904F9080
:104880003F902F900895AF92BF92CF92DF92EF9218
:10489000FF920F931F93CF93DF93CDB7DEB7C4582A
:1048A000D1090FB6F894DEBF0FBECDBF8C019BDEE1
:1048B000CF57DF4F188219821A821B82C158D0400D
:1048C000BE016F577F4F81E390E00E94FB10CF57EE
:1048D000DF4FC880D980EA80FB80C158D040D70123
:1048E000C6010597A109B1098C379145A140B105D1
:1048F000C8F15E0181E4A80EB11C6EE17FE0C50144
:104900000E941E2DFF92EF92DF92CF92BF92AF9244
:1049100082E19FE09F938F93D80115968C91159714
:104920008F9314968C918F9383E08F9399D868EC32
:1049300070E080E090E00E94BC0CD801ED91FC9109
:104940000084F185E02DC8011995D801ED91FC9105
:104950000680F781E02DC80119950FB6F894DEBFE7
:104960000FBECDBFBE016F577F4F85E390E00E9421
:10497000FB10CF57DF4FC880D980EA80FB80C15839
:10498000D040D701C6010197A109B1098837910527
:10499000A105B105B8F16EE17FE0CE0101965C01A1
:1049A0000E941E2DFF92EF92DF92CF92BF92AF92A4
:1049B00081E09FE09F938F93D80115968C91159776
:1049C0008F9314968C918F9383E08F9349D868ECE2
:1049D00070E080E090E00E94BC0CD801ED91FC9169
:1049E0000084F185E02DC8011995D801ED91FC9165
:1049F0000680F781E02DC80119950FB6F894DEBF47
:104A00000FBECDBF69E370E0C80100DC82EE9EE01E
:104A10009F938F930E9434140F900F90CC57DF4FC9
:104A20000FB6F894DEBF0FBECDBFDF91CF911F91BF
:104A30000F91FF90EF90DF90CF90BF90AF900895CF
:104A40001F920F920FB60F9211240BB60F922F9355
:104A50003F934F935F936F937F938F939F93AF9306
:104A6000BF93EF93FF9387E694E00E94530BFF916F
:104A7000EF91BF91AF919F918F917F916F915F91D6
:104A80004F913F912F910F900BBE0F900FBE0F9043
:104A90001F9018951F920F920FB60F9211240BB60C
:104AA0000F922F938F939F93EF93FF93E09177044F
:104AB000F09178048081E0917D04F0917E0482FD84
:104AC0001DC09081809180048F5F8F73209181043D
:104AD000821741F0E0918004F0E0E959FB4F958F97
:104AE00080938004FF91EF919F918F912F910F9070
:104AF0000BBE0F900FBE0F901F9018958081F2CFC4
:104B00001F920F920FB60F9211240BB60F922F9394
:104B10003F934F935F936F937F938F939F93AF9345
:104B2000BF93EF93FF9384E095E00E94530BFF91B6
:104B3000EF91BF91AF919F918F917F916F915F9115
:104B40004F913F912F910F900BBE0F900FBE0F9082
:104B50001F9018951F920F920FB60F9211240BB64B
:104B60000F922F938F939F93EF93FF93E0911405F0
:104B7000F09115058081E0911A05F0911B0582FDE9
:104B80001DC0908180911D058F5F8F7320911E0540
:104B9000821741F0E0911D05F0E0EC5FFA4F958F30
:104BA00080931D05FF91EF919F918F912F910F9011
:104BB0000BBE0F900FBE0F901F9018958081F2CF03
:104BC0001F920F920FB60F9211242F933F938F9342
:104BD0009F93AF93BF938091EA039091EB03A091D1
:104BE000EC03B091ED033091E90323E0230F2D375F
:104BF00058F50196A11DB11D2093E9038093EA03A6
:104C00009093EB03A093EC03B093ED038091EE033C
:104C10009091EF03A091F003B091F1030196A11DD3
:104C2000B11D8093EE039093EF03A093F003B09334
:104C3000F103BF91AF919F918F913F912F910F9071
:104C40000FBE0F901F90189526E8230F0296A11D06
:104C5000B11DD2CF1F920F920FB60F9211240BB637
:104C60000F922F933F934F935F936F937F938F9305
:104C70009F93AF93BF93EF93FF938091B900887F89
:104C8000803609F44DC008F040C0883209F4A9C04C
:104C900028F5803109F49DC0C8F4882309F4FBC0CD
:104CA000883009F496C0FF91EF91BF91AF919F9129
:104CB0008F917F916F915F914F913F912F910F90C5
:104CC0000BBE0F900FBE0F901F901895883109F4FE
:104CD00088C0803241F78093640414C0803409F4A2
:104CE0009DC040F48033B9F38833E9F680936404BF
:104CF00085ECB0C0803509F485C0883509F496C0CC
:104D0000883489F60E94F80CCECF883909F48CC01B
:104D100038F5883729F050F4883611F0803719F6C5
:104D200083E0809366041092E80357C0883809F442
:104D30007BC0803919F0803809F0B5CF8091E80345
:104D4000803208F071C0E091E80381E08E0F80931B
:104D5000E8038091BB00F0E0E853FC4F80833DC046
:104D6000803B39F0E0F4803A09F479C0883A09F0E0
:104D70009ACF84E0809366041092C5031092C40316
:104D8000E091C203F091C30319958091C40381118E
:104D90000FC081E08093C4031092A20309C0803C3D
:104DA00009F4A6CF883C09F4A3CF883B09F07BCF58
:104DB000E091C50381E08E0F8093C503F0E0EE55CE
:104DC000FC4F80818093BB009091C5038091C40308
:104DD00029C0809161048093BB0085EC8093BC0066
:104DE00062CF9091630480916204981758F5E09126
:104DF000630481E08E0F80936304F0E0E05CFB4F7E
:104E00008081E9CFE091630481E08E0F8093630499
:104E10008091BB00F0E0E05CFB4F808390916304E5
:104E2000809162049817C8F285E8D8CFE0916304B6
:104E300081E08E0F809363048091BB00F0E0E05C22
:104E4000FB4F80838091650481115CCF81E080936A
:104E5000600484EA8093BC001092660424CF85EC41
:104E60008093BC00109266048091E803803230F495
:104E7000E091E803F0E0E853FC4F10826091E80312
:104E800070E0E091C603F091C70388EC93E01995B8
:104E90001092E80308CF1092640434CF0F931F934D
:104EA000CF93DF9300D000D0CDB7DEB7E7E6F4E0D4
:104EB0001382128288EE93E0A0E0B0E084839583B1
:104EC000A683B78320E132E0318320834DEC50E0AC
:104ED000558744874CEC50E05787468748EC50E0B4
:104EE000518B408B49EC50E0538B428B4AEC50E0A5
:104EF000558B448B4EEC50E0578B468B118E128EA7
:104F0000138E148EE4E0F5E013821282848395837D
:104F1000A683B7833183208325EC30E0358724874F
:104F200024EC30E03787268720EC30E0318B208B73
:104F300021EC30E0338B228B22EC30E0358B248B5C
:104F400026EC30E0378B268B118E128E138E148E4A
:104F5000E1EAF5E01382128284839583A683B78306
:104F600082E292E091838083E4EFF5E01082118287
:104F7000128213821482158216821782108611867D
:104F8000128613860FED15E084E992E0D8011196A0
:104F90009C938E9317961C921E921697F80110867A
:104FA0001186128613861C961D921D921D921C92CC
:104FB0001F97108A118A128A138A148A88EA93E149
:104FC0009383828381E090E0F5D3D80115969C937A
:104FD0008E93149743E953E16CE973E1CE01019696
:104FE0000E945911CE0101960E94C10DF801608BFB
:104FF000718B828B938B89E190E0DCD3FC0188E894
:1050000092E0918380831382148215821782168224
:10501000118610861386128615861486108A118AC8
:10502000128A138A148A158A168A178A108E81E0CA
:1050300082838DE893E1978786870BED15E0D80191
:10504000ED93FC9384E090E0B5D3FC0110821182D3
:1050500012821382D80113969C938E931297EDEAD5
:10506000F5E084E392E09383828386E893E195837D
:10507000848323EB35E088E2D9011D928A95E9F714
:1050800082E792E09183808326960FB6F894DEBF84
:105090000FBECDBFDF91CF911F910F910895CF9398
:1050A000DF93CDB7DEB7C150D1400FB6F894DEBF65
:1050B0000FBECDBF789484B5826084BD84B5816015
:1050C00084BD85B5826085BD85B5816085BD8091D3
:1050D0006E00816080936E0010928100809181004B
:1050E0008260809381008091810081608093810043
:1050F000809180008160809380008091B100846005
:105100008093B1008091B00081608093B000809165
:1051100091008260809391008091910081608093E2
:105120009100809190008160809390008091A10017
:1051300082608093A1008091A10081608093A10092
:105140008091A00081608093A00080912101826005
:1051500080932101809121018160809321018091C0
:10516000200181608093200180917A008460809387
:105170007A0080917A00826080937A0080917A0030
:10518000816080937A0080917A00806880937A00B1
:105190001092C10064EF71E080E090E00E94BC0CCE
:1051A0008DE08093F705ECEDF1E12491E6E9F1E182
:1051B0008491882399F090E0880F991FFC01E159B0
:1051C000FE4EA591B491FC01EB5AFE4E859194914F
:1051D0008FB7F894EC91E22BEC938FBF13E061E072
:1051E0008091F7050E940B0C68EC70E080E090E085
:1051F0000E94BC0C60E08091F7050E940B0C68ECEB
:1052000070E080E090E00E94BC0C115041F787E60E
:1052100094E00E94110A1092F6051092F5058E0195
:105220000F531F4F6FE472E1C80108D41F930F930F
:1052300084E492E19F938F930E94341484E095E07C
:105240000E94110A109208051092090510920A0591
:1052500010920B058091DB059091DC05DC01ED914E
:10526000FC910480F581E02D19958FED95E00E9469
:10527000741E87E392E19F938F938FE492E19F9353
:105280008F9311E01F930E94301D89E292E19F935A
:105290008F930E9434148DEA95E0F5DA0E946F181E
:1052A00085E192E19F938F9381E292E19F938F93A7
:1052B0001F930E94301D0FB6F894DEBF0FBECDBF06
:1052C0005E01F1E4AF0EB11CCE0101964C016E01FE
:1052D00091E8C90ED11C0E94EC0C2B013C0180917D
:1052E000F8059091F905A091FA05B091FB0580535E
:1052F000984FAF4FBF4F84159505A605B705E0F54C
:105300008091F5058823C1F19091F60589130FC0AE
:105310004092F8055092F9056092FA057092FB05EB
:105320001092F60560E08091F7050E940B0C8091C9
:10533000FC059091FD05A091FE05B091FF058853F5
:105340009F4FAF4FBF4F84159505A605B705A0F435
:105350008091F7059091F40591117CC061E00E9465
:105360000B0C81E08093F4054092FC055092FD0502
:105370006092FE057092FF058FED95E00E94321E4F
:1053800084E095E00E94350B892B09F4E1C182EAA3
:10539000282E82E1382E9DE6492E92E1592E24E5F1
:1053A000622E22E1722E84E095E00E94350B892B5B
:1053B00009F4CEC10091DB051091DC0584E095E095
:1053C0000E94130B7C01D80113968C9113978111C5
:1053D0004CC0C70199279F938F935F924F920E9471
:1053E0003414F80186819781BC016F5F7F4F43E0E1
:1053F00050E090D6D8011696ED91FC911797E38274
:1054000044E050E069E672E116968D919C91F7D2E6
:105410000F900F900F900F90892B91F47F926F92C5
:105420000E943414D8011C96ED91FC9180E1DF01BB
:105430001D928A95E9F781E0F80183830F900F9020
:10544000E091DB05F091DC05808D882309F4ABCF7A
:10545000108E9DCF60E00E940B0C1092F40580919D
:10546000F6058F5F8093F6057FCFCF5FDE4FE88232
:10547000C150D14014968C91149781118BC064E077
:1054800073E1C601DBD2C70199279F938F93809167
:10549000F2031F928F93EFEEF2E1FF93EF930E94DE
:1054A00034148091F2030F900F900F900F900F9093
:1054B0000F90803158F4D8011C96ED91FC91E80FC3
:1054C000F11DE0828F5F8093F203BACFCF5FDE4F92
:1054D000B881C150D140B13009F053C0F801828188
:1054E0008823D9F0F60101900020E9F73197AF0148
:1054F0004C195D09D8011C96FC901C971D96EC90E8
:10550000B6018F2D9E2D2ED6892B41F560E18F2D72
:105510009E2D0E947310882309F11092F20381E0FE
:10552000F80184830084F185E02D11821082D80176
:105530001D968C911D978F931C968C918F93DF9263
:10554000CF92E5EDF2E1FF93EF930E9434140F90B8
:105550000F900F900F900F900F9072CFEF92FF92DD
:10556000DF92CF923F922F920E9434140F900F90AF
:105570000F900F900F900F90F80113821092F2038A
:105580005FCF80E792E19F938F930E9434140F9036
:105590000F90F2CF15968C911597811165C0C701B8
:1055A00099272091F503211115C09F938F93E4E66D
:1055B000F3E1FF93EF930E943414D8011896ED9114
:1055C000FC91E08281E08093F5030F900F900F90A3
:1055D0000F9036CF1896ED91FC911997E1821896AD
:1055E000ED91FC91E080F180FF92EF929F938F9379
:1055F000EAE5F3E1FF93EF930E943414B701D80179
:105600001A968D919C910E943017F801938782879A
:105610001092F503108E0E94E0110F900F900F90E2
:105620000F900F900F90892BD1F4D80114961C92F3
:10563000149713961C92139781E058968C93589761
:1056400050968D919D910D90BC91A02D0196A11D1C
:10565000B11DF801808B918BA28BB38BF1CE81E0D1
:10566000D80115968C93ECCE6E2DF801828593852A
:105670000E943812D8011A96ED91FC9181113AC01E
:10568000CF010E94E011F82EE92ED8011A96ED9173
:10569000FC91648175816D5F7F4FC401CFD1EF9222
:1056A000FF929F928F92E9E0F3E1FF93EF930E94C4
:1056B0003414D80115961C92159714961C921497C1
:1056C00013961C92139781E058968C935897509696
:1056D0008D919D910D90BC91A02D0196A11DB11DA4
:1056E000F801808B918BA28BB38B1092F4031092F4
:1056F000F3032DCF8091F3039091F40301969093DF
:10570000F4038093F303648175816D5F7F4FC5015E
:1057100095D1D8011A968D919C910E94E011BF926B
:10572000AF929F938F938091F4038F938091F303B3
:105730008F93FF24FF92EF92E4E3F3E1FF93EF9363
:105740000E9434140FB6F894DEBF0FBECDBF78CEE2
:105750000E94EC0CAB01BC018091F6039091F70321
:10576000A091F803B091F903805D9A48AF4FBF4F05
:1057700084179507A607B70790F40E94EC0C609376
:10578000F6037093F7038093F8039093F90389E786
:1057900093E19F938F930E9434140F900F900E9477
:1057A000E00B99CD8DEA95E00E947E158FED95E096
:1057B0000C94B1100F931F93CF93DF938230910518
:1057C00010F482E090E0E0910206F091030630E0F0
:1057D00020E0B0E0A0E0309799F42115310509F4FC
:1057E0004AC0281B390B24303105D8F58A819B81AA
:1057F0006115710589F1FB0193838283FE0111C05C
:10580000408151810281138148175907E0F0481700
:10581000590799F4109761F012960C93129713960A
:105820001C933296CF01DF91CF911F910F91089574
:105830000093020610930306F4CF2115310551F0B1
:105840004217530738F0A901DB019A01BD01DF01BE
:10585000F801C1CFEF01F9CF9093030680930206C0
:10586000CDCFFE01E20FF31F8193919322503109B6
:1058700039832883D7CF2091000630910106232B4E
:1058800041F42091020230910302309301062093EB
:10589000000620910002309101022115310541F4EA
:1058A0002DB73EB74091040250910502241B350BE1
:1058B000E0910006F0910106E217F307A0F42E1B19
:1058C0003F0B2817390778F0AC014E5F5F4F241764
:1058D000350748F04E0F5F1F5093010640930006B6
:1058E000819391939FCFF0E0E0E09CCFCF93DF9343
:1058F0000097E9F0FC01329713821282A091020610
:10590000B0910306ED0130E020E01097A1F4208172
:105910003181820F931F20910006309101062817D4
:10592000390709F061C0F0930106E0930006DF91AA
:10593000CF910895EA01CE17DF07E8F54A815B8130
:105940009E0141155105B1F7E901FB83EA834991B5
:105950005991C40FD51FEC17FD0761F48081918127
:105960000296840F951FE901998388838281938130
:105970009B838A83F0E0E0E012968D919C911397CF
:105980000097B9F52D913C911197CD010296820FA8
:10599000931F20910006309101062817390739F628
:1059A000309751F51092030610920206B09301064B
:1059B000A0930006BCCFD383C28340815181840F62
:1059C000951FC817D90761F44E5F5F4F8881998191
:1059D000480F591F518340838A819B81938382831F
:1059E0002115310509F0B0CFF0930306E0930206CC
:1059F0009ECFFD01DC01C0CF13821282D7CFFB0105
:105A0000DC0104C08D910590801921F44150504073
:105A1000C8F7881B990B0895FB01DC0102C00590B3
:105A20000D9241505040D8F70895FB01DC018D9153
:105A3000059080190110D9F3990B0895FB01DC0141
:105A400005900D920020E1F708950F931F93CF93D7
:105A5000DF93CDB7DEB72E970FB6F894DEBF0FBE3B
:105A6000CDBF8C01FA018EE08C831A83098377FF06
:105A700002C060E070E8615071097E836D83A90106
:105A8000BF01CE01019619D04D815E8157FD0AC03C
:105A90002F813885421753070CF49A01020F131F08
:105AA000F80110822E960FB6F894DEBF0FBECDBF60
:105AB000DF91CF911F910F9108952F923F924F92B6
:105AC0005F926F927F928F929F92AF92BF92CF928E
:105AD000DF92EF92FF920F931F93CF93DF9300D04B
