:1000000067C7000096C7000094C7000092C70000B1
:1000100090C700008EC700008CC700008AC7000090
:1000200088C7000086C7000084C7000082C70000A0
:1000300080C700007EC700007CC700007AC70000B0
:1000400078C7000076C7000074C7000072C70000C0
:1000500070C700006EC700006CC700000C94181534
:1000600068C700000C94E2140C94B81462C7000036
:1000700060C700005EC700005CC700005AC70000F0
:1000800058C7000056C7000054C7000052C7000000
:100090000C9482140C9458144CC700000C946215F4
:1000A00048C7000046C7000044C7000042C7000020
:1000B00040C700003EC700003CC700003AC7000030
:1000C00038C7000036C7000034C7000032C7000040
:1000D00030C700002EC700002CC700002AC7000050
:1000E00028C700000A464154414C3A20636F6E20F5
:1000F0006E6F7420696E6974207061636B65742023
:1001000025750A4372617368696E672E2E2E0A0088
:100110000A4D454D3A206E6577207061636B6574BA
:1001200020257320286D616C6C6F6320257520621B
:10013000797465732900000000656D707479207012
:1001400061636B65740000000000000000000000A7
:10015000000000000000000000000000000000009F
:10016000000000000000000000010000696E6974DA
:1001700020627974650000000000000000000000AB
:10018000000000000000000000000000000000006F
:1001900000000000000000000000000002000072EB
:1001A0006573657420636F6D6D616E64000000009F
:1001B000000000000000000000000000000000003F
:1001C000000000000000000000000000000000032C
:1001D0000000636F6E666967207265717565737480
:1001E000000000000000000000000000000000000F
:1001F00000000000000000000000000000000000FF
:100200000000040000737461747573207265717569
:100210006573740000000000000000000000000092
:1002200000000000000000000000000000000000CE
:100230000000000000050001636F6D6D616E6420B9
:10024000737472696E670000000000000000000017
:10025000000000000000000001000000000000009D
:1002600000000000000000000A000174696D657361
:1002700074616D70000000000000000000000000CC
:100280000000000000000000000000060000000068
:1002900000000000000000000000000F000467657F
:1002A0006E65726963207265706F72740000000081
:1002B000000000000000000000000000000000023C
:1002C00006190000000000000000000000001900F6
:1002D0000161636B6E6F776C656467650000000099
:1002E000000000000000000000000000000000000E
:1002F00000070000000000000000000000000000F7
:10030000001E0000666163746F7279207265736508
:100310007400000000000000000000000000000069
:1003200000000000000000000000000000000000CD
:10033000000000002D01017364206361726420736A
:10034000657474696E670000000000000000000022
:10035000000000000000000100000000000000009C
:1003600000000000000000F5010464657669636523
:100370002073657474696E6700000000000000005F
:100380000000000000000000000001051C19000032
:1003900000000000000000000000E9030473746125
:1003A0006E6461726420636F6E660000000000007E
:1003B0000000000000000000000000000002030434
:1003C0001B000000000000000000000000EB030420
:1003D00065737020636F6E6600000000000000000F
:1003E000000000000000000000000000000000000D
:1003F0001D18171A00000000000000000000000097
:10040000ED030273616D706C657220636F6E660040
:1004100000000000000000000000000000000000DC
:1004200000000015160000000000000000000000A1
:10043000000000150504616E616C6F672073656EC6
:10044000736F7220636F6E66000000000000000092
:10045000000000000000051C0F100000000000005C
:1004600000000000000016050273776974636820BD
:10047000636F6E66000000000000000000000000D6
:10048000000000000000000000051C00000000004B
:100490000000000000000000001E05046C647220D3
:1004A00073656E736F7220636F6E660000000000EC
:1004B000000000000000000000000000051C0F10FC
:1004C000000000000000000000000000F2050644EB
:1004D000485432322073656E736F7220636F6E669C
:1004E0000000000000000000000000000000000507
:1004F0001C0F10111200000000000000000000A4FA
:10050000060372656C617920636F6E6600000000FF
:1005100000000000000000000000000000000000DB
:100520000000051C1A000000000000000000000090
:100530000000D007026465766963652067656E65B3
:1005400072696320636F6E660000000000000000A7
:100550000000000000051C0000000000000000007A
:100560000000000000D107057374616E646172645D
:1005700020737461747573000000000000000000B7
:100580000000000000000000020609080A00000048
:100590000000000000000000D307056573702073A1
:1005A000746174757300000000000000000000001A
:1005B0000000000000000000000000070C0B0E0D02
:1005C0000000000000000000000000D50703736178
:1005D0006D706C6572207374617475730000000037
:1005E00000000000000000000000000000000215F4
:1005F0000700000000000000000000000000FD08EF
:1006000003616E616C6F672073656E736F72207328
:100610007461740000000000000000000000000091
:100620000005071A000000000000000000000000A4
:1006300000FE08037377697463682073656E736FD7
:10064000722073746174000000000000000000005C
:100650000000000005071A00000000000000000074
:10066000000000000609036C64722073656E736FEE
:10067000722073746174000000000000000000002C
:100680000000000000000005071A00000000000044
:1006900000000000000000DA09044448543232200F
:1006A00073656E736F7220737461740000000000D4
:1006B000000000000000000000000513141A0000F4
:1006C000000000000000000000008C0A0272656C4F
:1006D0006179207374617400000000000000000064
:1006E00000000000000000000000000000051900EC
:1006F00000000000000000000000000000400B04AB
:1007000073642073746174697374696373000000A7
:1007100000000000000000000000000000000000D9
:10072000021C0F0800000000000000000000000094
:10073000B80B026465766963652067656E657269EA
:10074000632073746174000000000000000000006A
:10075000000000051A00000000000000000000007A
:10076000000000B90B04616C6C61726D0000000048
:100770000000000000000000000000000000000079
:100780000000000000000304061900000000000043
:10079000000000000000BA0B0467656E6572616CB2
:1007A000207761726E696E67000000000000000033
:1007B0000000000000000000000304061900000013
:1007C000000000000000000000850C0070726F62E5
:1007D000652072657175657374000000000000008B
:1007E0000000000000000000000000000000000009
:1007F000000000000000000000000000B10D0461D6
:100800006D6269656E742070726F62650000000031
:1008100000000000000000000000000000000005D3
:10082000030607000000000000000000000000892F
:1008300013046E6574776F726B2061646472657304
:1008400073207365740000000000000000000000C9
:10085000000001051D18000000000000000000005D
:1008600000008A130365737020616464726573739A
:100870000000000000000000000000000000000078
:100880000000000000051D1800000000000000002E
:100890000000000000FAFF01646F6F7262656C6C0B
:1008A000207369676E616C000000000000000000AA
:1008B0000000000000000000050000000000000033
:1008C00000000000000000006340006D657373616C
:1008D00067650000000000634000636F6D6D616E2E
:1008E0006400000000006310006E616D6500000090
:1008F00000000000006310007479706500000000C3
:1009000000000000631000626F617264000000006C
:100910000000006308006465766E616D650000008C
:1009200000006C040065706F636800000000000048
:10093000006C040076616C7565000000000000002A
:100940006C0400667265656D656D00000000006CEA
:1009500004006C6F6F7074696D65000000006C04BA
:10096000006572726F72730000000000006C04007A
:10097000746F74616C727800000000006C04007485
:100980006F74616C747800000000006C0400736583
:100990007269616C7278000000006C04007365720B
:1009A00069616C7478000000006C04007061726111
:1009B0006D310000000000006C0400706172616D18
:1009C000320000000000006C0400706172616D3341
:1009D0000000000000006C0400706172616D340062
:1009E00000000000006C040074656D706572617435
:1009F000757265006C040068756D696469747900CE
:100A00000000006C0400737465706461793100004B
:100A100000006C040073746570686F7572310000BB
:100A2000006C040074696D656F757400000000004F
:100A30006C0400706F72740000000000000000730E
:100A400001006C6576656C00000000000000730119
:100A5000007374617475730000000000007301007E
:100A60006465766E756D0000000000007301007013
:100A7000696E000000000000000000631100697052
:100A8000000000000000000000000A706172736541
:100A9000723A626567696E002E2E2E646F6E650075
:100AA0000A4D454D3A20666F7267696E6720706126
:100AB000636B65742025733A25732025733A5B2593
:100AC000755D00FF0101FF54455354001F1C1F1E9C
:100AD0001F1E1F1F1E1F1E0A636C6F636B3A204D83
:100AE000494C4C49532073746172743A0A636C6FB9
:100AF000636B3A2063757272656E7420646174650D
:100B000074696D653A202573000A636C6F636B3AF4
:100B10002063616E206E6F7420696E697420445387
:100B20003332333100626567696E3A2063616E204B
:100B30006E6F7420696E69742044533332333120F0
:100B4000636C617373000A636C6F636B3A20637547
:100B50007272656E74206461746574696D653A20A3
:100B6000257300626567696E3A20696E76616C690B
:100B7000642065706F63682E20506C65617365201A
:100B8000636865636B20636F6E6E656374696F6E17
:100B900000626567696E3A20706F776572206C6FCE
:100BA00073732E20506C6561736520636865636B99
:100BB00020636C6F636B20626174746572790030BE
:100BC000353A32323A3139004D61792020362032BF
:100BD0003032300030353A32323A3139004D6179B5
:100BE00020203620323032300030353A32323A313D
:100BF00039004D61792020362032303230000A63CE
:100C00006C6F636B3A25733A626567696E00657055
:100C10006F63683A20525443207369676E616C2099
:100C20006C6F7374210065706F63683A205254438F
:100C300020666F756E64210000000A0B02090C0D1E
:100C40000E0807030401000000000000000000007F
:100C50000000000000000000000000000000000094
:100C60000000000012111000000000000000000051
:100C70000000000000000000000000000000000074
:100C80002200250028002B002E0031003400020134
:100C90000000050108010B010000210024002700CD
:100CA0002A002D003000330001010000040107017B
:100CB0000A010505050507050808080802020202E1
:100CC0000A0A0808040404040101010101010101E8
:100CD0000303030303030303040707070C0C0C0CB3
:100CE0000C0C0C0C0202020206060606060606069C
:100CF0000B0B0B0B0B0B0B0B010210202008081029
:100D0000204010204080020102010804020101027B
:100D10000408102040808040201008040201800454
:100D200002018040201008040201080402010102AF
:100D30000408102040800102040810204080424F27
:100D40004152442052454144590053414D504C4575
:100D50005200424F41524420535441525453000ACE
:100D60003C494E49543A25733E0054455354000AB9
:100D700070617273653A707265616D626C65205066
:100D800041535300FF0101FF2563000A7061727334
:100D9000653A6E616D653A20636F756C64206E6FA5
:100DA000742066696E6420696E6974206279746566
:100DB000000A70617273653A6E616D653A205B2559
:100DC000733A25735D20636F6D70617269736F6E26
:100DD000204641494C454421000A70617273653ACE
:100DE0006E616D653A205B25733A25735D20504135
:100DF0005353000A70617273653A6E616D653A20F3
:100E00002575205B25755D0054455354000A7061BB
:100E10007273653A7061796C6F61643A20646F77C0
:100E20006E6C6F61646564203C25733E205B2575A4
:100E30002042797465735D000A70617273653A705F
:100E400061796C6F61643A20676F74202575202882
:100E500025752F25752920666F72202573002A2A93
:100E60002048697421202A2A002A2A204D69737398
:100E700021202A2A0025755D203D3E202575000A87
:100E800070617273653A636F6D6D616E643A205B79
:100E900025752E0053414D504C45523A4C4F4F5002
:100EA00000494F5359530030353A32323A31390004
:100EB0004D61792020362032303230005254434C7C
:100EC0004F434B20445333323331000086163F1BCF
:100ED00011241FBECFEFD1E2DEBFCDBF00E00CBFBB
:100EE00012E0A0E0B2E0E2E8F0E400E00BBF02C0F4
:100EF00007900D92A636B107D9F724E0A6E6B2E036
:100F000001C01D92A63EB207E1F717E0C7E6D7E0A1
:100F100000E006C021970109802FFE010E94A01F5A
:100F2000C636D10780E00807A9F70E9472170C9413
:100F3000302066C8FC01A089B18982E08C93A48529
:100F4000B5851C92A685B78580E18C93108EA48907
:100F5000B58986E08C93A289B3898C9180618C934A
:100F6000A289B3898C9188608C93A289B3898C9172
:100F700080688C930288F389E02D80818F7D808347
:100F80000895909176039111FCCF91E090937603B0
:100F9000909375032FEF2093740310927303260F21
:100FA000209372039093710390917103880F892BA2
:100FB00080937103809170038130F9F41092700373
:100FC000809171038093BB008091BC0083FDF8CFBA
:100FD00085EC8093BC00809176038130E1F38091B1
:100FE0007303861710F460917303A0E5B3E0E0E3A8
:100FF000F3E080E0861303C0089585EEEACF9D916B
:1010000091938F5FF7CF20912F0381E0213208F079
:1010100044C0809176038111FCCF80912E0392E031
:101020009093760391E0909375039FEF90937403F0
:101030001092730320937203AEE0B3E0E0E5F3E0B7
:1010400090E0291331C01092710390917103880FC1
:10105000892B8093710380917003813049F5109240
:101060007003809171038093BB008091BC0083FD6D
:10107000F8CF85EC8093BC00809176038230E1F359
:10108000809174038F3FB1F0809174038032A1F09E
:1010900080917403803391F084E010920D031092DC
:1010A0002F0310920C0308953D9131939F5FC9CF98
:1010B00085EEE0CF80E0F1CF82E0EFCF83E0EDCFAF
:1010C000AF92BF92CF92DF92EF92FF920F931F9356
:1010D000CF93DF936C017B018B01040F151FEB0194
:1010E0005E01AE18BF08C017D10759F06991D6014B
:1010F000ED91FC910190F081E02DC6011995892BAD
:1011000079F7C501DF91CF911F910F91FF90EF907B
:10111000DF90CF90BF90AF900895FC01538D448D28
:10112000252F30E0842F90E0821B930B541710F092
:10113000CF96089501970895FC01918D828D98179F
:1011400061F0A28DAE0FBF2FB11D5D968C91928D77
:101150009F5F9F73928F90E008958FEF9FEF0895A8
:10116000FC01918D828D981731F0828DE80FF11D71
:10117000858D90E008958FEF9FEF0895FC01918D8C
:10118000228D892F90E0805C9F4F821B91098F7385
:101190009927089587E793E0F1DF21E0892B09F48F
:1011A00020E0822F089584E194E0E8DF21E0892B9C
:1011B00009F420E0822F0895FC01A48DA80FB92F17
:1011C000B11DA35ABF4F2C91848D90E001968F736F
:1011D0009927848FA689B7892C93A089B1898C918E
:1011E000837080648C93938D848D981306C00288DD
:1011F000F389E02D80818F7D80830895EF92FF92A7
:101200000F931F93CF93DF93EC0181E0888F9B8D29
:101210008C8D98131AC0E889F989808185FF15C0E3
:101220009FB7F894EE89FF896083E889F989808106
:101230008370806480839FBF81E090E0DF91CF91D5
:101240001F910F91FF90EF900895F62E0B8D10E0F7
:101250000F5F1F4F0F731127E02E8C8D8E110BC067
:101260000FB607FCFACFE889F989808185FFF5CFB1
:10127000CE01A2DFF2CFEB8DEC0FFD2FF11DE35A73
:10128000FF4FF0829FB7F8940B8FEA89FB8980812A
:101290008062D0CFCF93DF93EC01888D8823B1F0AB
:1012A000AA89BB89E889F9898C9185FD03C0808171
:1012B00086FD0CC00FB607FCF7CF8C9185FFF2CFEF
:1012C000808185FFEDCFCE0177DFEACFDF91CF912F
:1012D000089580E090E0892B21F065DF81110E9464
:1012E000000080E090E0892B21F054DF81110E9402
:1012F000000080E090E0892B49F080E090E0892BAD
:1013000029F00E94000081110E94000080E090E01E
:10131000892B49F080E090E0892B29F00E940000A1
:1013200081110C9400000895282F30E0F901E85C49
:10133000F34F9491F901E850F34F44912E54334FF9
:10134000F9012491222309F435C0992311F1915018
:101350009231F8F4E92FF0E08827EE54F64F8F4FE2
:101360000C94A01FE309E709C409DB09DF09C909D7
:10137000EA09F009F409FA09FE09020A080A0C0A46
:10138000C909100A160A1A0A809180008F77809383
:101390008000E22FF0E0EE0FFF1FE258F34FA5911F
:1013A000B4918FB7F894EC91611148C040954E23E9
:1013B0004C938FBF0895809180008F7DE8CF8091FE
:1013C0008000877FE4CF84B58F7784BDE2CF84B57A
:1013D0008F7DFBCF8091B0008F778093B000D9CF05
:1013E0008091B0008F7DF9CF809190008F778093AE
:1013F0009000CFCF809190008F7DF9CF80919000A9
:10140000877FF5CF8091A0008F778093A000C1CF18
:101410008091A0008F7DF9CF8091A000877FF5CFCC
:10142000809120018F7780932001B3CF809120019C
:101430008F7DF9CF80912001877FF5CF4E2BB8CFDC
:101440003FB7F8948091FE029091FF02A0910003B3
:10145000B091010326B5A89B05C02F3F19F0019656
:10146000A11DB11D3FBFBA2FA92F982F8827BC01FE
:10147000CD01620F711D811D911D42E0660F771F26
:10148000881F991F4A95D1F708958F929F92AF9226
:10149000BF92CF92DF92EF92FF924B015C01D0DFBF
:1014A0006B017C01CDDF6C197D098E099F09683EB7
:1014B000734081059105B0F321E0821A9108A108DB
:1014C000B10888EEC80E83E0D81EE11CF11C81141F
:1014D0009104A104B10431F7FF90EF90DF90CF9019
:1014E000BF90AF909F908F9008952FB7F894609120
:1014F000FA027091FB028091FC029091FD022FBFD5
:10150000089585ED8093BC008091BC0084FDFCCFE4
:101510001092760308952091D402260F3327331FAB
:1015200021323105ECF420917603FC0190E080E05B
:10153000243069F082E00895A091D4022191AC0199
:101540004E545D4FA40FB52FB11D2C9301968617F5
:1015500098F38091D402680F6093D40280E00895DC
:1015600081E00895089508950895E0910B03809116
:101570000A03E81730F4F0E0E05DFC4F808190E072
:1015800008958FEF9FEF089590910B0380910A03C8
:101590002FEF3FEF981748F4E92FF0E0E05DFC4FA4
:1015A000208130E09F5F90930B03C90108958091E3
:1015B0000A0390910B03891B990B0895CF92DF9238
:1015C000EF92FF920F931F93CF93DF937C01CB0198
:1015D0008A0120910C03222389F0EB016B01C40ED8
:1015E000D51ECC15DD0561F06991D701ED91FC9117
:1015F0000190F081E02DC7011995F3CF642F8BDFA7
:10160000C801DF91CF911F910F91FF90EF90DF9074
:10161000CF900895CF93DF931F92CDB7DEB7698344
:1016200020910C032223F9F020912F03203258F04F
:1016300021E030E0FC013383228390E080E00F90D2
:10164000DF91CF91089580910D03E82FF0E0E25FE4
:10165000FC4F998190838F5F80930D0380932F03BC
:1016600081E090E0ECCF61E0CE01019654DFF8CF4D
:1016700090E080E00895FC0184890895FC01608970
:101680007189828993890895EF92FF920F931F9336
:10169000CF93DF93EC0169813881432F50E02A8199
:1016A000822F90E0ECECFAE021E0261730F4749100
:1016B000870F911D2F5F3196F8CF633018F033708C
:1016C00009F401966DE671E0469F9001479F300D49
:1016D000569F300D1124215031094D5F5F4F5695B3
:1016E000479556954795240F351F280F391FA8E1B8
:1016F000B0E00E94631F2B817B018C01E20EF11C84
:10170000011D111DA8019701ACE3B0E00E94591F13
:101710002C817B018C01E20EF11C011D111DA80121
:1017200097010E94591FAB01BC019D81892F90E058
:10173000B0E0A0E080589C4BA249B74C8A019B01C5
:10174000080F191F2A1F3B1FC901B801DF91CF9154
:101750001F910F91FF90EF900895CF93DF93EC01CD
:10176000C4DE6093AE027093AF028093B002909398
:10177000B102CE0189DF6093AA027093AB0280931D
:10178000AC029093AD02DF91CF910895FC0190815E
:1017900090539A3008F090E0818180532AE0929F24
:1017A000800D112408958F929F92AF92BF92CF9295
:1017B000DF92EF92FF92CF93DF93EC016A017B01FE
:1017C00080E8C81A83E4D80A8DE6E80A88E3F80AB4
:1017D0008CE3882E912CA12CB12CC701B601A50158
:1017E00094010E947E1F6D83CA01B901A501940175
:1017F0000E947E1F6C83C701B60120E13EE040E0FD
:1018000050E00E947E1FCA01B90128E130E040E0AB
:1018100050E00E947E1F6B83C701B60120E831E5CE
:1018200041E050E00E947E1F188263E97EEF8881CC
:10183000982F937041E050E011F050E040E0FA0141
:10184000E359FE4F2E173F0740F0FB01E41BF50B59
:101850002E0F3F1F8F5F8883EACF81E089838981C4
:101860008C30A0F4482F4150550BFA01E453F54F4A
:10187000E491911103C0823009F4EF5FF0E02E177C
:101880003F0720F02E1B3F0B8F5FE8CF2F5F2A838F
:10189000DF91CF91FF90EF90DF90CF90BF90AF900E
:1018A0009F908F9008950F931F93CF93DF9300D055
:1018B00000D0CDB7DEB78C01E7DEAB01BC01CE01B5
:1018C000019671DFF80190818981981314C091818C
:1018D0008A81981310C092818B8198130CC09381D8
:1018E0008C81981308C094818D81981304C081E085
:1018F00025819E81291380E026960FB6F894DEBFDD
:101900000FBECDBFDF91CF911F910F910895CF9260
:10191000DF92EF92FF920F931F93CF93DF93EC012F
:101920008FDD00916602109167022091680230916C
:1019300069026B017C01C01AD10AE20AF30A97011D
:1019400086010C8B1D8B2E8B3F8B609366027093F0
:1019500067028093680290936902DF91CF911F9193
:101960000F91FF90EF90DF90CF900895CF92DF928C
:10197000FF920F931F93CF93DF936C0181E08093CD
:101980000C0388E680932E0310920D0310922F0310
:1019900060E081EB94E03EDE36DB67E088E6F1DA7A
:1019A00010920B0380930A0381EB94E0EDDD8F77B7
:1019B000282F30E094E0359527959A95E1F7922FFE
:1019C000990F990FC22FC91BCC0FC80F81EB94E060
:1019D000DBDD9C0144E0359527954A95E1F72F70B2
:1019E0003327922F990F990FD22FD91BDD0FD80FC4
:1019F00081EB94E0C9DD9C0154E0359527955A951B
:101A0000E1F72F703327922F990F990F122F191B7F
:101A1000110F180F81EB94E0B7DD81EB94E0B4DD9A
:101A20009C0164E0359527956A95E1F72F7033277F
:101A3000922F990F990F022F091B000F080F81EBAE
:101A400094E0A2DD9C0174E0359527957A95E1F745
:101A50002F703327922F990F990FF22EF91AFF0C3E
:101A6000F80E81EB94E090DD9C01E4E0359527953C
:101A7000EA95E1F72F703327922F990F990F291BC1
:101A8000220F820FF6018083F18202831383D483B5
:101A9000C583C601DF91CF911F910F91FF90DF9019
:101AA000CF90089581E080930C0388E680932E0305
:101AB00010920D0310922F036FE081EB94E0AADDEA
:101AC000A2DA61E088E65DDA10920B0380930A03E4
:101AD00081EB94E059CD0895FF920F931F93CF931C
:101AE000DF93EC0101E000930C0318E610932E0342
:101AF00010920D0310922F0360E081EB94E08ADDD9
:101B00002D818AE0F82E822F6F2D0E94721F682F80
:101B1000660F680F660F620F81EB94E07BDD2C810E
:101B2000822F6F2D0E94721F682F660F680F660F3D
:101B3000620F81EB94E06EDD2B81822F6F2D0E946E
:101B4000721F682F660F680F660F620F81EB94E0BB
:101B500061DD60E081EB94E05DDD2A81822F6F2DF5
:101B60000E94721F682F660F680F660F620F81EB6D
:101B700094E050DD2981822F6F2D0E94721F682F03
:101B8000660F680F660F620F81EB94E043DD2881DA
:101B9000822F6F2D0E94721F682F660F680F660FCD
:101BA000620F81EB94E036DD2EDA7CDFC82F0093E4
:101BB0000C0310932E0310920D0310922F036FE06D
:101BC00081EB94E027DD6C2F6F7781EB94E022DDD1
:101BD000DF91CF911F910F91FF9015CAFC0184896D
:101BE000882311F0CB0178CFCB01B7CD2AE332E0C7
:101BF000FC013183208384819581009711F00C943E
:101C0000DF1B0895CF93DF93EC01F0DFCE01DF916E
:101C1000CF910C94DF1BFC0182819381009711F01E
:101C20000C94DF1B0895CF93DF93EC018EE292E0DA
:101C3000998388838E819F810E94DF1B8C859D857F
:101C40000E94DF1B888599850E94DF1B0A84DB8543
:101C5000C02D209739F0CE01DEDFCE01DF91CF918C
:101C60000C94DF1BDF91CF910895CF93DF93EC01AC
:101C7000DADFCE01DF91CF910C94DF1BEF92FF9260
:101C80000F931F93CF93DF9300D000D000D01F920B
:101C90001F92CDB7DEB78C017A014BE050E0CE0148
:101CA00001960E94751CCE010A9670DDF8018083B2
:101CB000E981E154E33128F50E2E000CFF0B882753
:101CC000EB59F14F8F4F0C94A01FAF0E810E810E78
:101CD000C30E810EAD0E810E810E810E780E810E27
:101CE000810EB60EC10EBF0E810E810E810EBD0E8D
:101CF0008A81813671F18B818E3669F187E0F80136
:101D00008183CE01059642DDF801828348E050E0F0
:101D1000B701CE0101960E94751CCE01019636DDF9
:101D2000F8018383CE01049631DDF8018483CE016E
:101D300007962CDDF80185832B960FB6F894DEBF4D
:101D40000FBECDBFDF91CF911F910F91FF90EF900C
:101D5000089581E0D4CF86E0D2CF82E0D0CF8B81CE
:101D6000823711F088E0CBCF84E0C9CF8B818237F6
:101D700011F085E0C4CF83E0C2CF89E0C0CF8AE014
:101D8000BECF8BE0BCCF8CE0BACFAF92BF92CF92E8
:101D9000DF92EF92FF920F931F93CF93DF93CDB714
:101DA000DEB7C254D1090FB6F894DEBF0FBECDBF67
:101DB000FC016481758143E350E0CE0101960E94ED
:101DC000751C10E0F12CE12C8B81181718F588ECAC
:101DD000C82E88E0D82E00E094E2A92EB12CAC0EDB
:101DE000BD1EA10EB11CF501808180130BC04FE018
:101DF00050E0B601CE01C4960E94751C8DA99EA923
:101E0000E80EF91E0F5FFFE0CF0ED11C0E3159F71F
:101E10001F5FDACFC701CE5BDF4F0FB6F894DEBF8E
:101E20000FBECDBFDF91CF911F910F91FF90EF902B
:101E3000DF90CF90BF90AF900895CF93DF93CDB751
:101E4000DEB7E3970FB6F894DEBF0FBECDBFFC013F
:101E50006481758143E350E0CE0101960E94751CB8
:101E600089819A81E3960FB6F894DEBF0FBECDBF8D
:101E7000DF91CF9108950F931F93CF93DF9300D0FD
:101E800000D0CDB7DEB7182F092FE82FF92F86E144
:101E9000DF011D928A95E9F7CE01019684DC8E81DF
:101EA0001F928F938D811F928F938C811F928F939E
:101EB0008B811F928F938A811F928F93898190E0EB
:101EC0008053984F9F938F9388E492E09F938F93D2
:101ED0000F931F930E9401200FB6F894DEBF0FBE30
:101EE000CDBF26960FB6F894DEBF0FBECDBFDF91F3
:101EF000CF911F910F9108950F931F93CF93DF936D
:101F0000CDB7DEB79E01285F3F4FF9014191519156
:101F10009F010AE612E080E4F80111928A95E9F740
:101F200060E470E0C8010E94851CF8010190002067
:101F3000E9F7AF014B565240B80187E793E0C0D8AC
:101F4000DF91CF911F910F910895CF92DF92EF9281
:101F5000FF920F931F93CF93DF93CDB7DEB7C35795
:101F6000D1090FB6F894DEBF0FBECDBF8C016B0157
:101F7000FC0111821082138212821582148286E380
:101F8000E82E81E0F82E43E350E0B701CE018F5BED
:101F90009F4F0E94751C23968EAD9FAD23978C1585
:101FA0009D05D1F5F801F582E482C801EEDE61E01D
:101FB00070E00E94A81FF80193838283C801E5DEC8
:101FC000F82EE92EF801648175816D5F7F4F8E01D7
:101FD0000F5F1F4FC8010E947E1CEF92FF921F935C
:101FE0000F9380E191E09F938F9386DF0F900F9086
:101FF0000F900F900F900F90CD58DF4F0FB6F894C1
:10200000DEBF0FBECDBFDF91CF911F910F91FF902B
:10201000EF90DF90CF900895F3E3EF0EF11C88EC82
:10202000E81688E0F80609F0AECFDF92CF9284EE92
:1020300090E09F938F9360DF86E391E0F8019583B2
:1020400084830F900F900F900F90D6CF0F931F9314
:10205000CF93DF93EC0186E090E00E94431B8C015C
:1020600070E060E072DF1B870A878AE89AE09F933E
:102070008F9342DF61E070E084E090E00E94A81F4F
:102080009F838E8361E070E080E190E00E94A81F52
:102090009D878C8762E070E081E090E00E94A81F3D
:1020A000998788870F900F90DF91CF911F910F91A3
:1020B00008954F925F926F927F928F929F92AF920C
:1020C000BF92CF92DF92EF92FF920F931F93CF9325
:1020D000DF93CDB7DEB7C05CD1090FB6F894DEBF91
:1020E0000FBECDBFCB52DF4F68817981C55DD04037
:1020F000CE018F579F4F0E947E1C61E070E080E40C
:1021000090E00E94A81F5C019E0127523F4FC952D8
:10211000DF4F48815981C75DD04060E470E00E9484
:10212000851C86E090E00E94431B8C016FE070E00C
:102130000CDFC80182DE0F97B9F4D80112968D9199
:102140009C91B5010E94EC1FC80177DE813DB7E08C
:102150009B07A1F060F48F309105A1F0893E934078
:1021600059F190E080E013C090E080E0EACF853D37
:1021700027E0920709F180349B4099F7F8018281AA
:10218000938105C0F80182819381805C9F4FBE01DD
:102190006F577F4F0E94EC1FC8014FDE813DF7E073
:1021A0009F0709F448C068F48A309105D9F00F9769
:1021B000D9F1F0E0E0E01AC0D80112968D919C911F
:1021C000E6CF8A3BABE09A0739F0813BBDE09B0745
:1021D000C1F1893B9B4069F7D8011296ED91FC91C2
:1021E000B09604C0D8011296ED91FC918091D10473
:1021F0009091D204A091D304B091D40480839183B0
:10220000A283B383C80119DE8C38BAE09B0709F4B6
:10221000D0C0E8F48F30910539F1853F914009F441
:10222000C1C0F0E0E0E026C0D8011296ED91FC912B
:10223000E05BFF4FDBCFD8011296ED91FC917096D9
:10224000D5CFD8011296ED91FC917896CFCF893BEE
:102250002BE0920719F08A3B9B4019F7D8011296A0
:10226000ED91FC91B49606C0D8011296ED91FC91C7
:10227000EC5AFF4FCC52DF4F8881C45DD040808341
:10228000E090BF04F090C0046E01B1E4CB0ED11C0D
:1022900067EC7AE0C6010E947E1CF7018081918183
:1022A000A281B3810196A11DB11D80839183A28378
:1022B000B3830115110509F48DC0C80166DD61E025
:1022C00070E048960E94A81F7C0144E050E063EC57
:1022D0007AE00E94751C3701F4E06F0E711C80E1FA
:1022E000F601D30101900D928A95E1F7C801A5DDB1
:1022F000582E492ED80114966D917C916D5F7F4FB9
:10230000FE0131964F01CF010E947E1C4F925F92D9
:102310007F926F929F928F92DF92CF9280EA9AE0A3
:102320009F938F93E9DD81E0D70154968C93C80188
:1023300084DDF701968B858BC80127DDD8011296C5
:102340006D917C91AC01C70147960E94CB1FC801DB
:102350001CDD8E0D9F1DFC01178A88E99AE09F9372
:102360008F93CADDC80111DD48964C010FB6F89471
:10237000DEBF0FBECDBFD12CC12C84E194E0C814C8
:10238000D90418F50E948D080297CCF0F701EC0DE6
:10239000FD1D608184E194E00E94FE089FEFC91A50
:1023A000D90AEBCFD8011296ED91FC91E75BFF4F74
:1023B00061CFD8011296ED91FC9138965BCF65E024
:1023C00070E080E090E061D8D8CF0E944A09C70150
:1023D0000E94DF1BC5010E94DF1B0115110529F0BA
:1023E000C80119DCC8010E94DF1BC054DF4F0FB6C3
:1023F000F894DEBF0FBECDBFDF91CF911F910F913B
:10240000FF90EF90DF90CF90BF90AF909F908F9014
:102410007F906F905F904F9008958F929F92AF92B0
:10242000BF92CF92DF92EF92FF920F931F93CF93C1
:10243000DF93CDB7DEB72C970FB6F894DEBF0FBE93
:10244000CDBF8C01CE01079691DA8F81843608F0DA
:1024500043C0CE01079627DA882309F43DC0CE0198
:10246000079612D9F801608B718B828B938B8489CC
:1024700081111FC081E0848B86819781009711F0C4
:102480000E94DF1BF801178216821092D704109267
:10249000D80486E29CE09F938F9383818F938281FF
:1024A0008F9381E08F9305DE0F900F900F900F9028
:1024B0000F902C960FB6F894DEBF0FBECDBFDF9104
:1024C000CF911F910F91FF90EF90DF90CF90BF9031
:1024D000AF909F908F900895F8018489882339F1F7
:1024E000148A81E090E00E94431BF8019783868361
:1024F0004089518962897389CE01019654D9CE01F0
:1025000001962BD983E08093D7041092D8042EE053
:102510003CE03F932F93F80193819F9392819F9387
:102520008F93C7DD0F900F900F900F900F900E9428
:10253000750A8090AE029090AF02A090B002B09069
:10254000B102681979098A099B0928EE33E040E055
:1025500050E00E947E1F69017A01A8EEB3E00E945C
:10256000591F860E971EA81EB91E8092AE02909229
:10257000AF02A092B002B092B1024091AA02509173
:10258000AB026091AC027091AD024C0D5D1D6E1DF1
:102590007F1D4093AA025093AB026093AC027093EC
:1025A000AD02CE010196FFD8CE0101966DD8F8019B
:1025B000608B718B828B938B7CCFCF93DF93EC01FD
:1025C0000E94750AAB01BC018C859D85AE85BF85D7
:1025D0008C599F4FAF4FBF4F84179507A607B7077A
:1025E00058F50E94750A6C877D878E879F87CE017C
:1025F00014DF8C89811120C00E94750AAB01BC01D7
:1026000088859985AA85BB85805D9A48AF4FBF4F65
:1026100084179507A607B70778F40E94750A68879C
:1026200079878A879B87E881F9810480F581E02D8D
:10263000CE01DF91CF911994DF91CF9108958F92C0
:102640009F92AF92BF92DF92EF92FF920F931F93F0
:10265000CF93DF93CDB7DEB7CC55D1090FB6F89441
:10266000DEBF0FBECDBF7C01FC01148A6281738185
:102670008E010F5F1F4FC8010E947E1C1F930F9396
:102680008EEF9BE09F938F9337DC49EE5BE062EF28
:102690007BE0CE01895A9F4FF1DACE01895A9F4FD4
:1026A0000E94440B0F900F900F900F90F7018088BD
:1026B0009188A288B388005C1F4F86169706A806EB
:1026C000B90648F444ED5BE06DED7BE0C801D6DA75
:1026D000C8010E94440B4FEB5BE068EC7BE0C80153
:1026E000CDDAC8010E94440B4B015C0110920B0330
:1026F00010920A0310920D0310922F03109276038A
:10270000DD24D394D09275031092700361E084E1CC
:102710000E94940961E085E10E9494098091B900CA
:102720008E7F8093B9008091B9008D7F8093B9002E
:1027300088E48093B80085E48093BC0082EB9AE043
:102740009093D3028093D20283EB9AE09093D702C6
:102750008093D602D0920C0388E680932E031092C9
:102760000D0310922F030E940308811133C09AD9E0
:1027700090E0880F892F881F990B892BB9F0B5013C
:10278000A401C80110D8C801A7D981E99BE09F9393
:102790008F93F70183818F9382818F9383E08F934F
:1027A00088DC0F900F900F900F900F90C801DED82B
:1027B000F8018081843620F4C80175D8811160C089
:1027C000B501A401C8010E94D30BC80185D983E6D5
:1027D0009BE002C085E29BE09F938F93F70183818A
:1027E0008F9382818F9383E08F9363DC0F900F90A0
:1027F0000F900F900F90F70140895189628973897A
:10280000C80139DB89E09BE09F938F9375DB1F93B1
:102810000F9387ED9AE09F938F936EDB81E090E0BA
:1028200032D7F701978386834089518962897389FA
:10283000CE01895A9F4F0E94D30BCE01895A9F4FD8
:102840000E94AD0B83E08093D7041092D8040F90C0
:102850000F900F900F900F900F90C45ADF4F0FB64C
:10286000F894DEBF0FBECDBFDF91CF911F910F91C6
:10287000FF90EF90DF90BF90AF909F908F90089562
:1028800081E0F701848BC701C8DDF70140895189D8
:1028900062897389C801EFDA1F930F9386E49BE086
:1028A0009F938F9329DB0F900F900F900F90D5CFB0
:1028B0001F920F920FB60F9211240BB60F922F9307
:1028C0003F934F935F936F937F938F939F93AF93B8
:1028D000BF93EF93FF9387E793E00E94DC08FF919B
:1028E000EF91BF91AF919F918F917F916F915F9188
:1028F0004F913F912F910F900BBE0F900FBE0F90F5
:102900001F9018951F920F920FB60F9211240BB6BD
:102910000F922F938F939F93EF93FF93E0918703F1
:10292000F09188038081E0918D03F0918E0382FD08
:102930001DC09081809190038F5F8F7320919103D0
:10294000821741F0E0919003F0E0E958FC4F958F39
:1029500080939003FF91EF919F918F912F910F9012
:102960000BBE0F900FBE0F901F9018958081F2CF75
:102970001F920F920FB60F9211240BB60F922F9346
:102980003F934F935F936F937F938F939F93AF93F7
:10299000BF93EF93FF9384E194E00E94DC08FF91E2
:1029A000EF91BF91AF919F918F917F916F915F91C7
:1029B0004F913F912F910F900BBE0F900FBE0F9034
:1029C0001F9018951F920F920FB60F9211240BB6FD
:1029D0000F922F938F939F93EF93FF93E091240493
:1029E000F09125048081E0912A04F0912B0482FD6E
:1029F0001DC0908180912D048F5F8F7320912E04D4
:102A0000821741F0E0912D04F0E0EC5EFB4F958FD2
:102A100080932D04FF91EF919F918F912F910F90B3
:102A20000BBE0F900FBE0F901F9018958081F2CFB4
:102A30001F920F920FB60F9211242F933F938F93F3
:102A40009F93AF93BF938091FA029091FB02A09164
:102A5000FC02B091FD023091F90223E0230F2D37E3
:102A600058F50196A11DB11D2093F9028093FA0239
:102A70009093FB02A093FC02B093FD028091FE02B2
:102A80009091FF02A0910003B09101030196A11D56
:102A9000B11D8093FE029093FF02A0930003B093B8
:102AA0000103BF91AF919F918F913F912F910F9013
:102AB0000FBE0F901F90189526E8230F0296A11DB8
:102AC000B11DD2CF1F920F920FB60F9211240BB6E9
:102AD0000F922F933F934F935F936F937F938F93B7
:102AE0009F93AF93BF93EF93FF938091B900887F3B
:102AF000803609F44DC008F040C0883209F4A9C0FE
:102B000028F5803109F49DC0C8F4882309F4FBC07E
:102B1000883009F496C0FF91EF91BF91AF919F91DA
:102B20008F917F916F915F914F913F912F910F9076
:102B30000BBE0F900FBE0F901F901895883109F4AF
:102B400088C0803241F78093740314C0803409F444
:102B50009DC040F48033B9F38833E9F68093740361
:102B600085ECB0C0803509F485C0883509F496C07D
:102B7000883489F60E94810ACECF883909F48CC046
:102B800038F5883729F050F4883611F0803719F677
:102B900083E0809376031092F80257C0883809F4D6
:102BA0007BC0803919F0803809F0B5CF8091F802E8
:102BB000803208F071C0E091F80281E08E0F8093BE
:102BC000F8028091BB00F0E0E852FD4F80833DC0E9
:102BD000803B39F0E0F4803A09F479C0883A09F092
:102BE0009ACF84E0809376031092D5021092D4029B
:102BF000E091D202F091D30219958091D402811113
:102C00000FC081E08093D4021092B20209C0803CD0
:102C100009F4A6CF883C09F4A3CF883B09F07BCF09
:102C2000E091D50281E08E0F8093D502F0E0EE5462
:102C3000FD4F80818093BB009091D5028091D4029A
:102C400029C0809171038093BB0085EC8093BC0008
:102C500062CF9091730380917203981758F5E091B9
:102C6000730381E08E0F80937303F0E0E05BFC4F11
:102C70008081E9CFE091730381E08E0F809373032D
:102C80008091BB00F0E0E05BFC4F80839091730388
:102C9000809172039817C8F285E8D8CFE09173034A
:102CA00081E08E0F809373038091BB00F0E0E05BC6
:102CB000FC4F80838091750381115CCF81E080930C
:102CC000700384EA8093BC001092760324CF85ECD5
:102CD0008093BC00109276038091F802803230F429
:102CE000E091F802F0E0E852FD4F10826091F802A6
:102CF00070E0E091D602F091D70288ED92E019954C
:102D00001092F80208CF1092740334CF0F931F93E0
:102D1000CF93DF9300D000D0CDB7DEB7E7E7F3E085
:102D20001382128288EE93E0A0E0B0E08483958362
:102D3000A683B7832AE032E0318320834DEC50E054
:102D4000558744874CEC50E05787468748EC50E065
:102D5000518B408B49EC50E0538B428B4AEC50E056
:102D6000558B448B4EEC50E0578B468B118E128E58
:102D7000138E148EE4E1F4E013821282848395832F
:102D8000A683B7833183208325EC30E03587248701
:102D900024EC30E03787268720EC30E0318B208B25
:102DA00021EC30E0338B228B22EC30E0358B248B0E
:102DB00026EC30E0378B268B118E128E138E148EFC
:102DC000E1EBF4E01382128284839583A683B783B8
:102DD0008CE192E091838083E6EDF4E01082118231
:102DE000128213821482158216821782108611862F
:102DF0001286138601EC14E08AE392E0D801119662
:102E00009C938E9317961C921E921697F80110862B
:102E10001186128613861C961D921D921D921C927D
:102E20001F97108A118A128A138A148A8CEB9EE0EB
:102E30009383828381E090E026D4D80115969C93F9
:102E40008E93149747EA5EE060EB7EE0CE01019638
:102E50000E943E0ECE0101960E94440BF801608B49
:102E6000718B828B938B89E190E00DD4FC018EE213
:102E700092E09183808313821482158217821682D6
:102E8000118610861386128615861486108A118A7A
:102E9000128A138A148A158A168A178A108E81E07C
:102EA000828381EA9EE0978786870DEB14E0D80144
:102EB000ED93FC9384E090E0E6D3FC011082118254
:102EC00012821382D80113969C938E9312972696A2
:102ED0000FB6F894DEBF0FBECDBFDF91CF911F912B
:102EE0000F910895CF93DF93CDB7DEB7DA950FB684
:102EF000F894DEBF0FBECDBF789484B5826084BDE8
:102F000084B5816084BD85B5826085BD85B58160ED
:102F100085BD80916E00816080936E00109281006B
:102F20008091810082608093810080918100816026
:102F300080938100809180008160809380008091E7
:102F4000B10084608093B1008091B0008160809373
:102F5000B0008091910082608093910080919100F7
:102F600081608093910080919000816080939000B7
:102F70008091A10082608093A1008091A100816076
:102F80008093A1008091A00081608093A000809137
:102F900021018260809321018091210181608093D1
:102FA00021018091200181608093200180917A002D
:102FB000846080937A0080917A00826080937A00A6
:102FC00080917A00816080937A0080917A00806895
:102FD00080937A001092C10064EF71E080E090E08D
:102FE0000E94450A8DE08093D904E5E0FDE024913C
:102FF000EFEBFCE08491882399F090E0880F991F13
:10300000FC01E856F34FA591B491FC01E258F34F4F
:10301000859194918FB7F894EC91E22BEC938FBF4C
:1030200013E061E08091D9040E94940968EC70E09B
:1030300080E090E00E94450A60E08091D9040E94FF
:10304000940968EC70E080E090E00E94450A11501D
:1030500041F787E793E00E949A071092D8041092F4
:10306000D7048E010F531F4F6AE67DE0C80146D496
:103070001F930F938FE59DE09F938F930E947C0F8A
:1030800084E194E00E949A071092180410921904A7
:1030900010921A0410921B048091BD049091BE04FA
:1030A000DC01ED91FC910480F581E02D199582E51C
:1030B0009DE09F938F938AE69DE09F938F9311E00D
:1030C0001F930E94591081EC94E0B9DA8EE39DE0E1
:1030D0009F938F938AE49DE09F938F931F930E9409
:1030E00059100FB6F894DEBF0FBECDBFCE010196CA
:1030F0001C012E0191E4490E511C3E01A1E86A0E0B
:10310000711C0E94750A6B017C018091DA04909118
:10311000DB04A091DC04B091DD048053984FAF4FE5
:10312000BF4F8C159D05AE05BF05E0F58091D70416
:103130008823C1F19091D80489130FC0C092DA049A
:10314000D092DB04E092DC04F092DD041092D8040B
:1031500060E08091D9040E9494098091DE049091EE
:10316000DF04A091E004B091E10488539F4FAF4F7A
:10317000BF4F8C159D05AE05BF05A0F48091D90405
:103180009091D604911172C061E00E94940981E08F
:103190008093D604C092DE04D092DF04E092E00473
:1031A000F092E10481EC94E008DA84E194E00E947A
:1031B000BE08892B09F439C284E194E00E94BE085C
:1031C000892B09F432C20091BD041091BE0484E140
:1031D00094E00E949C087C01F8018381811151C018
:1031E000C70199279F938F9388E89DE09F938F93C2
:1031F0000E947C0FD80116968D919C91BC016F5F47
:103200007F4F43E050E0D0D6D8011696ED91FC9167
:103210001797E38244E050E064E87DE016968D91D4
:103220009C9156D30F900F900F900F90892BA1F483
:103230008FE69DE09F938F930E947C0FD8011C9690
:10324000ED91FC9180E1DF011D928A95E9F781E023
:10325000F80183830F900F90E091BD04F091BE04BC
:10326000808D882309F4A8CF108EA6CF60E00E943D
:1032700094091092D6048091D8048F5F8093D8046B
:1032800089CFD80184818111B0C068E07EE0C3019C
:1032900035D3C70199279F938F93809102031F9283
:1032A0008F93E3EFFDE0FF93EF930E947C0F8091FB
:1032B00002030F900F900F900F900F900F9080319E
:1032C00058F4D8011C96ED91FC91E80FF11DE082B5
:1032D0008F5F80930203C0CFB1E0EB127DC0F80195
:1032E0008281882309F455C0F30101900020E9F799
:1032F0003197AF0146195709D8011C96ED90FC9003
:10330000B301C70170D6892B71F5F7010190002038
:10331000E9F731976F01CE18DF08C6010197409792
:1033200010F5F7018081082E000C990B2DD6892B02
:10333000D1F04701FFEF8F1A9F0ACE0CDF1CC81493
:10334000D90439F1D401AD904D010A2C000CBB0811
:10335000C5011AD6892B99F7B0E3AB1AB108EAE098
:10336000AE16B10460F3FF92EF927F926F9281EB01
:103370009DE09F938F930E947C0F0F900F900F9072
:103380000F900F900F90D80113961C921092020389
:1033900063CF1092020381E0D80114968C931497A6
:1033A0001896ED91FC911997118210821D968C91BF
:1033B0001D978F931C968C918F937F926F92E9ED5E
:1033C000FDE0FF93EF930E947C0F0F900F900F9002
:1033D0000F900F900F9040CFEBE8FDE0FF93EF933D
:1033E0000E947C0F0F900F90CECF8581811192C0EB
:1033F000C701992720910503211115C09F938F9331
:103400008FE79EE09F938F930E947C0FD8011896C0
:10341000ED91FC91E08281E0809305030F900F9085
:103420000F900F9019CF0084F185E02DE18218965E
:10343000ED91FC91C080D180DF92CF929F938F93CA
:10344000E5E7FEE0FF93EF930E947C0FD8011A9608
:10345000ED90FC900F900F900F900F900F900F90A9
:10346000E114F10409F445C0C7010E941D0FC816FC
:10347000D906D1F5C7010E94C50EAC0170E060E02D
:10348000F70182819381A1D5D7011D921C92EEE5AF
:10349000FEE0FF93EF930E947C0F0F900F90F801D6
:1034A000F386E28610920503108EC7010E94C50EB6
:1034B000892B59F5D80114961C92149713961C92D7
:1034C000139781E058968C93589750968D919D91C3
:1034D0000D90BC91A02D0196A11DB11DF801808B0E
:1034E000918BA28BB38BB8CEC7010E940B0EC70184
:1034F00066D186E090E0C7D07C01B6010E94A50F9E
:1035000089E69EE09F938F93C6CF81E0D801159600
:103510008C93A2CEC284D384D601AD90BC90C60158
:103520000E94C50EA816B90608F042C0D601129630
:10353000ED91FC9113978D919C911197E80FF91FD4
:10354000E0828D919C91119701968D939C9380912F
:103550000303909104030196909304038093030363
:10356000D8011A96ED91FC91648175816D5F7F4F52
:10357000C201C4D1F801828593850E94C50E5F9275
:103580004F929F938F93809104038F9380910303B5
:103590008F93FF24FF92EF9288E39EE09F938F9397
:1035A0000E947C0F0FB6F894DEBF0FBECDBF54CE85
:1035B000D8011A968D919C910E94C50EF82EE92E85
:1035C000D8011A96ED91FC91648175816D5F7F4FF2
:1035D000C10194D1EF92FF923F922F92EDE0FEE075
:1035E000FF93EF930E947C0FD80115961C921597BC
:1035F00014961C92149713961C92139781E0589678
:103600008C93589750968D919D910D90BC91A02DC3
:103610000196A11DB11DF801808B918BA28BB38BFC
:103620001092040310920303D0CE0E94750AAB01DE
:10363000BC018091060390910703A0910803B0910B
:103640000903805D9A48AF4FBF4F84179507A607BF
:10365000B70790F40E94750A6093060370930703FE
:10366000809308039093090384E99EE09F938F93CE
:103670000E947C0F0F900F900E94690942CD81EC4F
:1036800094E00C94F60D0F931F93CF93DF93823049
:10369000910510F482E090E0E091E404F091E504FB
:1036A00030E020E0B0E0A0E0309799F4211531053A
:1036B00009F44AC0281B390B24303105D8F58A811A
:1036C0009B816115710589F1FB0193838283FE0162
:1036D00011C0408151810281138148175907E0F0E0
:1036E0004817590799F4109761F012960C931297A6
:1036F00013961C933296CF01DF91CF911F910F91BA
:1037000008950093E4041093E504F4CF21153105E6
:1037100051F04217530738F0A901DB019A01BD01AE
:10372000DF01F801C1CFEF01F9CF9093E504809359
:10373000E404CDCFFE01E20FF31F81939193225059
:10374000310939832883D7CF2091E2043091E304F3
:10375000232B41F420910202309103023093E304C1
:103760002093E204209100023091010221153105DD
:1037700041F42DB73EB74091040250910502241B3D
:10378000350BE091E204F091E304E217F307A0F4B3
:103790002E1B3F0B2817390778F0AC014E5F5F4FA7
:1037A0002417350748F04E0F5F1F5093E3044093F2
:1037B000E204819391939FCFF0E0E0E09CCFCF9320
:1037C000DF930097E9F0FC01329713821282A091F7
:1037D000E404B091E504ED0130E020E01097A1F49D
:1037E00020813181820F931F2091E2043091E30404
:1037F0002817390709F061C0F093E304E093E2046D
:10380000DF91CF910895EA01CE17DF07E8F54A81ED
:103810005B819E0141155105B1F7E901FB83EA8304
:1038200049915991C40FD51FEC17FD0761F48081B0
:1038300091810296840F951FE90199838883828183
:1038400093819B838A83F0E0E0E012968D919C91B6
:1038500013970097B9F52D913C911197CD010296E0
:10386000820F931F2091E2043091E3042817390757
:1038700039F6309751F51092E5041092E404B093B4
:10388000E304A093E204BCCFD383C283408151817F
:10389000840F951FC817D90761F44E5F5F4F888169
:1038A0009981480F591F518340838A819B8193835B
:1038B00082832115310509F0B0CFF093E504E09340
:1038C000E4049ECFFD01DC01C0CF13821282D7CF6A
:1038D000FB01DC0104C08D910590801921F4415059
:1038E0005040C8F7881B990B0895FB01DC0102C00A
:1038F00005900D9241505040D8F70895FB01DC012E
:1039000005900D920020E1F708950F931F93CF9338
:10391000DF93CDB7DEB72E970FB6F894DEBF0FBE9C
:10392000CDBF8C01FA018EE08C831A83098377FF67
:1039300002C060E070E8615071097E836D83A90167
:10394000BF01CE01019619D04D815E8157FD0AC09D
:103950002F813885421753070CF49A01020F131F69
:10396000F80110822E960FB6F894DEBF0FBECDBFC1
:10397000DF91CF911F910F9108952F923F924F9217
:103980005F926F927F928F929F92AF92BF92CF92EF
:10399000DF92EF92FF920F931F93CF93DF9300D0AC
:1039A00000D000D01F921F92CDB7DEB77C013B0143
:1039B0008A01FC0117821682838181FFD0C1CE016A
:1039C00001965C01F7019381F30193FD859193FFCB
:1039D00081913F01882309F449C1853239F493FD6F
:1039E000859193FF81913F01853221F4B70190E0E9
:1039F000CFD1E8CF912C212C312CFFE1F31538F0F9
:103A00008B3211F190F4803209F1833229F137FCC5
:103A10003CC020ED280F2A3050F536FE20C08AE049
:103A2000989E200D1124922E06C08D3291F0803385
:103A300071F7689430F8F30193FD859193FF8191BC
:103A40003F018111DACF21C0689431F8689432F8CF
:103A5000F2CF689433F8EFCF689434F8ECCFEAE013
:103A60002E9E200D1124222E689435F8E4CF8E323C
:103A700029F436FCFBC0689436F8DDCF8C3619F497
:103A8000689437F8D8CF8836B1F2982F9F7D955437
:103A90009330D8F0833691F18337B1F1833509F053
:103AA0005EC02801F2E04F0E511CF801C080D180A9
:103AB000692D70E036FC02C06FEF7FEFC60152D176
:103AC0004C01689437F882010AC00C5F1F4FFFE376
:103AD000F98388248394912C6501E89437F833FEA8
:103AE0002AC0522C8114910459F5552009F46ACF4B
:103AF000B70180E290E04CD15A94F7CFF801808171
:103B000089830E5F1F4FE5CF2801F2E04F0E511C55
:103B1000F801C080D180692D70E036FC02C06FEFE3
:103B20007FEFC6012AD14C018201D7CFB70180E2D5
:103B300090E02ED12A942814190409F0B8F7D1CFB7
:103B4000F60137FC859137FE81916F01B70190E056
:103B50001FD151105A94F1E08F1A9108C3CF8436C7
:103B600019F0893609F073C0F80137FE67C060812B
:103B70007181828193810C5F1F4FF32DFF763F2E61
:103B800097FF09C090958095709561957F4F8F4FF5
:103B90009F4F689437F82AE030E0A50129D1C82E5C
:103BA000CA188C2C432C36FE0CC0E89440F8C9147B
:103BB00040F434FE05C032FC03C0F32DFE7E4F2ED0
:103BC000892C44FEA6C0FE01EC0DF11D80818033DE
:103BD00009F098C0242D297E422E842D8870582EFD
:103BE00043FCA5C040FE9FC09C2C821418F42C0CF2
:103BF000922C981844FEA1C0B70180E390E0C8D091
:103C000042FE08C088E790E041FE02C088E590E0EF
:103C1000B701BED0C91408F49CC0CA94D12C9FEF40
:103C2000C91AD90ACA0CDB1CF60182916F01B701CF
:103C300090E0AED0AC14BD04B9F757CF608171816C
:103C4000072E000C880B990B0E5F1F4F96CFD32CBD
:103C5000E894D4F82AE030E08537E1F1232D297F7C
:103C6000D22E8F36A9F1F0F4883551F1F701868113
:103C700097812B960FB6F894DEBF0FBECDBFDF91B4
:103C8000CF911F910F91FF90EF90DF90CF90BF9059
:103C9000AF909F908F907F906F905F904F903F90EC
:103CA0002F900895803749F0883701F7D4FE02C07D
:103CB0006894D2F820E130E00DC06894D4F8F6CFD3
:103CC00034FE03C0822F8660D82E20E132E002C08D
:103CD00028E030E0F801D7FE0EC06081718182815A
:103CE00093810C5F1F4FA50183D0C82ECA183D2CAD
:103CF000E89437F856CF6081718190E080E00E5FE4
:103D00001F4FF1CF42FC02C0839467CF839483940A
:103D100064CF842D867809F460CFF6CFB70180E2B6
:103D200090E036D083948214C8F3512C63CF522C88
:103D30005818821408F45ECFF8CF842D867809F4E1
:103D400069CF8BE241FE80E247FC8DE2B70190E053
:103D500060CFB70180E390E01BD09A945BCF8FEFE8
:103D60009FEF87CFFC010590615070400110D8F79C
:103D7000809590958E0F9F1F0895FC0161507040B3
:103D800001900110D8F7809590958E0F9F1F089590
:103D90000F931F93CF93DF93182F092FEB018B8184
:103DA00081FD09C01FEF0FEF812F902FDF91CF9181
:103DB0001F910F91089582FF14C02E813F818C8145
:103DC0009D81281739073CF4E881F981CF010196DC
:103DD0009983888310838E819F8101969F838E8330
:103DE000E3CFE885F985812F1995892BA1F3DACFE7
:103DF000FA01AA27283051F1203181F1E8946F931C
:103E00006E7F6E5F7F4F8F4F9F4FAF4FB1E03ED0C1
:103E1000B4E03CD0670F781F891F9A1FA11D680F5F
:103E2000791F8A1F911DA11D6A0F711D811D911D92
:103E3000A11D20D009F468943F912AE0269F112407
:103E40003019305D3193DEF6CF010895462F47706B
:103E5000405D4193B3E00FD0C9F7F6CF462F4F70C6
:103E6000405D4A3318F0495D31FD4052419302D024
:103E7000A9F7EACFB4E0A6959795879577956795CA
:103E8000BA95C9F700976105710508959B01AC01CA
:103E90000A2E06945795479537952795BA95C9F7F1
:103EA000620F731F841F951FA01D089599278827EF
:103EB000089509D0A59F900DB49F900DA49F800DEB
:103EC000911D11240895A29FB001B39FC001A39F2B
:103ED000700D811D1124911DB29F700D811D112443
:103EE000911D0895991B79E004C0991F961708F059
:103EF000961B881F7A95C9F780950895A1E21A2E1E
:103F0000AA1BBB1BFD010DC0AA1FBB1FEE1FFF1F7D
:103F1000A217B307E407F50720F0A21BB30BE40BCD
:103F2000F50B661F771F881F991F1A9469F7609514
:103F30007095809590959B01AC01BD01CF010895CE
:103F4000EE0FFF1F881F8BBF0790F691E02D19948D
:103F50000F931F93CF93DF93869F8001879F100D50
:103F6000969F100D1124C8018EDBEC01009721F003
:103F7000A80170E060E029D0CE01DF91CF911F91C0
:103F80000F91089585FD92CF806291118FCF815658
:103F90008A51E0F70895FB01DC0102C001900D9207
:103FA00041505040D8F708956817790768F4FB012D
:103FB000DC01E40FF51FA40FB51F02C002900E92A2
:103FC00041505040D8F70895E6CFDC0101C06D9311
:103FD00041505040E0F70895FB01DC0101900D9243
:103FE0000020E1F70895FB01DC014150504030F022
:103FF0008D910190801919F40020B9F7881B990B55
:1040000008950F931F93CF93DF93CDB7DEB72E970D
:104010000FB6F894DEBF0FBECDBF0E891F8986E0B4
:104020008C831A8309838FEF9FE79E838D83AE0174
:10403000465E5F4F688D798DCE0101969EDC2F81A3
:104040003885020F131FF80110822E960FB6F894D0
:10405000DEBF0FBECDBFDF91CF911F910F910895AD
:1040600017E0C7E6D7E000E005C0802FFE0168DF5B
:104070002196011DC836D10780E00807B1F7F894F2
:02408000FFCF70
:104082000000E604800000000000FE0860088D08C1
:104092004A09BE089C08B008000000000A0BDE0AAC
:1040A200380BB40AD70AC40AB50A00000000130E7E
:1040B200350E2610870C00000000F60D020E1F13AD
:1040C200DD123E0B3B0BEE0D2564202530326420C1
:1040D20025303264202D20253032643A2530326476
:0640E2003A2530326400B3
:00000001FF
