:100000000C94280A0C94590A0C94590A0C94590A15
:100010000C94590A0C94590A0C94590A0C94590AD4
:100020000C94590A0C94590A0C94590A0C94590AC4
:100030000C94590A0C94590A0C94590A0C94590AB4
:100040000C94590A0C94590A0C94590A0C94590AA4
:100050000C94590A0C94590A0C94590A0C9484254E
:100060000C94590A0C944E250C9424250C94590A8E
:100070000C94590A0C94590A0C94590A0C94590A74
:100080000C94590A0C94590A0C94590A0C94590A64
:100090000C94EE240C94C4240C94590A0C94CE2590
:1000A0000C94590A0C94590A0C94590A0C94590A44
:1000B0000C94590A0C94590A0C94590A0C94590A34
:1000C0000C94590A0C94590A0C94590A0C94590A24
:1000D0000C94590A0C94590A0C94590A0C94590A14
:1000E0000C94590A0A4D454D3A464154414C3A2028
:1000F000636F6E206E6F7420696E69742070616327
:100100006B65742025750A4372617368696E672E8A
:100110002E2E0A000A4D454D3A206E6577207061FB
:10012000636B657420257320286D616C6C6F632090
:1001300025752062797465732900000000656D7073
:100140007479207061636B6574000000000000002A
:10015000000000000000000000000000000000009F
:10016000000000000000000000000000000100008E
:10017000696E6974206279746500000000000000F7
:10018000000000000000000000000000000000006F
:10019000000000000000000000000000000000005F
:1001A000020000726573657420636F6D6D616E642B
:1001B000000000000000000000000000000000003F
:1001C000000000000000000000000000000000002F
:1001D000000000030000636F6E666967207265713E
:1001E000756573740000000000000000000000004E
:1001F00000000000000000000000000000000000FF
:100200000000000000000400007374617475732026
:1002100072657175657374000000000000000000D5
:1002200000000000000000000000000000000000CE
:10023000000000000000000000050001636F6D6D0C
:10024000616E6420737472696E67000000000000C4
:10025000000000000000000000000000010000009D
:100260000000000000000000000000000A0001740F
:10027000696D657374616D7000000000000000001E
:100280000000000000000000000000000000000668
:100290000000000000000000000000000000000F4F
:1002A000000467656E65726963207265706F7274B1
:1002B000000000000000000000000000000000003E
:1002C000000000020619000000000000000000000D
:1002D000000019000161636B6E6F776C6564676580
:1002E000000000000000000000000000000000000E
:1002F00000000000000700000000000000000000F7
:1003000000000000001E0000666163746F727920B7
:1003100072657365740000000000000000000000BA
:1003200000000000000000000000000000000000CD
:1003300000000000000000002D01017364206361D3
:1003400072642073657474696E67000000000000B9
:10035000000000000000000000000001000000009C
:100360000000000000000000000000F501046465CA
:10037000766963652073657474696E6700000000B8
:100380000000000000000000000000000000010567
:100390001C19000000000000000000000000E9033C
:1003A000047374616E6461726420636F6E66000032
:1003B000000000000000000000000000000000003D
:1003C000000203041B000000000000000000000009
:1003D00000EB030465737020636F6E66000000001D
:1003E000000000000000000000000000000000000D
:1003F000000000001D18171A000000000000000097
:1004000000000000ED030273616D706C6572206383
:100410006F6E660000000000000000000000000099
:1004200000000000000000151600000000000000A1
:1004300000000000000000150504616E616C6F672C
:100440002073656E736F7220636F6E66000000002C
:1004500000000000000000000000051C0F1000005C
:10046000000000000000000000001605027377691C
:1004700074636820636F6E66000000000000000077
:1004800000000000000000000000000000051C004B
:10049000000000000000000000000000001E050435
:1004A0006C64722073656E736F7220636F6E66008A
:1004B000000000000000000000000000000000003C
:1004C000051C0F10000000000000000000000000EC
:1004D000F2050644485432322073656E736F722001
:1004E000636F6E6600000000000000000000000066
:1004F000000000051C0F1011120000000000000099
:10050000000000A4060372656C617920636F6E665B
:1005100000000000000000000000000000000000DB
:10052000000000000000051C1A0000000000000090
:10053000000000000000D007026465766963652052
:1005400067656E6572696320636F6E660000000008
:10055000000000000000000000051C00000000007A
:10056000000000000000000000D107057374616EF8
:10057000646172642073746174757300000000001C
:100580000000000000000000000000000206090852
:100590000A0000000000000000000000D30705650D
:1005A00073702073746174757300000000000000A4
:1005B0000000000000000000000000000000000734
:1005C0000C0B0E0D0000000000000000000000D524
:1005D000070373616D706C65722073746174757359
:1005E000000000000000000000000000000000000B
:1005F00000000215070000000000000000000000DD
:100600000000FD0803616E616C6F672073656E7397
:100610006F7220737461740000000000000000001D
:10062000000000000005071A0000000000000000A4
:100630000000000000FE080373776974636820738C
:10064000656E736F722073746174000000000000A7
:10065000000000000000000005071A000000000074
:1006600000000000000000000609036C64722073A3
:10067000656E736F72207374617400000000000077
:10068000000000000000000000000005071A000044
:100690000000000000000000000000DA09044448E7
:1006A0005432322073656E736F72207374617400FC
:1006B0000000000000000000000000000000051322
:1006C000141A0000000000000000000000008C0A66
:1006D0000272656C6179207374617400000000001F
:1006E000000000000000000000000000000000000A
:1006F00000051900000000000000000000000000DC
:1007000000400B04736420737461746973746963CB
:100710007300000000000000000000000000000066
:1007200000000000021C0F08000000000000000094
:1007300000000000B80B0264657669636520676598
:100740006E657269632073746174000000000000BC
:1007500000000000000000051A000000000000007A
:1007600000000000000000B90B04616C6C61726D48
:100770000000000000000000000000000000000079
:100780000000000000000000000003040619000043
:1007900000000000000000000000BA0B0467656E56
:1007A0006572616C207761726E696E67000000008F
:1007B000000000000000000000000000000304062C
:1007C00019000000000000000000000000850C007F
:1007D00070726F62652072657175657374000000D8
:1007E0000000000000000000000000000000000009
:1007F00000000000000000000000000000000000F9
:10080000B10D04616D6269656E742070726F62650E
:1008100000000000000000000000000000000000D8
:1008200000000005030607000000000000000000B3
:100830000000008913046E6574776F726B20616429
:10084000647265737320736574000000000000001B
:1008500000000000000001051D180000000000005D
:100860000000000000008A13036573702061646457
:1008700072657373000000000000000000000000BB
:10088000000000000000000000051D18000000002E
:10089000000000000000000000FAFF01646F6F72AA
:1008A00062656C6C207369676E616C00000000000B
:1008B0000000000000000000000000000500000033
:1008C0000000000000000000000000006340006D18
:1008D0006573736167650000000000634000636F2B
:1008E0006D6D616E6400000000006310006E616D4C
:1008F000650000000000000000631000747970655E
:100900000000000000000000631000626F6172646C
:10091000000000000000006308006465766E616DF1
:100920006500000000006C040065706F63680000E3
:1009300000000000006C040076616C75650000002A
:10094000000000006C0400667265656D656D000056
:100950000000006C04006C6F6F7074696D650000BE
:1009600000006C04006572726F727300000000007A
:10097000006C0400746F74616C72780000000000F9
:100980006C0400746F74616C747800000000006C7B
:10099000040073657269616C7278000000006C0479
:1009A0000073657269616C7478000000006C04006B
:1009B000706172616D310000000000006C04007015
:1009C0006172616D320000000000006C0400706113
:1009D00072616D330000000000006C0400706172F1
:1009E000616D340000000000006C040074656D70DF
:1009F00065726174757265006C040068756D696478
:100A0000697479000000006C04007374657064619F
:100A10007931000000006C040073746570686F75B4
:100A200072310000006C040074696D656F757400AC
:100A3000000000006C0400706F7274000000000081
:100A40000000007301006C6576656C00000000001A
:100A5000000073010073746174757300000000007E
:100A6000007301006465766E756D00000000000083
:100A700073010070696E0000000000000000006358
:100A800011006970000000000000000000000A7002
:100A900061727365723A626567696E002E2E2E640C
:100AA0006F6E65000A4D454D3A20666F7267696E3C
:100AB00067207061636B65742025733A2573202568
:100AC000733A5B25755D00FF0101FF5445535400E7
:100AD0000A4552524F523A436F6E66426173653A0D
:100AE0006465766963653A20696E76616C69642035
:100AF00063616C6C20666F72206465766963652043
:100B00006174205B25755D00646F6E652100726500
:100B10006164696E672E2E2E000A416C6C6F6361F2
:100B200074696E6720646576202575202E2E2E0050
:100B30000A696F703A73656E64436F6E6669673AEF
:100B40006465766E756D206973202575000A696F7E
:100B5000703A73656E64436F6E6669673A64657672
:100B60006E756D206973202575004D4547413235FE
:100B700036300054455354002A2A204869742120F5
:100B80002A2A002A2A204D69737321202A2A001F4D
:100B90001C1F1E1F1E1F1F1E1F1E0A44656C65742E
:100BA000696E6720436F6E6642617365000A444553
:100BB000564E554D207570646174656420697320CC
:100BC0002575000A52656164696E6720626173650C
:100BD0002070726F70202575203A20000A577269C4
:100BE00074696E6720626173652070726F70202572
:100BF00075203A202573004D454741323536300087
:100C000053414D504C45520054455354000A436FD4
:100C10006E66426173653A626567696E3A20636F1A
:100C20006D706C657465210A00546F6F206D616E84
:100C300079206174746163686564206465766963B2
:100C40006573203C25753E000A436F6E66426173F2
:100C5000653A626567696E3A20746F6F206D616EE8
:100C6000792064657669636573203A2025752028AC
:100C70006D617820257529003E3E204641494C454E
:100C800044210A00205B202573205D20000A436F69
:100C90006E66426173653A626567696E3A205061BB
:100CA00072616D657465722025753A2573005D0A61
:100CB00000257520000A436F6E66426173653A69CC
:100CC0006E69746465763A20706F736974696F6ECB
:100CD0002061727261793A205B20000A436F6E6670
:100CE000426173653A696E69746465763A2074721C
:100CF000756E636174696E672061727261792061DB
:100D0000742025752F257500202D206C6F6164657A
:100D100064202573206F6E2070696E202575004950
:100D20006E76616C696420646576696365205B2515
:100D3000753A25735D20617420706F736974696FF3
:100D40006E202575000A436F6E66426173653A69CD
:100D50006E69746465763A205B25752F25755D2074
:100D60003C25753E20617420696E64657820257588
:100D700000476F7420696E76616C696420706163EE
:100D80006B6574203C25733E20666F7220636F6E26
:100D900066000A4445563A5741524E494E473A7604
:100DA000616C69646174653A20676F74206E756C5C
:100DB0006C706F696E746572000A4445563A57410B
:100DC000524E494E473A76616C69646174653A20C7
:100DD000676F74206E756C6C706F696E74657200ED
:100DE0005D0A0A00257520000A09546F74616C20A1
:100DF000646576696365733A202575205B20000A77
:100E00000A09636F6E663A6465764164643A6164A8
:100E1000646564202573206F6E2070696E202575CF
:100E200021000A52656D6F76696E672066726F6D7C
:100E300020257520746F20257500446576696365EB
:100E4000202573206E6F7420666F756E64004E6F80
:100E50002064657669636520746F2072656D6F76B6
:100E60006500476F74206E6F6E2D646576696365EB
:100E7000207061636B6574203C25733E20666F7241
:100E800020636F6E6620616464004445563A766163
:100E90006C69646174653A2070696E202575206103
:100EA0006C7265647920696E2075736500476F7494
:100EB000206E756C6C707472207061636B65742049
:100EC0003C3E00476F74206E756C6C7074722070BD
:100ED00061636B6574203C3E00476F74206E756CD7
:100EE0006C707472207061636B6574203C3E0044CA
:100EF00045563A4D4F443A2070696E202575206161
:100F00006C7265647920696E20757365004445567E
:100F10003A4D4F443A20696E76616C69642064658D
:100F200076696365202573004445563A5345543A23
:100F30004E414D453A20696E76616C696420646566
:100F400076696365202573004445563A5345543A03
:100F50004E414D453A20696E76616C6964206E6140
:100F60006D65202573000A454550524F4D3A536137
:100F70006D706C657220626567696E20636F6D705D
:100F80006C65746500466F756E6420696E76616C81
:100F9000696420434F4F4C2054494D45203C2575F2
:100FA0003E00466F756E6420696E76616C696420E0
:100FB00053544550203C25753E000A57726F7465A6
:100FC0002073656E736F722025753A2573202D206E
:100FD0006E6F2070696E2025750A002573202D2004
:100FE0006F6E2070696E202575000A5772697469EA
:100FF0006E672073656E736F722025753A202575B4
:10100000202D2000444854310000000005F2054422
:101010004854320000000006F205444854330000F2
:10102000000007F20546414E310000000008A4060A
:1010300046414E320000000009A4060A636C6F634B
:101040006B3A204D494C4C49532073746172743A89
:101050000A636C6F636B3A2063757272656E7420FD
:101060006461746574696D653A202573000A636C68
:101070006F636B3A2063616E206E6F7420696E69D6
:10108000742044533332333100626567696E3A200D
:1010900063616E206E6F7420696E697420445333EF
:1010A00032333120636C617373000A636C6F636B5E
:1010B0003A2063757272656E742064617465746938
:1010C0006D653A20257300626567696E3A20696E26
:1010D00076616C69642065706F63682E20506C6562
:1010E00061736520636865636B20636F6E6E656313
:1010F00074696F6E00626567696E3A20706F77651C
:1011000072206C6F73732E20506C65617365206361
:101110006865636B20636C6F636B206261747465D8
:1011200072790030333A32373A3036004D617920E7
:10113000203820323032300030333A32373A3036CD
:10114000004D617920203820323032300030333A7F
:1011500032373A3036004D61792020382032303233
:1011600030000A636C6F636B3A25733A6265676996
:101170006E0065706F63683A20525443207369674C
:101180006E616C206C6F7374210065706F63683AD8
:101190002052544320666F756E64210000000A0BD4
:1011A00002090C0D0E0807030401000000000000F6
:1011B000000000000000000000000000000000002F
:1011C00000000000000000001211100000000000EC
:1011D000000000000000000000000000000000000F
:1011E000000000002200250028002B002E00310006
:1011F000340002010000050108010B01000021007C
:10120000240027002A002D003000330001010000D7
:10121000040107010A010505050507050808080876
:10122000020202020A0A080804040404010101017E
:101230000101010103030303030303030407070779
:101240000C0C0C0C0C0C0C0C02020202060606061E
:10125000060606060B0B0B0B0B0B0B0B01021020EB
:1012600020080810204010204080020102010804DC
:101270000201010204081020408080402010080470
:1012800002018004020180402010080402010804C9
:10129000020101020408102040800102040810200D
:1012A0004080424F415244205245414459005341ED
:1012B0004D504C4552000A3C494E49543A434F4E1A
:1012C000463E0A00424F4152442053544152545327
:1012D000000A3C494E49543A25733E005445535444
:1012E000000A70617273653A707265616D626C6557
:1012F000205041535300FF0101FF2563000A494F6D
:101300003A0A5741524E494E473A70617273653AF4
:101310006E616D653A20636F756C64206E6F74202A
:1013200066696E6420696E69742062797465000A6A
:10133000494F3A5741524E494E473A706172736570
:101340003A6E616D653A205B25733A25735D2063C3
:101350006F6D70617269736F6E204641494C4544F0
:1013600021000A70617273653A6E616D653A205BA7
:1013700025733A25735D2050415353000A70617202
:1013800073653A6E616D653A202575205B25755D44
:101390000054455354000A70617273653A70617964
:1013A0006C6F61643A20646F776E6C6F6164656422
:1013B000203C25733E205B25752042797465735D62
:1013C000000A70617273653A7061796C6F61643A9A
:1013D00020676F74202575202825752F25752920F5
:1013E000666F722025730025755D203D3E202575B2
:1013F000000A70617273653A636F6D6D616E643A75
:10140000205B25752E0053414D504C45523A4C4FB0
:101410004F500053414D504C4552004545434F4EAF
:101420004600494F5359530030333A32373A303639
:10143000004D617920203820323032300052544340
:101440004C4F434B2044533332333100F2268C2B24
:1014500011241FBECFEFD1E2DEBFCDBF00E00CBF35
:1014600012E0A0E0B2E0E4E8F1E600E00BBF02C069
:1014700007900D92AE3EB107D9F725E0AEEEB2E08F
:1014800001C01D92AC39B207E1F71AE0C7E2DAE019
:1014900000E006C021970109802FFE010E94103054
:1014A000C632D10780E00807A9F70E94F3270C9401
:1014B000B1300C940000FC01A089B18982E08C93CA
:1014C000A485B5851C92A685B78580E18C93108E86
:1014D000A489B58986E08C93A289B3898C918061B7
:1014E0008C93A289B3898C9188608C93A289B389EB
:1014F0008C9180688C930288F389E02D80818F7DA8
:10150000808308959091FE039111FCCF91E0909318
:10151000FE039093FD032FEF2093FC031092FB0337
:10152000260F2093FA039093F9039091F903880F03
:10153000892B8093F9038091F8038130F9F410929C
:10154000F8038091F9038093BB008091BC0083FD78
:10155000F8CF85EC8093BC008091FE038130E1F3ED
:101560008091FB03861710F46091FB03A8EDB3E0B4
:10157000E8EBF3E080E0861303C0089585EEEACF40
:101580009D9191938F5FF7CF2091B70381E0213236
:1015900008F044C08091FE038111FCCF8091B60316
:1015A00092E09093FE0391E09093FD039FEF909360
:1015B000FC031092FB032093FA03A6E9B3E0E8EDE5
:1015C000F3E090E0291331C01092F9039091F903F0
:1015D000880F892B8093F9038091F803813049F5B6
:1015E0001092F8038091F9038093BB008091BC00B6
:1015F00083FDF8CF85EC8093BC008091FE038230A0
:10160000E1F38091FC038F3FB1F08091FC038032C5
:10161000A1F08091FC03803391F084E01092950357
:101620001092B7031092940308953D9131939F5FF8
:10163000C9CF85EEE0CF80E0F1CF82E0EFCF83E04D
:10164000EDCFAF92BF92CF92DF92EF92FF920F93C6
:101650001F93CF93DF936C017B018B01040F151F48
:10166000EB015E01AE18BF08C017D10759F06991B0
:10167000D601ED91FC910190F081E02DC601199504
:10168000892B79F7C501DF91CF911F910F91FF90C1
:10169000EF90DF90CF90BF90AF900895FC01538DF5
:1016A000448D252F30E0842F90E0821B930B54173C
:1016B00010F0CF96089501970895FC01918D828DC9
:1016C000981761F0A28DAE0FBF2FB11D5D968C9162
:1016D000928D9F5F9F73928F90E008958FEF9FEFA1
:1016E0000895FC01918D828D981731F0828DE80F5D
:1016F000F11D858D90E008958FEF9FEF0895FC0117
:10170000918D228D892F90E0805C9F4F821B9109E3
:101710008F73992708958FEF93E0F1DF21E0892BF4
:1017200009F420E0822F08958CE994E0E8DF21E0BD
:10173000892B09F420E0822F0895FC01A48DA80FC5
:10174000B92FB11DA35ABF4F2C91848D90E0019603
:101750008F739927848FA689B7892C93A089B18923
:101760008C91837080648C93938D848D981306C0C4
:101770000288F389E02D80818F7D80830895EF9228
:10178000FF920F931F93CF93DF93EC0181E0888F3B
:101790009B8D8C8D98131AC0E889F989808185FF0B
:1017A00015C09FB7F894EE89FF896083E889F989AD
:1017B00080818370806480839FBF81E090E0DF91AF
:1017C000CF911F910F91FF90EF900895F62E0B8D02
:1017D00010E00F5F1F4F0F731127E02E8C8D8E11BD
:1017E0000BC00FB607FCFACFE889F989808185FF25
:1017F000F5CFCE01A2DFF2CFEB8DEC0FFD2FF11D67
:10180000E35AFF4FF0829FB7F8940B8FEA89FB8968
:1018100080818062D0CFCF93DF93EC01888D8823C5
:10182000B1F0AA89BB89E889F9898C9185FD03C04B
:10183000808186FD0CC00FB607FCF7CF8C9185FF29
:10184000F2CF808185FFEDCFCE0177DFEACFDF9148
:10185000CF91089580E090E0892B21F065DF811120
:101860000E94000080E090E0892B21F054DF81117C
:101870000E94000080E090E0892B49F080E090E039
:10188000892B29F00E94000081110E94000080E055
:1018900090E0892B49F080E090E0892B29F00E94AC
:1018A000000081110C9400000895282F30E0F90108
:1018B000E456FE4E9491F901E45AFD4E44912A5E9D
:1018C0003D4EF9012491222309F435C0992311F1E9
:1018D00091509231F8F4E92FF0E08827ED58F34F5A
:1018E0008F4F0C941030A40CA80C850C9C0CA00CF1
:1018F0008A0CAB0CB10CB50CBB0CBF0CC30CC90CE7
:10190000CD0C8A0CD10CD70CDB0C809180008F772A
:1019100080938000E22FF0E0EE0FFF1FEE51FE4EAD
:10192000A591B4918FB7F894EC91611148C040959E
:101930004E234C938FBF0895809180008F7DE8CF18
:1019400080918000877FE4CF84B58F7784BDE2CF1C
:1019500084B58F7DFBCF8091B0008F778093B000EE
:10196000D9CF8091B0008F7DF9CF809190008F7793
:1019700080939000CFCF809190008F7DF9CF8091A0
:101980009000877FF5CF8091A0008F778093A00093
:10199000C1CF8091A0008F7DF9CF8091A000877F7B
:1019A000F5CF809120018F7780932001B3CF809174
:1019B00020018F7DF9CF80912001877FF5CF4E2BBD
:1019C000B8CF3FB7F8948091860390918703A09198
:1019D0008803B091890326B5A89B05C02F3F19F055
:1019E0000196A11DB11D3FBFBA2FA92F982F88279F
:1019F000BC01CD01620F711D811D911D42E0660F7A
:101A0000771F881F991F4A95D1F708958F929F924B
:101A1000AF92BF92CF92DF92EF92FF924B015C01A7
:101A2000D0DF6B017C01CDDF6C197D098E099F0928
:101A3000683E734081059105B0F321E0821A910858
:101A4000A108B10888EEC80E83E0D81EE11CF11C85
:101A500081149104A104B10431F7FF90EF90DF905D
:101A6000CF90BF90AF909F908F9008952FB7F8942C
:101A70006091820370918303809184039091850328
:101A80002FBF089585ED8093BC008091BC0084FD3C
:101A9000FCCF1092FE03089520915C03260F33279C
:101AA000331F21323105ECF42091FE03FC0190E05C
:101AB00080E0243069F082E00895A0915C032191D8
:101AC000AC01465C5C4FA40FB52FB11D2C93019661
:101AD000861798F380915C03680F60935C0380E045
:101AE000089581E00895089508950895E09193037D
:101AF00080919203E81730F4F0E0E854FC4F8081C5
:101B000090E008958FEF9FEF089590919303809157
:101B100092032FEF3FEF981748F4E92FF0E0E854D5
:101B2000FC4F208130E09F5F90939303C90108959B
:101B30008091920390919303891B990B0895CF9202
:101B4000DF92EF92FF920F931F93CF93DF937C016D
:101B5000CB018A0120919403222389F0EB016B01D0
:101B6000C40ED51ECC15DD0561F06991D701ED914C
:101B7000FC910190F081E02DC7011995F3CF642FFE
:101B80008BDFC801DF91CF911F910F91FF90EF90F4
:101B9000DF90CF900895CF93DF931F92CDB7DEB73C
:101BA0006983209194032223F9F02091B703203216
:101BB00058F021E030E0FC013383228390E080E0A4
:101BC0000F90DF91CF91089580919503E82FF0E079
:101BD000EA56FC4F998190838F5F809395038093A1
:101BE000B70381E090E0ECCF61E0CE01019654DFD5
:101BF000F8CF90E080E00895FC0184890895FC010D
:101C00006089718982899389089508950895089556
:101C1000089580E00895EF92FF920F931F93CF9362
:101C2000DF93EC0169813881432F50E02A81822FB4
:101C300090E0EFE8FBE021E0261730F47491870F85
:101C4000911D2F5F3196F8CF633018F0337009F48F
:101C500001966DE671E0469F9001479F300D569FBB
:101C6000300D1124215031094D5F5F4F5695479536
:101C700056954795240F351F280F391FA8E1B0E06E
:101C80000E94D32F2B817B018C01E20EF11C011DE0
:101C9000111DA8019701ACE3B0E00E94C92F2C816F
:101CA0007B018C01E20EF11C011D111DA8019701A1
:101CB0000E94C92FAB01BC019D81892F90E0B0E04B
:101CC000A0E080589C4BA249B74C8A019B01080FA9
:101CD000191F2A1F3B1FC901B801DF91CF911F9126
:101CE0000F91FF90EF900895CF93DF93EC01BEDE4C
:101CF00060933603709337038093380390933903CE
:101D0000CE0189DF609332037093330380933403F1
:101D100090933503DF91CF910895FC01908190530A
:101D20009A3008F090E0818180532AE0929F800DE4
:101D3000112408958F929F92AF92BF92CF92DF921B
:101D4000EF92FF92CF93DF93EC016A017B0180E871
:101D5000C81A83E4D80A8DE6E80A88E3F80A8CE317
:101D6000882E912CA12CB12CC701B601A50194019C
:101D70000E94EE2F6D83CA01B901A50194010E9452
:101D8000EE2F6C83C701B60120E13EE040E050E059
:101D90000E94EE2FCA01B90128E130E040E050E096
:101DA0000E94EE2F6B83C701B60120E831E541E0C8
:101DB00050E00E94EE2F188263E97EEF8881982F11
:101DC000937041E050E011F050E040E0FA01E35937
:101DD000FE4F2E173F0740F0FB01E41BF50B2E0FC3
:101DE0003F1F8F5F8883EACF81E0898389818C30B0
:101DF000A0F4482F4150550BFA01E157F44FE491FC
:101E0000911103C0823009F4EF5FF0E02E173F0715
:101E100020F02E1B3F0B8F5FE8CF2F5F2A83DF91CF
:101E2000CF91FF90EF90DF90CF90BF90AF909F90B9
:101E30008F9008950F931F93CF93DF9300D000D01E
:101E4000CDB7DEB78C01E7DEAB01BC01CE01019658
:101E500071DFF80190818981981314C091818A8182
:101E6000981310C092818B8198130CC093818C8140
:101E7000981308C094818D81981304C081E0258156
:101E80009E81291380E026960FB6F894DEBF0FBE20
:101E9000CDBFDF91CF911F910F910895CF92DF9227
:101EA000EF92FF920F931F93CF93DF93EC0189DDA5
:101EB0000091EE021091EF022091F0023091F102B8
:101EC0006B017C01C01AD10AE20AF30A970186016C
:101ED0000C8B1D8B2E8B3F8B6093EE027093EF0269
:101EE0008093F0029093F102DF91CF911F910F91B7
:101EF000FF90EF90DF90CF900895CF92DF92FF9206
:101F00000F931F93CF93DF936C0181E08093940331
:101F100088E68093B603109295031092B70360E0B1
:101F200089E395E038DE30DB67E088E6EBDA109293
:101F300093038093920389E395E0E7DD8F77282F61
:101F400030E094E0359527959A95E1F7922F990F17
:101F5000990FC22FC91BCC0FC80F89E395E0D5DDBF
:101F60009C0144E0359527954A95E1F72F7033277A
:101F7000922F990F990FD22FD91BDD0FD80F89E31C
:101F800095E0C3DD9C0154E0359527955A95E1F71E
:101F90002F703327922F990F990F122F191B110FA2
:101FA000180F89E395E0B1DD89E395E0AEDD9C0192
:101FB00064E0359527956A95E1F72F703327922FC6
:101FC000990F990F022F091B000F080F89E395E065
:101FD0009CDD9C0174E0359527957A95E1F72F708B
:101FE0003327922F990F990FF22EF91AFF0CF80E42
:101FF00089E395E08ADD9C01E4E035952795EA9533
:10200000E1F72F703327922F990F990F291B220F79
:10201000820FF6018083F18202831383D483C58308
:10202000C601DF91CF911F910F91FF90DF90CF906C
:10203000089581E08093940388E68093B60310921C
:1020400095031092B7036FE089E395E0A4DD9CDA75
:1020500061E088E657DA109293038093920389E354
:1020600095E053CD0895FF920F931F93CF93DF9385
:10207000EC0101E00093940318E61093B60310926C
:1020800095031092B70360E089E395E084DD2D812C
:102090008AE0F82E822F6F2D0E94E22F682F660FA4
:1020A000680F660F620F89E395E075DD2C81822F42
:1020B0006F2D0E94E22F682F660F680F660F620F68
:1020C00089E395E068DD2B81822F6F2D0E94E22F3E
:1020D000682F660F680F660F620F89E395E05BDD7E
:1020E00060E089E395E057DD2A81822F6F2D0E9401
:1020F000E22F682F660F680F660F620F89E395E085
:102100004ADD2981822F6F2D0E94E22F682F660FF2
:10211000680F660F620F89E395E03DDD2881822F0D
:102120006F2D0E94E22F682F660F680F660F620FF7
:1021300089E395E030DD28DA7CDFC82F0093940333
:102140001093B603109295031092B7036FE089E3E2
:1021500095E021DD6C2F6F7789E395E01CDDDF9141
:10216000CF911F910F91FF900FCAFC0184898823A2
:1021700011F0CB0178CFCB01B7CD24E932E0FC01DF
:102180003183208384819581009711F00C94302C49
:102190000895CF93DF93EC01F0DFCE01DF91CF9173
:1021A0000C94302C0C94302CFC018281938100978C
:1021B00011F00C94302C0895CF93DF93EC0188E854
:1021C00092E0998388838E819F810E94302C8C8538
:1021D0009D850E94302C888599850E94302C0A8428
:1021E000DB85C02D209739F0CE01DEDFCE01DF91F7
:1021F000CF910C94302CDF91CF910895CF93DF9342
:10220000EC01DADFCE01DF91CF910C94302CCF922C
:10221000DF92EF92FF920F931F93CF93DF93EB0127
:102220007B0124E0E20EF11C8B016C01C61AD70A77
:10223000C601800F911F0E94B32FF80181938F0177
:10224000EE15FF05A9F7CE01DF91CF911F910F91F8
:10225000FF90EF90DF90CF9008950F931F93CF934F
:10226000DF938C01EB010E94B32F8883C801019694
:102270000E94B32F8983CE01DF91CF911F910F91DF
:1022800008950C94B32FFF920F931F93CF93DF9376
:102290008C01F62E80E390E0F4DFD82F0A5F1F4F09
:1022A000C0E0CD1751F0F801819191918F010A960C
:1022B000E8DFF81619F0CF5FF4CFCFEF8C2FDF9166
:1022C000CF911F910F91FF900895EF92FF920F937E
:1022D0001F93CF93DF9300D000D000D01F921F92A6
:1022E000CDB7DEB78C017A014BE050E0CE0101960C
:1022F0000E94C62CCE010A9610DDF8018083E98188
:10230000E154E33128F50E2E000CFF0B8827E4572B
:10231000FE4E8F4F0C941030D611A811A811EA115F
:10232000A811D411A811A811A8119F11A811A811C2
:10233000DD11E811E611A811A811A811E4118A8194
:10234000813671F18B818E3669F187E0F8018183E6
:10235000CE010596E2DCF801828348E050E0B70147
:10236000CE0101960E94C62CCE010196D6DCF80162
:102370008383CE010496D1DCF8018483CE010796D5
:10238000CCDCF80185832B960FB6F894DEBF0FBE28
:10239000CDBFDF91CF911F910F91FF90EF900895E6
:1023A00081E0D4CF86E0D2CF82E0D0CF8B8182375C
:1023B00011F088E0CBCF84E0C9CF8B81823711F058
:1023C00085E0C4CF83E0C2CF89E0C0CF8AE0BECF32
:1023D0008BE0BCCF8CE0BACFAF92BF92CF92DF92AE
:1023E000EF92FF920F931F93CF93DF93CDB7DEB79A
:1023F000C254D1090FB6F894DEBF0FBECDBFFC01A9
:102400006481758143E350E0CE0101960E94C62CA1
:1024100010E0F12CE12C8B81181718F58CECC82EEC
:1024200088E0D82E00E094E2A92EB12CAC0EBD1E9F
:10243000A10EB11CF501808180130BC04FE050E06C
:10244000B601CE01C4960E94C62C8DA99EA9E80EA5
:10245000F91E0F5FFFE0CF0ED11C0E3159F71F5F41
:10246000DACFC701CE5BDF4F0FB6F894DEBF0FBEE9
:10247000CDBFDF91CF911F910F91FF90EF90DF9033
:10248000CF90BF90AF900895EF92FF921F93CF939C
:10249000DF93EC01162FE880F9809EDFE816F9063D
:1024A00098F4EA81FB8188819981E80FF91F1083F4
:1024B0008881998101969983888381E0DF91CF910A
:1024C0001F91FF90EF90089580E0F8CFCF93DF93B6
:1024D000CDB7DEB7E3970FB6F894DEBF0FBECDBF22
:1024E000FC016481758143E350E0CE0101960E94B6
:1024F000C62C89819A81E3960FB6F894DEBF0FBE91
:10250000CDBFDF91CF910895CF93DF93EC01DEDF54
:102510008E3125E09207A9F060F4853F21E0920713
:10252000F9F020F085519540029758F090E080E056
:102530001BC0843A26E0920721F038F4823F954090
:10254000A9F78A819B8108960FC0803D27E09207FA
:10255000C1F380349B4051F78A819B81409604C02F
:102560008A819B81885B9F4FDF91CF910895CF93A4
:10257000DF93EC01ABDF8E3125E0920791F030F470
:102580008531954071F090E080E00EC0823F25E0FB
:10259000920739F080349B40B1F78A819B81419644
:1025A00003C08A819B810996DF91CF910895CF93D3
:1025B000DF93EC018BDF8F3F28E0920728F58D3FFA
:1025C00028E09207E0F48E3125E09207C1F060F434
:1025D000853F21E09207C9F120F08551954002978F
:1025E00070F090E080E00DC0843A26E0920739F068
:1025F000803D27E0920719F0823F954091F78A814C
:102600009B81DF91CF910895883B2BE09207B9F32E
:1026100060F48A3D29E0920791F38C382AE0920712
:1026200071F386309940E9F6EACF893823E19207C1
:1026300061F020F4813B9D4011F3D3CF8A3823E130
:102640009207E9F20696D9F2CCCF8A819B81805C11
:102650009F4FD7CFCF93DF93EC0138DF813D27E049
:10266000920789F048F48F30910581F0893E9340BC
:1026700051F090E080E00EC0853D27E0920719F010
:1026800080349B40B1F78A819B8104C08A819B8101
:10269000805C9F4FDF91CF910895FF920F931F931E
:1026A000CF93DF93EC01F62E08811981C8010E94B7
:1026B000B32FF81621F06F2DC8010E94BB2FCE0159
:1026C000DF91CF911F910F91FF900895AF92BF922C
:1026D000CF92DF92EF92FF920F931F93CF93DF93EE
:1026E0001F921F92CDB7DEB78B016B0124E0C20EA3
:1026F000D11C7B015C01A61AB70AC5018E0D9F1D76
:102700009A838983F70161917F01CE010196C5DF2C
:10271000EC14FD0491F7C8010F900F90DF91CF9159
:102720001F910F91FF90EF90DF90CF90BF90AF90EF
:1027300008954F925F926F927F928F929F92AF9285
:10274000BF92CF92DF92EF92FF920F931F93CF939E
:10275000DF9300D000D01F921F92CDB7DEB75C018F
:102760004B01512C98E0492ECE0101966C0180E37B
:1027700090E087DD581648F5F601842D11928A9570
:10278000E9F7E52DF0E03396EE0FFF1FEA0DFB1D94
:1027900000811181780192E0E90EF11C3601065F9B
:1027A0001F4FC7010E94B32FF30181933F01FFEF39
:1027B000EF1AFF0AE016F106A1F7B601C4010E9464
:1027C0006430892B21F05394D2CF55245A94852D0F
:1027D00028960FB6F894DEBF0FBECDBFDF91CF9124
:1027E0001F910F91FF90EF90DF90CF90BF90AF902F
:1027F0009F908F907F906F905F904F9008950F9370
:102800001F93CF93DF9300D000D0CDB7DEB7182F42
:10281000092FE82FF92F86E1DF011D928A95E9F74C
:10282000CE01019687DA8E811F928F938D811F9240
:102830008F938C811F928F938B811F928F938A81AC
:102840001F928F93898190E08053984F9F938F932D
:1028500082EA92E09F938F930F931F930E9482309E
:102860000FB6F894DEBF0FBECDBF26960FB6F89414
:10287000DEBF0FBECDBFDF91CF911F910F910895A5
:102880000F931F93CF93DF93CDB7DEB79E01285FE1
:102890003F4FF901419151919F0102EF12E080E415
:1028A000F80111928A95E9F760E470E0C8010E948E
:1028B000DF2CF80101900020E9F7AF01435F52409F
:1028C000B8018FEF93E00E94210BDF91CF911F9110
:1028D0000F9108954F925F926F927F928F929F9285
:1028E000AF92BF92CF92DF92EF92FF920F931F931E
:1028F000CF93DF93CDB7DEB7C155D1090FB6F894AA
:10290000DEBF0FBECDBF80E18E010F5F1F4FF8010C
:10291000982F11929A95E9F76E01E1E1CE0ED11C44
:10292000F601982F11929A95E9F77E01E1E2EE0EF9
:10293000F11CF70111928A95E9F768E07CE0C80183
:102940000E94D82C60E07CE0C6010E94D82C67EF82
:102950007BE0C7010E94D82CB12CA12CF12CE12CDA
:102960002CED822E2BE0922E1F930F93FF92EF926D
:102970009F928F9285DF0F900F900F900F900F9086
:102980000F90D12CC12CF801EC0DFD1D6081C6010A
:102990008A0D9B1D9AAB89ABCE01C1967EDEFFEFFF
:1029A000CF1ADF0A80E1C816D10469F79FEFE91A50
:1029B000F90A005F1F4FE0E1AE0EB11CF3E0EF1625
:1029C000F10491F665E080E390E00E94BB2FB12C0A
:1029D000A12CF12CE12C83EC882E8BE0982E9AE030
:1029E000492E512C612C712CFF92EF929F928F9265
:1029F00047DF0F900F900F900F90D12CC12CC50185
:102A00008C0D9D1D3EDC282F30E050E040E06296AA
:102A10001FAE629701E310E00C0F1D1F005E1F4FF9
:102A2000CA01B901A30192010E94EE2F605DF80175
:102A300062938F01211531054105510589F73097C2
:102A400061F001900020E9F73197AF01401B510B75
:102A5000B8018CE994E00E94210BFFEFCF1ADF0A46
:102A600080E1C816D10459F69FEFE91AF90AE0E1AE
:102A7000AE0EB11CF3E0EF16F10409F0B5CF80E320
:102A800090E0FFDB1F928F938DEA9BE09F938F93E3
:102A9000F7DE0F900F900F900F90CF5ADF4F0FB6C9
:102AA000F894DEBF0FBECDBFDF91CF911F910F9184
:102AB000FF90EF90DF90CF90BF90AF909F908F905E
:102AC0007F906F905F904F90089526E432E0FC0174
:102AD000318320838AE99BE09F938F93D1DE0F900F
:102AE0000F900895CF93DF93EC01EFDFCE01DF91DC
:102AF000CF910C94302C2CE532E0FC013183208303
:102B0000E4CFCF93DF93EC01F6DFCE01DF91CF91DD
:102B10000C94302C22E732E0FC0131832083EBCF90
:102B2000CF93DF93EC01F6DFCE01DF91CF910C94D0
:102B3000302CCF92DF92EF92FF920F931F93CF939F
:102B4000DF93CDB7DEB7C357D1090FB6F894DEBF18
:102B50000FBECDBF8C016B01FC011182108213826C
:102B60001282158214828AE3E82E81E0F82E43E374
:102B700050E0B701CE018F5B9F4F0E94C62C239679
:102B80008EAD9FAD23978C159D05D1F5F801F5828B
:102B9000E482C80121DC61E070E00E941830F80195
:102BA00093838283C80118DCF82EE92EF801648132
:102BB00075816D5F7F4F8E010F5F1F4FC8010E94AF
:102BC000D82CEF92FF921F930F9384E191E09F9393
:102BD0008F9356DE0F900F900F900F900F900F90E5
:102BE000CD58DF4F0FB6F894DEBF0FBECDBFDF91DB
:102BF000CF911F910F91FF90EF90DF90CF900895AC
:102C0000F3E3EF0EF11C8CECE81688E0F80609F00F
:102C1000AECFDF92CF9284EE90E09F938F9330DE21
:102C20008AE391E0F801958384830F900F900F90D1
:102C30000F90D6CF2F923F924F925F926F927F92DA
:102C40008F929F92AF92BF92CF92DF92EF92FF92BC
:102C50000F931F93CF93DF93CDB7DEB763970FB674
:102C6000F894DEBF0FBECDBF35DE8CE291E0A0E070
:102C7000B0E08C879D87AE87BF87BE01645F7F4FC2
:102C800081E390E023DD88E290E0A0E0B0E08C8773
:102C90009D87AE87BF87BE01645F7F4F85E390E06D
:102CA00015DD84E0282E80E1382ED12CC12C99E34B
:102CB000E92EF12C9E012F5F3F4F490124E6422E61
:102CC000512C612C712CCA8ADB8A4BE050E0B10197
:102CD000C4010E94C62C86E090E00E94942B8C01D7
:102CE0006A857B8526DFF98AE88A6A85CE01409667
:102CF000D4DCC7010196998B888B6B85CE014096F9
:102D0000CCDC32E0E30EF11C8B858F938A858F93A8
:102D1000DF92CF928AEE9FE09F938F93B1DD8985FA
:102D20001F928F939F928F92EBEDFFE0FF93EF93B3
:102D3000A7DDC8013CDCB4010E946D30C801E4DBB2
:102D40002985DC012C93C80112DC0FB6F894DEBF94
:102D50000FBECDBF892B41F0C80109DCDC014D92CB
:102D60005D926D927C921397C801B0DB823F9540D3
:102D7000A9F4F80182819381419681F0C801A6DB14
:102D8000F0E0E0E0823F954029F4D8011296ED9101
:102D9000FC9171964082518262827382B12CA12C87
:102DA000C8011ADBA816B90698F4D8011296ED915D
:102DB000FC91EA0DFB1D6081F98AE88ACE014096FC
:102DC0006CDCBFEFEB1AFB0AEFEFAE1ABE0AE8CFDE
:102DD000C8019ADBDC01BC90C801E9DB1F92BF92FD
:102DE0009F938F93BB89BF93EA89EF932AEB3FE0D0
:102DF0003F932F9345DD0FB6F894DEBF0FBECDBFD6
:102E00000115110529F0C801CFD9C8010E94302C45
:102E1000BFEFCB1ADB0AEBE02E0E311CF5E0CF162C
:102E2000D10409F050CF10E000E0C701800F911FDE
:102E3000998B888B60E0CE0140962FDC0F5F1F4F8F
:102E40000436110591F763960FB6F894DEBF0FBEF6
:102E5000CDBFDF91CF911F910F91FF90EF90DF9049
:102E6000CF90BF90AF909F908F907F906F905F902A
:102E70004F903F902F9008950F931F93CF93DF9320
:102E8000EC018B01009709F121DB80179107C1F458
:102E9000CE01A2DAAC0170E060E08A819B810E94E1
:102EA0005D301982188288E79BE09F938F93E8DC5E
:102EB0000F900F90CE01DF91CF911F910F91089548
:102EC000CE0172D9CE010E94302C86E090E00E94A3
:102ED000942BEC01B8012DDE83E89BE0E6CF0F9345
:102EE0001F93CF93DF93EC0186E090E00E94942B38
:102EF0008C0170E060E01DDE1B870A878EE89AE097
:102F00009F938F93BDDC61E070E084E090E00E94CD
:102F100018309F838E8361E070E080E190E00E9432
:102F200018309D878C8762E070E081E090E00E941D
:102F30001830998788870F900F90DF91CF911F915C
:102F40000F9108956F927F928F929F92AF92BF924E
:102F5000CF92DF92EF92FF920F931F93CF93DF9365
:102F6000CDB7DEB7C058D1090FB6F894DEBF0FBE9B
:102F7000CDBF7C018B016E0181E4C80ED11C6BECCE
:102F80007AE0C6010E94D82CF70180819181A2814C
:102F9000B3810196A11DB11D80839183A283B38368
:102FA0000115110509F491C0C80116DA61E070E05D
:102FB00048960E9418307C0144E050E067EC7AE0CB
:102FC0000E94C62C5701F4E0AF0EB11C80E1F6015F
:102FD000D50101900D928A95E1F7C80177DA782E34
:102FE000692EF801648175816D5F7F4FCE01019676
:102FF0004C010E94D82C6F927F92BF92AF929F9209
:103000008F92DF92CF9284EA9AE09F938F9338DC7D
:1030100081E0F701848BC80159DAF701968B858B23
:10302000C801DAD9F80162817381AC01C701479602
:103030000E944330C801D0D98E0D9F1DFC01178A14
:103040008CE99AE09F938F931BDCC801C5D9489601
:103050006C010FB6F894DEBF0FBECDBF10E000E0EC
:103060008CE994E00C151D05B0F40E944E0B0297FC
:103070005CF0F701E00FF11F60818CE994E00E94A1
:10308000BF0B0F5F1F4FECCF65E070E080E090E07A
:103090000E94060DE5CF0E940B0CC701C058DF4F00
:1030A0000FB6F894DEBF0FBECDBFDF91CF911F9159
:1030B0000F91FF90EF90DF90CF90BF90AF909F90D7
:1030C0008F907F906F900C94302CC058DF4F0FB6CC
:1030D000F894DEBF0FBECDBFDF91CF911F910F914E
:1030E000FF90EF90DF90CF90BF90AF909F908F9028
:1030F0007F906F9008953F924F925F926F927F9270
:103100008F929F92AF92BF92CF92DF92EF92FF92F7
:103110000F931F93CF93DF93CDB7DEB7C45DD10973
:103120000FB6F894DEBF0FBECDBF86E090E00E94E0
:10313000942B8C0169EE73E0FCDC63E77BE0CE014D
:103140008F579F4F0E94D82CBE016F577F4FCE01E3
:103150008F539F4F0E946D30C8017CDABE016F53C0
:103160007F4F0E946D3063E174E1CE018F5B9F4F12
:103170000E94D82CBE016F5B7F4FCE018F539F4FB3
:103180000E946D30C801A2D98B3B2BE0920758F406
:10319000893BEBE09E0708F075C0893E934059F0EB
:1031A00090E080E00CC0813B9D40D1F7F801828126
:1031B0009381089604C0F801828193814096BE01F4
:1031C0006F537F4F0E946D306AE67BE0CE0101961F
:1031D0000E94D82CBE016F5F7F4FCE018F539F4F4F
:1031E0000E946D30C80172D9893BFBE09F0709F44A
:1031F0004DC08A3B2BE0920709F448C0893E9340BA
:1032000009F049C0F801828193818096BE016F5315
:103210007F4F0E946D30C80159D9F12CE12C893EB5
:10322000934031F4F801E280F380F0E3EF0EF11CFB
:1032300080E390E026D8F7018083B801809175057E
:10324000909176057FDE80E390E01BD81F928F93EC
:103250008DE49BE09F938F9313DB6DEE73E0C801C9
:103260000BDE8C0133D90F900F900F900F908D3E95
:10327000F3E09F0799F0853D974009F4C3C0F12C16
:10328000E12C0FC0F8018281938199CFF8018281EE
:1032900093814096BBCF90E080E0B8CFF801E28008
:1032A000F380BE016F527F4F81E390E00E940711CF
:1032B000CF52DF4F88819981AA81BB81C15DD04007
:1032C000F70180839183A283B383C801FFD8F12CD7
:1032D000E12C8D3E934031F4F801E280F380F4E07C
:1032E000EF0EF11CBE016F527F4F85E390E00E940C
:1032F0000711CF52DF4F88819981AA81BB81C15DBF
:10330000D040F70180839183A283B38380E390E070
:103310000E9441111F928F9380E39BE09F938F93B4
:10332000AFDA0F900F900F900F90312C90ED492E47
:103330009AE0592E29E1622E2BE0722E3EE0A32E58
:103340003BE0B32E48E0842E4BE0942E80E390E0E7
:103350000E944111381608F073C0CF52DF4F198216
:103360001882C15DD04080E390E00E944111E32CBF
:10337000F12C381608F05AC0EE0CFF1CC701855B13
:103380009A4F7C01BE016F527F4FFC018081918179
:103390000E942D11CE52DF4F8881C25DD0408F93A5
:1033A000CF52DF4F8881C15DD0408F937F926F9263
:1033B00067DACF52DF4F68817981C15DD040C801A3
:1033C0005BDD8C01BF92AF925BDA0F900F900F9094
:1033D0000F900F900F90D12CC12CC8010E94EC11BE
:1033E000C816D906B0F4F7018081918102968C0D40
:1033F0009D1D0E944111682FC80146D8FFEFCF1ACA
:10340000DF0AEBCFF801E280F380F0E1EF0EF11C70
:1034100048CF9F928F9234DA0F900F90B80180912D
:103420007505909176058EDD339490CF1F923F9273
:103430005F924F9225DA0F900F900F900F90EECF82
:103440000115110531F0C8010E94D410C8010E9475
:10345000302CCC52DF4F0FB6F894DEBF0FBECDBF7D
:10346000DF91CF911F910F91FF90EF90DF90CF9060
:10347000BF90AF909F908F907F906F905F904F9094
:103480003F900895AF92BF92CF92DF92EF92FF925A
:103490000F931F93CF93DF931F921F92CDB7DEB789
:1034A0008C016A0146D990E00396880F991F800F1E
:1034B000911FFC01008111817801F2E0EF0EF11CF7
:1034C0005601065F1F4FF50161915F01FA82E982A3
:1034D000CE010196E2D8FFEFEF1AFF0AE016F106DF
:1034E00091F709DE81E00F900F90DF91CF911F914E
:1034F0000F91FF90EF90DF90CF90BF90AF90089525
:10350000CF92DF92EF92FF920F931F93CF93DF93AF
:103510001F921F92CDB7DEB77C018A010AD990E0D5
:103520000396880F991F8E0D9F1DDC01CD90DC90B6
:10353000B2E0CB0ED11CF12CE12CC8010E94EC11A1
:10354000E816F90698F4D8011296ED91FC91EE0D6B
:10355000FF1D6081C7018C0D9D1D9A838983CE015B
:1035600001969BD8BFEFEB1AFB0AE7CFC4DD81E0E1
:103570000F900F90DF91CF911F910F91FF90EF90DF
:10358000DF90CF9008958F929F92BF92CF92DF925B
:10359000EF92FF920F931F93CF93DF931F921F928F
:1035A000CDB7DEB78C016B0180E390E00E94411142
:1035B000B82EE82FF0E03396EE0FFF1FE00FF11F5B
:1035C000E080F180C6010E946612992EFA82E9829B
:1035D000682FCE01019661D8C70101969A8389832D
:1035E000692DCE01019659D882E0E80EF11C912C8C
:1035F000812CC6010E94EC118816990698F4D60118
:103600001296ED91FC91E80DF91D6081FA82E98234
:10361000CE01019642D8BFEFEB1AFB0AEFEF8E1AEC
:103620009E0AE7CFB3946B2D80E390E00E94BB2FFE
:1036300080E390E00E944111E82FF0E03396EE0F16
:10364000FF1FE00FF11FF182E082C6010E94841289
:10365000DC01FC90C6010E94D7121F92FF929F933B
:103660008F938FEF9DE09F938F930AD91F92BF9204
:1036700088EE9DE09F938F9303D90A5F1F4F0FB68B
:10368000F894DEBF0FBECDBFF12C94EEC92E9DE0A5
:10369000D92EFB1488F4D8018C9111969C910E5F61
:1036A0001F4F9F938F93DF92CF92EAD8F3940F909E
:1036B0000F900F900F90EDCF80EE9DE09F938F9332
:1036C000DFD819DD81E00F900F900F900F90DF9100
:1036D000CF911F910F91FF90EF90DF90CF90BF900F
:1036E0009F908F900895AF92BF92CF92DF92FF92FA
:1036F0000F931F93CF93DF93F82E6B01EA015901CB
:1037000061E070E080E490E00E9418308C01950147
:10371000AE0160E470E00E94DF2C86E090E00E9441
:10372000942BEC016FE070E004DACE010E94661287
:103730000F97E1F48A819B81B8010E946D30CE0120
:103740000E942A13B6010E946D30CE010E946612BB
:10375000813D27E0920709F440C058F48A30910572
:10376000B9F00F97A9F1F0E0E0E014C090E080E03C
:10377000E3CF8A3B2BE0920739F0813B2DE09207A3
:1037800081F1893B9B4079F7EA81FB81B09602C0C9
:10379000EA81FB818091870590918805A091890538
:1037A000B0918A0580839183A283B383CE010E9466
:1037B00066128C382AE0920709F446C0B0F48F30C4
:1037C0009105F1F0853F9140D1F1F0E0E0E01CC0BF
:1037D000EA81FB81E05BFF4FDDCFEA81FB817096E0
:1037E000D9CFEA81FB817896D5CF893B2BE0920730
:1037F00019F08A3B9B4049F7EA81FB81B49604C0EB
:10380000EA81FB81EC5AFF4FF082BE018091750581
:103810009091760597DBC8010E94302C2097C1F06B
:10382000CE010E94D410CE01DF91CF911F910F9154
:10383000FF90DF90CF90BF90AF900C94302CEA8136
:10384000FB81E75BFF4FE0CFEA81FB813896DCCF5D
:10385000DF91CF911F910F91FF90DF90CF90BF909C
:10386000AF900895CF93DF93CDB7DEB7C054D109A1
:103870000FB6F894DEBF0FBECDBF63E174E1CE0199
:1038800001960E94D82C9E01275B3F4F29964EAD92
:103890005FAD2997BE016F5F7F4F83E024DFC05C7F
:1038A000DF4F0FB6F894DEBF0FBECDBFDF91CF91D3
:1038B0000895CF93DF93CDB7DEB7C054D1090FB6CB
:1038C000F894DEBF0FBECDBF29966EAD7FAD2997B0
:1038D000CE0101960E94D82C9E01255B3F4F2B966E
:1038E0004EAD5FAD2B97BE016F5F7F4F27968FADBB
:1038F0002797F9DEC05CDF4F0FB6F894DEBF0FBE2E
:10390000CDBFDF91CF9108958F929F92AF92BF92DA
:10391000CF92DF92EF92FF920F931F93CF93DF939B
:10392000CDB7DEB72C970FB6F894DEBF0FBECDBF74
:103930008C01CE0107960E947D0F8F81843608F09E
:1039400045C0CE0107960E941A0F882309F43EC095
:10395000CE0107960E940B0EF801608B718B828B53
:10396000938B848981111FC081E0848B868197812C
:10397000009711F00E94302CF801178216821092E5
:103980008D0510928E058AE891E19F938F93838134
:103990008F9382818F9381E08F938BDF0F900F90B5
:1039A0000F900F900F902C960FB6F894DEBF0FBEBD
:1039B000CDBFDF91CF911F910F91FF90EF90DF90DE
:1039C000CF90BF90AF909F908F900895F801848919
:1039D000882349F1148A81E090E00E94942BF80139
:1039E000978386834089518962897389CE010196C4
:1039F0000E949A0ECE0101960E94740E83E080937D
:103A00008D0510928E0522E731E13F932F93F80147
:103A100093819F9392819F938F934BDF0F900F9091
:103A20000F900F900F900E94360D8090360390906B
:103A30003703A0903803B0903903681979098A09CF
:103A40009B0928EE33E040E050E00E94EE2F690130
:103A50007A01A8EEB3E00E94C92F860E971EA81E19
:103A6000B91E8092360390923703A0923803B09229
:103A700039034091320350913303609134037091C4
:103A800035034C0D5D1D6E1D7F1D40933203509319
:103A900033036093340370933503CE0101960E9483
:103AA0009A0ECE0101960E940B0EF801608B718B6D
:103AB000828B938B78CFCF93DF93EC010E94360DEE
:103AC000AB01BC018C859D85AE85BF858C599F4F10
:103AD000AF4FBF4F84179507A607B70758F50E9449
:103AE000360D6C877D878E879F87CE010DDF8C8991
:103AF000811120C00E94360DAB01BC0188859985DB
:103B0000AA85BB85805D9A48AF4FBF4F8417950744
:103B1000A607B70778F40E94360D688779878A87E9
:103B20009B87E881F9810480F581E02DCE01DF914A
:103B3000CF911994DF91CF9108958F929F92AF9278
:103B4000BF92DF92EF92FF920F931F93CF93DF9379
:103B5000CDB7DEB7CC55D1090FB6F894DEBF0FBE96
:103B6000CDBF7C01FC01148A628173818E010F5FDD
:103B70001F4FC8010E94D82C1F930F9382E691E13A
:103B80009F938F930E9440144DE451E166E571E1EB
:103B9000CE01895A9F4F0E946511CE01895A9F4FCD
:103BA0000E940B0E0F900F900F900F90F7018088DE
:103BB0009188A288B388005C1F4F86169706A806D6
:103BC000B90650F448E351E161E471E1C8010E9493
:103BD0006511C8010E940B0E43E251E16CE271E1F4
:103BE000C8010E946511C8010E940B0E4B015C01C7
:103BF0001092930310929203109295031092B703C0
:103C00001092FE03DD24D394D092FD031092F803AA
:103C100061E084E10E94550C61E085E10E94550C51
:103C20008091B9008E7F8093B9008091B9008D7F1B
:103C30008093B90088E48093B80085E48093BC0049
:103C400083E79DE090935B0380935A0384E79DE0B4
:103C500090935F0380935E03D092940388E68093F1
:103C6000B603109295031092B7030E94C40A811103
:103C700039C00E94191090E0880F892F881F990B76
:103C8000892BC9F0B501A401C8010E949A0EC80190
:103C90000E94331085EF90E19F938F93F70183810A
:103CA0008F9382818F9383E08F9303DE0F900F9029
:103CB0000F900F900F90C8010E947D0FF801808136
:103CC000843628F4C8010E941A0F811165C0B5011D
:103CD000A401C8010E949A0EC8010E94331087EC0B
:103CE00090E102C089E890E19F938F93F70183816F
:103CF0008F9382818F9383E08F93DBDD0F900F9002
:103D00000F900F900F90F701408951896289738954
:103D1000C8010E94FF138DE690E19F938F930E944C
:103D200040141F930F938BE390E19F938F930E9416
:103D3000401481E090E00E94942BF70197838683E2
:103D40004089518962897389CE01895A9F4F0E94A7
:103D50009A0ECE01895A9F4F0E94740E83E0809381
:103D60008D0510928E050F900F900F900F900F9071
:103D70000F90C45ADF4F0FB6F894DEBF0FBECDBF11
:103D8000DF91CF911F910F91FF90EF90DF90BF9047
:103D9000AF909F908F90089581E0F701848BC701C9
:103DA000B3DDF7014089518962897389C8010E9496
:103DB000FF131F930F938AEA90E19F938F930E94C2
:103DC00040140F900F900F900F90D3CFAF92BF92EF
:103DD000CF92DF92EF92FF920F931F93CF93DF93D7
:103DE0008C015B016A010E9499138F3F11F5BF920C
:103DF000AF9288E29FE09F938F93F80185818F9324
:103E000084818F9382E08F9354DD8DB79EB70796A0
:103E10000FB6F8949EBF0FBE8DBF80E0DF91CF91AB
:103E20001F910F91FF90EF90DF90CF90BF90AF90D8
:103E30000895F60101900020E9F73197EC19FD098A
:103E4000CF0101970897F8F47601EF01CC0DDD1D45
:103E5000F70181917F01082E000C990B0E943D30E3
:103E6000892B89F0CE15DF0599F7A601B501C801A8
:103E7000DF91CF911F910F91FF90EF90DF90CF9046
:103E8000BF90AF90FFCADF92CF9288E49FE09F93EC
:103E90008F93F80185818F9384818F9382E08F9334
:103EA00008DD8DB79EB707960FB6F8949EBF0FBE7C
:103EB0008DBFB3CFCF92DF92EF92FF920F931F93FC
:103EC000CF93DF93EC018B017A010E949913C82EE6
:103ED0008FEFC8121FC01F930F938DE09FE09F9339
:103EE0008F938D818F938C818F9382E08F93E1DC10
:103EF000EDB7FEB737960FB6F894FEBF0FBEEDBF15
:103F000080E0DF91CF911F910F91FF90EF90DF90B4
:103F1000CF900895E881F9810190F081E02DB701FB
:103F2000CE0119958111ECCFC7010E948412FC01CA
:103F3000D0806D2DCE010E9443118F3FC1F0C81675
:103F4000B1F01F92DF928FEE9EE09F938F938D8151
:103F50008F938C818F9382E08F93ABDC8DB79EB76C
:103F600007960FB6F8949EBF0FBE8DBFC9CFA701AD
:103F7000B801CE01DF91CF911F910F91FF90EF908B
:103F8000DF90CF90BDCAFF920F931F93CF93DF9323
:103F9000EC018B01E881F9810190F081E02D199508
:103FA0008823D9F0823099F08330A1F0813041F438
:103FB00089ED9EE09F938F930E9440140F900F9085
:103FC00080E0DF91CF911F910F91FF90089583ECD6
:103FD0009EE0F0CF8DEA9EE0EDCFC8010E948412F2
:103FE000FC01F0806F2DCE010E9443118F3FB1F094
:103FF0001F92FF928AE89EE09F938F938D818F930B
:104000008C818F9382E08F9354DC8DB79EB7079697
:104010000FB6F8949EBF0FBE8DBFD2CFB801CE01B0
:10402000DF91CF911F910F91FF90ADCAEF92FF9258
:104030000F931F93CF93DF93CDB7DEB7C054D10951
:104040000FB6F894DEBF0FBECDBF7C018B016115AA
:104050007105B9F489EB9DE09F938F930E94401402
:104060000F900F9081E0C05CDF4F0FB6F894DEBF79
:104070000FBECDBFDF91CF911F910F91FF90EF90B9
:104080000895CB010E94EC11892B31F582E99DE066
:104090009F938F930E944014F801648175816D5F36
:1040A0007F4F8E010F5F1F4FC8010E94D82C1F93B6
:1040B0000F9381E79DE09F938F93F70185818F9305
:1040C00084818F9382E08F93F4DB0FB6F894DEBF88
:1040D0000FBECDBF82E0C7CF80E0C5CFCF92DF92C9
:1040E000EF92FF920F931F93CF93DF93CDB7DEB77D
:1040F000C054D1090FB6F894DEBF0FBECDBF7C010E
:104100006B0194DF182F811139C0C6010E9466121D
:10411000853125E0920791F18631E5E09E0771F146
:104120008E31F5E09F0751F1823F25E0920731F192
:10413000843AE6E09E0711F1803D9740F9F0F601E0
:10414000648175816D5F7F4F8E010F5F1F4FC801C6
:104150000E94D82C1F930F9382E69EE09F938F932B
:10416000F70185818F9384818F9382E08F93A1DB08
:104170000FB6F894DEBF0FBECDBF13E0812FC05C39
:10418000DF4F0FB6F894DEBF0FBECDBFDF91CF91EA
:104190001F910F91FF90EF90DF90CF9008952F9295
:1041A0003F924F925F926F927F928F929F92AF92C7
:1041B000BF92CF92DF92EF92FF920F931F93CF9314
:1041C000DF93CDB7DEB7C254D1090FB6F894DEBF86
:1041D0000FBECDBF6C018B01FC017783668380E34A
:1041E00090E00E944111282E23961FAE1EAE239709
:1041F0003601F8E06F0E711CB12CA12C312C482E29
:10420000512C321409F467C0BE016F5B7F4FC801A7
:104210000E942D111F930F9323968FAD23978F9399
:1042200022968FAD22978F931F922F92BF92AF92BB
:1042300025E43DE03F932F930E9440140E5F1F4FF3
:1042400086E090E00E94942B7C0123966EAD7FADBA
:1042500023970E949915C7010E94EC110FB6F8949C
:10426000DEBF0FBECDBF892B09F05CC0F7016481B2
:1042700075816D5F7F4F8E010F5F1F4FC8010E94D8
:10428000D82C1F930F9323968FAD23978F9322964D
:104290008FAD22978F938FE19DE09F938F93F601CF
:1042A00085818F9384818F9383E08F9302DB5F926C
:1042B0004F921F923F928BED9CE09F938F930E94B1
:1042C0004014632D80E390E00E94BB2F0FB6F8945A
:1042D000DEBF0FBECDBF85EB9CE09F938F930E9406
:1042E00040140F900F90F12C01EB1CE080E390E064
:1042F0000E9441118F1508F454C0EF2DF0E0339661
:10430000EE0FFF1FEC0DFD1D81818F9380818F9338
:104310001F930F930E944014F3940F900F900F90EF
:104320000F90E4CF912C812CC7010E94EC118816CC
:10433000990668F4C8010E944111682FC7010E94C4
:1043400044120F5F1F4F3FEF831A930AEDCFC7014F
:104350000E948412FC019080C7010E94D7121F9214
:104360009F929F938F9328E03DE03F932F930E946D
:104370004014F301019311933F010F900F900F90A0
:104380000F900F900F90E114F10431F0C7010E94DB
:10439000D410C7010E94302C3394FFEFAF1ABF0A2C
:1043A00030CF8EEA9CE09F938F930E9440140F9031
:1043B0000F90CE5BDF4F0FB6F894DEBF0FBECDBFC0
:1043C000DF91CF911F910F91FF90EF90DF90CF90F1
:1043D000BF90AF909F908F907F906F905F904F9025
:1043E0003F902F9008957F928F929F92AF92BF92AD
:1043F000CF92DF92EF92FF920F931F93CF93DF93B1
:1044000000D01F92CDB7DEB78C01F62EE72E80E3E9
:1044100090E00E944111782E6F2D7E2DC8010E94E0
:104420009913772009F467C08F3F09F488C0E82FFB
:10443000F0E03396EE0FFF1FE00FF11FE080F180F8
:104440001C821B82E72DF0E03396EE0FFF1FE00F7A
:10445000F11F80809180BE016D5F7F4FC7010E9478
:104460002D11CB80DC8086E090E00E94942B5C01D3
:10447000B6010E949915D12CC12CA114B10451F0A0
:10448000C5010E94EC116C01C5010E94D410C50148
:104490000E94302C6FEF670D80E390E00E94BB2FED
:1044A000C70102968C0D9D1D9F938F93FF92EF92F3
:1044B00082E29EE09F938F930E9440140F900F9092
:1044C0000F900F900F900F9092E0C90ED11CE8143E
:1044D000F90408F048C0C6018E0D9F1D0E944111CD
:1044E000FA82E982682FCE0101960E944D13EFEF08
:1044F000EE1AFE0AECCF8EE49EE09F938F93F801B4
:1045000085818F9384818F9382E08F93D2D90F908E
:104510000F900F900F900F9080E00F900F900F90E2
:104520000F90DF91CF911F910F91FF90EF90DF904F
:10453000CF90BF90AF909F908F907F900895EF9213
:10454000FF928AE39EE09F938F93F80185818F937A
:1045500084818F9382E08F93ACD90FB6F894DEBF3D
:104560000FBECDBFD9CFF80166817781C80117DEB4
:104570000E947B1881E0D1CF2F923F924F925F92A1
:104580006F927F928F929F92AF92BF92CF92DF9263
:10459000EF92FF920F931F93CF93DF93CDB7DEB7C8
:1045A000CC59D1090FB6F894DEBF0FBECDBF8C0138
:1045B00086E0E6E0F2E0DE01AF56BF4F01900D92DB
:1045C0008A95E1F7CE018F569F4FC956DF4F9983E9
:1045D0008883C759D0407E0191E8E90EF11C66241A
:1045E00077246E187F08D12CC12C2E01A1E44A0E2D
:1045F000511CF7017096C756DF4FF983E883C959FC
:10460000D040CE0101961C01C556DF4FC882CB5960
:10461000D040C456DF4FD882CC59D040C956DF4F66
:10462000A881B981C759D0408D909D90C956DF4F60
:10463000B983A883C759D040B401C2010E94D82CC5
:104640005F924F92DF92CF92EDE8FCE0FF93EF9301
:104650000E944014D701E0E11D92EA95E9F70F901E
:104660000F900F900F900F900F905701C501860D7E
:10467000971D0E944111D5018D935D01C756DF4FF3
:10468000E881F981C959D040AE17BF0779F7FF9289
:10469000EF9284E89CE09F938F930E944014B401B2
:1046A000C7010E94CF2C0F900F900F900F90892B75
:1046B00009F444C0E8E7FCE0FF93EF930E94401444
:1046C000B401C1010E94D82CFF92EF923F922F9229
:1046D000C456DF4F8881CC59D0408F93C556DF4FE9
:1046E0009881CB59D0409F93A0ECB2E0BF93AF9399
:1046F000D80115968C9115978F9314968C918F9362
:10470000B3E0BF93AFD868EC70E080E090E00E9427
:10471000060DD801ED91FC910084F185E02DC801D2
:104720001995D801ED91FC910680F781E02DC80123
:1047300019950FB6F894DEBF0FBECDBFFFEFCF1AAD
:10474000DF0A20E1620E711C83E0C816D10409F073
:104750005BCF80E390E00E9441118531D8F11F9238
:1047600094E19F931F928F9388E49CE09F938F9393
:104770000E94401480E390E00E9441111F928F93A9
:1047800089E29CE09F938F93D80115968C911597A1
:104790008F9314968C918F9383E08F938AD8D8014E
:1047A000ED91FC910084F185E02DC801199568EC2C
:1047B00070E080E090E00E94060DD801ED91FC9140
:1047C0000680F781E02DC80119950FB6F894DEBF79
:1047D0000FBECDBF8DE09CE09F938F930E9440144D
:1047E0000F900F90C456DF4F0FB6F894DEBF0FBE88
:1047F000CDBFDF91CF911F910F91FF90EF90DF9090
:10480000CF90BF90AF909F908F907F906F905F9070
:104810004F903F902F9008950F931F93CF93DF9366
:1048200000D01F92CDB7DEB78C01A6DE19821A82A6
:104830001B821C82BE016F5F7F4F81E390E00E946C
:10484000071189819A81AB81BC81AC01BD014550C2
:104850005109610971094C37514561407105A0F159
:10486000BF93AF939F938F9382EA9FE09F938F9321
:10487000D80115968C9115978F9314968C918F93E0
:1048800083E08F9316D868EE73E080E090E00E949A
:10489000060DD801ED91FC910084F185E02DC80151
:1048A000199568EE73E080E090E00E94060DD80153
:1048B000ED91FC910680F781E02DC80119950FB6A6
:1048C000F894DEBF0FBECDBFBE016F5F7F4F85E3A3
:1048D00090E00E94071189819A81AB81BC81AC0173
:1048E000BD01415051096109710948375105610500
:1048F0007105A8F1BF93AF939F938F9385E89FE0D5
:104900009F938F93D80115968C9115978F9314963A
:104910008C918F9383E08F930E94591C68EE73E013
:1049200080E090E00E94060DD801ED91FC9100849A
:10493000F185E02DC801199568EE73E080E090E004
:104940000E94060DD801ED91FC910680F781E02DC3
:10495000C80119950FB6F894DEBF0FBECDBF69E34D
:1049600070E0C8011CDC86E69FE09F938F930E9455
:1049700040140F900F900F900F900F900F90DF91B9
:10498000CF911F910F9108951F920F920FB60F9222
:1049900011240BB60F922F933F934F935F936F9316
:1049A0007F938F939F93AF93BF93EF93FF938FEF7B
:1049B00093E00E949D0BFF91EF91BF91AF919F916A
:1049C0008F917F916F915F914F913F912F910F90B8
:1049D0000BBE0F900FBE0F901F9018951F920F9255
:1049E0000FB60F9211240BB60F922F938F939F93B4
:1049F000EF93FF93E0910F04F09110048081E09118
:104A00001504F091160482FD1DC090818091180458
:104A10008F5F8F7320911904821741F0E091180481
:104A2000F0E0E150FC4F958F80931804FF91EF91D7
:104A30009F918F912F910F900BBE0F900FBE0F90F3
:104A40001F9018958081F2CF1F920F920FB60F9290
:104A500011240BB60F922F933F934F935F936F9355
:104A60007F938F939F93AF93BF93EF93FF938CE9C3
:104A700094E00E949D0BFF91EF91BF91AF919F91A8
:104A80008F917F916F915F914F913F912F910F90F7
:104A90000BBE0F900FBE0F901F9018951F920F9294
:104AA0000FB60F9211240BB60F922F938F939F93F3
:104AB000EF93FF93E091AC04F091AD048081E0911D
:104AC000B204F091B30482FD1DC090818091B504C1
:104AD0008F5F8F732091B604821741F0E091B50487
:104AE000F0E0E456FB4F958F8093B504FF91EF9172
:104AF0009F918F912F910F900BBE0F900FBE0F9033
:104B00001F9018958081F2CF1F920F920FB60F92CF
:104B100011242F933F938F939F93AF93BF938091D3
:104B2000820390918303A0918403B0918503309117
:104B3000810323E0230F2D3758F50196A11DB11DE8
:104B4000209381038093820390938303A093840333
:104B5000B09385038091860390918703A091880389
:104B6000B09189030196A11DB11D80938603909396
:104B70008703A0938803B0938903BF91AF919F915E
:104B80008F913F912F910F900FBE0F901F9018950E
:104B900026E8230F0296A11DB11DD2CF1F920F92BE
:104BA0000FB60F9211240BB60F922F933F934F9392
:104BB0005F936F937F938F939F93AF93BF93EF9385
:104BC000FF938091B900887F803609F44DC008F0CA
:104BD00040C0883209F4A9C028F5803109F49DC08D
:104BE000C8F4882309F4FBC0883009F496C0FF910B
:104BF000EF91BF91AF919F918F917F916F915F9155
:104C00004F913F912F910F900BBE0F900FBE0F90C1
:104C10001F901895883109F488C0803241F780933D
:104C2000FC0314C0803409F49DC040F48033B9F310
:104C30008833E9F68093FC0385ECB0C0803509F435
:104C400085C0883509F496C0883489F60E94420DE3
:104C5000CECF883909F48CC038F5883729F050F464
:104C6000883611F0803719F683E08093FE031092A6
:104C7000800357C0883809F47BC0803919F0803828
:104C800009F0B5CF80918003803208F071C0E091C7
:104C9000800381E08E0F809380038091BB00F0E061
:104CA000E05AFC4F80833DC0803B39F0E0F4803A0D
:104CB00009F479C0883A09F09ACF84E08093FE0322
:104CC00010925D0310925C03E0915A03F0915B0334
:104CD000199580915C0381110FC081E080935C0382
:104CE00010923A0309C0803C09F4A6CF883C09F42D
:104CF000A3CF883B09F07BCFE0915D0381E08E0F6D
:104D000080935D03F0E0E65CFC4F80818093BB0004
:104D100090915D0380915C0329C08091F903809399
:104D2000BB0085EC8093BC0062CF9091FB03809127
:104D3000FA03981758F5E091FB0381E08E0F8093FA
:104D4000FB03F0E0E852FC4F8081E9CFE091FB03E8
:104D500081E08E0F8093FB038091BB00F0E0E8526E
:104D6000FC4F80839091FB038091FA039817C8F25F
:104D700085E8D8CFE091FB0381E08E0F8093FB03A1
:104D80008091BB00F0E0E852FC4F80838091FD03EE
:104D900081115CCF81E08093F80384EA8093BC00AA
:104DA0001092FE0324CF85EC8093BC001092FE038A
:104DB00080918003803230F4E0918003F0E0E05A8B
:104DC000FC4F10826091800370E0E0915E03F091EF
:104DD0005F0380E693E019951092800308CF10924C
:104DE000FC0334CF0F931F93CF93DF9300D000D0F9
:104DF000CDB7DEB7EFEFF3E01382128288EE93E0D7
:104E0000A0E0B0E084839583A683B78320E132E0FD
:104E1000318320834DEC50E0558744874CEC50E0C3
:104E20005787468748EC50E0518B408B49EC50E067
:104E3000538B428B4AEC50E0558B448B4EEC50E048
:104E4000578B468B118E128E138E148EECE9F4E084
:104E50001382128284839583A683B7833183208350
:104E600025EC30E03587248724EC30E0378726872F
:104E700020EC30E0318B208B21EC30E0338B228B27
:104E800022EC30E0358B248B26EC30E0378B268B00
:104E9000118E128E138E148EE9E3F5E013821282C6
:104EA00084839583A683B78382E292E09183808393
:104EB000ECE8F5E0108211821282138214821582CE
:104EC00016821782108611861286138607E715E070
:104ED00084E992E0D80111969C938E9317961C92C8
:104EE0001E921697F80110861186128613861C965C
:104EF0001D921D921D921C921F97108A118A128A70
:104F0000138A148A8DE394E19383828381E090E095
:104F10000BD4D80115969C938E93149748E254E1D4
:104F200061E374E1CE0101960E946511CE01019604
:104F30000E940B0EF801608B718B828B938B89E141
:104F400090E0F2D3FC0188E892E0918380831382A1
:104F50001482158217821682118610861386128695
:104F600015861486108A118A128A138A148A158A61
:104F7000168A178A108E81E0828382E294E19787F5
:104F8000868703E715E0D801ED93FC9384E090E079
:104F9000CBD3FC011082118212821382D8011396A6
:104FA0009C938E931297E5E4F5E084E392E093837B
:104FB00082838BE194E1958384832BE435E088E25E
:104FC000D9011D928A95E9F782E792E09183808367
:104FD00026960FB6F894DEBF0FBECDBFDF91CF91FE
:104FE0001F910F910895CF93DF93CDB7DEB7DA9578
:104FF0000FB6F894DEBF0FBECDBF789484B5826043
:1050000084BD84B5816084BD85B5826085BD85B56C
:10501000816085BD80916E00816080936E001092EA
:105020008100809181008260809381008091810065
:1050300081608093810080918000816080938000F6
:105040008091B10084608093B1008091B000816054
:105050008093B00080919100826080939100809154
:105060009100816080939100809190008160809395
:1050700090008091A10082608093A1008091A100A6
:1050800081608093A1008091A00081608093A00046
:1050900080912101826080932101809121018160B2
:1050A0008093210180912001816080932001809173
:1050B0007A00846080937A0080917A008260809385
:1050C0007A0080917A00816080937A0080917A00E2
:1050D000806880937A001092C10064EF71E080E0F4
:1050E00090E00E94060D8DE080938F05E9E6F2E1E5
:1050F0002491E3E2F2E18491882399F090E0880F13
:10510000991FFC01E450FE4EA591B491FC01EE51B3
:10511000FE4E859194918FB7F894EC91E22BEC932D
:105120008FBF13E061E080918F050E94550C68EC01
:1051300070E080E090E00E94060D60E080918F05B5
:105140000E94550C68EC70E080E090E00E94060D33
:10515000115041F78FEF93E00E945B0A10928E0589
:1051600010928D058E010F531F4F6CED72E1C80137
:105170001FD41F930F9381ED92E19F938F930E9411
:1051800040148CE994E00E945B0A1092A0041092F3
:10519000A1041092A2041092A3048091730590912F
:1051A0007405DC01ED91FC910480F581E02D1995E9
:1051B00087E795E00E949D1D84EC92E19F938F9379
:1051C0008CED92E19F938F9311E01F930E94591CE5
:1051D00086EB92E19F938F930E94401485E495E0C3
:1051E0001BDB0E947B1882EA92E19F938F938EEAE9
:1051F00092E19F938F931F930E94591C0FB6F894CE
:10520000DEBF0FBECDBF1E01F1E42F0E311CCE015B
:1052100001962C013E0191E8690E711C0E94360D29
:105220006B017C018091900590919105A091920570
:10523000B09193058053984FAF4FBF4F8C159D058C
:10524000AE05BF05E0F580918D058823C1F19091F1
:105250008E0589130FC0C0929005D0929105E092FF
:105260009205F092930510928E0560E080918F0573
:105270000E94550C8091940590919505A0919605FA
:10528000B091970588539F4FAF4FBF4F8C159D0529
:10529000AE05BF05A0F480918F0590918C0591110A
:1052A00075C061E00E94550C81E080938C05C0922E
:1052B0009405D0929505E0929605F092970587E7C0
:1052C00095E00E945B1D8CE994E00E947F0B892B86
:1052D00009F4F8C18CE994E00E947F0B892B09F452
:1052E000F1C100917305109174058CE994E00E945E
:1052F0005D0B7C01D80113968C911397811151C0DD
:10530000C70199279F938F93EAEFF2E1FF93EF9301
:105310000E944014D80116968D919C91BC016F5F3C
:105320007F4F43E050E0B8D6D8011696ED91FC913E
:105330001797E38244E050E066EF72E116968D9194
:105340009C9117D30F900F900F900F90892BA1F481
:10535000E1EEF2E1FF93EF930E944014D8011C9616
:10536000ED91FC9180E1DF011D928A95E9F781E0E2
:10537000F80183830F900F90E0917305F09174050D
:10538000808D882309F4A6CF108EA4CF60E00E9400
:10539000550C10928C0580918E058F5F80938E0541
:1053A00086CF14968C9114978111B0C061E973E196
:1053B000C301FED2C70199279F938F9380918A03DF
:1053C0001F928F93ECE7F3E1FF93EF930E94401459
:1053D00080918A030F900F900F900F900F900F9075
:1053E000803158F4D8011C96ED91FC91E80FF11D25
:1053F000E0828F5F80938A03BFCFB1E0EB127DC064
:10540000F8018281882309F455C0F301019000203E
:10541000E9F73197AF0146195709D8011C96ED906D
:10542000FC90B301C70160D6892B71F5F70101909B
:105430000020E9F731976F01CE18DF08C601019708
:10544000409710F5F7018081082E000C990B0CD6BF
:10545000892BD1F04701FFEF8F1A9F0ACE0CDF1C7A
:10546000C814D90439F1D401AD904D010A2C000CB7
:10547000BB08C501F9D5892B99F7B0E3AB1AB10880
:10548000EAE0AE16B10460F3FF92EF927F926F9262
:105490008FE293E19F938F930E9440140F900F909F
:1054A0000F900F900F900F90D80113961C921092AE
:1054B0008A0362CF10928A0381E0D80114968C93FC
:1054C00014971896ED91FC911997118210821D96F0
:1054D0008C911D978F931C968C918F937F926F92D6
:1054E000E2E6F3E1FF93EF930E9440140F900F90D8
:1054F0000F900F900F900F903FCFEDEFF2E1FF93E1
:10550000EF930E9440140F900F90CECFF801858149
:10551000811165C0C701992720918D03211115C004
:105520009F938F9381EF93E19F938F930E944014F9
:10553000D8011896ED91FC91E08281E080938D0373
:105540000F900F900F900F9017CF1896ED91FC9140
:105550001997E1821896ED91FC91E080F180FF921D
:10556000EF929F938F93E7EEF3E1FF93EF930E9407
:105570004014B701D8011A968D919C910E943C1756
:10558000F8019387828710928D03108E0E94EC1190
:105590000F900F900F900F900F900F90892BD1F4D8
:1055A000D80114961C92149713961C92139781E0BD
:1055B00058968C93589750968D919D910D90BC91D3
:1055C000A02D0196A11DB11DF801808B918BA28B9E
:1055D000B38BD2CE81E0D80115968C93CDCE6E2DB3
:1055E000828593850E944412D8011A96ED91FC9110
:1055F00081113AC0CF010E94EC11F82EE92ED8019A
:105600001A96ED91FC91648175816D5F7F4FC201A7
:10561000CFD1EF92FF925F924F92E6E9F3E1FF93D1
:10562000EF930E944014D80115961C92159714967A
:105630001C92149713961C92139781E058968C93A2
:10564000589750968D919D910D90BC91A02D0196EB
:10565000A11DB11DF801808B918BA28BB38B109291
:105660008C0310928B0342CF80918B0390918C031B
:10567000019690938C0380938B03648175816D5F99
:105680007F4FC10195D1D8011A968D919C910E94AE
:10569000EC113F922F929F938F9380918C038F9365
:1056A00080918B038F93FF24FF92EF92E1ECF3E163
:1056B000FF93EF930E9440140FB6F894DEBF0FBE25
:1056C000CDBF5ACE0E94360DAB01BC0180918E0336
:1056D00090918F03A0919003B0919103805D9A48BF
:1056E000AF4FBF4F84179507A607B70790F40E94E6
:1056F000360D60938E0370938F0380939003909385
:10570000910386E094E19F938F930E9440140F9041
:105710000F900E942A0C82CD85E495E00E948A15A4
:1057200087E795E00C94BD100F931F93CF93DF9301
:105730008230910510F482E090E0E0919A05F091BA
:105740009B0530E020E0B0E0A0E0309799F421150F
:10575000310509F44AC0281B390B24303105D8F52E
:105760008A819B816115710589F1FB019383828395
:10577000FE0111C0408151810281138148175907F0
:10578000E0F04817590799F4109761F012960C93BE
:10579000129713961C933296CF01DF91CF911F91F0
:1057A0000F91089500939A0510939B05F4CF21154E
:1057B000310551F04217530738F0A901DB019A0176
:1057C000BD01DF01F801C1CFEF01F9CF90939B0537
:1057D00080939A05CDCFFE01E20FF31F8193919341
:1057E0002250310939832883D7CF209198053091F1
:1057F0009905232B41F4209102023091030230934A
:1058000099052093980520910002309101022115FD
:10581000310541F42DB73EB7409104025091050285
:10582000241B350BE0919805F0919905E217F307D9
:10583000A0F42E1B3F0B2817390778F0AC014E5F00
:105840005F4F2417350748F04E0F5F1F509399059F
:1058500040939805819391939FCFF0E0E0E09CCF37
:10586000CF93DF930097E9F0FC0132971382128205
:10587000A0919A05B0919B05ED0130E020E01097D2
:10588000A1F420813181820F931F209198053091DE
:1058900099052817390709F061C0F0939905E0933D
:1058A0009805DF91CF910895EA01CE17DF07E8F55B
:1058B0004A815B819E0141155105B1F7E901FB83E6
:1058C000EA8349915991C40FD51FEC17FD0761F484
:1058D000808191810296840F951FE90199838883C5
:1058E000828193819B838A83F0E0E0E012968D9120
:1058F0009C9113970097B9F52D913C911197CD018B
:105900000296820F931F20919805309199052817D0
:10591000390739F6309751F510929B0510929A0588
:10592000B0939905A0939805BCCFD383C2834081DF
:105930005181840F951FC817D90761F44E5F5F4FDF
:1059400088819981480F591F518340838A819B81A7
:10595000938382832115310509F0B0CFF0939B0525
:10596000E0939A059ECFFD01DC01C0CF1382128225
:10597000D7CFFB01DC0104C08D910590801921F483
:1059800041505040C8F7881B990B0895FB01DC017A
:1059900002C005900D9241505040D8F70895FB0188
:1059A000DC018D91059080190110D9F3990B0895B0
:1059B000FB01DC0105900D920020E1F708950F93A3
:1059C0001F93CF93DF93CDB7DEB72E970FB6F89422
:1059D000DEBF0FBECDBF8C01FA018EE08C831A832F
:1059E000098377FF02C060E070E8615071097E832F
:1059F0006D83A901BF01CE01019619D04D815E8151
:105A000057FD0AC02F813885421753070CF49A01BD
:105A1000020F131FF80110822E960FB6F894DEBF06
:105A20000FBECDBFDF91CF911F910F9108952F929F
:105A30003F924F925F926F927F928F929F92AF921E
:105A4000BF92CF92DF92EF92FF920F931F93CF936B
:105A5000DF9300D000D000D01F921F92CDB7DEB7E9
:105A60007C013B018A01FC0117821682838181FF40
:105A7000D0C1CE0101965C01F7019381F30193FD42
:105A8000859193FF81913F01882309F449C18532B3
:105A900039F493FD859193FF81913F01853221F483
:105AA000B70190E0CFD1E8CF912C212C312CFFE130
:105AB000F31538F08B3211F190F4803209F1833212
:105AC00029F137FC3CC020ED280F2A3050F536FE76
:105AD00020C08AE0989E200D1124922E06C08D329F
