:100000000C9445090C946D090C946D090C94C5274A
:100010000C94C5270C94C5270C946D090C946D099C
:100020000C946D090C946D090C946D090C946D0978
:100030000C946D090C946D090C946D090C946D0968
:100040000C945C260C946D090C942A260C940426BE
:100050000C946D090C946D090C946D090C946D0948
:100060000C94A6260C946D090A4D454D3A46415410
:10007000414C3A20636F6E206E6F7420696E697414
:10008000207061636B65742025750A437261736823
:10009000696E672E2E2E0A000A4D454D3A206E6578
:1000A00077207061636B657420257320286D616C07
:1000B0006C6F6320257520627974657329000000D8
:1000C00000656D707479207061636B657400000069
:1000D0000000000000000000000000000000000020
:1000E0000000000000000000000000000000000010
:1000F00000010000696E6974206279746500000077
:1001000000000000000000000000000000000000EF
:1001100000000000000000000000000000000000DF
:1001200000000000020000726573657420636F6D4B
:100130006D616E640000000000000000000000001F
:1001400000000000000000000000000000000000AF
:1001500000000000000000030000636F6E66696726
:100160002072657175657374000000000000000066
:10017000000000000000000000000000000000007F
:100180000000000000000000000004000073746123
:1001900074757320726571756573740000000000DA
:1001A000000000000000000000000000000000004F
:1001B0000000000000000000000000000005000139
:1001C000636F6D6D616E6420737472696E67000099
:1001D000000000000000000000000000000000001F
:1001E000010000000000000000000000000000000E
:1001F0000A000174696D657374616D700000000020
:1002000000000000000000000000000000000000EE
:1002100000000006000000000000000000000000D8
:100220000000000F000467656E65726963207265E7
:10023000706F7274000000000000000000000000F9
:10024000000000000000000206190000000000008D
:1002500000000000000019000161636B6E6F776C95
:1002600065646765000000000000000000000000F9
:100270000000000000000000000700000000000077
:100280000000000000000000001E000066616374B2
:100290006F727920726573657400000000000000C1
:1002A000000000000000000000000000000000004E
:1002B0000000000000000000000000002D0101739C
:1002C0006420636172642073657474696E670000F2
:1002D000000000000000000000000000000000011D
:1002E000000000000000000000000000000000F519
:1002F00001046465766963652073657474696E676B
:1003000000000000000000000000000000000000ED
:10031000000001051C1900000000000000000000A2
:100320000000E903047374616E6461726420636F9A
:100330006E660000000000000000000000000000E9
:1003400000000000000203041B0000000000000089
:100350000000000000EB030465737020636F6E669D
:10036000000000000000000000000000000000008D
:1003700000000000000000001D18171A0000000017
:100380000000000000000000ED030273616D706C5E
:10039000657220636F6E66000000000000000000C0
:1003A0000000000000000000000000151600000022
:1003B0000000000000000000000000150504616E50
:1003C000616C6F672073656E736F7220636F6E660A
:1003D0000000000000000000000000000000051CFC
:1003E0000F100000000000000000000000001605D3
:1003F0000273776974636820636F6E6600000000A3
:1004000000000000000000000000000000000000EC
:1004100000051C00000000000000000000000000BB
:10042000001E05046C64722073656E736F72206326
:100430006F6E660000000000000000000000000079
:1004400000000000051C0F1000000000000000006C
:1004500000000000F2050644485432322073656EF5
:10046000736F7220636F6E66000000000000000072
:1004700000000000000000051C0F10111200000019
:1004800000000000000000A4060372656C61792082
:10049000636F6E66000000000000000000000000B6
:1004A00000000000000000000000051C1A00000011
:1004B00000000000000000000000D0070264657624
:1004C0006963652067656E6572696320636F6E6638
:1004D00000000000000000000000000000051C00FB
:1004E00000000000000000000000000000D107052F
:1004F0007374616E646172642073746174757300E7
:1005000000000000000000000000000000000000EB
:10051000020609080A0000000000000000000000B8
:10052000D3070565737020737461747573000000E0
:1005300000000000000000000000000000000000BB
:10054000000000070C0B0E0D000000000000000072
:10055000000000D5070373616D706C6572207374C1
:1005600061747573000000000000000000000000CE
:10057000000000000000021507000000000000005D
:10058000000000000000FD0803616E616C6F6720D1
:1005900073656E736F7220737461740000000000E5
:1005A00000000000000000000005071A0000000025
:1005B000000000000000000000FE0803737769746B
:1005C00063682073656E736F7220737461740000CA
:1005D00000000000000000000000000005071A00F5
:1005E0000000000000000000000000000609036C8D
:1005F00064722073656E736F72207374617400008F
:1006000000000000000000000000000000000005E5
:10061000071A00000000000000000000000000DADF
:10062000090444485432322073656E736F7220732C
:100630007461740000000000000000000000000071
:1006400000000513141A0000000000000000000064
:1006500000008C0A0272656C617920737461740009
:10066000000000000000000000000000000000008A
:10067000000000000005190000000000000000005C
:100680000000000000400B047364207374617469FF
:100690007374696373000000000000000000000034
:1006A0000000000000000000021C0F080000000015
:1006B0000000000000000000B80B0264657669636A
:1006C000652067656E6572696320737461740000EC
:1006D0000000000000000000000000051A000000FB
:1006E0000000000000000000000000B90B04616C75
:1006F0006C61726D0000000000000000000000004E
:1007000000000000000000000000000000000304E2
:100710000619000000000000000000000000BA0BF5
:100720000467656E6572616C207761726E696E67D1
:1007300000000000000000000000000000000000B9
:100740000003040619000000000000000000000083
:1007500000850C0070726F6265207265717565733B
:100760007400000000000000000000000000000015
:100770000000000000000000000000000000000079
:1007800000000000B10D04616D6269656E74207037
:10079000726F6265000000000000000000000000B1
:1007A0000000000000000005030607000000000034
:1007B000000000000000008913046E6574776F72FA
:1007C0006B2061646472657373207365740000004C
:1007D0000000000000000000000001051D180000DE
:1007E000000000000000000000008A130365737021
:1007F00020616464726573730000000000000000F3
:1008000000000000000000000000000000051D18AE
:1008100000000000000000000000000000FAFF01DE
:10082000646F6F7262656C6C207369676E616C00D7
:1008300000000000000000000000000000000000B8
:1008400005000000000000000000000000000000A3
:100850006340006D657373616765000000000063AD
:100860004000636F6D6D616E6400000000006310F6
:10087000006E616D65000000000000000063100064
:1008800074797065000000000000000063100062D1
:100890006F6172640000000000000063080064657E
:1008A000766E616D6500000000006C040065706F7D
:1008B0006368000000000000006C040076616C7545
:1008C00065000000000000006C0400667265656D44
:1008D000656D00000000006C04006C6F6F7074693F
:1008E0006D65000000006C04006572726F72730029
:1008F00000000000006C0400746F74616C7278007A
:10090000000000006C0400746F74616C7478000067
:100910000000006C040073657269616C72780000FD
:1009200000006C040073657269616C7478000000EB
:10093000006C0400706172616D3100000000000005
:100940006C0400706172616D320000000000006C88
:100950000400706172616D330000000000006C04DF
:1009600000706172616D340000000000006C0400D2
:1009700074656D7065726174757265006C040068F1
:10098000756D6964697479000000006C040073740B
:10099000657064617931000000006C040073746557
:1009A00070686F7572310000006C040074696D65C9
:1009B0006F757400000000006C0400706F727400AA
:1009C000000000000000007301006C6576656C009B
:1009D00000000000000073010073746174757300FF
:1009E00000000000007301006465766E756D000004
:1009F0000000000073010070696E0000000000003C
:100A00000000006311006970000000000000000099
:100A100000000A7061727365723A626567696E0000
:100A20002E2E2E646F6E65000A4D454D3A20666F7E
:100A30007267696E67207061636B65742025733A15
:100A400025732025733A5B25755D00FF0101FF5476
:100A5000455354000A4552524F523A436F6E664214
:100A60006173653A6465766963653A20696E76619B
:100A70006C69642063616C6C20666F7220646576BB
:100A8000696365206174205B25755D00646F6E6528
:100A9000210072656164696E672E2E2E000A416C1A
:100AA0006C6F636174696E672064657620257520BC
:100AB0002E2E2E000A696F703A73656E64436F6E56
:100AC0006669673A6465766E756D20697320257571
:100AD000000A696F703A73656E64436F6E6669678A
:100AE0003A6465766E756D20697320257500554EE4
:100AF0004F0053414D504C45520054455354002A29
:100B00002A2048697421202A2A002A2A204D697344
:100B10007321202A2A001F1C1F1E1F1E1F1F1E1F9D
:100B20001E0A44656C6574696E6720436F6E664289
:100B3000617365000A4445564E554D2075706461D9
:100B4000746564206973202575000A5265616469C3
:100B50006E6720626173652070726F70202575204A
:100B60003A20000A57726974696E67206261736582
:100B70002070726F70202575203A20257300554E25
:100B80004F0053414D504C45520054455354000AB8
:100B9000436F6E66426173653A626567696E3A20BB
:100BA000636F6D706C657465210A00546F6F206D02
:100BB000616E792061747461636865642064657630
:100BC00069636573203C25753E000A436F6E66427B
:100BD0006173653A626567696E3A20746F6F206D64
:100BE000616E792064657669636573203A202575A6
:100BF00020286D617820257529003E3E2046414918
:100C00004C4544210A00205B202573205D20000A0A
:100C1000436F6E66426173653A626567696E3A203A
:100C2000506172616D657465722025753A25730097
:100C30005D0A00257520000A436F6E664261736588
:100C40003A696E69746465763A20706F7369746985
:100C50006F6E2061727261793A205B20000A436FE7
:100C60006E66426173653A696E69746465763A20AE
:100C70007472756E636174696E67206172726179F6
:100C80002061742025752F257500202D206C6F6143
:100C9000646564202573206F6E2070696E20257551
:100CA00000496E76616C69642064657669636520CD
:100CB0005B25753A25735D20617420706F736974CC
:100CC000696F6E202575000A436F6E664261736519
:100CD0003A696E69746465763A205B25752F2575CF
:100CE0005D203C25753E20617420696E6465782026
:100CF000257500476F7420696E76616C6964207099
:100D000061636B6574203C25733E20666F722063BF
:100D10006F6E66000A4445563A5741524E494E4757
:100D20003A76616C69646174653A20676F74206E0D
:100D3000756C6C706F696E746572000A4445563A42
:100D40005741524E494E473A76616C696461746509
:100D50003A20676F74206E756C6C706F696E746585
:100D600072005D0A0A00257520000A09546F74613B
:100D70006C20646576696365733A202575205B2075
:100D8000000A0A09636F6E663A6465764164643AE4
:100D90006164646564202573206F6E2070696E2025
:100DA000257521000A52656D6F76696E672066723F
:100DB0006F6D20257520746F202575004465766958
:100DC0006365202573206E6F7420666F756E6400F6
:100DD0004E6F2064657669636520746F2072656D5F
:100DE0006F766500636F6E663A6465766164643A37
:100DF0002000257370696E20257520616C72656412
:100E00007920696E2075736500636F6E663A64655C
:100E1000766D6F643A20002573696E76616C696443
:100E200020646576696365202573002573646576A3
:100E300069636520257300636F6E663A7365743A63
:100E40006465766E616D653A20696E76616C696481
:100E5000200025736E616D65202573000A4545509D
:100E6000524F4D3A53616D706C65722062656769CF
:100E70006E20636F6D706C657465002573434F4F12
:100E80004C2054494D45203C25753E002573535454
:100E90004550203C25753E00466F756E6420696E96
:100EA00076616C696420000A57726F7465207365FF
:100EB0006E736F722025753A2573202D206E6F207A
:100EC00070696E2025750A002573202D206F6E2015
:100ED00070696E202575000A57726974696E672003
:100EE00073656E736F722025753A202575202D204D
:100EF00000444854310000000005F20544485432D3
:100F00000000000006F205444854330000000007CA
:100F1000F20546414E310000000008A40646414E4D
:100F2000320000000009A4060A636C6F636B3A206C
:100F30004D494C4C49532073746172743A0A636C86
:100F40006F636B3A2063757272656E7420646174AE
:100F50006574696D653A202573000A636C6F636B75
:100F60003A2063616E206E6F7420696E697420444C
:100F7000533332333100626567696E3A2063616EC4
:100F8000206E6F7420696E6974204453333233319C
:100F900020636C617373000A636C6F636B3A206348
:100FA000757272656E74206461746574696D653AFA
:100FB00020257300626567696E3A20696E76616C00
:100FC00069642065706F63682E20506C656173657D
:100FD00020636865636B20636F6E6E656374696F11
:100FE0006E00626567696E3A20706F776572206C7B
:100FF0006F73732E20506C65617365206368656341
:101000006B20636C6F636B2062617474657279002E
:1010100030363A34353A3534004D61792020392064
:10102000323032300030363A34353A3534004D61A2
:101030007920203920323032300030363A34353A97
:101040003534004D61792020392032303230000AA9
:10105000636C6F636B3A25733A626567696E00650E
:10106000706F63683A20525443207369676E616CF5
:10107000206C6F7374210065706F63683A2052545E
:101080004320666F756E6421000000000024002775
:10109000002A00000000080002010000030407000D
:1010A00000000000000000424F41524420524541E0
:1010B00044590053414D504C4552000A3C494E4959
:1010C000543A434F4E463E0A00424F415244205349
:1010D0005441525453000A3C494E49543A25733EF8
:1010E0000054455354000A70617273653A7072651A
:1010F000616D626C65205041535300FF0101FF2573
:1011000063000A494F3A0A5741524E494E473A70D6
:10111000617273653A6E616D653A20636F756C64D8
:10112000206E6F742066696E6420696E6974206237
:10113000797465000A494F3A5741524E494E473A31
:1011400070617273653A6E616D653A205B25733A22
:1011500025735D20636F6D70617269736F6E2046D9
:1011600041494C454421000A70617273653A6E61D1
:101170006D653A205B25733A25735D2050415353CA
:10118000000A70617273653A6E616D653A2025756B
:10119000205B25755D0054455354000A70617273DD
:1011A000653A7061796C6F61643A20646F776E6C38
:1011B0006F61646564203C25733E205B2575204289
:1011C000797465735D000A70617273653A70617954
:1011D0006C6F61643A20676F74202575202825752F
:1011E0002F25752920666F722025730025755D20D7
:1011F0003D3E202575000A70617273653A636F6D1C
:101200006D616E643A205B25752E0053414D504C44
:1012100045523A4C4F4F500000000000230026007A
:10122000290000000000250028002B00040404040D
:101230000404040402020202020203030303030380
:10124000010204081020408001020408102001025D
:10125000040810204545434F4E4600494F5359530B
:101260000030363A34353A3534004D617920203932
:101270002032303230005254434C4F434B204453C1
:10128000333233310000D328672811241FBECFEF3B
:10129000D8E0DEBFCDBF12E0A0E0B1E0ECE3F7E6BE
:1012A00002C005900D92A836B107D9F724E0A8E650
:1012B000B2E001C01D92A43EB207E1F719E0C4E418
:1012C000D9E004C02197FE010E94D532C334D10772
:1012D000C9F70E941D2A0C9491330C940000909140
:1012E000BC039111FCCF91E09093BC039093BB039E
:1012F0002FEF2093BA031092B903260F2093B8035F
:101300009093B7039091B703880F892B8093B7030D
:101310008091B6038130F9F41092B6038091B7033F
:101320008093BB008091BC0083FDF8CF85EC809357
:10133000BC008091BC038130E1F38091B903861732
:1013400010F46091B903A6E9B3E0E6E7F3E080E0CA
:10135000861303C0089585EEEACF9D9191938F5F28
:10136000F7CF2091750381E0213208F044C08091CD
:10137000BC038111FCCF8091740392E09093BC0375
:1013800091E09093BB039FEF9093BA031092B9033F
:101390002093B803A4E5B3E0E6E9F3E090E0291375
:1013A00031C01092B7039091B703880F892B8093B7
:1013B000B7038091B603813049F51092B60380914E
:1013C000B7038093BB008091BC0083FDF8CF85EC10
:1013D0008093BC008091BC038230E1F38091BA031A
:1013E0008F3FB1F08091BA038032A1F08091BA03AF
:1013F000803391F084E010925303109275031092A1
:10140000520308953D9131939F5FC9CF85EEE0CFA0
:1014100080E0F1CF82E0EFCF83E0EDCF80E191E09B
:10142000909377048093760480914E0390914F03BC
:101430008657944071F4E0918904F0918A04908178
:1014400080918B0480958923808310924F031092A2
:101450004E030895AF92BF92CF92DF92EF92FF9228
:101460000F931F93CF93DF936C017B018B01040FCC
:10147000151FEB015E01AE18BF08C017D10759F068
:101480006991D601ED91FC910190F081E02DC601AA
:101490000995892B79F7C501DF91CF911F910F91A4
:1014A000FF90EF90DF90CF90BF90AF900895FC0138
:1014B000538D448D252F30E0842F90E0821B930BB9
:1014C000541710F0CF96089501970895FC01918D5F
:1014D000828D981761F0A28DAE0FBF2FB11D5D9662
:1014E0008C91928D9F5F9F73928F90E008958FEF04
:1014F0009FEF0895FC01918D828D981731F0828DB8
:10150000E80FF11D858D90E008958FEF9FEF08950E
:10151000FC01918D228D892F90E0805C9F4F821B72
:1015200091098F73992708958DEB93E00E94880AA3
:1015300021E0892B09F420E0822F089580E090E0DB
:10154000892B29F00E94940A81110C9400000895BF
:10155000FC01A48DA80FB92FB11DA35ABF4F2C9128
:10156000848D90E001968F739927848FA689B7891F
:101570002C93A089B1898C91837080648C93938D16
:10158000848D981306C00288F389E02D80818F7DB9
:1015900080830895EF92FF920F931F93CF93DF9371
:1015A000EC0181E0888F9B8D8C8D98131AC0E8899F
:1015B000F989808185FF15C09FB7F894EE89FF896E
:1015C0006083E889F98980818370806480839FBF0C
:1015D00081E090E0DF91CF911F910F91FF90EF900C
:1015E0000895F62E0B8D10E00F5F1F4F0F7311271C
:1015F000E02E8C8D8E110CC00FB607FCFACFE88957
:10160000F989808185FFF5CFCE010E94A80AF1CF2C
:10161000EB8DEC0FFD2FF11DE35AFF4FF0829FB7CA
:10162000F8940B8FEA89FB8980818062CFCFCF93BA
:10163000DF93EC01888D8823B9F0AA89BB89E889FA
:10164000F9898C9185FD03C0808186FD0DC00FB6A0
:1016500007FCF7CF8C9185FFF2CF808185FFEDCF1E
:10166000CE010E94A80AE9CFDF91CF91089590E0C2
:10167000FC01ED56FF4E2491FC01E05CFD4E3491DF
:10168000FC01E45DFD4EE491EE23C9F0222339F024
:10169000233001F1A8F4213019F1223029F1F0E0D2
:1016A000EE0FFF1FEE5DFD4EA591B4918FB7F8943C
:1016B000EC91611126C030953E233C938FBF089575
:1016C0002730A9F02830C9F0243049F780918000F4
:1016D0008F7D03C0809180008F7780938000DFCF63
:1016E00084B58F7784BDDBCF84B58F7DFBCF8091B0
:1016F000B0008F778093B000D2CF8091B0008F7D03
:10170000F9CF3E2BDACFCF93DF9390E0FC01E05C82
:10171000FD4E2491845D9D4EFC0184918823D1F07F
:1017200090E0880F991FFC01E757FF4EA591B491F7
:10173000FC01EE5DFD4EC591D49161110EC09FB7C5
:10174000F8948C91E22FE0958E238C932881E223EC
:10175000E8839FBFDF91CF9108958FB7F894EC9104
:10176000E22BEC938FBFF6CF10927904109278049D
:1017700088EE93E0A0E0B0E080937A0490937B043D
:10178000A0937C04B0937D0480E191E09093770472
:101790008093760410928D0410928C0410928F0422
:1017A00010928E041092910410929004109293045F
:1017B00010929204609194046E7F6D7F6093940404
:1017C0006695617081E0682783E00E94370B61E0D5
:1017D00083E00E94830BE3E4F2E1E491E09386046A
:1017E000EFE2F2E1E491F0E0EE0FFF1FEE5DFD4E5F
:1017F00085919491909388048093870460E082E0BF
:101800000E94830B8091940481FD04C061E082E01A
:101810000E94370B82E080938204E2E4F2E1E491DB
:10182000E0938304EEE2F2E1E491F0E0EE0FFF1FBB
:10183000E85EFD4E85919491909385048093840495
:1018400008953FB7F8948091400390914103A0918F
:101850004203B091430326B5A89B05C02F3F19F062
:101860000196A11DB11D3FBFBA2FA92F982F882720
:10187000BC01CD01620F711D811D911D42E0660FFB
:10188000771F881F991F4A95D1F708958F929F92CD
:10189000AF92BF92CF92DF92EF92FF924B015C0129
:1018A0000E94210C6B017C010E94210C6C197D09A6
:1018B0008E099F09683E734081059105A8F321E0D8
:1018C000821A9108A108B10888EEC80E83E0D81EDC
:1018D000E11CF11C81149104A104B10429F7FF90CB
:1018E000EF90DF90CF90BF90AF909F908F90089532
:1018F0002FB7F89460913C0370913D0380913E03B3
:1019000090913F032FBF089585ED8093BC00809197
:10191000BC0084FDFCCF1092BC03089520911603F7
:10192000260F3327331F21323105ECF42091BC03FD
:10193000FC0190E080E0243069F082E00895A091FD
:1019400016032191AC014C505D4FA40FB52FB11D72
:101950002C930196861798F380911603680F609375
:10196000160380E0089581E008950895089508958C
:10197000E091510380915003E81730F4F0E0EA5809
:10198000FC4F808190E008958FEF9FEF0895909134
:101990005103809150032FEF3FEF981748F4E92F40
:1019A000F0E0EA58FC4F208130E09F5F90935103B4
:1019B000C90108958091500390915103891B990B9F
:1019C0000895CF92DF92EF92FF920F931F93CF93E0
:1019D000DF937C01CB018A0120915203222389F0FD
:1019E000EB016B01C40ED51ECC15DD0569F06991C4
:1019F000D701ED91FC910190F081E02DC70109958F
:101A0000F3CF642F0E948E0CC801DF91CF911F91FC
:101A10000F91FF90EF90DF90CF900895CF93DF93D9
:101A20001F92CDB7DEB76983209152032223F9F0CC
:101A300020917503203258F021E030E0FC0133831F
:101A4000228390E080E00F90DF91CF910895809104
:101A50005303E82FF0E0EC5AFC4F998190838F5F9D
:101A6000809353038093750381E090E0ECCF61E0B5
:101A7000CE0101960E948E0CF7CFFC018489089557
:101A8000FC01608971898289938908950895089578
:101A90000895089580E0089520914E0330914F03FA
:101AA0002817390771F490914403809145039817E2
:101AB00041F0E0914403F0E0E455FD4F808190E077
:101AC00008958FEF9FEF0895EF92FF920F931F936A
:101AD000CF93DF93DC015C96ED90FC905D97E11471
:101AE000F10479F481E090E013969C938E93129721
:101AF00090E080E0DF91CF911F910F91FF90EF90E8
:101B000008955196ED91FC91529750968C91509773
:101B1000982F90950FB75E962C915E97122F1270AA
:101B200021FD6095F8942081112319F1282B208341
:101B3000E7012197F1F728E0462F50E0308160FF60
:101B40001AC0382B3083E7012197F1F7BA01759558
:101B50006795215089F7112381F080818923808343
:101B60000FBF5C968D919C910197F1F781E090E019
:101B7000C1CF2923DCCF3923E5CF9081892BEFCF4B
:101B800020914E0330914F032817390771F480914B
:101B900045032091440390E0805C9F4F821B910994
:101BA00060E470E00E949F32089590E080E0089524
:101BB00020914E0330914F0328173907B9F49091C3
:101BC000440380914503981789F0E0914403F0E0C5
:101BD000E455FD4F80812091440330E02F5F3F4F5B
:101BE0002F7333272093440390E008958FEF9FEFE6
:101BF000089590E080E00895EF92FF920F931F9375
:101C0000CF93DF93EC0169813881432F50E02A8123
:101C1000822F90E0E6E1FBE021E0261730F474919A
:101C2000870F911D2F5F3196F8CF633018F0337016
:101C300009F401966DE671E0469F9001479F300DD3
:101C4000569F300D1124215031094D5F5F4F56953D
:101C5000479556954795240F351F280F391FA8E142
:101C6000B0E00E9484322B817B018C01E20EF11CDA
:101C7000011D111DA8019701ACE3B0E00E944232A2
:101C80002C817B018C01E20EF11C011D111DA801AC
:101C900097010E944232AB01BC019D81892F90E0E7
:101CA000B0E0A0E080589C4BA249B74C8A019B0150
:101CB000080F191F2A1F3B1FC901B801DF91CF91DF
:101CC0001F910F91FF90EF900895CF93DF93EC0158
:101CD0000E94780C6093F0027093F1028093F202FC
:101CE0009093F302CE010E94FC0D6093EC0270937E
:101CF000ED028093EE029093EF02DF91CF91089571
:101D0000FC01908190539A3008F090E081818053DB
:101D10002AE0929F800D112408958F929F92AF9296
:101D2000BF92CF92DF92EF92FF92CF93DF93EC01BD
:101D30006A017B0180E8C81A83E4D80A8DE6E80AC4
:101D400088E3F80A8CE3882E912CA12CB12CC701D2
:101D5000B601A50194010E94B3326D83CA01B90195
:101D6000A50194010E94B3326C83C701B60120E142
:101D70003EE040E050E00E94B332CA01B90128E1E0
:101D800030E040E050E00E94B3326B83C701B601FF
:101D900020E831E541E050E00E94B332188263E967
:101DA0007EEF8881982F937041E050E011F050E071
:101DB00040E0FA01E359FE4F2E173F0740F0FB01C8
:101DC000E41BF50B2E0F3F1F8F5F8883EACF81E066
:101DD000898389818C30A0F4482F4150550BFA013A
:101DE000EA5EF44FE491911103C0823009F4EF5F91
:101DF000F0E02E173F0720F02E1B3F0B8F5FE8CF40
:101E00002F5F2A83DF91CF91FF90EF90DF90CF90EB
:101E1000BF90AF909F908F9008950F931F93CF9393
:101E2000DF9300D000D000D0CDB7DEB78C010E9488
:101E3000FC0DAB01BC01CE0101960E948D0EF80194
:101E400090818981981314C091818A81981310C060
:101E500092818B8198130CC093818C81981308C058
:101E600094818D81981304C081E025819E8129137E
:101E700080E026960FB6F894DEBF0FBECDBFDF918F
:101E8000CF911F910F910895CF92DF92EF92FF9221
:101E90000F931F93CF93DF93EC010E94210C0091CD
:101EA00068021091690220916A0230916B026B0105
:101EB0007C01C01AD10AE20AF30A970186010C8B51
:101EC0001D8B2E8B3F8B6093680270936902809309
:101ED0006A0290936B02DF91CF911F910F91FF9057
:101EE000EF90DF90CF900895CF92DF92FF920F9303
:101EF0001F93CF93DF936C0181E08093520388E6B8
:101F000080937403109253031092750360E08AE586
:101F100094E00E940E0D0E94B10967E088E60E94DD
:101F20006F0910925103809350038AE594E00E9458
:101F3000C70C8F77282F30E094E0359527959A9538
:101F4000E1F7922F990F990FC22FC91BCC0FC80F21
:101F50008AE594E00E94C70C9C0144E035952795E2
:101F60004A95E1F72F703327922F990F990FD22FAF
:101F7000D91BDD0FD80F8AE594E00E94C70C9C01A5
:101F800054E0359527955A95E1F72F703327922F16
:101F9000990F990F122F191B110F180F8AE594E052
:101FA0000E94C70C8AE594E00E94C70C9C0164E083
:101FB000359527956A95E1F72F703327922F990F62
:101FC000990F022F091B000F080F8AE594E00E9469
:101FD000C70C9C0174E0359527957A95E1F72F7031
:101FE0003327922F990F990FF22EF91AFF0CF80E42
:101FF0008AE594E00E94C70C9C01E4E035952795A2
:10200000EA95E1F72F703327922F990F990F291B2B
:10201000220F820FF6018083F18202831383D4831F
:10202000C583C601DF91CF911F910F91FF90DF9083
:10203000CF90089581E08093520388E680937403E3
:1020400010925303109275036FE08AE594E00E94AA
:102050000E0D0E94B10961E088E60E946F0910929E
:102060005103809350038AE594E00E94C70C0895C1
:10207000FF920F931F93CF93DF93EC0101E0009346
:10208000520318E6109374031092530310927503D1
:1020900060E08AE594E00E940E0D2D818AE0F82E22
:1020A000822F6F2D0E949332682F660F680F660F84
:1020B000620F8AE594E00E940E0D2C81822F6F2D15
:1020C0000E949332682F660F680F660F620F8AE5D1
:1020D00094E00E940E0D2B81822F6F2D0E9493326F
:1020E000682F660F680F660F620F8AE594E00E9402
:1020F0000E0D60E08AE594E00E940E0D2A81822F89
:102100006F2D0E949332682F660F680F660F620F63
:102110008AE594E00E940E0D2981822F6F2D0E9486
:102120009332682F660F680F660F620F8AE594E09E
:102130000E940E0D2881822F6F2D0E949332682FEE
:10214000660F680F660F620F8AE594E00E940E0D1D
:102150000E94B1090E941A10C82F009352031093D5
:10216000740310925303109275036FE08AE594E0B4
:102170000E940E0D6C2F6F778AE594E00E940E0D81
:10218000DF91CF911F910F91FF900C94B109FC0149
:102190008489882319F0CB010C943810CB010C945E
:1021A000650EEF92FF920F931F93CF93DF93EC0195
:1021B00009900020E9F721978E01081B190B29F1DE
:1021C0006017110610F1EC018881082E000C990BA4
:1021D0000E942633892BC9F07E018FEFE81AF80A96
:1021E000C00FD11FEC16FD06C1F0F70101917F0170
:1021F000002E000C110BC8010E942633892B91F789
:10220000005311090A30110568F380E0DF91CF9186
:102210001F910F91FF90EF90089581E0F7CF26EA8C
:1022200031E0FC013183208384819581009711F096
:102230000C94D02E0895CF93DF93EC010E940F11E0
:10224000CE01DF91CF910C94D02E0C94D02EFC01B6
:1022500082819381009711F00C94D02E0895CF9332
:10226000DF93EC018AE991E0998388838E819F81D5
:102270000E94D02E8C859D850E94D02E88859985C0
:102280000E94D02E0A84DB85C02D209741F0CE011C
:102290000E942711CE01DF91CF910C94D02EDF91B7
:1022A000CF910895CF93DF93EC010E942F11CE01BF
:1022B000DF91CF910C94D02ECF92DF92EF92FF92CC
:1022C0000F931F93CF93DF93EB017B0124E0E20E8A
:1022D000F11C8B016C01C61AD70AC601800F911F31
:1022E0000E942C32F80181938F01EE15FF05A9F7AA
:1022F000CE01DF91CF911F910F91FF90EF90DF9072
:10230000CF9008950F931F93CF93DF938C01EB0130
:102310000E942C328883C80101960E942C32898346
:10232000CE01DF91CF911F910F9108950C942C3223
:10233000FF920F931F93CF93DF938C01F62E80E3D0
:1023400090E00E949611D82F0A5F1F4FC0E0CD1772
:1023500059F0F801819191918F010A960E9496118E
:10236000F81619F0CF5FF3CFCFEF8C2FDF91CF911D
:102370001F910F91FF900895EF92FF920F931F937B
:10238000CF93DF93CDB7DEB72B970FB6F894DEBFB0
:102390000FBECDBF8C017A014BE050E0CE0101961B
:1023A0000E94662FCE010A960E94800EF80180835B
:1023B000E981E154E33118F50E2E000CFF0BED51CD
:1023C000FE4E0C94D5323112FF11FF114512FF1150
:1023D0002F12FF11FF11FF11F611FF11FF1138121B
:1023E00043124112FF11FF11FF113F128A81813602
:1023F00091F18B818E3689F187E0F8018183CE01DE
:1024000005960E94800EF801828348E050E0B701F3
:10241000CE0101960E94662FCE0101960E94800E89
:10242000F8018383CE0104960E94800EF801848314
:10243000CE0107960E94800EF80185832B960FB679
:10244000F894DEBF0FBECDBFDF91CF911F910F91EA
:10245000FF90EF90089581E0D0CF86E0CECF82E06C
:10246000CCCF8B81823711F088E0C7CF84E0C5CF15
:102470008B81823711F085E0C0CF83E0BECF89E049
:10248000BCCF8AE0BACF8BE0B8CF8CE0B6CFAF92AA
:10249000BF92CF92DF92EF92FF920F931F93CF9351
:1024A000DF93CDB7DEB7C254D1090FB6F894DEBFC3
:1024B0000FBECDBFFC016481758143E350E0CE01C6
:1024C00001960E94662F10E0F12CE12C8B811817E9
:1024D00018F580E5C82E88E0D82E00E094E2A92EF9
:1024E000B12CAC0EBD1EA10EB11CF5018081801374
:1024F0000BC04FE050E0B601CE01C4960E94662F9B
:102500008DA99EA9E80EF91E0F5FFFE0CF0ED11C2A
:102510000E3159F71F5FDACFC701CE5BDF4F0FB621
:10252000F894DEBF0FBECDBFDF91CF911F910F9109
:10253000FF90EF90DF90CF90BF90AF900895EF9213
:10254000FF921F93CF93DF93EC01162FE880F98061
:102550000E944712E816F90698F4EA81FB81888107
:102560009981E80FF91F10838881998101969983D9
:10257000888381E0DF91CF911F91FF90EF900895C4
:1025800080E0F8CFCF93DF93CDB7DEB7E3970FB6F8
:10259000F894DEBF0FBECDBFFC016481758143E3BB
:1025A00050E0CE0101960E94662F89819A81E396C0
:1025B0000FB6F894DEBF0FBECDBFDF91CF91089567
:1025C000CF93DF93EC010E94C2128E3125E0920777
:1025D000A9F060F4853F21E09207F9F020F08551E1
:1025E0009540029758F090E080E01BC0843A26E0C6
:1025F000920721F038F4823F9540A9F78A819B81A8
:1026000008960FC0803D27E09207C1F380349B40BD
:1026100051F78A819B81409604C08A819B81885BA7
:102620009F4FDF91CF910895CF93DF93EC010E94EC
:10263000C2128E3125E0920791F030F48531954039
:1026400071F090E080E00EC0823F25E0920739F003
:1026500080349B40B1F78A819B81419603C08A8177
:102660009B810996DF91CF910895CF93DF93EC0181
:102670000E94C2128F3F28E0920728F58D3F28E084
:102680009207E0F48E3125E09207C1F060F4853FB7
:1026900021E09207C9F120F085519540029770F032
:1026A00090E080E00DC0843A26E0920739F0803D4A
:1026B00027E0920719F0823F954091F78A819B812C
:1026C000DF91CF910895883B2BE09207B9F360F436
:1026D0008A3D29E0920791F38C382AE0920771F342
:1026E00086309940E9F6EACF893823E1920761F014
:1026F00020F4813B9D4011F3D3CF8A3823E1920728
:10270000E9F20696D9F2CCCF8A819B81805C9F4FFB
:10271000D7CFCF93DF93EC010E94C212813D27E017
:10272000920789F048F48F30910581F0893E9340FB
:1027300051F090E080E00EC0853D27E0920719F04F
:1027400080349B40B1F78A819B8104C08A819B8140
:10275000805C9F4FDF91CF910895FF920F931F935D
:10276000CF93DF93EC01F62E08811981C8010E94F6
:102770002C32F81621F06F2DC8010E943432CE01A0
:10278000DF91CF911F910F91FF900895AF92BF926B
:10279000CF92DF92EF92FF920F931F93CF93DF932D
:1027A00000D0CDB7DEB78B016B0124E0C20ED11C87
:1027B0007B015C01A61AB70AC5018E0D9F1D9A8385
:1027C0008983F70161917F01CE0101960E94AD13CB
:1027D000EC14FD0489F7C8010F900F90DF91CF91A1
:1027E0001F910F91FF90EF90DF90CF90BF90AF902F
:1027F00008954F925F926F927F928F929F92AF92C5
:10280000BF92CF92DF92EF92FF920F931F93CF93DD
:10281000DF93CDB7DEB728970FB6F894DEBF0FBEB3
:10282000CDBF5C014B01512C98E0492ECE010196A1
:102830006C0180E390E00E949611581648F5F6016D
:10284000842D11928A95E9F7E52DF0E03396EE0F8D
:10285000FF1FEA0DFB1D00811181780192E0E90E56
:10286000F11C3601065F1F4FC7010E942C32F30195
:1028700081933F01FFEFEF1AFF0AE016F106A1F77F
:10288000B601C4010E945033892B21F05394D1CF5B
:1028900055245A94852D28960FB6F894DEBF0FBEA6
:1028A000CDBFDF91CF911F910F91FF90EF90DF90FF
:1028B000CF90BF90AF909F908F907F906F905F90E0
:1028C0004F9008950F931F93CF93DF9300D000D0C4
:1028D00000D0CDB7DEB7182F092FE82FF92F86E1EA
:1028E000DF011D928A95E9F7CE0101960E948D0EB7
:1028F0008E811F928F938D811F928F938C811F9257
:102900008F938B811F928F938A811F928F938981DE
:1029100090E08053984F9F938F9384EB91E09F9327
:102920008F930F931F930E946E330FB6F894DEBF00
:102930000FBECDBF26960FB6F894DEBF0FBECDBF3B
:10294000DF91CF911F910F9108950F931F93CF9314
:10295000DF93CDB7DEB79E01295F3F4FF90141916B
:1029600051919F010CE612E080E4F80111928A95E2
:10297000E9F760E470E0C8010E947F2FF801019040
:102980000020E9F7AF014D565240B80186E794E0C8
:102990000E942A0ADF91CF911F910F9108954F92C3
:1029A0005F926F927F928F929F92AF92BF92CF92DF
:1029B000DF92EF92FF920F931F93CF93DF93CDB7E8
:1029C000DEB7C155D1090FB6F894DEBF0FBECDBF3B
:1029D00080E18E010F5F1F4FF801982F11929A9599
:1029E000E9F76E01E1E1CE0ED11CF601982F1192AC
:1029F0009A95E9F77E01E1E2EE0EF11CF7011192E2
:102A00008A95E9F76AE87BE0C8010E94782F62E8BE
:102A10007BE0C6010E94782F6EE77BE0C7010E9431
:102A2000782FB12CA12CF12CE12C23E6822E2BE067
:102A3000922E1F930F93FF92EF929F928F920E947C
:102A4000A5140F900F900F900F900F900F90D12C16
:102A5000C12CF801EC0DFD1D6081C6018A0D9B1D86
:102A60009AAB89ABCE01C1960E94AD13FFEFCF1A8E
:102A7000DF0A80E1C816D10461F79FEFE91AF90A6D
:102A8000005F1F4FE0E1AE0EB11CF3E0EF16F10462
:102A900081F665E080E390E00E943432B12CA12CF5
:102AA000F12CE12C8AE4882E8BE0982E9AE0492EB6
:102AB000512C612C712CFF92EF929F928F920E9469
:102AC000A5140F900F900F900F90D12CC12CC50121
:102AD0008C0D9D1D0E949611282F30E050E040E0A3
:102AE00062961FAE629701E310E00C0F1D1F005E9F
:102AF0001F4FCA01B901A30192010E94B332605D68
:102B0000F80162938F01211531054105510589F7BF
:102B1000309761F001900020E9F73197AF01401B39
:102B2000510BB8018DEB93E00E942A0AFFEFCF1AF8
:102B3000DF0A80E1C816D10451F69FEFE91AF90ABD
:102B4000E0E1AE0EB11CF3E0EF16F10409F0B3CFF3
:102B500080E390E00E9496111F928F9384E39BE0A4
:102B60009F938F930E94A5140F900F900F900F903A
:102B7000CF5ADF4F0FB6F894DEBF0FBECDBFDF9147
:102B8000CF911F910F91FF90EF90DF90CF90BF906A
:102B9000AF909F908F907F906F905F904F9008952F
:102BA00028E531E0FC013183208381E29BE09F93A3
:102BB0008F930E94A5140F900F900895CF93DF93E9
:102BC000EC010E94D015CE01DF91CF910C94D02E54
:102BD0002EE631E0FC01318320830C94D015CF9395
:102BE000DF93EC010E94E815CE01DF91CF910C94A8
:102BF000D02E24E831E0FC01318320830C94E815C9
:102C0000CF93DF93EC010E94F915CE01DF91CF91B4
:102C10000C94D02ECF92DF92EF92FF920F931F93DE
:102C2000CF93DF93CDB7DEB7C357D1090FB6F89472
:102C3000DEBF0FBECDBF8C016B01FC011182108283
:102C400013821282158214828EEBE82E80E0F82E19
:102C500043E350E0B701CE018F5B9F4F0E94662F88
:102C600023968EAD9FAD23978C159D05E9F5F80150
:102C7000F582E482C8010E94471261E070E00E9480
:102C80000733F80193838283C8010E944712F82E0C
:102C9000E92EF801648175816D5F7F4F8E010F5FB2
:102CA0001F4FC8010E94782FEF92FF921F930F933E
:102CB00088E990E09F938F930E94A5140F900F9046
:102CC0000F900F900F900F90CD58DF4F0FB6F894E4
:102CD000DEBF0FBECDBFDF91CF911F910F91FF904F
:102CE000EF90DF90CF900895F3E3EF0EF11C80E5B5
:102CF000E81688E0F80609F0ABCFDF92CF9288E6BD
:102D000090E09F938F930E94A5148EEB90E0F801C2
:102D1000958384830F900F900F900F90D5CF2F92B3
:102D20003F924F925F926F927F928F929F92AF925B
:102D3000BF92CF92DF92EF92FF920F931F93CF93A8
:102D4000DF93CDB7DEB763970FB6F894DEBF0FBE43
:102D5000CDBF0E94CF148CE291E0A0E0B0E08C8760
:102D60009D87AE87BF87BE01645F7F4F81E390E0A0
:102D70000E94C61388E290E0A0E0B0E08C879D87B7
:102D8000AE87BF87BE01645F7F4F85E390E00E94FE
:102D9000C61381EF282E8EE0382ED12CC12C99E35A
:102DA000E92EF12C9E012F5F3F4F490124E6422E70
:102DB000512C612C712CCA8ADB8A4BE050E0B101A6
:102DC000C4010E94662F86E090E00E94342E8C01A0
:102DD0006A857B850E940A16F98AE88A6A85CE018F
:102DE00040960E94AD13C7010196998B888B6B8525
:102DF000CE0140960E94AD1332E0E30EF11C8B85AC
:102E00008F938A858F93DF92CF9287ED9EE09F9379
:102E10008F930E94A51489851F928F939F928F9202
:102E2000E8ECFEE0FF93EF930E94A514C8010E9416
:102E30003513B4010E945933C8010E94E01229855C
:102E4000DC012C93C8010E9414130FB6F894DEBF66
:102E50000FBECDBF892B49F0C8010E941413DC01BD
:102E60004D925D926D927C921397C8010E94C2129E
:102E7000823F9540B1F4F80182819381419689F0B7
:102E8000C8010E94C212F0E0E0E0823F954029F4C0
:102E9000D8011296ED91FC91719640825182628226
:102EA0007382B12CA12CC8010E944712A816B90642
:102EB000A0F4D8011296ED91FC91EA0DFB1D608102
:102EC000F98AE88ACE0140960E94AD13BFEFEB1A53
:102ED000FB0AEFEFAE1ABE0AE6CFC8010E94E0126D
:102EE000DC01BC90C8010E9435131F92BF929F93D2
:102EF0008F93BB89BF93EA89EF9327EA3EE03F9324
:102F00002F930E94A5140FB6F894DEBF0FBECDBF5D
:102F10000115110531F0C8010E942711C8010E9456
:102F2000D02EBFEFCB1ADB0AEBE02E0E311CF5E002
:102F3000CF16D10409F03FCF10E000E0C701800FA9
:102F4000911F998B888B60E0CE0140960E94AD1353
:102F50000F5F1F4F0436110589F763960FB6F8947B
:102F6000DEBF0FBECDBFDF91CF911F910F91FF90BC
:102F7000EF90DF90CF90BF90AF909F908F907F9019
:102F80006F905F904F903F902F9008950F931F93F5
:102F9000CF93DF93EC018B01009729F10E94C212BD
:102FA00080179107D1F4CE010E944712AC0170E066
:102FB00060E08A819B810E944933198218828FEFD9
:102FC0009AE09F938F930E94A5140F900F90CE01CB
:102FD000DF91CF911F910F910895CE010E9427118B
:102FE000CE010E94D02E86E090E00E94342EEC01AB
:102FF000B8010E940A168AE09BE0E3CF0F931F936B
:10300000CF93DF93EC0186E090E00E94342E8C0198
:1030100070E060E00E940A161B870A8782E19AE04E
:103020009F938F930E94A51461E070E084E090E08C
:103030000E9407339F838E8361E070E080E190E01F
:103040000E9407339D878C8762E070E081E090E00A
:103050000E940733998788870F900F90DF91CF9157
:103060001F910F9108956F927F928F929F92AF92CE
:10307000BF92CF92DF92EF92FF920F931F93CF9365
:10308000DF93CDB7DEB7C058D1090FB6F894DEBFD5
:103090000FBECDBF7C018B016E0181E4C80ED11C37
:1030A0006FE47AE0C6010E94782FF7018081918158
:1030B000A281B3810196A11DB11D80839183A2835A
:1030C000B3830115110509F499C0C8010E94471284
:1030D00061E070E048960E9407337C0144E050E0D4
:1030E0006BE47AE00E94662F5701F4E0AF0EB11C4A
:1030F00080E1F601D50101900D928A95E1F7C801B2
:103100000E94C212782E692EF801648175816D5F6C
:103110007F4FCE0101964C010E94782F6F927F92D3
:10312000BF92AF929F928F92DF92CF9288E29AE005
:103130009F938F930E94A51481E0F701848BC801AF
:103140000E94C212F701968B858BC8010E9447121C
:10315000F80162817381AC01C70147960E942E334A
:10316000C8010E9447128E0D9F1DFC01178A80E244
:103170009AE09F938F930E94A514C8010E94471262
:1031800048966C010FB6F894DEBF0FBECDBF10E0BD
:1031900000E08DEB93E00C151D05B0F40E94570A7A
:1031A00002975CF0F701E00FF11F60818DEB93E077
:1031B0000E94CA0A0F5F1F4FECCF65E070E080E00D
:1031C00090E00E94460CE5CF0E94170BC701C05843
:1031D000DF4F0FB6F894DEBF0FBECDBFDF91CF91AA
:1031E0001F910F91FF90EF90DF90CF90BF90AF9025
:1031F0009F908F907F906F900C94D02EC058DF4F8F
:103200000FB6F894DEBF0FBECDBFDF91CF911F91F7
:103210000F91FF90EF90DF90CF90BF90AF909F9075
:103220008F907F906F9008953F924F925F926F9230
:103230007F928F929F92AF92BF92CF92DF92EF9246
:10324000FF920F931F93CF93DF93CDB7DEB7C45D8B
:10325000D1090FB6F894DEBF0FBECDBF86E090E077
:103260000E94342E8C0169EE73E00E940A166AEF08
:103270007AE0CE018F579F4F0E94782FBE016F5783
:103280007F4FCE018F539F4F0E945933C8010E9438
:103290008913BE016F537F4F0E94593362EF7AE06A
:1032A000CE018F5B9F4F0E94782FBE016F5B7F4FD7
:1032B000CE018F539F4F0E945933C8010E94C21202
:1032C0008B3B2BE0920758F4893BEBE09E0708F01C
:1032D0007DC0893E934059F090E080E00CC0813B76
:1032E0009D40D1F7F80182819381089604C0F801CE
:1032F000828193814096BE016F537F4F0E94593364
:103300006EEE7AE0CE0101960E94782FBE016F5FCB
:103310007F4FCE018F539F4F0E945933C8010E94A7
:10332000C212893BFBE09F0709F454C08A3B2BE0A3
:10333000920709F44FC0893E934009F050C0F8014C
:10334000828193818096BE016F537F4F0E945933D3
:10335000C8010E94C212F12CE12C893E934031F445
:10336000F801E280F380F0E3EF0EF11C80E390E0DF
:103370000E949611F7018083B801809168049091B2
:1033800069040E94331880E390E00E9496111F9216
:103390008F9381ED9AE09F938F930E94A5146DEE19
:1033A00073E0C8010E94C6178C010E94C2120F90E0
:1033B0000F900F900F908D3EF3E09F0799F0853DA1
:1033C000974009F4C9C0F12CE12C0FC0F8018281AB
:1033D000938191CFF801828193814096B4CF90E0A0
:1033E00080E0B1CFF801E280F380BE016F527F4FE1
:1033F00081E390E00E945C11CF52DF4F8881998178
:10340000AA81BB81C15DD040F70180839183A283F3
:10341000B383C8010E94C212F12CE12C8D3E93406F
:1034200031F4F801E280F380F4E0EF0EF11CBE010C
:103430006F527F4F85E390E00E945C11CF52DF4FC7
:1034400088819981AA81BB81C15DD040F7018083C9
:103450009183A283B38380E390E00E9496111F9230
:103460008F9384EB9AE09F938F930E94A5140F9003
:103470000F900F900F90312C94E5492E9AE0592E21
:103480002DE9622E2AE0722E32E9A32E3AE0B32E05
:103490004CE8842E4AE0942E80E390E00E9496113E
:1034A000381608F07AC0CF52DF4F19821882C15DFA
:1034B000D04080E390E00E949611E32CF12C381666
:1034C00008F060C0EE0CFF1CC70188549B4F7C01C4
:1034D000BE016F527F4FFC01808191810E94821159
:1034E000CE52DF4F8881C25DD0408F93CF52DF4FE5
:1034F0008881C15DD0408F937F926F920E94A51406
:10350000CF52DF4F68817981C15DD040C8010E94F0
:10351000C6178C01BF92AF920E94A5140F900F9016
:103520000F900F900F900F90D12CC12CC8010E94CA
:103530004712C816D906B8F4F70180819181029626
:103540008C0D9D1D0E949611682FC8010E949F122C
:10355000FFEFCF1ADF0AEACFF801E280F380F0E153
:10356000EF0EF11C42CF9F928F920E94A5140F90F4
:103570000F90B80180916804909169040E943318FB
:1035800033948ACF1F923F925F924F920E94A5146C
:103590000F900F900F900F90ECCF0115110531F0A7
:1035A000C8010E942711C8010E94D02ECC52DF4FC3
:1035B0000FB6F894DEBF0FBECDBFDF91CF911F9144
:1035C0000F91FF90EF90DF90CF90BF90AF909F90C2
:1035D0008F907F906F905F904F903F900895AF9243
:1035E000BF92CF92DF92EF92FF920F931F93CF93F0
:1035F000DF9300D0CDB7DEB78C016A010E94F913CA
:1036000090E00396880F991F800F911FFC010081A5
:1036100011817801F2E0EF0EF11C5601065F1F4F99
:10362000F50161915F01FA82E982CE0101960E9463
:10363000AD13FFEFEF1AFF0AE016F10689F70E94BB
:10364000141981E00F900F90DF91CF911F910F918E
:10365000FF90EF90DF90CF90BF90AF900895CF9202
:10366000DF92EF92FF920F931F93CF93DF9300D0DF
:10367000CDB7DEB77C018A010E94F91390E0039672
:10368000880F991F8E0D9F1DDC01CD90DC90B2E05C
:10369000CB0ED11CF12CE12CC8010E944712E81678
:1036A000F906A0F4D8011296ED91FC91EE0DFF1DE4
:1036B0006081C7018C0D9D1D9A838983CE0101967F
:1036C0000E94AD13BFEFEB1AFB0AE6CF0E9414195C
:1036D00081E00F900F90DF91CF911F910F91FF909C
:1036E000EF90DF90CF9008958F929F92BF92CF92EC
:1036F000DF92EF92FF920F931F93CF93DF9300D04F
:10370000CDB7DEB78C016B0180E390E00E9496118B
:10371000B82EE82FF0E03396EE0FFF1FE00FF11FF9
:10372000E080F180C6010E94C212992EFA82E982DD
:10373000682FCE0101960E94AD13C70101969A83AE
:103740008983692DCE0101960E94AD1382E0E80EB7
:10375000F11C912C812CC6010E94471288169906F3
:10376000A0F4D6011296ED91FC91E80DF91D60814F
:10377000FA82E982CE0101960E94AD13BFEFEB1AE7
:10378000FB0AEFEF8E1A9E0AE6CFB3946B2D80E30F
:1037900090E00E94343280E390E00E949611E82F7E
:1037A000F0E03396EE0FFF1FE00FF11FF182E08291
:1037B000C6010E94E012DC01FC90C6010E94351394
:1037C0001F92FF929F938F9381E89DE09F938F9329
:1037D0000E94A5141F92BF928AE69DE09F938F934B
:1037E0000E94A5140A5F1F4F0FB6F894DEBF0FBEEC
:1037F000CDBFF12C96E6C92E9DE0D92EFB1490F496
:10380000D8018C9111969C910E5F1F4F9F938F93BF
:10381000DF92CF920E94A514F3940F900F900F9017
:103820000F90ECCF82E69DE09F938F930E94A514AA
:103830000E94141981E00F900F900F900F90DF916C
:10384000CF911F910F91FF90EF90DF90CF90BF909D
:103850009F908F900895AF92BF92CF92DF92FF9288
:103860000F931F93CF93DF93F82E6B01EA01590159
:1038700061E070E080E490E00E9407338C019501E4
:10388000AE0160E470E00E947F2F86E090E00E942D
:10389000342EEC016FE070E00E940A16CE010E9407
:1038A000C2120F97E1F48A819B81B8010E945933BB
:1038B000CE010E948913B6010E945933CE010E94A5
:1038C000C212813D27E0920709F440C058F48A30C3
:1038D0009105B9F00F97A9F1F0E0E0E014C090E095
:1038E00080E0E3CF8A3B2BE0920739F0813B2DE06B
:1038F000920781F1893B9B4079F7EA81FB81B09681
:1039000002C0EA81FB818091AD049091AE04A09148
:10391000AF04B091B00480839183A283B383CE01BE
:103920000E94C2128C382AE0920709F447C0B0F412
:103930008F309105F1F0853F9140D9F1F0E0E0E062
:103940001CC0EA81FB81E05BFF4FDDCFEA81FB8198
:103950007096D9CFEA81FB817896D5CF893B2BE051
:10396000920719F08A3B9B4049F7EA81FB81B496A4
:1039700004C0EA81FB81EC5AFF4FF082BE018091C6
:103980006804909169040E943318C8010E94D02EE7
:103990002097C1F0CE010E942711CE01DF91CF9177
:1039A0001F910F91FF90DF90CF90BF90AF900C943C
:1039B000D02EEA81FB81E75BFF4FDFCFEA81FB81FD
:1039C0003896DBCFDF91CF911F910F91FF90DF9061
:1039D000CF90BF90AF900895CF93DF93CDB7DEB770
:1039E000C054D1090FB6F894DEBF0FBECDBF62EF51
:1039F0007AE0CE0101960E94782F9E01285B3F4F0E
:103A000028964EAD5FAD2897BE016F5F7F4F26961B
:103A10008FAD26970E942B1CC05CDF4F0FB6F89429
:103A2000DEBF0FBECDBFDF91CF910895AF92BF92A1
:103A3000CF92DF92EF92FF920F931F93CF93DF937A
:103A4000CDB7DEB7C058D1400FB6F894DEBF0FBE79
:103A5000CDBF8C017B01DC01ED91FC910190F081E7
:103A6000E02D0995D82E882309F477C0B2E08B1792
:103A700011F1E3E08E1709F448C0F1E08F1319C08B
:103A800084EE9DE09F938F9382ED91E09F938F93BF
:103A9000D80115968C9115978F9314968C918F93CE
:103AA00082E08F930E94EC1C0FB6F894DEBF0FBE2D
:103AB000CDBF80E08EC0D70114966D917C916D5F73
:103AC0007F4F5E01B1ECAB0EB11CC5010E94782F97
:103AD0007E01E1E8EE0EF11C64EE7DE0C7010E947C
:103AE000782FBF92AF92FF92EF9285EE91E09F9375
:103AF0008F93D80115968C9115978F9314968C916E
:103B00008F93DF920E94EC1CCFCFD70114966D915A
:103B10007C916D5F7F4F7E01B1E4EB0EF11CC7011C
:103B20000E94782F64EE7DE0FE0131966F01CF0197
:103B30000E94782FFF92EF92DF92CF9289EF91E06F
:103B40009F938F93D80115968C9115978F93149608
:103B50008C918F9382E08F93D5CFC7010E94E012A2
:103B6000DC01BC906B2DC8010E9498118F3F69F158
:103B7000F701648175816D5F7F4F6E01FFEBCF1A96
:103B8000FEEFDF0AC6010E94782F7E0181E0E80E79
:103B9000F81E64EE7DE0C7010E94782F1F92BF924D
:103BA000DF92CF92FF92EF928DE192E09F938F93FD
:103BB000D80115968C9115978F9314968C918F93AD
:103BC00082E08F930E94EC1C6FCFB701C8010E9466
:103BD000741BC058DE4F0FB6F894DEBF0FBECDBFCA
:103BE000DF91CF911F910F91FF90EF90DF90CF90D9
:103BF000BF90AF900895CF93DF93CDB7DEB7C05499
:103C0000D1090FB6F894DEBF0FBECDBF28966EADBA
:103C10007FAD2897CE0101960E94782F9E01265BEA
:103C20003F4F2A964EAD5FAD2A97BE016F5F7F4F23
:103C300026968FAD26970E942B1CC05CDF4F0FB6D7
:103C4000F894DEBF0FBECDBFDF91CF9108958F9264
:103C50009F92AF92BF92CF92DF92EF92FF920F931B
:103C60001F93CF93DF93CDB7DEB72C970FB6F894A1
:103C7000DEBF0FBECDBF8C01CE0107960E94740F30
:103C80008F81843608F046C0CE0107960E940D0F42
:103C9000882309F43FC0CE0107960E94FC0DF8016D
:103CA000608B718B828B938B8489811120C081E022
:103CB000848B86819781009711F00E94D02EF801A5
:103CC0001782168210926B0410926C0487E790E1C1
:103CD0009F938F9383818F9382818F9381E08F93C2
:103CE0000E94FB1D0F900F900F900F900F902C963D
:103CF0000FB6F894DEBF0FBECDBFDF91CF911F91FD
:103D00000F91FF90EF90DF90CF90BF90AF909F907A
:103D10008F900895F8018489882351F1148A81E0F5
:103D200090E00E94342EF801978386834089518960
:103D300062897389CE0101960E948D0ECE01019693
:103D40000E94650E83E080936B0410926C042FE553
:103D500030E13F932F93F80193819F9392819F933A
:103D60008F930E94FB1D0F900F900F900F900F905C
:103D70000E94780C8090F0029090F102A090F202E4
:103D8000B090F302681979098A099B0928EE33E09B
:103D900040E050E00E94B33269017A01A8EEB3E03E
:103DA0000E944232860E971EA81EB91E8092F00213
:103DB0009092F102A092F202B092F3024091EC02D2
:103DC0005091ED026091EE027091EF024C0D5D1D7D
:103DD0006E1D7F1D4093EC025093ED026093EE0246
:103DE0007093EF02CE0101960E948D0ECE010196D6
:103DF0000E94FC0DF801608B718B828B938B77CFC7
:103E0000CF93DF93EC010E94780CAB01BC018C8551
:103E10009D85AE85BF858C599F4FAF4FBF4F84178F
:103E20009507A607B70760F50E94780C6C877D8719
:103E30008E879F87CE010E94271E8C89811120C00A
:103E40000E94780CAB01BC0188859985AA85BB8549
:103E5000805D9A48AF4FBF4F84179507A607B707F5
:103E600078F40E94780C688779878A879B87E88135
:103E7000F9810480F581E02DCE01DF91CF91099485
:103E8000DF91CF9108958F929F92AF92BF92DF9270
:103E9000EF92FF920F931F93CF93DF93CDB7DEB7CF
:103EA000CC55D1090FB6F894DEBF0FBECDBF7C0153
:103EB000FC01148A628173818E010F5F1F4FC8015C
:103EC0000E94782F1F930F938FE490E19F938F931D
:103ED0000E94A5144AE350E163E470E1CE01895ADF
:103EE0009F4F0E94BC11CE01895A9F4F0E94FC0D2A
:103EF0000F900F900F900F90F70180889188A28803
:103F0000B388005C1F4F86169706A806B90650F4C2
:103F100045E250E16EE270E1C8010E94BC11C801A7
:103F20000E94FC0D40E150E169E170E1C8010E948E
:103F3000BC11C8010E94FC0D4B015C0110925103A1
:103F40001092500310925303109275031092BC0309
:103F5000DD24D394D092BB031092B60361E082E1DA
:103F60000E94370B61E083E10E94370B8091B9001A
:103F70008E7F8093B9008091B9008D7F8093B900C6
:103F800088E48093B80085E48093BC0085EB9CE0D6
:103F9000909315038093140386EB9CE09093190390
:103FA00080931803D092520388E680937403109292
:103FB0005303109275030E94B10981113AC00E9407
:103FC0001A1090E0880F892F881F990B892BD1F048
:103FD000B501A401C8010E948D0EC8010E943810CD
:103FE00082EE9FE09F938F93F70183818F9382816D
:103FF0008F9383E08F930E94FB1D0F900F900F9083
:104000000F900F90C8010E94740FF80180818436D0
:1040100028F4C8010E940D0F811166C0B501A401EA
:10402000C8010E948D0EC8010E94381084EB9FE0E9
:1040300002C086E79FE09F938F93F70183818F9360
:1040400082818F9383E08F930E94FB1D0F900F90CE
:104050000F900F900F90F701408951896289738901
:10406000C8010E9462148AE59FE09F938F930E948B
:10407000A5141F930F9388E29FE09F938F930E9454
:10408000A51481E090E00E94342EF7019783868387
:104090004089518962897389CE01895A9F4F0E9454
:1040A0008D0ECE01895A9F4F0E94650E83E080934A
:1040B0006B0410926C040F900F900F900F900F9064
:1040C0000F90C45ADF4F0FB6F894DEBF0FBECDBFBE
:1040D000DF91CF911F910F91FF90EF90DF90BF90F4
:1040E000AF909F908F90089581E0F701848BC70176
:1040F0000E94271EF7014089518962897389C8018E
:104100000E9462141F930F9387E99FE09F938F9300
:104110000E94A5140F900F900F900F90D2CFEF92A6
:10412000FF920F931F93CF93DF93EC018B017A01E2
:104130000E94F9138F3F11F51F930F9387E39EE0C1
:104140009F938F938BE29EE09F938F938D818F93AC
:104150008C818F9382E08F930E94FB1D8DB79EB759
:1041600009960FB6F8949EBF0FBE8DBF80E0DF9119
:10417000CF911F910F91FF90EF90089568E0C701D4
:104180000E94D11081111BC0FF92EF9287E39EE045
:104190009F938F9382E59EE09F938F938D818F9362
:1041A0008C818F9382E08F930E94FB1D8DB79EB709
:1041B00009960FB6F8949EBF0FBE8DBFD7CFA7014B
:1041C000B801CE01DF91CF911F910F91FF90EF9039
:1041D0000C94EF1ACF92DF92EF92FF920F931F93FE
:1041E000CF93DF93EC018B017A010E94F913C82E63
:1041F0008FEFC81224C01F930F9389E09EE09F9316
:104200008F9387E19EE09F938F938D818F938C8115
:104210008F9382E08F930E94FB1DEDB7FEB7399616
:104220000FB6F894FEBF0FBEEDBF80E0DF91CF91D7
:104230001F910F91FF90EF90DF90CF900895E8814C
:10424000F9810190F081E02DB701CE01099581112E
:10425000ECCFC7010E94E012FC01D0806D2DCE0191
:104260000E9498118F3FE9F0C816D9F01F92DF9293
:1042700089E09EE09F938F9382EF9DE09F938F93C1
:104280008D818F938C818F9382E08F930E94FB1D91
:104290008DB79EB709960FB6F8949EBF0FBE8DBF1F
:1042A000C4CFA701B801CE01DF91CF911F910F912B
:1042B000FF90EF90DF90CF900C942F1BEF92FF9226
:1042C0000F931F93CF93DF93CDB7DEB7C054D109BF
:1042D0000FB6F894DEBF0FBECDBF7C018B01611518
:1042E0007105B9F48BE39DE09F938F930E94A51411
:1042F0000F900F9081E0C05CDF4F0FB6F894DEBFE7
:104300000FBECDBFDF91CF911F910F91FF90EF9026
:104310000895CB010E944712892B39F584E19DE075
:104320009F938F930E94A514F801648175816D5F3E
:104330007F4F8E010F5F1F4FC8010E94782F1F9380
:104340000F9383EF9CE09F938F93F70185818F9369
:1043500084818F9382E08F930E94FB1D0FB6F894A7
:10436000DEBF0FBECDBF82E0C6CF80E0C4CF0F93CB
:104370001F93CF938B010E945E21C82F81111BC018
:10438000C8010E94C212853125E09207A1F0863152
:1043900025E0920781F08E3125E0920761F0823F9F
:1043A00025E0920741F0843A26E0920721F0803D13
:1043B000974009F0C3E08C2FCF911F910F91089582
:1043C0002F923F924F925F926F927F928F929F9225
:1043D000AF92BF92CF92DF92EF92FF920F931F9313
:1043E000CF93DF93CDB7DEB7C254D1090FB6F8949F
:1043F000DEBF0FBECDBF6C018B01FC0177836683EE
:1044000080E390E00E949611282E23961FAE1EAEE8
:1044100023973601F8E06F0E711CB12CA12C312CC2
:10442000482E512C321409F468C0BE016F5B7F4FD7
:10443000C8010E9482111F930F9323968FAD23977B
:104440008F9322968FAD22978F931F922F92BF92B8
:10445000AF9227EC3CE03F932F930E94A5140E5F90
:104460001F4F86E090E00E94342E7C0123966EADB3
:104470007FAD23970E940A16C7010E9447120FB60C
:10448000F894DEBF0FBECDBF892B09F05DC0F701E8
:10449000648175816D5F7F4F8E010F5F1F4FC80173
:1044A0000E94782F1F930F9323968FAD23978F939E
:1044B00022968FAD22978F9381EA9CE09F938F93F2
:1044C000F60185818F9384818F9383E08F930E947F
:1044D000FB1D5F924F921F923F928DE59CE09F9350
:1044E0008F930E94A514632D80E390E00E943432E4
:1044F0000FB6F894DEBF0FBECDBF87E39CE09F935D
:104500008F930E94A5140F900F90F12C03E31CE0F1
:1045100080E390E00E9496118F1508F454C0EF2DAF
:10452000F0E03396EE0FFF1FEC0DFD1D81818F93A0
:1045300080818F931F930F930E94A514F3940F9083
:104540000F900F900F90E4CF912C812CC7010E9407
:1045500047128816990668F4C8010E949611682FC0
:10456000C7010E949F120F5F1F4F3FEF831A930AEC
:10457000EDCFC7010E94E012FC019080C7010E94AC
:1045800035131F929F929F938F932AE83CE03F93AD
:104590002F930E94A514F301019311933F010F90F3
:1045A0000F900F900F900F900F90E114F10431F0E5
:1045B000C7010E942711C7010E94D02E3394FFEF3C
:1045C000AF1ABF0A2FCF80E39CE09F938F930E9486
:1045D000A5140F900F90CE5BDF4F0FB6F894DEBF9F
:1045E0000FBECDBFDF91CF911F910F91FF90EF9044
:1045F000DF90CF90BF90AF909F908F907F906F9003
:104600005F904F903F902F9008957F928F929F924E
:10461000AF92BF92CF92DF92EF92FF920F931F93D0
:10462000CF93DF9300D000D0CDB7DEB78C01F62E4C
:10463000E72E80E390E00E949611782E6F2D7E2D5C
:10464000C8010E94F913772009F467C08F3F09F46D
:1046500089C0E82FF0E03396EE0FFF1FE00FF11F47
:10466000E080F1801C821B82E72DF0E03396EE0F94
:10467000FF1FE00FF11F80809180BE016D5F7F4FB3
:10468000C7010E948211CB80DC8086E090E00E940E
:10469000342E5C01B6010E940A16D12CC12CA11443
:1046A000B10451F0C5010E9447126C01C5010E947E
:1046B0002711C5010E94D02E6FEF670D80E390E0B7
:1046C0000E943432C70102968C0D9D1D9F938F93DB
:1046D000FF92EF9284EA9DE09F938F930E94A5142E
:1046E0000F900F900F900F900F900F9092E0C90EC7
:1046F000D11CE814F90408F04AC0C6018E0D9F1DB4
:104700000E949611FA82E982682FCE0101960E94DA
:10471000AD13EFEFEE1AFE0AECCF80ED9DE09F9314
:104720008F93F80185818F9384818F9382E08F939B
:104730000E94FB1D0F900F900F900F900F9080E044
:104740000F900F900F900F90DF91CF911F910F91CD
:10475000FF90EF90DF90CF90BF90AF909F908F90A1
:104760007F900895EF92FF928CEB9DE09F938F9343
:10477000F80185818F9384818F9382E08F930E94CB
:10478000FB1D0FB6F894DEBF0FBECDBFD8CFF8012A
:1047900066817781C8010E94E0210E94141981E09E
:1047A000CFCF2F923F924F925F926F927F928F92D4
:1047B0009F92AF92BF92CF92DF92EF92FF920F93B0
:1047C0001F93CF93DF93CDB7DEB7CC59D1090FB686
:1047D000F894DEBF0FBECDBF8C0186E0E6E0F1E0CD
:1047E000DE01AF56BF4F01900D928A95E1F7CE01E1
:1047F0008F569F4FC956DF4F99838883C759D04042
:104800007E0191E8E90EF11C662477246E187F087A
:10481000D12CC12C2E01A1E44A0E511CF701709637
:10482000C756DF4FF983E883C959D040CE010196BE
:104830001C01C556DF4FC882CB59D040C456DF4F4C
:10484000D882CC59D040C956DF4FA881B981C75909
:10485000D0408D909D90C956DF4FB983A883C7592A
:10486000D040B401C2010E94782F5F924F92DF9234
:10487000CF92EFE0FCE0FF93EF930E94A514D701E5
:10488000E0E11D92EA95E9F70F900F900F900F90DD
:104890000F900F905701C501860D971D0E9496112C
:1048A000D5018D935D01C756DF4FE881F981C95964
:1048B000D040AE17BF0779F7FF92EF9286E09CE0F9
:1048C0009F938F930E94A514B401C7010E946F2F7C
:1048D0000F900F900F900F90892B09F445C0EAEFCD
:1048E000FBE0FF93EF930E94A514B401C1010E9465
:1048F000782FFF92EF923F922F92C456DF4F88811C
:10490000CC59D0408F93C556DF4F9881CB59D040BA
:104910009F93ABE3B2E0BF93AF93D80115968C9110
:1049200015978F9314968C918F93B3E0BF930E9449
:10493000EC1C68EC70E080E090E00E94460CD8012E
:10494000ED91FC910084F185E02DC8010995D80115
:10495000ED91FC910680F781E02DC80109950FB615
:10496000F894DEBF0FBECDBFFFEFCF1ADF0A20E104
:10497000620E711C83E0C816D10409F05ACF80E39F
:1049800090E00E9496118531E0F11F9294E19F938F
:104990001F928F938AEC9BE09F938F930E94A514A4
:1049A00080E390E00E9496111F928F938BEA9BE028
:1049B0009F938F93D80115968C9115978F9314968A
:1049C0008C918F9383E08F930E94FB1DD801ED9112
:1049D000FC910084F185E02DC801099568EC70E038
:1049E00080E090E00E94460CD801ED91FC91068099
:1049F000F781E02DC80109950FB6F894DEBF0FBE10
:104A0000CDBF8FE89BE09F938F930E94A5140F90DA
:104A10000F90C456DF4F0FB6F894DEBF0FBECDBF68
:104A2000DF91CF911F910F91FF90EF90DF90CF908A
:104A3000BF90AF909F908F907F906F905F904F90BE
:104A40003F902F900895AF92BF92CF92DF92EF9256
:104A5000FF920F931F93CF93DF93CDB7DEB7C45868
:104A6000D1090FB6F894DEBF0FBECDBF8C010E94F6
:104A7000D123CF57DF4F188219821A821B82C15867
:104A8000D040BE016F577F4F81E390E00E945C11E0
:104A9000CF57DF4FC880D980EA80FB80C158D04013
:104AA000D701C6010597A109B1098C379145A140ED
:104AB000B105D0F15E0181E4A80EB11C68E97EE089
:104AC000C5010E94782FFF92EF92DF92CF92BF92A2
:104AD000AF928CE89EE09F938F93D80115968C91AE
:104AE00015978F9314968C918F9383E08F930E94E8
:104AF000FB1D68EC70E080E090E00E94460CD8015D
:104B0000ED91FC910084F185E02DC8010995D80153
:104B1000ED91FC910680F781E02DC80109950FB653
:104B2000F894DEBF0FBECDBFBE016F577F4F85E348
:104B300090E00E945C11CF57DF4FC880D980EA8097
:104B4000FB80C158D040D701C6010197A109B10926
:104B500088379105A105B105C0F168E97EE0CE0175
:104B600001965C010E94782FFF92EF92DF92CF9224
:104B7000BF92AF928BE79EE09F938F93D8011596DB
:104B80008C9115978F9314968C918F9383E08F93CC
:104B90000E94FB1D68EC70E080E090E00E94460CF3
:104BA000D801ED91FC910084F185E02DC8010995B3
:104BB000D801ED91FC910680F781E02DC80109959F
:104BC0000FB6F894DEBF0FBECDBF69E370E0C80139
:104BD0000E94E0218CE59EE09F938F930E94A51494
:104BE0000F900F90CC57DF4F0FB6F894DEBF0FBE7B
:104BF000CDBFDF91CF911F910F91FF90EF90DF908C
:104C0000CF90BF90AF9008951F920F920FB60F9262
:104C100011242F933F934F935F936F937F938F93C1
:104C20009F93AF93BF93EF93FF938DEB93E00E941D
:104C3000A80AFF91EF91BF91AF919F918F917F91C2
:104C40006F915F914F913F912F910F900FBE0F90F9
:104C50001F9018951F920F920FB60F9211242F9349
:104C60008F939F93EF93FF93E091CD03F091CE0349
:104C70008081E091D303F091D40382FD1BC0908129
:104C80008091D6038F5F8F732091D703821741F0F5
:104C9000E091D603F0E0E354FC4F958F8093D60368
:104CA000FF91EF919F918F912F910F900FBE0F90D9
:104CB0001F9018958081F4CF1F920F920FB60F921C
:104CC00011242F933F938F939F93AF93BF93809122
:104CD0003C0390913D03A0913E03B0913F0330917E
:104CE0003B0323E0230F2D3758F50196A11DB11D7D
:104CF00020933B0380933C0390933D03A0933E039A
:104D0000B0933F038091400390914103A0914203EF
:104D1000B09143030196A11DB11D80934003909370
:104D20004103A0934203B0934303BF91AF919F917E
:104D30008F913F912F910F900FBE0F901F9018955C
:104D400026E8230F0296A11DB11DD2CF1F920F920C
:104D50000FB60F9211242F933F934F935F936F934E
:104D60007F938F939F93AF93BF93EF93FF93809124
:104D7000B900887F803609F44AC0F0F5883209F41A
:104D8000A7C018F5803109F49BC0B8F4882309F452
:104D9000F9C0883009F494C0FF91EF91BF91AF91B1
:104DA0009F918F917F916F915F914F913F912F9143
:104DB0000F900FBE0F901F901895883109F488C08E
:104DC000803251F78093BA0314C0803409F49DC037
:104DD00040F48033B9F38833F9F68093BA0385EC55
:104DE000B0C0803509F485C0883509F496C0883490
:104DF00099F60E94840CD0CF883909F48CC038F51C
:104E0000883729F050F4883611F0803729F683E08E
:104E10008093BC0310923A0357C0883809F47BC0D2
:104E2000803919F0803809F0B7CF80913A03803289
:104E300008F071C0E0913A0381E08E0F80933A034D
:104E40008091BB00F0E0E65EFC4F80833DC0803B7C
:104E500039F0E0F4803A09F479C0883A09F09CCF3F
:104E600084E08093BC031092170310921603E09124
:104E70001403F091150309958091160381110FC059
:104E800081E0809316031092F40209C0803C09F47B
:104E9000A6CF883C09F4A3CF883B09F07DCFE091F1
:104EA000170381E08E0F80931703F0E0EC50FD4F65
:104EB00080818093BB00909117038091160329C0D5
:104EC0008091B7038093BB0085EC8093BC0064CFD6
:104ED0009091B9038091B803981758F5E091B90300
:104EE00081E08E0F8093B903F0E0EA56FC4F808199
:104EF000E9CFE091B90381E08E0F8093B9038091EF
:104F0000BB00F0E0EA56FC4F80839091B90380919A
:104F1000B8039817C8F285E8D8CFE091B90381E0CB
:104F20008E0F8093B9038091BB00F0E0EA56FC4FEE
:104F300080838091BB0381115CCF81E08093B603B5
:104F400084EA8093BC001092BC0326CF85EC80934A
:104F5000BC001092BC0380913A03803230F4E0919F
:104F60003A03F0E0E65EFC4F108260913A0370E095
:104F7000E0911803F09119038AE193E009951092EA
:104F80003A030ACF1092BA0334CF1F920F920FB692
:104F90000F9211242F933F934F935F936F937F93BF
:104FA0008F939F93AF93BF93EF93FF93E0914E0343
:104FB000F0914F03309749F0A685B7858585968D8A
:104FC00091FF14C09C918923A1F4FF91EF91BF91AF
:104FD000AF919F918F917F916F915F914F913F9191
:104FE0002F910F900FBE0F901F9018959C918923C1
:104FF00061F7A389B4899C918589809589238C93D5
:10500000868997890197F1F7608D718DA685B7859F
:10501000558538E020E0CB010197F1F7822F90E031
:1050200095958795282F4C91452309F0206831509C
:1050300091F7868D81FD20958091450390E0019642
:105040008F73992730914403381799F0A091450345
:10505000B0E0A455BD4F2C9380934503828D938D72
:105060000197F1F7A389B4898C919589892B8C9349
:10507000ACCF868D8160868FF1CF209195043091E1
:10508000960440919704509198046091990470910E
:105090009A0480919B0490919C04AFEF0E94DB32B4
:1050A000209395043093960440939704509398046A
:1050B0006093990470939A0480939B0490939C044A
:1050C000A0E00E94E73211F40C940E0A089582EBDE
:1050D00094E00E94F9158DE994E00E940F1120914F
:1050E00095043091960440919704509198046091F2
:1050F000990470919A0480919B0490919C04AFEF65
:105100000E94DB32209395043093960440939704D9
:10511000509398046093990470939A0480939B042D
:1051200090939C04A0E00E94E73211F40E940E0AC2
:105130000E943D280E943D280E943D280E943D2853
:105140000E943D280E943D280E943D280E943D2843
:105150000C943D2820919504309196044091970439
:10516000509198046091990470919A0480919B04E5
:1051700090919C04A1E00E94DB322093950430932F
:105180009604409397045093980460939904709305
:105190009A0480939B0490939C040E94E73211F43C
:1051A0000C94B40B0895CF93DF9300D000D000D0BF
:1051B000CDB7DEB71092C0031092BF0388EE93E024
:1051C000A0E0B0E08093C1039093C203A093C30317
:1051D000B093C40322E231E03093BE032093BD03B9
:1051E00025EC30E03093CA032093C90324EC30E06F
:1051F0003093CC032093CB0320EC30E03093CE03EC
:105200002093CD0321EC30E03093D0032093CF03E3
:1052100022EC30E03093D2032093D10326EC30E02F
:105220003093D4032093D3031092D6031092D70364
:105230001092D8031092D90310925D0410925C046E
:1052400080935E0490935F04A0936004B093610424
:1052500084E391E090935B0480935A040E94AA280F
:105260000E94AA280E94AA280E94AA280E94AA286E
:105270000E94AA280E94AA280E94AA280E94AA285E
:105280002091950430919604409197045091980490
:105290006091990470919A0480919B0490919C0470
:1052A000A1E00E94DB322093950430939604409352
:1052B0009704509398046093990470939A04809390
:1052C0009B0490939C040E94E73211F40E94B40B5B
:1052D00010926A0410926B0410926C0410926D0488
:1052E00010926E0410926F04109270041092710468
:1052F0001092720410927304109274041092750448
:1053000086EA91E090939E0480939D041092A404F9
:105310001092A3041092A5041092A6041092A70460
:105320001092A8041092A9041092AA041092AB043F
:105330001092AC041092AD041092AE041092AF041F
:105340001092B0041092B10486E792E19093A00409
:1053500080939F0481E090E00E94342E9093A204F9
:105360008093A10441E652E16AE672E1CE01019622
:105370000E94BC11CE0101960E94FC0D6093AD0409
:105380007093AE048093AF049093B00489E190E0F1
:105390000E94342EFC018AE991E09183808313827C
:1053A0001482158217821682118610861386128641
:1053B00015861486108A118A128A138A148A158A0D
:1053C000168A178A108E81E082838BE592E1978797
:1053D0008687F0936704E093660484E090E00E947F
:1053E000342EDC011D921D921D921C9213979093F6
:1053F00069048093680486E491E09093B5048093F7
:10540000B40484E592E19093B7048093B604E8EB8A
:10541000F4E088E2DF011D928A95E9F784E891E0E3
:105420009093B3048093B20426960FB6F894DEBF2F
:105430000FBECDBFDF91CF910895CF93DF93CDB74E
:10544000DEB7C150D1400FB6F894DEBF0FBECDBF5E
:10545000789484B5826084BD84B5816084BD85B54F
:10546000826085BD85B5816085BD80916E0081605B
:1054700080936E0010928100809181008260809301
:105480008100809181008160809381008091800003
:105490008160809380008091B10084608093B1002E
:1054A0008091B00081608093B00080917A00846028
:1054B00080937A0080917A00826080937A00809154
:1054C0007A00816080937A0080917A00806880936E
:1054D0007A001092C10064EF71E080E090E00E94D9
:1054E000460C8DE080936D0461E00E94830B13E015
:1054F00061E080916D040E94370B68EC70E080E001
:1055000090E00E94460C60E080916D040E94370B91
:1055100068EC70E080E090E00E94460C115041F78A
:10552000109291041092900410928F0410928E04A5
:1055300010928D0410928C048FE190E0909393046C
:105540008093920490918204963108F047C021E044
:1055500030E030938D0420938C042DE130E03093C3
:105560008F0420938E042DE030E03093910420933B
:1055700090042091680084E0983048F031E09E303B
:1055800008F430E081E001C0880F3A95EAF7822BF9
:10559000809368002DE630E0983050F02BE630E044
:1055A0009E3030F02CE630E0963110F030E020E014
:1055B00030938A0420938904292F30E0983008F032
:1055C00090C181E001C0880F9A95EAF780938B041F
:1055D00080919204909193040197F1F78091900447
:1055E00090919104892B49F1E0914E03F0914F0382
:1055F00024E0E637F20709F1309739F0A389B4893E
:105600009C918589809589238C93809194048E7FC9
:1056100080939404109245031092440386E794E02B
:1056200090934F0380934E03E0918904F0918A0494
:10563000808190918B04892B808310926C0410924E
:105640006B048E010F531F4F61EE70E1C8010E9481
:10565000782F1F930F9386ED90E19F938F930E9475
:10566000A514E091CD03F091CE0382E08083E09118
:10567000C903F091CA031082E091CB03F091CC03EF
:1056800080E180831092D503E091D103F091D203A1
:1056900086E08083E091CF03F091D0038081806128
:1056A0008083E091CF03F091D00380818860808374
:1056B000E091CF03F091D003808180688083E091F6
:1056C000CF03F091D00380818F7D80831092C1033E
:1056D0001092C2031092C3031092C4038091660417
:1056E00090916704DC01ED91FC910480F581E02D3F
:1056F00009958DE994E00E94431F89EC90E19F9306
:105700008F9381EE90E19F938F9311E01F930E94FE
:10571000FB1D8BEB90E19F938F930E94A51482EB6E
:1057200094E00E9423250E94141987EA90E19F9338
:105730008F9383EB90E19F938F931F930E94FB1DA8
:105740000FB6F894DEBF0FBECDBF5E01F1E4AF0E21
:10575000B11C6E0121E8C20ED11CCE0101964C0194
:105760000E94780C2B013C0180916E0490916F0493
:10577000A0917004B09171048053984FAF4FBF4F08
:1057800084159505A605B705E0F580916B0488237F
:10579000C1F190916C0489130FC040926E04509235
:1057A0006F04609270047092710410926C0460E057
:1057B00080916D040E94370B809172049091730464
:1057C000A0917404B091750488539F4FAF4FBF4FA1
:1057D00084159505A605B705A0F480916D049091F8
:1057E0006A0491118BC061E00E94370B81E08093C5
:1057F0006A0440927204509273046092740470922E
:1058000075048DE994E00E94001F8DEB93E00E94E7
:10581000880A892B09F4F4C184E3282E81E1382E0B
:105820009FEF492E90E1592E26EE622E20E1722E36
:105830008DEB93E00E94880A892B09F4E1C1009165
:105840006604109167048DEB93E00E94660A7C0168
:10585000D80113968C91139781115BC0C7019927CA
:105860009F938F935F924F920E94A514F8018681B7
:105870009781BC016F5F7F4F43E050E00E94373358
:10588000D8011696ED91FC911797E38244E050E021
:105890006BEF70E116968D919C910E94592F0F909D
:1058A0000F900F900F90892B91F47F926F920E942E
:1058B000A514D8011C96ED91FC9180E1DF011D92A9
:1058C0008A95E9F781E0F80183830F900F90E091CA
:1058D0006604F0916704808D882309F4A9CF108EA7
:1058E0009BCF9E3040F42850310981E001C0880FE1
:1058F0002A95EAF76BCE2E503109F7CF60E00E946F
:10590000370B10926A0480916C048F5F80936C0453
:1059100070CFCF5FDE4FE882C150D14014968C919A
:10592000149781118DC066E971E1C6010E94782F3C
:10593000C70199279F938F93809146031F928F935E
:10594000E1E8F1E1FF93EF930E94A51480914603F3
:105950000F900F900F900F900F900F90803158F490
:10596000D8011C96ED91FC91E80FF11DE0828F5F4C
:1059700080934603ACCFCF5FDE4FB881C150D1409A
:10598000B13009F054C0F80182818823E1F0F601BA
:1059900001900020E9F73197AF014C195D09D8015A
:1059A0001C96FC901C971D96EC90B6018F2D9E2D99
:1059B0000E946033892B41F560E18F2D9E2D0E945E
:1059C000D110882309F11092460381E0F801848305
:1059D0000084F185E02D11821082D8011D968C91F2
:1059E0001D978F931C968C918F93DF92CF92E7E651
:1059F000F1E1FF93EF930E94A5140F900F900F9089
:105A00000F900F900F9063CFEF92FF92DF92CF92A3
:105A10003F922F920E94A5140F900F900F900F901D
:105A20000F900F90F80113821092460350CF82E03E
:105A300091E19F938F930E94A5140F900F90F2CF46
:105A400015968C911597811165C0C70199272091F2
:105A50004903211115C09F938F93E6EFF1E1FF9366
:105A6000EF930E94A514D8011896ED91FC91E08265
:105A700081E0809349030F900F900F900F9027CFF4
:105A80001896ED91FC911997E1821896ED91FC9191
:105A9000E080F180FF92EF929F938F93ECEEF1E123
:105AA000FF93EF930E94A514B701D8011A968D9128
:105AB0009C910E94C617F801938782871092490330
:105AC000108E0E9447120F900F900F900F900F9022
:105AD0000F90892BD1F4D80114961C921497139629
