:100000000C94D4060C94FC060C94FC060C94B916C3
:100010000C94B9160C94B9160C94FC060C94FC06BE
:100020000C94FC060C94FC060C94FC060C94FC0648
:100030000C94FC060C94FC060C94FC060C94FC0638
:100040000C9450150C94FC060C941E150C94F8148A
:100050000C94FC060C94FC060C94FC060C94FC0618
:100060000C949A150C94FC060A464154414C3A20D3
:10007000636F6E206E6F7420696E697420706163A7
:100080006B65742025750A4372617368696E672E0B
:100090002E2E0A000A4D454D3A206E65772070617C
:1000A000636B657420257320286D616C6C6F632011
:1000B00025752062797465732900000000656D70F4
:1000C0007479207061636B657400000000000000AB
:1000D0000000000000000000000000000000000020
:1000E000000000000000000000000000000100000F
:1000F000696E697420627974650000000000000078
:1001000000000000000000000000000000000000EF
:1001100000000000000000000000000000000000DF
:10012000020000726573657420636F6D6D616E64AB
:1001300000000000000000000000000000000000BF
:1001400000000000000000000000000000000000AF
:10015000000000030000636F6E66696720726571BE
:1001600075657374000000000000000000000000CE
:10017000000000000000000000000000000000007F
:1001800000000000000004000073746174757320A7
:100190007265717565737400000000000000000056
:1001A000000000000000000000000000000000004F
:1001B000000000000000000000050001636F6D6D8D
:1001C000616E6420737472696E6700000000000045
:1001D000000000000000000000000000010000001E
:1001E0000000000000000000000000000A00017490
:1001F000696D657374616D7000000000000000009F
:1002000000000000000000000000000000000006E8
:100210000000000000000000000000000000000FCF
:10022000000467656E65726963207265706F727431
:1002300000000000000000000000000000000000BE
:10024000000000020619000000000000000000008D
:10025000000019000161636B6E6F776C6564676500
:10026000000000000000000000000000000000008E
:100270000000000000070000000000000000000077
:1002800000000000001E0000666163746F72792038
:10029000726573657400000000000000000000003B
:1002A000000000000000000000000000000000004E
:1002B00000000000000000002D0101736420636154
:1002C00072642073657474696E670000000000003A
:1002D000000000000000000000000001000000001D
:1002E0000000000000000000000000F5010464654B
:1002F000766963652073657474696E670000000039
:1003000000000000000000000000000000000105E7
:100310001C19000000000000000000000000E903BC
:10032000047374616E6461726420636F6E660000B2
:1003300000000000000000000000000000000000BD
:10034000000203041B000000000000000000000089
:1003500000EB030465737020636F6E66000000009D
:10036000000000000000000000000000000000008D
:10037000000000001D18171A000000000000000017
:1003800000000000ED030273616D706C6572206304
:100390006F6E66000000000000000000000000001A
:1003A0000000000000000015160000000000000022
:1003B00000000000000000150504616E616C6F67AD
:1003C0002073656E736F7220636F6E6600000000AD
:1003D00000000000000000000000051C0F100000DD
:1003E000000000000000000000001605027377699D
:1003F00074636820636F6E660000000000000000F8
:1004000000000000000000000000000000051C00CB
:10041000000000000000000000000000001E0504B5
:100420006C64722073656E736F7220636F6E66000A
:1004300000000000000000000000000000000000BC
:10044000051C0F100000000000000000000000006C
:10045000F2050644485432322073656E736F722081
:10046000636F6E66000000000000000000000000E6
:10047000000000051C0F1011120000000000000019
:10048000000000A4060372656C617920636F6E66DC
:10049000000000000000000000000000000000005C
:1004A000000000000000051C1A0000000000000011
:1004B000000000000000D0070264657669636520D3
:1004C00067656E6572696320636F6E660000000089
:1004D000000000000000000000051C0000000000FB
:1004E000000000000000000000D107057374616E79
:1004F000646172642073746174757300000000009D
:1005000000000000000000000000000002060908D2
:100510000A0000000000000000000000D30705658D
:100520007370207374617475730000000000000024
:1005300000000000000000000000000000000007B4
:100540000C0B0E0D0000000000000000000000D5A4
:10055000070373616D706C657220737461747573D9
:10056000000000000000000000000000000000008B
:10057000000002150700000000000000000000005D
:100580000000FD0803616E616C6F672073656E7318
:100590006F7220737461740000000000000000009E
:1005A000000000000005071A000000000000000025
:1005B0000000000000FE080373776974636820730D
:1005C000656E736F72207374617400000000000028
:1005D000000000000000000005071A0000000000F5
:1005E00000000000000000000609036C6472207324
:1005F000656E736F722073746174000000000000F8
:10060000000000000000000000000005071A0000C4
:100610000000000000000000000000DA0904444867
:100620005432322073656E736F722073746174007C
:1006300000000000000000000000000000000513A2
:10064000141A0000000000000000000000008C0AE6
:100650000272656C6179207374617400000000009F
:10066000000000000000000000000000000000008A
:10067000000519000000000000000000000000005C
:1006800000400B047364207374617469737469634C
:1006900073000000000000000000000000000000E7
:1006A00000000000021C0F08000000000000000015
:1006B00000000000B80B0264657669636520676519
:1006C0006E6572696320737461740000000000003D
:1006D00000000000000000051A00000000000000FB
:1006E00000000000000000B90B04616C6C61726DC9
:1006F00000000000000000000000000000000000FA
:1007000000000000000000000000030406190000C3
:1007100000000000000000000000BA0B0467656ED6
:100720006572616C207761726E696E67000000000F
:1007300000000000000000000000000000030406AC
:1007400019000000000000000000000000850C00FF
:1007500070726F6265207265717565737400000058
:100760000000000000000000000000000000000089
:100770000000000000000000000000000000000079
:10078000B10D04616D6269656E742070726F62658F
:100790000000000000000000000000000000000059
:1007A0000000000503060700000000000000000034
:1007B0000000008913046E6574776F726B206164AA
:1007C000647265737320736574000000000000009C
:1007D00000000000000001051D18000000000000DE
:1007E0000000000000008A130365737020616464D8
:1007F000726573730000000000000000000000003C
:10080000000000000000000000051D1800000000AE
:10081000000000000000000000FAFF01646F6F722A
:1008200062656C6C207369676E616C00000000008B
:1008300000000000000000000000000005000000B3
:100840000000000000000000000000006340006D98
:100850006573736167650000000000634000636FAB
:100860006D6D616E6400000000006310006E616DCC
:1008700065000000000000000063100074797065DE
:100880000000000000000000631000626F617264ED
:10089000000000000000006308006465766E616D72
:1008A0006500000000006C040065706F6368000064
:1008B00000000000006C040076616C7565000000AB
:1008C000000000006C0400667265656D656D0000D7
:1008D0000000006C04006C6F6F7074696D6500003F
:1008E00000006C04006572726F72730000000000FB
:1008F000006C0400746F74616C727800000000007A
:100900006C0400746F74616C747800000000006CFB
:10091000040073657269616C7278000000006C04F9
:100920000073657269616C7478000000006C0400EB
:10093000706172616D310000000000006C04007095
:100940006172616D320000000000006C0400706193
:1009500072616D330000000000006C040070617271
:10096000616D340000000000006C040074656D705F
:1009700065726174757265006C040068756D6964F8
:10098000697479000000006C040073746570646120
:100990007931000000006C040073746570686F7535
:1009A00072310000006C040074696D656F7574002D
:1009B000000000006C0400706F7274000000000002
:1009C0000000007301006C6576656C00000000009B
:1009D00000007301007374617475730000000000FF
:1009E000007301006465766E756D00000000000004
:1009F00073010070696E00000000000000000063D9
:100A000011006970000000000000000000000A7082
:100A100061727365723A626567696E002E2E2E648C
:100A20006F6E65000A4D454D3A20666F7267696EBC
:100A300067207061636B65742025733A25732025E8
:100A4000733A5B25755D00FF0101FF544553540067
:100A50001F1C1F1E1F1E1F1F1E1F1E0A636C6F639D
:100A60006B3A204D494C4C49532073746172743A6F
:100A70000A636C6F636B3A2063757272656E7420E3
:100A80006461746574696D653A202573000A636C4E
:100A90006F636B3A2063616E206E6F7420696E69BC
:100AA000742044533332333100626567696E3A20F3
:100AB00063616E206E6F7420696E697420445333D5
:100AC00032333120636C617373000A636C6F636B44
:100AD0003A2063757272656E74206461746574691E
:100AE0006D653A20257300626567696E3A20696E0C
:100AF00076616C69642065706F63682E20506C6548
:100B000061736520636865636B20636F6E6E6563F8
:100B100074696F6E00626567696E3A20706F776501
:100B200072206C6F73732E20506C65617365206347
:100B30006865636B20636C6F636B206261747465BE
:100B400072790030353A32323A3137004D617920CE
:100B5000203620323032300030353A32323A3137B6
:100B6000004D617920203620323032300030353A65
:100B700032323A3137004D6179202036203230321E
:100B800030000A636C6F636B3A25733A626567697C
:100B90006E0065706F63683A205254432073696732
:100BA0006E616C206C6F7374210065706F63683ABE
:100BB0002052544320666F756E64210000000000CF
:100BC000240027002A0000000008000201000003A2
:100BD00004070000000000000000424F4152442082
:100BE00052454144590053414D504C455200424FEB
:100BF00041524420535441525453000A3C494E49F7
:100C0000543A25733E0054455354000A7061727380
:100C1000653A707265616D626C6520504153530096
:100C2000FF0101FF2563000A70617273653A6E610E
:100C30006D653A20636F756C64206E6F7420666911
:100C40006E6420696E69742062797465000A70614F
:100C50007273653A6E616D653A205B25733A257350
:100C60005D20636F6D70617269736F6E20464149DC
:100C70004C454421000A70617273653A6E616D657E
:100C80003A205B25733A25735D2050415353000A87
:100C900070617273653A6E616D653A202575205BEF
:100CA00025755D0054455354000A70617273653AAE
:100CB0007061796C6F61643A20646F776E6C6F61FC
:100CC000646564203C25733E205B25752042797461
:100CD00065735D000A70617273653A7061796C6F5B
:100CE00061643A20676F74202575202825752F25AB
:100CF000752920666F72202573002A2A204869749E
:100D000021202A2A002A2A204D69737321202A2AA9
:100D10000025755D203D3E202575000A70617273C7
:100D2000653A636F6D6D616E643A205B25752E00C8
:100D300053414D504C45523A4C4F4F50000000002B
:100D40000023002600290000000000250028002BB9
:100D50000004040404040404040202020202020364
:100D6000030303030301020408102040800102046E
:100D7000081020010204081020494F535953003035
:100D8000353A32323A3137004D61792020362032FF
:100D9000303230005254434C4F434B204453333293
:100DA00033310000C1175B1711241FBECFEFD8E00D
:100DB000DEBFCDBF11E0A0E0B1E0E8E3F5E402C0A2
:100DC00005900D92A837B107D9F723E0A8E7B1E065
:100DD00001C01D92A63CB207E1F716E0C3EDD6E0D4
:100DE00004C02197FE010E94DC21C23DD107C9F752
:100DF0000E94EF180C948F220C9400009091CC026A
:100E00009111FCCF91E09093CC029093CB022FEF05
:100E10002093CA021092C902260F2093C802909311
:100E2000C7029091C702880F892B8093C7028091D7
:100E3000C6028130F9F41092C6028091C7028093F5
:100E4000BB008091BC0083FDF8CF85EC8093BC0093
:100E50008091CC028130E1F38091C902861710F4B1
:100E60006091C902A6EAB2E0E6E8F2E080E086130B
:100E700003C0089585EEEACF9D9191938F5FF7CFE0
:100E80002091850281E0213208F044C08091CC029B
:100E90008111FCCF8091840292E09093CC0291E08A
:100EA0009093CB029FEF9093CA021092C9022093B5
:100EB000C802A4E6B2E0E6EAF2E090E0291331C00D
:100EC0001092C7029091C702880F892B8093C702A6
:100ED0008091C602813049F51092C6028091C70206
:100EE0008093BB008091BC0083FDF8CF85EC80939C
:100EF000BC008091CC028230E1F38091CA028F3F26
:100F0000B1F08091CA028032A1F08091CA02803390
:100F100091F084E0109263021092850210926202B6
:100F200008953D9131939F5FC9CF85EEE0CF80E07A
:100F3000F1CF82E0EFCF83E0EDCF8AE091E09093B4
:100F400087038093860380915E0290915F028658AA
:100F5000934071F4E0919903F0919A03908180910C
:100F60009B0380958923808310925F0210925E021A
:100F70000895AF92BF92CF92DF92EF92FF920F93BC
:100F80001F93CF93DF936C017B018B01040F151F1F
:100F9000EB015E01AE18BF08C017D10759F0699187
:100FA000D601ED91FC910190F081E02DC6010995EB
:100FB000892B79F7C501DF91CF911F910F91FF9098
:100FC000EF90DF90CF90BF90AF900895FC01538DCC
:100FD000448D252F30E0842F90E0821B930B541713
:100FE00010F0CF96089501970895FC01918D828DA0
:100FF000981761F0A28DAE0FBF2FB11D5D968C9139
:10100000928D9F5F9F73928F90E008958FEF9FEF77
:101010000895FC01918D828D981731F0828DE80F33
:10102000F11D858D90E008958FEF9FEF0895FC01ED
:10103000918D228D892F90E0805C9F4F821B9109BA
:101040008F73992708958DEC92E00E94170821E094
:10105000892B09F420E0822F089580E090E0892B0D
:1010600029F00E94230881110C9400000895FC01CE
:10107000A48DA80FB92FB11DA35ABF4F2C91848DF9
:1010800090E001968F739927848FA689B7892C9356
:10109000A089B1898C91837080648C93938D848DA9
:1010A000981306C00288F389E02D80818F7D8083AC
:1010B0000895EF92FF920F931F93CF93DF93EC016C
:1010C00081E0888F9B8D8C8D98131AC0E889F989EF
:1010D000808185FF15C09FB7F894EE89FF896083F2
:1010E000E889F98980818370806480839FBF81E073
:1010F00090E0DF91CF911F910F91FF90EF900895B5
:10110000F62E0B8D10E00F5F1F4F0F731127E02E8F
:101110008C8D8E110CC00FB607FCFACFE889F989C7
:10112000808185FFF5CFCE010E943708F1CFEB8D8E
:10113000EC0FFD2FF11DE35AFF4FF0829FB7F8949B
:101140000B8FEA89FB8980818062CFCFCF93DF93B9
:10115000EC01888D8823B9F0AA89BB89E889F989CF
:101160008C9185FD03C0808186FD0DC00FB607FC04
:10117000F7CF8C9185FFF2CF808185FFEDCFCE0137
:101180000E943708E9CFDF91CF91089590E0FC01EC
:10119000EA53F44F2491FC01EB59F24F3491FC01D6
:1011A000EF5AF24FE491EE23C9F0222339F02330B5
:1011B00001F1A8F4213019F1223029F1F0E0EE0F0D
:1011C000FF1FE95BF24FA591B4918FB7F894EC91B2
:1011D000611126C030953E233C938FBF0895273080
:1011E000A9F02830C9F0243049F7809180008F7D24
:1011F00003C0809180008F7780938000DFCF84B51B
:101200008F7784BDDBCF84B58F7DFBCF8091B0001D
:101210008F778093B000D2CF8091B0008F7DF9CFCF
:101220003E2BDACFCF93DF9390E0FC01EB59F24FE6
:1012300024918F5A924FFC0184918823D1F090E041
:10124000880F991FFC01E454F44FA591B491FC015F
:10125000E95BF24FC591D49161110EC09FB7F8942C
:101260008C91E22FE0958E238C932881E223E883F2
:101270009FBFDF91CF9108958FB7F894EC91E22B47
:10128000EC938FBFF6CF109289031092880388EEFB
:1012900093E0A0E0B0E080938A0390938B03A09347
:1012A0008C03B0938D038AE091E090938703809341
:1012B000860310929D0310929C0310929F0310923C
:1012C0009E031092A1031092A0031092A303109208
:1012D000A2036091A4036E7F6D7F6093A403669563
:1012E000617081E0682783E00E94C60861E083E0C6
:1012F0000E941209E8E6FDE0E491E0939603E4E53C
:10130000FDE0E491F0E0EE0FFF1FE95BF24F859105
:101310009491909398038093970360E082E00E94F9
:1013200012098091A40381FD04C061E082E00E9463
:10133000C60882E080939203E7E6FDE0E491E09343
:101340009303E3E5FDE0E491F0E0EE0FFF1FE35CC3
:10135000F24F85919491909395038093940308950F
:101360003FB7F8948091500290915102A09152029F
:10137000B091530226B5A89B05C02F3F19F00196E6
:10138000A11DB11D3FBFBA2FA92F982F8827BC01DF
:10139000CD01620F711D811D911D42E0660F771F07
:1013A000881F991F4A95D1F708958F929F92AF9207
:1013B000BF92CF92DF92EF92FF924B015C010E94AD
:1013C000B0096B017C010E94B0096C197D098E097E
:1013D0009F09683E734081059105A8F321E0821AB8
:1013E0009108A108B10888EEC80E83E0D81EE11C60
:1013F000F11C81149104A104B10429F7FF90EF902E
:10140000DF90CF90BF90AF909F908F9008952FB7AF
:10141000F89460914C0270914D0280914E0290912F
:101420004F022FBF089585ED8093BC008091BC00D2
:1014300084FDFCCF1092CC02089520912602260F45
:101440003327331F21323105ECF42091CC02FC010B
:1014500090E080E0243069F082E00895A0912602B7
:101460002191AC014C5F5D4FA40FB52FB11D2C93A2
:101470000196861798F380912602680F60932602E2
:1014800080E0089581E00895089508950895E09119
:10149000610280916002E81730F4F0E0EA57FD4FF6
:1014A000808190E008958FEF9FEF08959091610201
:1014B000809160022FEF3FEF981748F4E92FF0E09A
:1014C000EA57FD4F208130E09F5F90936102C90190
:1014D00008958091600290916102891B990B089593
:1014E000CF92DF92EF92FF920F931F93CF93DF93F0
:1014F0007C01CB018A0120916202222389F0EB0159
:101500006B01C40ED51ECC15DD0569F06991D701BC
:10151000ED91FC910190F081E02DC7010995F3CF89
:10152000642F0E941D0AC801DF91CF911F910F9176
:10153000FF90EF90DF90CF900895CF93DF931F92AD
:10154000CDB7DEB76983209162022223F9F02091A2
:101550008502203258F021E030E0FC013383228301
:1015600090E080E00F90DF91CF9108958091630229
:10157000E82FF0E0EC59FD4F998190838F5F8093C5
:1015800063028093850281E090E0ECCF61E0CE01C0
:1015900001960E941D0AF7CFFC0184890895FC0181
:1015A0006089718982899389089520915E023091C2
:1015B0005F022817390771F4909154028091550207
:1015C000981741F0E0915402F0E0E454FE4F80811E
:1015D00090E008958FEF9FEF0895EF92FF920F93A1
:1015E0001F93CF93DF93DC015C96ED90FC905D97A9
:1015F000E114F10479F481E090E013969C938E93CA
:10160000129790E080E0DF91CF911F910F91FF90B2
:10161000EF9008955196ED91FC91529750968C91D0
:101620005097982F90950FB75E962C915E97122F3A
:10163000127021FD6095F8942081112319F1282B57
:101640002083E7012197F1F728E0462F50E0308111
:1016500060FF1AC0382B3083E7012197F1F7BA01F8
:1016600075956795215089F7112381F08081892331
:1016700080830FBF5C968D919C910197F1F781E07B
:1016800090E0C1CF2923DCCF3923E5CF9081892B8E
:10169000EFCF20915E0230915F022817390771F475
:1016A000809155022091540290E0805C9F4F821BF4
:1016B000910960E470E00E94A621089590E080E026
:1016C000089520915E0230915F0228173907B9F41E
:1016D0009091540280915502981789F0E09154023C
:1016E000F0E0E454FE4F80812091540230E02F5FFF
:1016F0003F4F2F7333272093540290E008958FEFCC
:101700009FEF089590E080E00895EF92FF920F938D
:101710001F93CF93DF93EC0169813881432F50E011
:101720002A81822F90E0E0E5FAE021E0261730F4EC
:101730007491870F911D2F5F3196F8CF633018F0A9
:10174000337009F401966DE671E0469F9001479F62
:10175000300D569F300D1124215031094D5F5F4FE0
:101760005695479556954795240F351F280F391FD5
:10177000A8E1B0E00E948B212B817B018C01E20E5D
:10178000F11C011D111DA8019701ACE3B0E00E94FE
:1017900049212C817B018C01E20EF11C011D111DE0
:1017A000A80197010E944921AB01BC019D81892FAD
:1017B00090E0B0E0A0E080589C4BA249B74C8A0171
:1017C0009B01080F191F2A1F3B1FC901B801DF9198
:1017D000CF911F910F91FF90EF900895CF93DF93DA
:1017E000EC010E94070A609300027093010280934B
:1017F000020290930302CE010E94850B6093FC01CC
:101800007093FD018093FE019093FF01DF91CF91D2
:101810000895FC01908190539A3008F090E0818106
:1018200080532AE0929F800D112408958F929F92F9
:10183000AF92BF92CF92DF92EF92FF92CF93DF935E
:10184000EC016A017B0180E8C81A83E4D80A8DE6BE
:10185000E80A88E3F80A8CE3882E912CA12CB12C9D
:10186000C701B601A50194010E94BA216D83CA0186
:10187000B901A50194010E94BA216C83C701B60188
:1018800020E13EE040E050E00E94BA21CA01B901E7
:1018900028E130E040E050E00E94BA216B83C701AC
:1018A000B60120E831E541E050E00E94BA211882FB
:1018B00063E97EEF8881982F937041E050E011F04A
:1018C00050E040E0FA01E359FE4F2E173F0740F089
:1018D000FB01E41BF50B2E0F3F1F8F5F8883EACFC0
:1018E00081E0898389818C30A0F4482F4150550BC9
:1018F000FA01E05BF54FE491911103C0823009F4E5
:10190000EF5FF0E02E173F0720F02E1B3F0B8F5F9D
:10191000E8CF2F5F2A83DF91CF91FF90EF90DF9088
:10192000CF90BF90AF909F908F9008950F931F938B
:10193000CF93DF9300D000D000D0CDB7DEB78C01BD
:101940000E94850BAB01BC01CE0101960E94160CD2
:10195000F80190818981981314C091818A8198132C
:1019600010C092818B8198130CC093818C81981345
:1019700008C094818D81981304C081E025819E81E7
:10198000291380E026960FB6F894DEBF0FBECDBFB8
:10199000DF91CF911F910F910895CF92DF92EF9237
:1019A000FF920F931F93CF93DF93EC010E94B00936
:1019B000009178011091790120917A0130917B0199
:1019C0006B017C01C01AD10AE20AF30A9701860171
:1019D0000C8B1D8B2E8B3F8B60937801709379015C
:1019E00080937A0190937B01DF91CF911F910F91AA
:1019F000FF90EF90DF90CF900895CF92DF92FF920B
:101A00000F931F93CF93DF936C0181E08093620269
:101A100088E680938402109263021092850260E04F
:101A20008AE693E00E949D0A0E94400767E088E6EC
:101A30000E94FE0610926102809360028AE693E0A3
:101A40000E94560A8F77282F30E094E0359527952D
:101A50009A95E1F7922F990F990FC22FC91BCC0FBE
:101A6000C80F8AE693E00E94560A9C0144E035952F
:101A700027954A95E1F72F703327922F990F990FE9
:101A8000D22FD91BDD0FD80F8AE693E00E94560AA9
:101A90009C0154E0359527955A95E1F72F7033272F
:101AA000922F990F990F122F191B110F180F8AE6F9
:101AB00093E00E94560A8AE693E00E94560A9C012F
:101AC00064E0359527956A95E1F72F703327922FBB
:101AD000990F990F022F091B000F080F8AE693E058
:101AE0000E94560A9C0174E0359527957A95E1F796
:101AF0002F703327922F990F990FF22EF91AFF0C9E
:101B0000F80E8AE693E00E94560A9C01E4E03595BF
:101B10002795EA95E1F72F703327922F990F990FA8
:101B2000291B220F820FF6018083F1820283138327
:101B3000D483C583C601DF91CF911F910F91FF9090
:101B4000DF90CF90089581E08093620288E68093D1
:101B5000840210926302109285026FE08AE693E09D
:101B60000E949D0A0E94400761E088E60E94FE06EE
:101B700010926102809360028AE693E00E94560A06
:101B80000895FF920F931F93CF93DF93EC0101E031
:101B90000093620218E6109384021092630210927E
:101BA000850260E08AE693E00E949D0A2D818AE02A
:101BB000F82E822F6F2D0E949A21682F660F680FD2
:101BC000660F620F8AE693E00E949D0A2C81822FA5
:101BD0006F2D0E949A21682F660F680F660F620FA3
:101BE0008AE693E00E949D0A2B81822F6F2D0E942E
:101BF0009A21682F660F680F660F620F8AE693E0DE
:101C00000E949D0A60E08AE693E00E949D0A2A8174
:101C1000822F6F2D0E949A21682F660F680F660F22
:101C2000620F8AE693E00E949D0A2981822F6F2D20
:101C30000E949A21682F660F680F660F620F8AE66E
:101C400093E00E949D0A2881822F6F2D0E949A2185
:101C5000682F660F680F660F620F8AE693E00E9496
:101C60009D0A0E9440070E94A30DC82F00936202A4
:101C70001093840210926302109285026FE08AE64C
:101C800093E00E949D0A6C2F6F778AE693E00E9492
:101C90009D0ADF91CF911F910F91FF900C94400707
:101CA000FC018489882319F0CB010C94C10DCB0170
:101CB0000C94EE0B2CE431E0FC0131832083848111
:101CC0009581009711F00C94F61D0895CF93DF9342
:101CD000EC010E945A0ECE01DF91CF910C94F61DBB
:101CE000FC0182819381009711F00C94F61D0895F8
:101CF000CF93DF93EC0180E491E0998388838E8118
:101D00009F810E94F61D8C859D850E94F61D888509
:101D100099850E94F61D0A84DB85C02D209741F02D
:101D2000CE010E94700ECE01DF91CF910C94F61D72
:101D3000DF91CF910895CF93DF93EC010E94780E4D
:101D4000CE01DF91CF910C94F61DEF92FF920F938D
:101D50001F93CF93DF93CDB7DEB72B970FB6F894D1
:101D6000DEBF0FBECDBF8C017A014BE050E0CE014B
:101D700001960E948C1ECE010A960E94090CF80161
:101D80008083E981E154E33118F50E2E000CFF0B3E
:101D9000E453F14F0C94DC211A0FE80EE80E2E0FDD
:101DA000E80E180FE80EE80EE80EDF0EE80EE80E5B
:101DB000210F2C0F2A0FE80EE80EE80E280F8A815B
:101DC000813691F18B818E3689F187E0F80181832C
:101DD000CE0105960E94090CF801828348E050E08C
:101DE000B701CE0101960E948C1ECE0101960E9481
:101DF000090CF8018383CE0104960E94090CF801B6
:101E00008483CE0107960E94090CF80185832B96E6
:101E10000FB6F894DEBF0FBECDBFDF91CF911F91FB
:101E20000F91FF90EF90089581E0D0CF86E0CECF64
:101E300082E0CCCF8B81823711F088E0C7CF84E07D
:101E4000C5CF8B81823711F085E0C0CF83E0BECF54
:101E500089E0BCCF8AE0BACF8BE0B8CF8CE0B6CFB8
:101E6000AF92BF92CF92DF92EF92FF920F931F93A8
:101E7000CF93DF93CDB7DEB7C254D1090FB6F89434
:101E8000DEBF0FBECDBFFC016481758143E350E02E
:101E9000CE0101960E948C1E10E0F12CE12C8B816A
:101EA000181718F58CE4C82E88E0D82E00E094E2CC
:101EB000A92EB12CAC0EBD1EA10EB11CF501808166
:101EC00080130BC04FE050E0B601CE01C4960E94D3
:101ED0008C1E8DA99EA9E80EF91E0F5FFFE0CF0EA4
:101EE000D11C0E3159F71F5FDACFC701CE5BDF4F30
:101EF0000FB6F894DEBF0FBECDBFDF91CF911F911B
:101F00000F91FF90EF90DF90CF90BF90AF9008952A
:101F1000CF93DF93CDB7DEB7E3970FB6F894DEBF6C
:101F20000FBECDBFFC016481758143E350E0CE015B
:101F300001960E948C1E89819A81E3960FB6F894CF
:101F4000DEBF0FBECDBFDF91CF9108950F931F93DA
:101F5000CF93DF9300D000D000D0CDB7DEB7182FDD
:101F6000092FE82FF92F86E1DF011D928A95E9F705
:101F7000CE0101960E94160C8E811F928F938D8147
:101F80001F928F938C811F928F938B811F928F93BF
:101F90008A811F928F93898190E08053984F9F93FD
:101FA0008F938AE591E09F938F930F931F930E94E5
:101FB0006C220FB6F894DEBF0FBECDBF26960FB6CB
:101FC000F894DEBF0FBECDBFDF91CF911F910F916F
:101FD00008950F931F93CF93DF93CDB7DEB79E0184
:101FE000295F3F4FF901419151919F010CE711E0A9
:101FF00080E4F80111928A95E9F760E470E0C80185
:102000000E949C1EF80101900020E9F7AF014D5796
:102010005140B80186E893E00E94B907DF91CF9163
:102020001F910F910895CF92DF92EF92FF920F933D
:102030001F93CF93DF93CDB7DEB7C357D1090FB648
:10204000F894DEBF0FBECDBF8C016B01FC01118285
:10205000108213821282158214828AEBE82E80E0AD
:10206000F82E43E350E0B701CE018F5B9F4F0E94F3
:102070008C1E23968EAD9FAD23978C159D05E9F59B
:10208000F801F582E482C8010E94300F61E070E03F
:102090000E940E22F80193838283C8010E94300FB0
:1020A000F82EE92EF801648175816D5F7F4F8E01F6
:1020B0000F5F1F4FC8010E94951EEF92FF921F9362
:1020C0000F9384E990E09F938F930E94E90F0F9004
:1020D0000F900F900F900F900F90CD58DF4F0FB6CD
:1020E000F894DEBF0FBECDBFDF91CF911F910F914E
:1020F000FF90EF90DF90CF900895F3E3EF0EF11C87
:102100008CE4E81688E0F80609F0ABCFDF92CF92B6
:1021100088E690E09F938F930E94E90F8AEB90E00E
:10212000F801958384830F900F900F900F90D5CF77
:102130000F931F93CF93DF93EC0186E090E00E9412
:102140005A1D8C0170E060E00E9413101B870A8703
:102150008EE09AE09F938F930E94E90F61E070E018
:1021600084E090E00E940E229F838E8361E070E005
:1021700080E190E00E940E229D878C8762E070E0F3
:1021800081E090E00E940E22998788870F900F903F
:10219000DF91CF911F910F9108954F925F926F92AF
:1021A0007F928F929F92AF92BF92CF92DF92EF92E7
:1021B000FF920F931F93CF93DF93CDB7DEB7C05C31
:1021C000D1090FB6F894DEBF0FBECDBFCC52DF4FA2
:1021D00068817981C45DD040CE018F579F4F0E94A6
:1021E000951E61E070E080E490E00E940E225C01A8
:1021F0009E0128523F4FCA52DF4F48815981C65D28
:10220000D04060E470E00E949C1E86E090E00E9456
:102210005A1D8C016FE070E00E941310C8010E94EB
:10222000880F0F97C1F4D80112968D919C91B5013A
:102230000E945722C8010E94880F813DB7E09B078A
:10224000A1F060F48F309105A1F0893E934061F1D7
:1022500090E080E013C090E080E0E9CF853D27E08A
:10226000920711F180349B4099F7F80182819381A4
:1022700005C0F80182819381805C9F4FBE016F573A
:102280007F4F0E945722C8010E94880F813DF7E0CE
:102290009F0709F449C068F48A309105D9F00F9777
:1022A000E1F1F0E0E0E01AC0D80112968D919C9126
:1022B000E5CF8A3BABE09A0739F0813BBDE09B0755
:1022C000C9F1893B9B4069F7D8011296ED91FC91C9
:1022D000B09604C0D8011296ED91FC918091BD0397
:1022E0009091BE03A091BF03B091C00380839183FE
:1022F000A283B383C8010E94880F8C38BAE09B0781
:1023000009F4D8C0E8F48F30910539F1853F914048
:1023100009F4C9C0F0E0E0E026C0D8011296ED91C2
:10232000FC91E05BFF4FDACFD8011296ED91FC9162
:102330007096D4CFD8011296ED91FC917896CECFBD
:10234000893B2BE0920719F08A3B9B4019F7D80193
:102350001296ED91FC91B49606C0D8011296ED91BB
:10236000FC91EC5AFF4FCD52DF4F8881C35DD040C6
:102370008083E0907803F09079036E01B1E4CB0E96
:10238000D11C6BE47AE0C6010E94951EF7018081A2
:102390009181A281B3810196A11DB11D808391839A
:1023A000A283B3830115110509F496C0C8010E94E8
:1023B000300F61E070E048960E940E227C0144E0FC
:1023C00050E067E47AE00E948C1E3701F4E06F0E63
:1023D000711C80E1F601D30101900D928A95E1F71D
:1023E000C8010E94880F582E492ED80114966D916D
:1023F0007C916D5F7F4FFE0131964F01CF010E94AE
:10240000951E4F925F927F926F929F928F92DF9272
:10241000CF9284E29AE09F938F930E94E90F81E02C
:10242000D70154968C93C8010E94880FF701968BB0
:10243000858BC8010E94300FD80112966D917C9156
:10244000AC01C70147960E943522C8010E94300F97
:102450008E0D9F1DFC01178A8CE19AE09F938F934C
:102460000E94E90FC8010E94300F48964C010FB638
:10247000F894DEBF0FBECDBFD12CC12C8DEC92E005
:10248000C814D90420F50E94E6070297CCF0F701A2
:10249000EC0DFD1D60818DEC92E00E9459089FEFCC
:1024A000C91AD90AEBCFD8011296ED91FC91E75BDE
:1024B000FF4F59CFD8011296ED91FC91389653CF2A
:1024C00065E070E080E090E00E94D509D7CF0E94DF
:1024D000A608C7010E94F61DC5010E94F61D011540
:1024E000110531F0C8010E94700EC8010E94F61D4E
:1024F000C054DF4F0FB6F894DEBF0FBECDBFDF91E3
:10250000CF911F910F91FF90EF90DF90CF90BF90F0
:10251000AF909F908F907F906F905F904F900895B5
:102520008F929F92AF92BF92CF92DF92EF92FF92E3
:102530000F931F93CF93DF93CDB7DEB72C970FB6D2
:10254000F894DEBF0FBECDBF8C01CE0107960E946E
:10255000FD0C8F81843608F046C0CE0107960E949C
:10256000960C882309F43FC0CE0107960E94850B84
:10257000F801608B718B828B938B8489811120C0D1
:1025800081E0848B86819781009711F00E94F61D6F
:10259000F8011782168210927B0310927C038AEA5C
:1025A0009BE09F938F9383818F9382818F9381E0B0
:1025B0008F930E94CD100F900F900F900F900F905F
:1025C0002C960FB6F894DEBF0FBECDBFDF91CF9132
:1025D0001F910F91FF90EF90DF90CF90BF90AF9041
:1025E0009F908F900895F8018489882351F1148A6F
:1025F00081E090E00E945A1DF8019783868340890C
:10260000518962897389CE0101960E94160CCE0110
:1026100001960E94EE0B83E080937B0310927C0373
:1026200022E93BE03F932F93F80193819F9392819E
:102630009F938F930E94CD100F900F900F900F904B
:102640000F900E94070A8090000290900102A090D3
:102650000202B0900302681979098A099B0928EEE1
:1026600033E040E050E00E94BA2169017A01A8EE0F
:10267000B3E00E944921860E971EA81EB91E8092C3
:10268000000290920102A0920202B09203024091D5
:10269000FC015091FD016091FE017091FF014C0D14
:1026A0005D1D6E1D7F1D4093FC015093FD016093E5
:1026B000FE017093FF01CE0101960E94160CCE011F
:1026C00001960E94850BF801608B718B828B938B36
:1026D00077CFCF93DF93EC010E94070AAB01BC01D7
:1026E0008C859D85AE85BF858C599F4FAF4FBF4F61
:1026F00084179507A607B70760F50E94070A6C873D
:102700007D878E879F87CE010E9490128C898111D0
:1027100020C00E94070AAB01BC0188859985AA8563
:10272000BB85805D9A48AF4FBF4F84179507A607BA
:10273000B70778F40E94070A688779878A879B879A
:10274000E881F9810480F581E02DCE01DF91CF9100
:102750000994DF91CF9108958F929F92AF92BF928B
:10276000DF92EF92FF920F931F93CF93DF93CDB73A
:10277000DEB7CC55D1090FB6F894DEBF0FBECDBF82
:102780007C01FC01148A628173818E010F5F1F4FEF
:10279000C8010E94951E1F930F9382E89BE09F93B0
:1027A0008F930E94E90F4DE65BE066E77BE0CE0188
:1027B000895A9F4F0E94A50ECE01895A9F4F0E94B1
:1027C000850B0F900F900F900F90F70180889188E4
:1027D000A288B388005C1F4F86169706A806B90624
:1027E00050F448E55BE061E67BE0C8010E94A50E7D
:1027F000C8010E94850B43E45BE06CE47BE0C80108
:102800000E94A50EC8010E94850B4B015C0110922D
:10281000610210926002109263021092850210927F
:10282000CC02DD24D394D092CB021092C60261E098
:1028300082E10E94C60861E083E10E94C60880919F
:10284000B9008E7F8093B9008091B9008D7F80930D
:10285000B90088E48093B80085E48093BC0084E4E8
:102860009AE0909325028093240285E49AE0909365
:10287000290280932802D092620288E68093840223
:1028800010926302109285020E94400781113AC0A3
:102890000E94A30D90E0880F892F881F990B892B28
:1028A000D1F0B501A401C8010E94160CC8010E9414
:1028B000C10D85E19BE09F938F93F70183818F93F7
:1028C00082818F9383E08F930E94CD100F900F90A1
:1028D0000F900F900F90C8010E94FD0CF8018081AD
:1028E000843628F4C8010E94960C811166C0B50197
:1028F000A401C8010E94160CC8010E94C10D87EEF8
:102900009AE002C089EA9AE09F938F93F70183814E
:102910008F9382818F9383E08F930E94CD100F90CD
:102920000F900F900F900F90F701408951896289A5
:102930007389C8010E94A60F8DE89AE09F938F9338
:102940000E94E90F1F930F938BE59AE09F938F935B
:102950000E94E90F81E090E00E945A1DF7019783E1
:1029600086834089518962897389CE01895A9F4F34
:102970000E94160CCE01895A9F4F0E94EE0B83E0F5
:1029800080937B0310927C030F900F900F900F9019
:102990000F900F90C45ADF4F0FB6F894DEBF0FBEF2
:1029A000CDBFDF91CF911F910F91FF90EF90DF90FE
:1029B000BF90AF909F908F90089581E0F701848B36
:1029C000C7010E949012F701408951896289738979
:1029D000C8010E94A60F1F930F938AEC9AE09F9361
:1029E0008F930E94E90F0F900F900F900F90D2CF0E
:1029F0001F920F920FB60F9211242F933F934F9374
:102A00005F936F937F938F939F93AF93BF93EF9356
:102A1000FF938DEC92E00E943708FF91EF91BF91F8
:102A2000AF919F918F917F916F915F914F913F9166
:102A30002F910F900FBE0F901F9018951F920F921D
:102A40000FB60F9211242F938F939F93EF93FF93C1
:102A5000E091DD02F091DE028081E091E302F091ED
:102A6000E40282FD1BC090818091E6028F5F8F732C
:102A70002091E702821741F0E091E602F0E0E35393
:102A8000FD4F958F8093E602FF91EF919F918F917B
:102A90002F910F900FBE0F901F9018958081F4CF4B
:102AA0001F920F920FB60F9211242F933F938F9383
:102AB0009F93AF93BF9380914C0290914D02A09150
:102AC0004E02B0914F0230914B0223E0230F2D377D
:102AD00058F50196A11DB11D20934B0280934C0225
:102AE00090934D02A0934E02B0934F0280915002FA
:102AF00090915102A0915202B09153020196A11DF2
:102B0000B11D8093500290935102A0935202B09352
:102B10005302BF91AF919F918F913F912F910F9051
:102B20000FBE0F901F90189526E8230F0296A11D47
:102B3000B11DD2CF1F920F920FB60F9211242F9377
:102B40003F934F935F936F937F938F939F93AF9335
:102B5000BF93EF93FF938091B900887F803609F48B
:102B60004AC0F0F5883209F4A7C018F5803109F49D
:102B70009BC0B8F4882309F4F9C0883009F494C0E4
:102B8000FF91EF91BF91AF919F918F917F916F9145
:102B90005F914F913F912F910F900FBE0F901F901B
:102BA0001895883109F488C0803251F78093CA02A1
:102BB00014C0803409F49DC040F48033B9F38833E5
:102BC000F9F68093CA0285ECB0C0803509F485C05F
:102BD000883509F496C0883499F60E94130AD0CF3C
:102BE000883909F48CC038F5883729F050F48836D4
:102BF00011F0803729F683E08093CC0210924A02CC
:102C000057C0883809F47BC0803919F0803809F042
:102C1000B7CF80914A02803208F071C0E0914A0239
:102C200081E08E0F80934A028091BB00F0E0E65D68
:102C3000FD4F80833DC0803B39F0E0F4803A09F4D9
:102C400079C0883A09F09CCF84E08093CC0210923E
:102C5000270210922602E0912402F09125020995A4
:102C60008091260281110FC081E08093260210928C
:102C7000040209C0803C09F4A6CF883C09F4A3CF24
:102C8000883B09F07DCFE091270281E08E0F809391
:102C90002702F0E0EC5FFD4F80818093BB009091B4
:102CA00027028091260229C08091C7028093BB0031
:102CB00085EC8093BC0064CF9091C9028091C802DA
:102CC000981758F5E091C90281E08E0F8093C902F0
:102CD000F0E0EA55FD4F8081E9CFE091C90281E043
:102CE0008E0F8093C9028091BB00F0E0EA55FD4F42
:102CF00080839091C9028091C8029817C8F285E834
:102D0000D8CFE091C90281E08E0F8093C9028091F3
:102D1000BB00F0E0EA55FD4F80838091CB0281112A
:102D20005CCF81E08093C60284EA8093BC0010925D
:102D3000CC0226CF85EC8093BC001092CC0280910F
:102D40004A02803230F4E0914A02F0E0E65DFD4F45
:102D5000108260914A0270E0E0912802F09129020D
:102D60008AE292E0099510924A020ACF1092CA02B2
:102D700034CF1F920F920FB60F9211242F933F93CF
:102D80004F935F936F937F938F939F93AF93BF9373
:102D9000EF93FF93E0915E02F0915F02309749F06C
:102DA000A685B7858585968D91FF14C09C91892352
:102DB000A1F4FF91EF91BF91AF919F918F917F917E
:102DC0006F915F914F913F912F910F900FBE0F9098
:102DD0001F9018959C91892361F7A389B4899C91D0
:102DE0008589809589238C93868997890197F1F746
:102DF000608D718DA685B785558538E020E0CB01C3
:102E00000197F1F7822F90E095958795282F4C91A7
:102E1000452309F02068315091F7868D81FD20957A
:102E20008091550290E001968F739927309154025A
:102E3000381799F0A0915502B0E0A454BE4F2C93DE
:102E400080935502828D938D0197F1F7A389B48900
:102E50008C919589892B8C93ACCF868D8160868FE0
:102E6000F1CF2091A5033091A6034091A703509183
:102E7000A8036091A9037091AA038091AB0390917C
:102E8000AC03AFEF0E94E2212093A5033093A60389
:102E90004093A7035093A8036093A9037093AA03D8
:102EA0008093AB039093AC03A0E00E94EE2111F459
:102EB0000C949D0708958DEA93E00E945A0E20918C
:102EC000A5033091A6034091A7035091A8036091F8
:102ED000A9037091AA038091AB039091AC03AFEF6B
:102EE0000E94E2212093A5033093A6034093A703F9
:102EF0005093A8036093A9037093AA038093AB0334
:102F00009093AC03A0E00E94EE2111F40E949D0773
:102F10000E9431170E9431170E9431170E94311709
:102F20000E9431170E9431170E9431170C943117FB
:102F30002091A5033091A6034091A7035091A803C7
:102F40006091A9037091AA038091AB039091AC03A7
:102F5000A1E00E94E2212093A5033093A6034093B1
:102F6000A7035093A8036093A9037093AA038093C7
:102F7000AB039093AC030E94EE2111F40C9443092F
:102F80000895CF93DF9300D000D000D0CDB7DEB747
:102F90001092D0021092CF0288EE93E0A0E0B0E051
:102FA0008093D1029093D202A093D302B093D40223
:102FB0002CE131E03093CE022093CD0225EC30E0BD
:102FC0003093DA022093D90224EC30E03093DC0213
:102FD0002093DB0220EC30E03093DE022093DD0210
:102FE00021EC30E03093E0022093DF0222EC30E06D
:102FF0003093E2022093E10226EC30E03093E402C9
:103000002093E3021092E6021092E7021092E80287
:103010001092E90210926D0310926C0380936E037C
:1030200090936F03A0937003B09371038EE291E0CD
:1030300090936B0380936A030E9498170E949817DD
:103040000E9498170E9498170E9498170E9498173C
:103050000E9498170E9498172091A5033091A6030B
:103060004091A7035091A8036091A9037091AA030E
:103070008091AB039091AC03A1E00E94E2212093E8
:10308000A5033093A6034093A7035093A80360932E
:10309000A9037093AA038093AB039093AC030E949F
:1030A000EE2111F40E94430910927A0310927B03DF
:1030B00010927C0310927D0310927E0310927F0386
:1030C0001092800310928103109282031092830366
:1030D00010928403109285038CE491E09093AE03E8
:1030E0008093AD031092B4031092B3031092B50312
:1030F0001092B6031092B7031092B8031092B9035E
:103100001092BA031092BB031092BC031092BD033D
:103110001092BE031092BF031092C0031092C1031D
:1031200084E99DE09093B0038093AF0381E090E049
:103130000E945A1D9093B2038093B1034FE75DE064
:1031400068E87DE0CE0101960E94A50ECE010196B1
:103150000E94850B6093BD037093BE038093BF03F1
:103160009093C00389E190E00E945A1DFC0180E425
:1031700091E09183808313821482158217821682D4
:10318000118610861386128615861486108A118A77
:10319000128A138A148A158A168A178A108E81E079
:1031A000828389E79DE097878687F0937703E09392
:1031B000760384E090E00E945A1DFC011082118287
:1031C00012821382909379038093780326960FB628
:1031D000F894DEBF0FBECDBFDF91CF910895CF939E
:1031E000DF93CDB7DEB7DA950FB6F894DEBF0FBE2A
:1031F000CDBF789484B5826084BD84B5816084BD80
:1032000085B5826085BD85B5816085BD80916E0084
:10321000816080936E0010928100809181008260B5
:1032200080938100809181008160809381008091F2
:1032300080008160809380008091B10084608093E1
:10324000B1008091B00081608093B00080917A00DD
:10325000846080937A0080917A00826080937A0003
:1032600080917A00816080937A0080917A008068F2
:1032700080937A001092C10064EF71E080E090E0EA
:103280000E94D5098DE080937D0361E00E941209C0
:1032900013E061E080917D030E94C60868EC70E055
:1032A00080E090E00E94D50960E080917D030E945B
:1032B000C60868EC70E080E090E00E94D5091150EB
:1032C00041F71092A1031092A00310929F03109255
:1032D0009E0310929D0310929C038FE190E09093C7
:1032E000A3038093A20390919203963108F047C004
:1032F00021E030E030939D0320939C032DE130E0EA
:1033000030939F0320939E032DE030E03093A10380
:103310002093A0032091680084E0983048F031E0C9
:103320009E3008F430E081E001C0880F3A95EAF75A
:10333000822B809368002DE630E0983050F02BE629
:1033400030E09E3030F02CE630E0963110F030E086
:1033500020E030939A0320939903292F30E098308E
:1033600008F07CC181E001C0880F9A95EAF780934C
:103370009B038091A2039091A3030197F1F78091A1
:10338000A0039091A103892B49F1E0915E02F09195
:103390005F0223E0E638F20709F1309739F0A3899C
:1033A000B4899C918589809589238C938091A4030D
:1033B0008E7F8093A403109255021092540286E8E7
:1033C00093E090935F0280935E02E0919903F09105
:1033D0009A03808190919B03892B808310927C03B8
:1033E00010927B038E010F531F4F66E07CE0C801F3
:1033F0000E94951E1F930F938BEF9BE09F938F93DB
:103400000E94E90FE091DD02F091DE0282E080830C
:10341000E091D902F091DA021082E091DB02F091A2
:10342000DC0280E180831092E502E091E102F091FC
:10343000E20286E08083E091DF02F091E002808189
:1034400080618083E091DF02F091E00280818860FA
:103450008083E091DF02F091E002808180688083C8
:10346000E091DF02F091E00280818F7D80831092F5
:10347000D1021092D2021092D3021092D402809103
:10348000760390917703DC01ED91FC910480F58146
:10349000E02D09958EEE9BE09F938F9386E09CE054
:1034A0009F938F9311E01F930E94CD108DEA93E0BC
:1034B0000E94AC138AED9BE09F938F9386EE9BE076
:1034C0009F938F931F930E94CD100FB6F894DEBF89
:1034D0000FBECDBF1E01F1E42F0E311C3E0121E8CD
:1034E000620E711CCE0101962C010E94070A6B012D
:1034F0007C0180917E0390917F03A0918003B09125
:1035000081038053984FAF4FBF4F8C159D05AE057B
:10351000BF05E0F580917B038823C1F190917C0386
:1035200089130FC0C0927E03D0927F03E092800384
:10353000F092810310927C0360E080917D030E94F1
:10354000C6088091820390918303A0918403B09177
:10355000850388539F4FAF4FBF4F8C159D05AE0518
:10356000BF05A0F480917D0390917A03911183C0EF
:1035700061E00E94C60881E080937A03C0928203D2
:10358000D0928303E0928403F09285038DEA93E066
:103590000E9469138DEC92E00E941708892B09F4B0
:1035A00055C28DEC92E00E941708892B09F44EC297
:1035B00000917603109177038DEC92E00E94F5075D
:1035C0007C01D80113968C91139781115FC0C701BC
:1035D00099279F938F9384E29CE09F938F930E94FF
:1035E000E90FF80186819781BC016F5F7F4F43E04F
:1035F00050E00E943E22D8011696ED91FC9117975B
:10360000E38244E050E060E27CE016968D919C916C
:103610000E947F1E0F900F900F900F90892BA1F4A6
:103620008BE09CE09F938F930E94E90FD8011C963A
:10363000ED91FC9180E1DF011D928A95E9F781E02F
:10364000F80183830F900F90E0917603F091770358
:10365000808D882309F4A5CF108EA3CF9E3040F42F
:103660002850310981E001C0880F2A95EAF77FCE02
:103670002E503109F7CF60E00E94C60810927A03FD
:1036800080917C038F5F80937C0378CF14968C911C
:1036900014978111B4C064EA7CE0C3010E94951EB6
:1036A000C70199279F938F93809156021F928F9302
:1036B000EFE8FCE0FF93EF930E94E90F8091560240
:1036C0000F900F900F900F900F900F90803158F443
:1036D000D8011C96ED91FC91E80FF11DE0828F5FFF
:1036E00080935602B1CFB1E0EB1280C0F801828125
:1036F000882309F458C0F30101900020E9F73197BD
:10370000AF0146195709D8011C96ED90FC90B30102
:10371000C7010E945E22892B81F5F70101900020EC
:10372000E9F731976F01CE18DF08C601019740977E
:1037300020F5F7018081082E000C990B0E942D22A4
:10374000892BD9F04701FFEF8F1A9F0ACE0CDF1C9F
:10375000C814D90441F1D401AD904D010A2C000CDC
:10376000BB08C5010E942D22892B91F7B0E3AB1A4B
:10377000B108EAE0AE16B10458F3FF92EF927F92DF
:103780006F928DE49CE09F938F930E94E90F0F90BE
:103790000F900F900F900F900F90D80113961C92DE
:1037A0001092560251CF1092560281E0D801149621
:1037B0008C9314971896ED91FC91199711821082B1
:1037C0001D968C911D978F931C968C918F937F9251
:1037D0006F92E5E7FCE0FF93EF930E94E90F0F90F3
:1037E0000F900F900F900F900F902ECFE7E2FCE01C
:1037F000FF93EF930E94E90F0F900F90CECFF80147
:103800008581811196C0C701992720915902211104
:1038100015C09F938F938BE19DE09F938F930E94A0
:10382000E90FD8011896ED91FC91E08281E0809338
:1038300059020F900F900F900F9006CF1896ED91B0
:10384000FC911997E1821896ED91FC91C080D1808E
:10385000DF92CF929F938F93E1E1FDE0FF93EF938F
:103860000E94E90FD8011A96ED90FC900F900F90EE
:103870000F900F900F900F90E114F10409F447C0DE
:10388000C7010E94880FC816D906D9F5C7010E9442
:10389000300FAC0170E060E0F701828193810E94FB
:1038A0005022D7011D921C92EAEFFCE0FF93EF93A8
:1038B0000E94E90F0F900F90F801F386E2861092B4
:1038C0005902108EC7010E94300F892B69F5D8016B
:1038D00014961C92149713961C92139781E0589695
:1038E0008C93589750968D919D910D90BC91A02DE1
:1038F0000196A11DB11DF801808B918BA28BB38B1A
:10390000A3CEC7010E94700EC7010E94F61D86E07B
:1039100090E00E945A1D7C01B6010E94131085E0C0
:103920009DE09F938F93C4CF81E0D80115968C932F
:103930008BCEC284D384D601AD90BC90C6010E94C8
:10394000300FA816B90608F043C0D6011296ED91C3
:10395000FC9113978D919C911197E80FF91FE082CC
:103960008D919C91119701968D939C938091570214
:103970009091580201969093580280935702D80173
:103980001A96ED91FC91648175816D5F7F4FC10145
:103990000E94951EF801828593850E94300F3F9208
:1039A0002F929F938F93809158028F93809157020B
:1039B0008F93FF24FF92EF9284ED9CE09F938F936F
:1039C0000E94E90F0FB6F894DEBF0FBECDBF3CCE0C
:1039D000D8011A968D919C910E94300FF82EE92EF5
:1039E000D8011A96ED91FC91648175816D5F7F4FCE
:1039F000C2010E94951EEF92FF925F924F92E9EAF8
:103A0000FCE0FF93EF930E94E90FD80115961C92FA
:103A1000159714961C92149713961C92139781E095
:103A200058968C93589750968D919D910D90BC917E
:103A3000A02D0196A11DB11DF801808B918BA28B49
:103A4000B38B1092580210925702C9CE0E94070AF7
:103A5000AB01BC0180915A0290915B02A0915C0283
:103A6000B0915D02805D9A48AF4FBF4F84179507B4
:103A7000A607B70790F40E94070A60935A02709352
:103A80005B0280935C0290935D0280E39DE09F93D4
:103A90008F930E94E90F0F900F9080E090E0892BA8
:103AA00009F423CD0E942308882309F41ECD0E9427
:103AB000000018CD0F931F93CF93DF9382309105B1
:103AC00010F482E090E0E091C403F091C50330E08F
:103AD00020E0B0E0A0E0309799F42115310509F419
:103AE0004AC0281B390B24303105D8F58A819B81C7
:103AF0006115710589F1FB0193838283FE0111C079
:103B0000408151810281138148175907E0F048171D
:103B1000590799F4109761F012960C931297139627
:103B20001C933296CF01DF91CF911F910F91089591
:103B30000093C4031093C503F4CF2115310551F050
:103B40004217530738F0A901DB019A01BD01DF01DB
:103B5000F801C1CFEF01F9CF9093C5038093C4035F
:103B6000CDCFFE01E20FF31F8193919322503109D3
:103B700039832883D7CF2091C2033091C303232BED
:103B800041F420910201309103013093C30320934B
:103B9000C20320910001309101012115310541F44A
:103BA0002DB73EB74091040150910501241B350B00
:103BB000E091C203F091C303E217F307A0F42E1BB8
:103BC0003F0B2817390778F0AC014E5F5F4F241781
:103BD000350748F04E0F5F1F5093C3034093C20355
:103BE000819391939FCFF0E0E0E09CCFCF93DF9360
:103BF0000097E9F0FC01329713821282A091C4036E
:103C0000B091C503ED0130E020E01097A1F42081D0
:103C10003181820F931F2091C2033091C303281773
:103C2000390709F061C0F093C303E093C203DF9149
:103C3000CF910895EA01CE17DF07E8F54A815B814D
:103C40009E0141155105B1F7E901FB83EA834991D2
:103C50005991C40FD51FEC17FD0761F48081918144
:103C60000296840F951FE90199838883828193814D
:103C70009B838A83F0E0E0E012968D919C911397EC
:103C80000097B9F52D913C911197CD010296820FC5
:103C9000931F2091C2033091C3032817390739F6C7
:103CA000309751F51092C5031092C403B093C3032B
:103CB000A093C203BCCFD383C28340815181840FC0
:103CC000951FC817D90761F44E5F5F4F88819981AE
:103CD000480F591F518340838A819B81938382833C
:103CE0002115310509F0B0CFF093C503E093C4036B
:103CF0009ECFFD01DC01C0CF13821282D7CFFB0122
:103D0000DC0104C08D910590801921F44150504090
:103D1000C8F7881B990B0895FB01DC0102C00590D0
:103D20000D9241505040D8F70895FB01DC010590F9
:103D30000D920020E1F70895AEE0B0E0E2EAFEE186
:103D40000C9462218C01FA018EE08C831A83098322
:103D500077FF02C060E070E8615071097E836D8377
:103D6000A901BF01CE0101960E94C81E4D815E814E
:103D700057FD0AC02F813885421753070CF49A016A
:103D8000020F131FF80110822E96E4E00C947E219E
:103D9000ABE0B0E0EEECFEE10C9454217C013B0181
:103DA0008A01FC0117821682838181FFC8C1CE017E
:103DB00001965C01F7019381F30193FD859193FFD7
:103DC00081913F01882309F453C1853239F493FD71
:103DD000859193FF81913F01853229F4B70190E0ED
:103DE0000E94B820E7CF912C212C312CFFE1F31554
:103DF00038F08B3211F190F4803209F1833229F1DD
:103E000037FC3CC020ED280F2A3050F536FE20C08C
:103E10008AE0989E200D1124922E06C08D3291F0DA
:103E2000803371F7689430F8F30193FD859193FF27
:103E300081913F018111DACF21C0689431F86894F3
:103E400032F8F2CF689433F8EFCF689434F8ECCFBF
:103E5000EAE02E9E200D1124222E689435F8E4CF3E
:103E60008E3229F436FC04C1689436F8DDCF8C36E6
:103E700019F4689437F8D8CF8836B1F2982F9F7D1F
:103E800095549330E0F08336A1F18337C1F1833547
:103E900009F063C02801F2E04F0E511CF801C08008
:103EA000D180692D70E036FC02C06FEF7FEFC60154
:103EB0000E94A2204C01689437F882010AC00C5F6E
:103EC0001F4FFFE3F98388248394912C6501E894C4
:103ED00037F833FE2DC0522C8114910471F5552012
:103EE00009F468CFB70180E290E00E94B8205A94AC
:103EF000F6CFF801808189830E5F1F4FE4CF280140
:103F0000F2E04F0E511CF801C080D180692D70E0A5
:103F100036FC02C06FEF7FEFC6010E94AD204C015E
:103F20008201D5CFB70180E290E00E94B8202A94A8
:103F30002814190409F0B0F7CECFF60137FC8591AB
:103F400037FE81916F01B70190E00E94B8205110B7
:103F50005A94F1E08F1A9108BFCF843619F0893650
:103F600009F077C0F80137FE6BC0608171818281F2
:103F700093810C5F1F4FF32DFF763F2E97FF09C0F3
:103F800090958095709561957F4F8F4F9F4F689466
:103F900037F82AE030E0A5010E94E820C82ECA18B0
:103FA0008C2C432C36FE0CC0E89440F8C91440F425
:103FB00034FE05C032FC03C0F32DFE7E4F2E892C4B
:103FC00044FE95C0FE01EC0DF11D8081803309F0A7
:103FD00087C0242D297E422E842D8870582E43FCC4
:103FE00095C040FE8FC09C2C821418F42C0C922C8F
:103FF000981844FE91C0B70180E390E00E94B82079
:1040000042FE09C088E790E041FE02C088E590E0EA
:10401000B7010E94B820C91408F48AC0CA94D12CF0
:104020009FEFC91AD90ACA0CDB1CF60182916F01F5
:10403000B70190E00E94B820AC14BD04B1F74FCF97
:1040400060817181072E000C880B990B0E5F1F4F4A
:1040500092CFD32CE894D4F82AE030E0853739F1B8
:10406000232D297FD22E8F3601F148F48835A9F00F
:10407000F701868197812B96E2E10C9470218037BD
:1040800049F08837A9F7D4FE02C06894D2F820E13D
:1040900030E00DC06894D4F8F6CF34FE03C0822F10
:1040A0008660D82E20E132E002C028E030E0F8013E
:1040B000D7FE0FC060817181828193810C5F1F4F99
:1040C000A5010E94E820C82ECA183D2CE89437F8B4
:1040D00067CF6081718190E080E00E5F1F4FF0CF6D
:1040E00042FC02C0839478CF8394839475CF842D4F
:1040F000867809F471CFF6CFB70180E290E00E9494
:10410000B82083948214C0F3512C73CF522C5818CA
:10411000821408F46ECFF8CF842D867809F47BCF13
:104120008BE241FE80E247FC8DE2B70190E071CF67
:10413000B70180E390E00E94B8209A946CCF8FEF93
:104140009FEF99CFFC010590615070400110D8F7A6
:10415000809590958E0F9F1F0895FC0161507040CF
:1041600001900110D8F7809590958E0F9F1F0895AC
:104170000F931F93CF93DF93182F092FEB018B81A0
:1041800081FD09C01FEF0FEF812F902FDF91CF919D
:104190001F910F91089582FF14C02E813F818C8161
:1041A0009D81281739073CF4E881F981CF010196F8
:1041B0009983888310838E819F8101969F838E834C
:1041C000E3CFE885F985812F0995892BA1F3DACF13
:1041D000FA01AA27283051F1203181F1E8946F9338
:1041E0006E7F6E5F7F4F8F4F9F4FAF4FB1E03ED0DE
:1041F000B4E03CD0670F781F891F9A1FA11D680F7C
:10420000791F8A1F911DA11D6A0F711D811D911DAE
:10421000A11D20D009F468943F912AE0269F112423
:104220003019305D3193DEF6CF010895462F477087
:10423000405D4193B3E00FD0C9F7F6CF462F4F70E2
:10424000405D4A3318F0495D31FD4052419302D040
:10425000A9F7EACFB4E0A6959795879577956795E6
:10426000BA95C9F700976105710508959B01AC01E6
:104270000A2E06945795479537952795BA95C9F70D
:10428000620F731F841F951FA01D0895992788270B
:1042900008950E948B21A59F900DB49F900DA49F1F
:1042A000800D911D112408952F923F924F925F929D
:1042B0006F927F928F929F92AF92BF92CF92DF9236
:1042C000EF92FF920F931F93CF93DF93CDB7DEB79B
:1042D000CA1BDB0B0FB6F894DEBF0FBECDBF09942F
:1042E0002A88398848885F846E847D848C849B8486
:1042F000AA84B984C884DF80EE80FD800C811B8194
:10430000AA81B981CE0FD11D0FB6F894DEBF0FBEC2
:10431000CDBFED010895A29FB001B39FC001A39F3F
:10432000700D811D1124911DB29F700D811D1124EE
:10433000911D0895991B79E004C0991F961708F004
:10434000961B881F7A95C9F78095089597FB072ECD
:1043500016F4009407D077FD09D00E94FA2107FCDB
:1043600005D03EF4909581959F4F08957095619585
:104370007F4F0895A1E21A2EAA1BBB1BFD010DC0A1
:10438000AA1FBB1FEE1FFF1FA217B307E407F50705
:1043900020F0A21BB30BE40BF50B661F771F881FE1
:1043A000991F1A9469F760957095809590959B0177
:1043B000AC01BD01CF010895EE0FFF1F0590F491F0
:1043C000E02D09940024A7FD00942A0F301D401D04
:1043D000501D601D701D801D901D08950024A7FDB7
:1043E00000942A17300540055005600570058005CA
:1043F00090050895AA1BBB1B51E107C0AA1FBB1F54
:10440000A617B70710F0A61BB70B881F991F5A9560
:10441000A9F780959095BC01CD0108950F931F9346
:10442000CF93DF93869F8001879F100D969F100D7D
:104430001124C8010E945A1DEC01009729F0A8011F
:1044400070E060E00E945022CE01DF91CF911F9179
:104450000F91089585FD0C944621806291110C9472
:10446000462181568A51D8F70895FB01DC0102C02C
:1044700001900D9241505040D8F708956817790780
:1044800068F4FB01DC01E40FF51FA40FB51F02C0A7
:1044900002900E9241505040D8F708950C94352266
:1044A000DC0101C06D9341505040E0F70895FB01DD
:1044B000DC0101900D920020E1F70895FB01DC0181
:1044C0004150504030F08D910190801919F4002036
:1044D000B9F7881B990B0895AEE0B0E0E2E7F2E28D
:1044E0000C9462210D891E8986E08C831A830983CE
:1044F0008FEF9FE79E838D83AE01475E5F4F6F898D
:10450000788DCE0101960E94C81E2F813885020F3A
:10451000131FF80110822E96E4E00C947E2116E021
:10452000C3EDD6E004C0FE010E94DC212196C43D0B
:08453000D107C9F7F894FFCF91
:104538000000C603800000000000ED0AB907820BE6
:10454800460A490B610BD50A000000005908B90753
:10455800E607A6081708F5070908000000009D0AE5
:10456800700A820B460A690A560A470A00000000C8
:10457800780E9B0E9810CD0C000000005A0E660EA7
:10458800AC136913CF0ACC0A500E256420253032AB
:10459800642025303264202D20253032643A2530BD
:0845A80032643A253032640050
:107E0000112484B714BE81FFF0D085E080938100F7
:107E100082E08093C00088E18093C10086E0809377
:107E2000C20080E18093C4008EE0C9D0259A86E02C
:107E300020E33CEF91E0309385002093840096BBD3
:107E4000B09BFECF1D9AA8958150A9F7CC24DD24C4
:107E500088248394B5E0AB2EA1E19A2EF3E0BF2EE7
:107E6000A2D0813461F49FD0082FAFD0023811F036
:107E7000013811F484E001C083E08DD089C08234E0
:107E800011F484E103C0853419F485E0A6D080C0E4
:107E9000853579F488D0E82EFF2485D0082F10E0AE
:107EA000102F00270E291F29000F111F8ED06801E7
:107EB0006FC0863521F484E090D080E0DECF843638
:107EC00009F040C070D06FD0082F6DD080E0C81688
:107ED00080E7D80618F4F601B7BEE895C0E0D1E017
:107EE00062D089930C17E1F7F0E0CF16F0E7DF06D8
:107EF00018F0F601B7BEE89568D007B600FCFDCFD4
:107F0000A601A0E0B1E02C9130E011968C91119780
:107F100090E0982F8827822B932B1296FA010C0160
:107F200087BEE89511244E5F5F4FF1E0A038BF0790
:107F300051F7F601A7BEE89507B600FCFDCF97BE46
:107F4000E89526C08437B1F42ED02DD0F82E2BD052
:107F50003CD0F601EF2C8F010F5F1F4F84911BD097
:107F6000EA94F801C1F70894C11CD11CFA94CF0C13
:107F7000D11C0EC0853739F428D08EE10CD085E9AC
:107F80000AD08FE07ACF813511F488E018D01DD067
:107F900080E101D065CF982F8091C00085FFFCCF94
:107FA0009093C60008958091C00087FFFCCF809118
:107FB000C00084FD01C0A8958091C6000895E0E648
:107FC000F0E098E1908380830895EDDF803219F02E
:107FD00088E0F5DFFFCF84E1DECF1F93182FE3DFCA
:107FE0001150E9F7F2DF1F91089580E0E8DFEE27F6
:047FF000FF270994CA
:027FFE00040479
:0400000300007E007B
:00000001FF
