:100000000C948F090C94B7090C94B7090C946727CA
:100010000C9467270C9467270C94B7090C94B709C4
:100020000C94B7090C94B7090C94B7090C94B70950
:100030000C94B7090C94B7090C94B7090C94B70940
:100040000C94FE250C94B7090C94CC250C94A62591
:100050000C94B7090C94B7090C94B7090C94B70920
:100060000C9448260C94B7090A4D454D3A46415424
:10007000414C3A20636F6E206E6F7420696E697414
:10008000207061636B65742025750A437261736823
:10009000696E672E2E2E0A000A4D454D3A206E6578
:1000A00077207061636B657420257320286D616C07
:1000B0006C6F6320257520627974657329000000D8
:1000C00000656D707479207061636B657400000069
:1000D0000000000000000000000000000000000020
:1000E0000000000000000000000000000000000010
:1000F00000010000696E6974206279746500000077
:1001000000000000000000000000000000000000EF
:1001100000000000000000000000000000000000DF
:1001200000000000020000726573657420636F6D4B
:100130006D616E640000000000000000000000001F
:1001400000000000000000000000000000000000AF
:1001500000000000000000030000636F6E66696726
:100160002072657175657374000000000000000066
:10017000000000000000000000000000000000007F
:100180000000000000000000000004000073746123
:1001900074757320726571756573740000000000DA
:1001A000000000000000000000000000000000004F
:1001B0000000000000000000000000000005000139
:1001C000636F6D6D616E6420737472696E67000099
:1001D000000000000000000000000000000000001F
:1001E000010000000000000000000000000000000E
:1001F0000A000174696D657374616D700000000020
:1002000000000000000000000000000000000000EE
:1002100000000006000000000000000000000000D8
:100220000000000F000467656E65726963207265E7
:10023000706F7274000000000000000000000000F9
:10024000000000000000000206190000000000008D
:1002500000000000000019000161636B6E6F776C95
:1002600065646765000000000000000000000000F9
:100270000000000000000000000700000000000077
:100280000000000000000000001E000066616374B2
:100290006F727920726573657400000000000000C1
:1002A000000000000000000000000000000000004E
:1002B0000000000000000000000000002D0101739C
:1002C0006420636172642073657474696E670000F2
:1002D000000000000000000000000000000000011D
:1002E000000000000000000000000000000000F519
:1002F00001046465766963652073657474696E676B
:1003000000000000000000000000000000000000ED
:10031000000001051C1900000000000000000000A2
:100320000000E903047374616E6461726420636F9A
:100330006E660000000000000000000000000000E9
:1003400000000000000203041B0000000000000089
:100350000000000000EB030465737020636F6E669D
:10036000000000000000000000000000000000008D
:1003700000000000000000001D18171A0000000017
:100380000000000000000000ED030273616D706C5E
:10039000657220636F6E66000000000000000000C0
:1003A0000000000000000000000000151600000022
:1003B0000000000000000000000000150504616E50
:1003C000616C6F672073656E736F7220636F6E660A
:1003D0000000000000000000000000000000051CFC
:1003E0000F100000000000000000000000001605D3
:1003F0000273776974636820636F6E6600000000A3
:1004000000000000000000000000000000000000EC
:1004100000051C00000000000000000000000000BB
:10042000001E05046C64722073656E736F72206326
:100430006F6E660000000000000000000000000079
:1004400000000000051C0F1000000000000000006C
:1004500000000000F2050644485432322073656EF5
:10046000736F7220636F6E66000000000000000072
:1004700000000000000000051C0F10111200000019
:1004800000000000000000A4060372656C61792082
:10049000636F6E66000000000000000000000000B6
:1004A00000000000000000000000051C1A00000011
:1004B00000000000000000000000D0070264657624
:1004C0006963652067656E6572696320636F6E6638
:1004D00000000000000000000000000000051C00FB
:1004E00000000000000000000000000000D107052F
:1004F0007374616E646172642073746174757300E7
:1005000000000000000000000000000000000000EB
:10051000020609080A0000000000000000000000B8
:10052000D3070565737020737461747573000000E0
:1005300000000000000000000000000000000000BB
:10054000000000070C0B0E0D000000000000000072
:10055000000000D5070373616D706C6572207374C1
:1005600061747573000000000000000000000000CE
:10057000000000000000021507000000000000005D
:10058000000000000000FD0803616E616C6F6720D1
:1005900073656E736F7220737461740000000000E5
:1005A00000000000000000000005071A0000000025
:1005B000000000000000000000FE0803737769746B
:1005C00063682073656E736F7220737461740000CA
:1005D00000000000000000000000000005071A00F5
:1005E0000000000000000000000000000609036C8D
:1005F00064722073656E736F72207374617400008F
:1006000000000000000000000000000000000005E5
:10061000071A00000000000000000000000000DADF
:10062000090444485432322073656E736F7220732C
:100630007461740000000000000000000000000071
:1006400000000513141A0000000000000000000064
:1006500000008C0A0272656C617920737461740009
:10066000000000000000000000000000000000008A
:10067000000000000005190000000000000000005C
:100680000000000000400B047364207374617469FF
:100690007374696373000000000000000000000034
:1006A0000000000000000000021C0F080000000015
:1006B0000000000000000000B80B0264657669636A
:1006C000652067656E6572696320737461740000EC
:1006D0000000000000000000000000051A000000FB
:1006E0000000000000000000000000B90B04616C75
:1006F0006C61726D0000000000000000000000004E
:1007000000000000000000000000000000000304E2
:100710000619000000000000000000000000BA0BF5
:100720000467656E6572616C207761726E696E67D1
:1007300000000000000000000000000000000000B9
:100740000003040619000000000000000000000083
:1007500000850C0070726F6265207265717565733B
:100760007400000000000000000000000000000015
:100770000000000000000000000000000000000079
:1007800000000000B10D04616D6269656E74207037
:10079000726F6265000000000000000000000000B1
:1007A0000000000000000005030607000000000034
:1007B000000000000000008913046E6574776F72FA
:1007C0006B2061646472657373207365740000004C
:1007D0000000000000000000000001051D180000DE
:1007E000000000000000000000008A130365737021
:1007F00020616464726573730000000000000000F3
:1008000000000000000000000000000000051D18AE
:1008100000000000000000000000000000FAFF01DE
:10082000646F6F7262656C6C207369676E616C00D7
:1008300000000000000000000000000000000000B8
:1008400005000000000000000000000000000000A3
:100850006340006D657373616765000000000063AD
:100860004000636F6D6D616E6400000000006310F6
:10087000006E616D65000000000000000063100064
:1008800074797065000000000000000063100062D1
:100890006F6172640000000000000063080064657E
:1008A000766E616D6500000000006C040065706F7D
:1008B0006368000000000000006C040076616C7545
:1008C00065000000000000006C0400667265656D44
:1008D000656D00000000006C04006C6F6F7074693F
:1008E0006D65000000006C04006572726F72730029
:1008F00000000000006C0400746F74616C7278007A
:10090000000000006C0400746F74616C7478000067
:100910000000006C040073657269616C72780000FD
:1009200000006C040073657269616C7478000000EB
:10093000006C0400706172616D3100000000000005
:100940006C0400706172616D320000000000006C88
:100950000400706172616D330000000000006C04DF
:1009600000706172616D340000000000006C0400D2
:1009700074656D7065726174757265006C040068F1
:10098000756D6964697479000000006C040073740B
:10099000657064617931000000006C040073746557
:1009A00070686F7572310000006C040074696D65C9
:1009B0006F757400000000006C0400706F727400AA
:1009C000000000000000007301006C6576656C009B
:1009D00000000000000073010073746174757300FF
:1009E00000000000007301006465766E756D000004
:1009F0000000000073010070696E0000000000003C
:100A00000000006311006970000000000000000099
:100A100000000A7061727365723A626567696E0000
:100A20002E2E2E646F6E65000A4D454D3A20666F7E
:100A30007267696E67207061636B65742025733A15
:100A400025732025733A5B25755D00FF0101FF5476
:100A5000455354000A4552524F523A436F6E664214
:100A60006173653A6465766963653A20696E76619B
:100A70006C69642063616C6C20666F7220646576BB
:100A8000696365206174205B25755D00646F6E6528
:100A9000210072656164696E672E2E2E000A416C1A
:100AA0006C6F636174696E672064657620257520BC
:100AB0002E2E2E000A696F703A73656E64436F6E56
:100AC0006669673A6465766E756D20697320257571
:100AD000000A696F703A73656E64436F6E6669678A
:100AE0003A6465766E756D20697320257500554EE4
:100AF0004F0054455354002A2A2048697421202A63
:100B00002A002A2A204D69737321202A2A001F1CDB
:100B10001F1E1F1E1F1F1E1F1E0A44656C65746961
:100B20006E6720436F6E6642617365000A444556E6
:100B30004E554D207570646174656420697320257D
:100B400075000A52656164696E6720626173652091
:100B500070726F70202575203A20000A57726974F0
:100B6000696E6720626173652070726F70202575F1
:100B7000203A20257300554E4F0053414D504C45AF
:100B8000520054455354000A436F6E6642617365C8
:100B90003A626567696E3A20636F6D706C65746563
:100BA000210A00546F6F206D616E79206174746149
:100BB000636865642064657669636573203C2575A8
:100BC0003E000A436F6E66426173653A626567690B
:100BD0006E3A20746F6F206D616E7920646576695E
:100BE000636573203A20257520286D61782025756E
:100BF00029003E3E204641494C4544210A00205BE5
:100C0000202573205D20000A436F6E664261736584
:100C10003A626567696E3A20506172616D6574650C
:100C2000722025753A2573005D0A00257520000A9B
:100C3000436F6E66426173653A696E697464657686
:100C40003A20706F736974696F6E20617272617996
:100C50003A205B20000A436F6E66426173653A6911
:100C60006E69746465763A207472756E6361746936
:100C70006E672061727261792061742025752F255D
:100C80007500202D206C6F61646564202573206FD2
:100C90006E2070696E20257500496E76616C6964FE
:100CA00020646576696365205B25753A25735D2050
:100CB000617420706F736974696F6E202575000A06
:100CC000436F6E66426173653A696E6974646576F6
:100CD0003A205B25752F25755D203C25753E2061EA
:100CE0007420696E64657820257500476F742069EB
:100CF0006E76616C6964207061636B6574203C255D
:100D0000733E20666F7220636F6E66000A4445561C
:100D10003A5741524E494E473A76616C6964617464
:100D2000653A20676F74206E756C6C706F696E74B5
:100D30006572000A4445563A5741524E494E473A69
:100D400076616C69646174653A20676F74206E75B2
:100D50006C6C706F696E746572005D0A0A002575AF
:100D600020000A09546F74616C20646576696365BC
:100D7000733A202575205B20000A0A09636F6E66AE
:100D80003A6465764164643A6164646564202573FD
:100D9000206F6E2070696E20257521000A52656DE6
:100DA0006F76696E672066726F6D20257520746F8F
:100DB00020257500446576696365202573206E6F74
:100DC0007420666F756E64004E6F2064657669638B
:100DD0006520746F2072656D6F766500476F7420B3
:100DE0006E6F6E2D646576696365207061636B65F7
:100DF00074203C25733E20666F7220636F6E662000
:100E0000616464004445563A76616C696461746556
:100E10003A2070696E20257520616C7265647920B6
:100E2000696E2075736500476F74206E756C6C7009
:100E30007472207061636B6574203C3E00476F7470
:100E4000206E756C6C707472207061636B657420B9
:100E50003C3E00476F74206E756C6C70747220702D
:100E600061636B6574203C3E004445563A4D4F44E7
:100E70003A2070696E20257520616C726564792056
:100E8000696E20757365004445563A4D4F443A20CB
:100E9000696E76616C696420646576696365202596
:100EA00073004445563A5345543A4E414D453A2015
:100EB000696E76616C696420646576696365202576
:100EC00073004445563A5345543A4E414D453A20F5
:100ED000696E76616C6964206E616D6520257300B2
:100EE0000A454550524F4D3A53616D706C65722002
:100EF000626567696E20636F6D706C65746500462E
:100F00006F756E6420696E76616C696420434F4F23
:100F10004C2054494D45203C25753E00466F756E6A
:100F20006420696E76616C69642053544550203C9E
:100F300025753E000A57726F74652073656E736F76
:100F4000722025753A2573202D206E6F2070696EF2
:100F50002025750A002573202D206F6E2070696E84
:100F6000202575000A57726974696E672073656E73
:100F7000736F722025753A202575202D2000444876
:100F800054310000000005F20544485432000000CE
:100F90000006F205444854330000000007F20546FD
:100FA000414E310000000008A40646414E320000C8
:100FB000000009A4060A636C6F636B3A204D494C2C
:100FC0004C49532073746172743A0A636C6F636B9B
:100FD0003A2063757272656E742064617465746919
:100FE0006D653A202573000A636C6F636B3A20636A
:100FF000616E206E6F7420696E69742044533332C1
:10100000333100626567696E3A2063616E206E6FEE
:101010007420696E69742044533332333120636C19
:10102000617373000A636C6F636B3A20637572724D
:10103000656E74206461746574696D653A2025730A
:1010400000626567696E3A20696E76616C6964203A
:1010500065706F63682E20506C65617365206368EE
:1010600065636B20636F6E6E656374696F6E00629B
:101070006567696E3A20706F776572206C6F737365
:101080002E20506C6561736520636865636B206317
:101090006C6F636B20626174746572790030333AEF
:1010A00032373A3035004D617920203820323032E5
:1010B000300030333A32373A3035004D61792020F4
:1010C0003820323032300030333A32373A3035005F
:1010D0004D61792020382032303230000A636C6F45
:1010E000636B3A25733A626567696E0065706F637A
:1010F000683A20525443207369676E616C206C6FAC
:101100007374210065706F63683A205254432066FF
:101110006F756E64210000000000240027002A0083
:1011200000000008000201000003040700000000A6
:1011300000000000424F41524420524541445900B2
:1011400053414D504C4552000A3C494E49543A4394
:101150004F4E463E0A00424F4152442053544152A2
:101160005453000A3C494E49543A25733E005445B5
:101170005354000A70617273653A707265616D62F2
:101180006C65205041535300FF0101FF2563000AA5
:10119000494F3A0A5741524E494E473A706172736D
:1011A000653A6E616D653A20636F756C64206E6F91
:1011B000742066696E6420696E6974206279746552
:1011C000000A494F3A5741524E494E473A706172B0
:1011D00073653A6E616D653A205B25733A25735DE0
:1011E00020636F6D70617269736F6E204641494C68
:1011F000454421000A70617273653A6E616D653A0B
:10120000205B25733A25735D2050415353000A70CB
:10121000617273653A6E616D653A202575205B25B4
:10122000755D0054455354000A70617273653A70DD
:1012300061796C6F61643A20646F776E6C6F616482
:101240006564203C25733E205B25752042797465DA
:10125000735D000A70617273653A7061796C6F61D9
:10126000643A20676F74202575202825752F257511
:101270002920666F722025730025755D203D3E2074
:101280002575000A70617273653A636F6D6D616EEA
:10129000643A205B25752E0053414D504C45523A1F
:1012A0004C4F4F5000000000002300260029000092
:1012B000000000250028002B00040404040404049A
:1012C00004020202020202030303030303010204F5
:1012D00008102040800102040810200102040810B8
:1012E0002053414D504C4552004545434F4E46001A
:1012F000494F5359530030333A32373A3035004D65
:1013000061792020382032303230005254434C4F23
:10131000434B2044533332333100752809281124BC
:101320001FBECFEFD8E0DEBFCDBF12E0A0E0B1E03E
:10133000E2ECF6E602C005900D92A030B107D9F7B5
:1013400024E0A0E0B2E001C01D92AC37B207E1F7A3
:1013500019E0CEE8D9E004C02197FE010E948F3247
:10136000CD38D107C9F70E94BF290C9454330C948F
:101370000000909154039111FCCF91E0909354039D
:10138000909353032FEF2093520310925103260F93
:101390002093500390934F0390914F03880F892B14
:1013A00080934F0380914E038130F9F410924E03E5
:1013B00080914F038093BB008091BC0083FDF8CFE8
:1013C00085EC8093BC00809154038130E1F38091DF
:1013D0005103861710F460915103AEE2B3E0EEE0E2
:1013E000F3E080E0861303C0089585EEEACF9D9177
:1013F00091938F5FF7CF20910D0381E0213208F0A8
:1014000044C0809154038111FCCF80910C0392E081
:101410009093540391E0909353039FEF9093520362
:101420001092510320935003ACEEB2E0EEE2F3E0F1
:1014300090E0291331C010924F0390914F03880F11
:10144000892B80934F0380914E03813049F5109290
:101450004E0380914F038093BB008091BC0083FDBD
:10146000F8CF85EC8093BC00809154038230E1F387
:10147000809152038F3FB1F0809152038032A1F0EE
:1014800080915203803391F084E01092EB0210922D
:101490000D031092EA0208953D9131939F5FC9CFE9
:1014A00085EEE0CF80E0F1CF82E0EFCF83E0EDCFBB
:1014B00080E191E090930F0480930E048091E60206
:1014C0009091E7028E50944071F4E0912104F091E4
:1014D0002204908180912304809589238083109237
:1014E000E7021092E6020895AF92BF92CF92DF9288
:1014F000EF92FF920F931F93CF93DF936C017B01C9
:101500008B01040F151FEB015E01AE18BF08C01759
:10151000D10759F06991D601ED91FC910190F081CC
:10152000E02DC6010995892B79F7C501DF91CF918F
:101530001F910F91FF90EF90DF90CF90BF90AF90F1
:101540000895FC01538D448D252F30E0842F90E0C9
:10155000821B930B541710F0CF96089501970895AE
:10156000FC01918D828D981761F0A28DAE0FBF2F77
:10157000B11D5D968C91928D9F5F9F73928F90E0CD
:1015800008958FEF9FEF0895FC01918D828D98173C
:1015900031F0828DE80FF11D858D90E008958FEF79
:1015A0009FEF0895FC01918D228D892F90E0805C42
:1015B0009F4F821B91098F739927089585E593E0CA
:1015C0000E94D20A21E0892B09F420E0822F08959D
:1015D00080E090E0892B29F00E94DE0A81110C94B2
:1015E00000000895FC01A48DA80FB92FB11DA35AC6
:1015F000BF4F2C91848D90E001968F739927848F33
:10160000A689B7892C93A089B1898C918370806455
:101610008C93938D848D981306C00288F389E02DF6
:1016200080818F7D80830895EF92FF920F931F93A7
:10163000CF93DF93EC0181E0888F9B8D8C8D981385
:101640001AC0E889F989808185FF15C09FB7F89491
:10165000EE89FF896083E889F989808183708064DD
:1016600080839FBF81E090E0DF91CF911F910F9128
:10167000FF90EF900895F62E0B8D10E00F5F1F4F37
:101680000F731127E02E8C8D8E110CC00FB607FC46
:10169000FACFE889F989808185FFF5CFCE010E94D4
:1016A000F20AF1CFEB8DEC0FFD2FF11DE35AFF4F46
:1016B000F0829FB7F8940B8FEA89FB898081806262
:1016C000CFCFCF93DF93EC01888D8823B9F0AA891F
:1016D000BB89E889F9898C9185FD03C0808186FDED
:1016E0000DC00FB607FCF7CF8C9185FFF2CF80813C
:1016F00085FFEDCFCE010E94F20AE9CFDF91CF91B5
:10170000089590E0FC01E05EFE4E2491FC01E3535D
:10171000FD4E3491FC01E754FD4EE491EE23C9F0F7
:10172000222339F0233001F1A8F4213019F12230BD
:1017300029F1F0E0EE0FFF1FE155FD4EA591B491A8
:101740008FB7F894EC91611126C030953E233C93FD
:101750008FBF08952730A9F02830C9F0243049F709
:10176000809180008F7D03C0809180008F7780936F
:101770008000DFCF84B58F7784BDDBCF84B58F7DCC
:10178000FBCF8091B0008F778093B000D2CF809153
:10179000B0008F7DF9CF3E2BDACFCF93DF9390E06F
:1017A000FC01E353FD4E249187549D4EFC0184912E
:1017B0008823D1F090E0880F991FFC01EA5EFE4E6D
:1017C000A591B491FC01E155FD4EC591D4916111F3
:1017D0000EC09FB7F8948C91E22FE0958E238C93E6
:1017E0002881E223E8839FBFDF91CF9108958FB7CF
:1017F000F894EC91E22BEC938FBFF6CF109211048A
:101800001092100488EE93E0A0E0B0E08093120400
:1018100090931304A0931404B093150480E191E015
:1018200090930F0480930E041092250410922404C8
:101830001092270410922604109229041092280472
:1018400010922B0410922A0460912C046E7F6D7FFD
:1018500060932C046695617081E0682783E00E94A4
:10186000810B61E083E00E94CD0BE0EDF2E1E491B9
:10187000E0931E04ECEBF2E1E491F0E0EE0FFF1FC9
:10188000E155FD4E859194919093200480931F041F
:1018900060E082E00E94CD0B80912C0481FD04C0A9
:1018A00061E082E00E94810B82E080931A04EFECF9
:1018B000F2E1E491E0931B04EBEBF2E1E491F0E060
:1018C000EE0FFF1FEB55FD4E8591949190931D04F3
:1018D00080931C0408953FB7F8948091D8029091AA
:1018E000D902A091DA02B091DB0226B5A89B05C00F
:1018F0002F3F19F00196A11DB11D3FBFBA2FA92F8F
:10190000982F8827BC01CD01620F711D811D911D8B
:1019100042E0660F771F881F991F4A95D1F70895F7
:101920008F929F92AF92BF92CF92DF92EF92FF92EF
:101930004B015C010E946B0C6B017C010E946B0CE3
:101940006C197D098E099F09683E734081059105D8
:10195000A8F321E0821A9108A108B10888EEC80E08
:1019600083E0D81EE11CF11C81149104A104B10490
:1019700029F7FF90EF90DF90CF90BF90AF909F90AE
:101980008F9008952FB7F8946091D4027091D5028A
:101990008091D6029091D7022FBF089585ED809354
:1019A000BC008091BC0084FDFCCF109254030895CC
:1019B0002091AE02260F3327331F21323105ECF47C
:1019C00020915403FC0190E080E0243069F082E033
:1019D0000895A091AE022191AC0144575D4FA40F30
:1019E000B52FB11D2C930196861798F38091AE0206
:1019F000680F6093AE0280E0089581E00895089535
:101A000008950895E091E9028091E802E81730F422
:101A1000F0E0E25FFC4F808190E008958FEF9FEF50
:101A200008959091E9028091E8022FEF3FEF981717
:101A300048F4E92FF0E0E25FFC4F208130E09F5F47
:101A40009093E902C90108958091E8029091E9021A
:101A5000891B990B0895CF92DF92EF92FF920F931B
:101A60001F93CF93DF937C01CB018A012091EA027F
:101A7000222389F0EB016B01C40ED51ECC15DD05C8
:101A800069F06991D701ED91FC910190F081E02D11
:101A9000C7010995F3CF642F0E94D80CC801DF91CC
:101AA000CF911F910F91FF90EF90DF90CF9008950D
:101AB000CF93DF931F92CDB7DEB769832091EA02FF
:101AC0002223F9F020910D03203258F021E030E07C
:101AD000FC013383228390E080E00F90DF91CF916F
:101AE00008958091EB02E82FF0E0E451FD4F9981D9
:101AF00090838F5F8093EB0280930D0381E090E0F1
:101B0000ECCF61E0CE0101960E94D80CF7CFFC012A
:101B100084890895FC016089718982899389089577
:101B2000089508950895089580E008952091E602AB
:101B30003091E7022817390771F49091DC02809107
:101B4000DD02981741F0E091DC02F0E0EC5BFD4F24
:101B5000808190E008958FEF9FEF0895EF92FF92BC
:101B60000F931F93CF93DF93DC015C96ED90FC9075
:101B70005D97E114F10479F481E090E013969C9371
:101B80008E93129790E080E0DF91CF911F910F919B
:101B9000FF90EF9008955196ED91FC9152975096D9
:101BA0008C915097982F90950FB75E962C915E97D9
:101BB000122F127021FD6095F8942081112319F1E4
:101BC000282B2083E7012197F1F728E0462F50E0EA
:101BD000308160FF1AC0382B3083E7012197F1F77D
:101BE000BA0175956795215089F7112381F080819D
:101BF000892380830FBF5C968D919C910197F1F7AB
:101C000081E090E0C1CF2923DCCF3923E5CF90815B
:101C1000892BEFCF2091E6023091E7022817390790
:101C200071F48091DD022091DC0290E0805C9F4F96
:101C3000821B910960E470E00E945932089590E09F
:101C400080E008952091E6023091E70228173907D5
:101C5000B9F49091DC028091DD02981789F0E0914F
:101C6000DC02F0E0EC5BFD4F80812091DC0230E093
:101C70002F5F3F4F2F7333272093DC0290E00895AE
:101C80008FEF9FEF089590E080E00895EF92FF922C
:101C90000F931F93CF93DF93EC0169813881432F1A
:101CA00050E02A81822F90E0EEE0FBE021E0261751
:101CB00030F47491870F911D2F5F3196F8CF633008
:101CC00018F0337009F401966DE671E0469F9001BB
:101CD000479F300D569F300D1124215031094D5F23
:101CE0005F4F5695479556954795240F351F280FFA
:101CF000391FA8E1B0E00E943E322B817B018C01AC
:101D0000E20EF11C011D111DA8019701ACE3B0E02A
:101D10000E94FC312C817B018C01E20EF11C011D23
:101D2000111DA80197010E94FC31AB01BC019D81EE
:101D3000892F90E0B0E0A0E080589C4BA249B74CBE
:101D40008A019B01080F191F2A1F3B1FC901B801F7
:101D5000DF91CF911F910F91FF90EF900895CF9356
:101D6000DF93EC010E94C20C609388027093890299
:101D700080938A0290938B02CE010E94460E60935C
:101D80008402709385028093860290938702DF918C
:101D9000CF910895FC01908190539A3008F090E023
:101DA000818180532AE0929F800D112408958F92A3
:101DB0009F92AF92BF92CF92DF92EF92FF92CF931A
:101DC000DF93EC016A017B0180E8C81A83E4D80A3A
:101DD0008DE6E80A88E3F80A8CE3882E912CA12C82
:101DE000B12CC701B601A50194010E946D326D832B
:101DF000CA01B901A50194010E946D326C83C7012B
:101E0000B60120E13EE040E050E00E946D32CA01A0
:101E1000B90128E130E040E050E00E946D326B8370
:101E2000C701B60120E831E541E050E00E946D3283
:101E3000188263E97EEF8881982F937041E050E02B
:101E400011F050E040E0FA01E359FE4F2E173F0732
:101E500040F0FB01E41BF50B2E0F3F1F8F5F8883C3
:101E6000EACF81E0898389818C30A0F4482F4150EA
:101E7000550BFA01E25FF44FE491911103C08230F7
:101E800009F4EF5FF0E02E173F0720F02E1B3F0B09
:101E90008F5FE8CF2F5F2A83DF91CF91FF90EF9084
:101EA000DF90CF90BF90AF909F908F9008950F9349
:101EB0001F93CF93DF9300D000D000D0CDB7DEB713
:101EC0008C010E94460EAB01BC01CE0101960E941E
:101ED000D70EF80190818981981314C091818A816D
:101EE000981310C092818B8198130CC093818C81C0
:101EF000981308C094818D81981304C081E02581D6
:101F00009E81291380E026960FB6F894DEBF0FBE9F
:101F1000CDBFDF91CF911F910F910895CF92DF92A6
:101F2000EF92FF920F931F93CF93DF93EC010E94E8
:101F30006B0C00910002109101022091020230917D
:101F400003026B017C01C01AD10AE20AF30A97016D
:101F500086010C8B1D8B2E8B3F8B60930002709340
:101F600001028093020290930302DF91CF911F91AF
:101F70000F91FF90EF90DF90CF900895CF92DF9276
:101F8000FF920F931F93CF93DF936C0181E08093B7
:101F9000EA0288E680930C031092EB0210920D0384
:101FA00060E082EF93E00E94580D0E94FB0967E019
:101FB00088E60E94B9091092E9028093E80282EF54
:101FC00093E00E94110D8F77282F30E094E0359533
:101FD00027959A95E1F7922F990F990FC22FC91B58
:101FE000CC0FC80F82EF93E00E94110D9C0144E0DA
:101FF000359527954A95E1F72F703327922F990F42
:10200000990FD22FD91BDD0FD80F82EF93E00E94DA
:10201000110D9C0154E0359527955A95E1F72F70E5
:102020003327922F990F990F122F191B110F180F89
:1020300082EF93E00E94110D82EF93E00E94110D58
:102040009C0164E0359527956A95E1F72F70332759
:10205000922F990F990F022F091B000F080F82EF83
:1020600093E00E94110D9C0174E0359527957A95B7
:10207000E1F72F703327922F990F990FF22EF91A4B
:10208000FF0CF80E82EF93E00E94110D9C01E4E03A
:1020900035952795EA95E1F72F703327922F990F01
:1020A000990F291B220F820FF6018083F182028390
:1020B0001383D483C583C601DF91CF911F910F9104
:1020C000FF90DF90CF90089581E08093EA0288E648
:1020D00080930C031092EB0210920D036FE082EFDD
:1020E00093E00E94580D0E94FB0961E088E60E947F
:1020F000B9091092E9028093E80282EF93E00E940E
:10210000110D0895FF920F931F93CF93DF93EC016E
:1021100001E00093EA0218E610930C031092EB0220
:1021200010920D0360E082EF93E00E94580D2D8124
:102130008AE0F82E822F6F2D0E944D32682F660F95
:10214000680F660F620F82EF93E00E94580D2C819A
:10215000822F6F2D0E944D32682F660F680F660F19
:10216000620F82EF93E00E94580D2B81822F6F2D1A
:102170000E944D32682F660F680F660F620F82EF64
:1021800093E00E94580D60E082EF93E00E94580DAA
:102190002A81822F6F2D0E944D32682F660F680FA3
:1021A000660F620F82EF93E00E94580D2981822F03
:1021B0006F2D0E944D32682F660F680F660F620FF9
:1021C00082EF93E00E94580D2881822F6F2D0E948C
:1021D0004D32682F660F680F660F620F82EF93E033
:1021E0000E94580D0E94FB090E946410C82F0093A2
:1021F000EA0210930C031092EB0210920D036FE0B1
:1022000082EF93E00E94580D6C2F6F7782EF93E07E
:102210000E94580DDF91CF911F910F91FF900C9468
:10222000FB09FC018489882319F0CB010C948210EE
:10223000CB010C94AF0E26EA31E0FC013183208300
:1022400084819581009711F00C948A2E0895CF9384
:10225000DF93EC010E941B11CE01DF91CF910C9412
:102260008A2E0C948A2EFC0182819381009711F0B2
:102270000C948A2E0895CF93DF93EC018AE991E0C4
:10228000998388838E819F810E948A2E8C859D856B
:102290000E948A2E888599850E948A2E0A84DB8571
:1022A000C02D209741F0CE010E943311CE01DF9165
:1022B000CF910C948A2EDF91CF910895CF93DF9325
:1022C000EC010E943B11CE01DF91CF910C948A2E3C
:1022D000CF92DF92EF92FF920F931F93CF93DF93F2
:1022E000EB017B0124E0E20EF11C8B016C01C61AAC
:1022F000D70AC601800F911F0E94E631F801819331
:102300008F01EE15FF05A9F7CE01DF91CF911F9147
:102310000F91FF90EF90DF90CF9008950F931F9350
:10232000CF93DF938C01EB010E94E6318883C801D3
:1023300001960E94E6318983CE01DF91CF911F91F2
:102340000F9108950C94E631FF920F931F93CF9352
:10235000DF938C01F62E80E390E00E94A211D82F2B
:102360000A5F1F4FC0E0CD1759F0F801819191919C
:102370008F010A960E94A211F81619F0CF5FF3CFD1
:10238000CFEF8C2FDF91CF911F910F91FF90089588
:10239000EF92FF920F931F93CF93DF93CDB7DEB7EA
:1023A0002B970FB6F894DEBF0FBECDBF8C017A011C
:1023B0004BE050E0CE0101960E94202FCE010A96FC
:1023C0000E94CA0EF8018083E981E154E33118F5D7
:1023D0000E2E000CFF0BE151FE4E0C948F323D127D
:1023E0000B120B1251120B123B120B120B120B128F
:1023F00002120B120B1244124F124D120B120B123F
:102400000B124B128A81813691F18B818E3689F1C4
:1024100087E0F8018183CE0105960E94CA0EF8017B
:10242000828348E050E0B701CE0101960E94202F40
:10243000CE0101960E94CA0EF8018383CE01049654
:102440000E94CA0EF8018483CE0107960E94CA0E2C
:10245000F80185832B960FB6F894DEBF0FBECDBF73
:10246000DF91CF911F910F91FF90EF90089581E040
:10247000D0CF86E0CECF82E0CCCF8B81823711F0F7
:1024800088E0C7CF84E0C5CF8B81823711F085E02B
:10249000C0CF83E0BECF89E0BCCF8AE0BACF8BE06B
:1024A000B8CF8CE0B6CFAF92BF92CF92DF92EF92CF
:1024B000FF920F931F93CF93DF93CDB7DEB7C25434
:1024C000D1090FB6F894DEBF0FBECDBFFC01648109
:1024D000758143E350E0CE0101960E94202F10E069
:1024E000F12CE12C8B81181718F580E5C82E88E0B7
:1024F000D82E00E094E2A92EB12CAC0EBD1EA10E88
:10250000B11CF501808180130BC04FE050E0B60193
:10251000CE01C4960E94202F8DA99EA9E80EF91E17
:102520000F5FFFE0CF0ED11C0E3159F71F5FDACFDE
:10253000C701CE5BDF4F0FB6F894DEBF0FBECDBF35
:10254000DF91CF911F910F91FF90EF90DF90CF908F
:10255000BF90AF900895EF92FF921F93CF93DF93B8
:10256000EC01162FE880F9800E945312E816F90654
:1025700098F4EA81FB8188819981E80FF91F108323
:102580008881998101969983888381E0DF91CF9139
:102590001F91FF90EF90089580E0F8CFCF93DF93E5
:1025A000CDB7DEB7E3970FB6F894DEBF0FBECDBF51
:1025B000FC016481758143E350E0CE0101960E94E5
:1025C000202F89819A81E3960FB6F894DEBF0FBE63
:1025D000CDBFDF91CF910895CF93DF93EC010E949F
:1025E000CE128E3125E09207A9F060F4853F21E0FC
:1025F0009207F9F020F085519540029758F090E04D
:1026000080E01BC0843A26E0920721F038F4823F34
:102610009540A9F78A819B8108960FC0803D27E0ED
:102620009207C1F380349B4051F78A819B81409689
:1026300004C08A819B81885B9F4FDF91CF91089571
:10264000CF93DF93EC010E94CE128E3125E09207EA
:1026500091F030F48531954071F090E080E00EC04B
:10266000823F25E0920739F080349B40B1F78A81A0
:102670009B81419603C08A819B810996DF91CF910E
:102680000895CF93DF93EC010E94CE128F3F28E094
:10269000920728F58D3F28E09207E0F48E3125E07F
:1026A0009207C1F060F4853F21E09207C9F120F064
:1026B00085519540029770F090E080E00DC0843A1B
:1026C00026E0920739F0803D27E0920719F0823F1B
:1026D000954091F78A819B81DF91CF910895883B46
:1026E0002BE09207B9F360F48A3D29E0920791F359
:1026F0008C382AE0920771F386309940E9F6EACFE8
:10270000893823E1920761F020F4813B9D4011F369
:10271000D3CF8A3823E19207E9F20696D9F2CCCFDB
:102720008A819B81805C9F4FD7CFCF93DF93EC0151
:102730000E94CE12813D27E0920789F048F48F3045
:10274000910581F0893E934051F090E080E00EC009
:10275000853D27E0920719F080349B40B1F78A81CC
:102760009B8104C08A819B81805C9F4FDF91CF91C8
:102770000895FF920F931F93CF93DF93EC01F62EF2
:1027800008811981C8010E94E631F81621F06F2DE9
:10279000C8010E94EE31CE01DF91CF911F910F91C0
:1027A000FF900895AF92BF92CF92DF92EF92FF9287
:1027B0000F931F93CF93DF9300D0CDB7DEB78B017C
:1027C0006B0124E0C20ED11C7B015C01A61AB70A82
:1027D000C5018E0D9F1D9A838983F70161917F0149
:1027E000CE0101960E94B913EC14FD0489F7C801CB
:1027F0000F900F90DF91CF911F910F91FF90EF906D
:10280000DF90CF90BF90AF9008954F925F926F92FC
:102810007F928F929F92AF92BF92CF92DF92EF9270
:10282000FF920F931F93CF93DF93CDB7DEB7289717
:102830000FB6F894DEBF0FBECDBF5C014B01512C2B
:1028400098E0492ECE0101966C0180E390E00E9451
:10285000A211581648F5F601842D11928A95E9F7D0
:10286000E52DF0E03396EE0FFF1FEA0DFB1D008112
:102870001181780192E0E90EF11C3601065F1F4FCD
:10288000C7010E94E631F30181933F01FFEFEF1A88
:10289000FF0AE016F106A1F7B601C4010E94133346
:1028A000892B21F05394D1CF55245A94852D289605
:1028B0000FB6F894DEBF0FBECDBFDF91CF911F9151
:1028C0000F91FF90EF90DF90CF90BF90AF909F90CF
:1028D0008F907F906F905F904F9008950F931F930C
:1028E000CF93DF9300D000D000D0CDB7DEB7182F44
:1028F000092FE82FF92F86E1DF011D928A95E9F76C
:10290000CE0101960E94D70E8E811F928F938D81EA
:102910001F928F938C811F928F938B811F928F9325
:102920008A811F928F93898190E08053984F9F9363
:102930008F9384EB91E09F938F930F931F930E944B
:1029400031330FB6F894DEBF0FBECDBF26960FB65B
:10295000F894DEBF0FBECDBFDF91CF911F910F91D5
:1029600008950F931F93CF93DF93CDB7DEB79E01EA
:10297000295F3F4FF901419151919F0104E012E01D
:1029800080E4F80111928A95E9F760E470E0C801EB
:102990000E94392FF80101900020E9F7AF0145505E
:1029A0005240B8018EE094E00E94740ADF91CF910A
:1029B0001F910F9108954F925F926F927F928F9225
:1029C0009F92AF92BF92CF92DF92EF92FF920F93BE
:1029D0001F93CF93DF93CDB7DEB7C155D1090FB6A3
:1029E000F894DEBF0FBECDBF80E18E010F5F1F4F99
:1029F000F801982F11929A95E9F76E01E1E1CE0E58
:102A0000D11CF601982F11929A95E9F77E01E1E227
:102A1000EE0EF11CF70111928A95E9F762E87BE06E
:102A2000C8010E94322F6AE77BE0C6010E94322F64
:102A300066E77BE0C7010E94322FB12CA12CF12C5C
:102A4000E12C2BE5822E2BE0922E1F930F93FF9209
:102A5000EF929F928F920E94B1140F900F900F905F
:102A60000F900F900F90D12CC12CF801EC0DFD1D93
:102A70006081C6018A0D9B1D9AAB89ABCE01C196C0
:102A80000E94B913FFEFCF1ADF0A80E1C816D10404
:102A900061F79FEFE91AF90A005F1F4FE0E1AE0E00
:102AA000B11CF3E0EF16F10481F665E080E390E0FD
:102AB0000E94EE31B12CA12CF12CE12C82E4882E65
:102AC0008BE0982E9AE0492E512C612C712CFF92AC
:102AD000EF929F928F920E94B1140F900F900F90DF
:102AE0000F90D12CC12CC5018C0D9D1D0E94A211EF
:102AF000282F30E050E040E062961FAE629701E37D
:102B000010E00C0F1D1F005E1F4FCA01B901A30189
:102B100092010E946D32605DF80162938F01211570
:102B200031054105510589F7309761F0019000208A
:102B3000E9F73197AF01401B510BB80185E593E0F0
:102B40000E94740AFFEFCF1ADF0A80E1C816D10491
:102B500051F69FEFE91AF90AE0E1AE0EB11CF3E07D
:102B6000EF16F10409F0B3CF80E390E00E94A211C8
:102B70001F928F938CE29BE09F938F930E94B114DE
:102B80000F900F900F900F90CF5ADF4F0FB6F89421
:102B9000DEBF0FBECDBFDF91CF911F910F91FF9090
:102BA000EF90DF90CF90BF90AF909F908F907F90ED
:102BB0006F905F904F90089528E531E0FC013183DC
:102BC000208389E19BE09F938F930E94B1140F9023
:102BD0000F900895CF93DF93EC010E94DC15CE0196
:102BE000DF91CF910C948A2E2EE631E0FC013183E7
:102BF00020830C94DC15CF93DF93EC010E94F41535
:102C0000CE01DF91CF910C948A2E24E831E0FC01B3
:102C1000318320830C94F415CF93DF93EC010E9451
:102C20000516CE01DF91CF910C948A2ECF92DF92C0
:102C3000EF92FF920F931F93CF93DF93CDB7DEB741
:102C4000C357D1090FB6F894DEBF0FBECDBF8C01BC
:102C50006B01FC0111821082138212821582148290
:102C60008EEBE82E80E0F82E43E350E0B701CE0172
:102C70008F5B9F4F0E94202F23968EAD9FAD239791
:102C80008C159D05E9F5F801F582E482C8010E94E2
:102C9000531261E070E00E94C132F8019383828395
:102CA000C8010E945312F82EE92EF8016481758143
:102CB0006D5F7F4F8E010F5F1F4FC8010E94322F43
:102CC000EF92FF921F930F9388E990E09F938F9369
:102CD0000E94B1140F900F900F900F900F900F90D3
:102CE000CD58DF4F0FB6F894DEBF0FBECDBFDF91DA
:102CF000CF911F910F91FF90EF90DF90CF900895AB
:102D0000F3E3EF0EF11C80E5E81688E0F80609F021
:102D1000ABCFDF92CF9288E690E09F938F930E9493
:102D2000B1148EEB90E0F801958384830F900F909F
:102D30000F900F90D5CF2F923F924F925F926F924C
:102D40007F928F929F92AF92BF92CF92DF92EF923B
:102D5000FF920F931F93CF93DF93CDB7DEB76397A7
:102D60000FB6F894DEBF0FBECDBF0E94DB148CE21D
:102D700091E0A0E0B0E08C879D87AE87BF87BE0161
:102D8000645F7F4F81E390E00E94D21388E290E07D
:102D9000A0E0B0E08C879D87AE87BF87BE01645FEF
:102DA0007F4F85E390E00E94D2138EE7282E8FE0BC
:102DB000382ED12CC12C99E3E92EF12C9E012F5FE6
:102DC0003F4F490124E6422E512C612C712CCA8AB6
:102DD000DB8A4BE050E0B101C4010E94202F86E065
:102DE00090E00E94EE2D8C016A857B850E9416166C
:102DF000F98AE88A6A85CE0140960E94B913C70114
:102E00000196998B888B6B85CE0140960E94B913F1
:102E100032E0E30EF11C8B858F938A858F93DF92CE
:102E2000CF9284E69FE09F938F930E94B11489858F
:102E30001F928F939F928F92E5E5FFE0FF93EF93B0
:102E40000E94B114C8010E944113B4010E941C33B6
:102E5000C8010E94EC122985DC012C93C8010E9454
:102E600020130FB6F894DEBF0FBECDBF892B49F0FB
:102E7000C8010E942013DC014D925D926D927C92FC
:102E80001397C8010E94CE12823F9540B1F4F80119
:102E900082819381419689F0C8010E94CE12F0E0B0
:102EA000E0E0823F954029F4D8011296ED91FC9123
:102EB00071964082518262827382B12CA12CC8012A
:102EC0000E945312A816B906A0F4D8011296ED91EB
:102ED000FC91EA0DFB1D6081F98AE88ACE014096DB
:102EE0000E94B913BFEFEB1AFB0AEFEFAE1ABE0A4E
:102EF000E6CFC8010E94EC12DC01BC90C8010E9420
:102F000041131F92BF929F938F93BB89BF93EA890E
:102F1000EF9324E33FE03F932F930E94B1140FB649
:102F2000F894DEBF0FBECDBF0115110531F0C80109
:102F30000E943311C8010E948A2EBFEFCB1ADB0A10
:102F4000EBE02E0E311CF5E0CF16D10409F03FCF97
:102F500010E000E0C701800F911F998B888B60E023
:102F6000CE0140960E94B9130F5F1F4F0436110522
:102F700089F763960FB6F894DEBF0FBECDBFDF9121
:102F8000CF911F910F91FF90EF90DF90CF90BF9066
:102F9000AF909F908F907F906F905F904F903F90F9
:102FA0002F9008950F931F93CF93DF93EC018B0124
:102FB000009729F10E94CE1280179107D1F4CE011B
:102FC0000E945312AC0170E060E08A819B810E94F4
:102FD0000C331982188287EF9AE09F938F930E9497
:102FE000B1140F900F90CE01DF91CF911F910F91EF
:102FF0000895CE010E943311CE010E948A2E86E0F0
:1030000090E00E94EE2DEC01B8010E94161682E0BD
:103010009BE0E3CF0F931F93CF93DF93EC0186E008
:1030200090E00E94EE2D8C0170E060E00E94161688
:103030001B870A8782E19AE09F938F930E94B114C5
:1030400061E070E084E090E00E94C1329F838E8353
:1030500061E070E080E190E00E94C1329D878C8742
:1030600062E070E081E090E00E94C1329987888739
:103070000F900F90DF91CF911F910F9108956F9254
:103080007F928F929F92AF92BF92CF92DF92EF92F8
:10309000FF920F931F93CF93DF93CDB7DEB7C05846
:1030A000D1090FB6F894DEBF0FBECDBF7C018B01F6
:1030B0006E0181E4C80ED11C6FE47AE0C6010E9463
:1030C000322FF70180819181A281B3810196A11DE8
:1030D000B11D80839183A283B3830115110509F487
:1030E00099C0C8010E94531261E070E048960E94A6
:1030F000C1327C0144E050E06BE47AE00E94202F72
:103100005701F4E0AF0EB11C80E1F601D50101904A
:103110000D928A95E1F7C8010E94CE12782E692E91
:10312000F801648175816D5F7F4FCE0101964C017E
:103130000E94322F6F927F92BF92AF929F928F9296
:10314000DF92CF9288E29AE09F938F930E94B1140E
:1031500081E0F701848BC8010E94CE12F701968BA3
:10316000858BC8010E945312F80162817381AC0102
:10317000C70147960E94F132C8010E9453128E0D7A
:103180009F1DFC01178A80E29AE09F938F930E9413
:10319000B114C8010E94531248966C010FB6F894FE
:1031A000DEBF0FBECDBF10E000E085E593E00C155B
:1031B0001D05B0F40E94A10A02975CF0F701E00F30
:1031C000F11F608185E593E00E94140B0F5F1F4F94
:1031D000ECCF65E070E080E090E00E94900CE5CFDD
:1031E0000E94610BC701C058DF4F0FB6F894DEBFD5
:1031F0000FBECDBFDF91CF911F910F91FF90EF9048
:10320000DF90CF90BF90AF909F908F907F906F9006
:103210000C948A2EC058DF4F0FB6F894DEBF0FBE55
:10322000CDBFDF91CF911F910F91FF90EF90DF9075
:10323000CF90BF90AF909F908F907F906F900895A8
:103240003F924F925F926F927F928F929F92AF9236
:10325000BF92CF92DF92EF92FF920F931F93CF9383
:10326000DF93CDB7DEB7C45DD1090FB6F894DEBFEA
:103270000FBECDBF86E090E00E94EE2D8C0169EE7E
:1032800073E00E94161662EF7AE0CE018F579F4FCF
:103290000E94322FBE016F577F4FCE018F539F4F39
:1032A0000E941C33C8010E949513BE016F537F4FCB
:1032B0000E941C3361EE72E1CE018F5B9F4F0E9432
:1032C000322FBE016F5B7F4FCE018F539F4F0E9405
:1032D0001C33C8010E94CE128B3B2BE0920758F49E
:1032E000893BEBE09E0708F07DC0893E934059F092
:1032F00090E080E00CC0813B9D40D1F7F8018281D5
:103300009381089604C0F801828193814096BE01A2
:103310006F537F4F0E941C336EEE7AE0CE01019610
:103320000E94322FBE016F5F7F4FCE018F539F4FA0
:103330000E941C33C8010E94CE12893BFBE09F070C
:1033400009F454C08A3B2BE0920709F44FC0893E30
:10335000934009F050C0F801828193818096BE01AC
:103360006F537F4F0E941C33C8010E94CE12F12C74
:10337000E12C893E934031F4F801E280F380F0E3E0
:10338000EF0EF11C80E390E00E94A211F701808310
:10339000B80180910004909101040E943F1880E3DD
:1033A00090E00E94A2111F928F9381ED9AE09F936B
:1033B0008F930E94B1146DEE73E0C8010E94D21782
:1033C0008C010E94CE120F900F900F900F908D3EA7
:1033D000F3E09F0799F0853D974009F4C9C0F12CAF
:1033E000E12C0FC0F8018281938191CFF801828195
:1033F00093814096B4CF90E080E0B1CFF801E280B5
:10340000F380BE016F527F4F81E390E00E9468110C
:10341000CF52DF4F88819981AA81BB81C15DD040A5
:10342000F70180839183A283B383C8010E94CE12E7
:10343000F12CE12C8D3E934031F4F801E280F380D1
:10344000F4E0EF0EF11CBE016F527F4F85E390E078
:103450000E946811CF52DF4F88819981AA81BB8178
:10346000C15DD040F70180839183A283B38380E361
:1034700090E00E94A2111F928F9384EB9AE09F9399
:103480008F930E94B1140F900F900F900F90312CDA
:1034900094E5492E9AE0592E2DE9622E2AE0722EEB
:1034A00032E9A32E3AE0B32E4CE8842E4AE0942E63
:1034B00080E390E00E94A211381608F07AC0CF5243
:1034C000DF4F19821882C15DD04080E390E00E94F6
:1034D000A211E32CF12C381608F060C0EE0CFF1C92
:1034E000C701805B9B4F7C01BE016F527F4FFC0187
:1034F000808191810E948E11CE52DF4F8881C25D02
:10350000D0408F93CF52DF4F8881C15DD0408F93E1
:103510007F926F920E94B114CF52DF4F6881798100
:10352000C15DD040C8010E94D2178C01BF92AF92FA
:103530000E94B1140F900F900F900F900F900F906A
:10354000D12CC12CC8010E945312C816D906B8F458
:10355000F7018081918102968C0D9D1D0E94A21120
:10356000682FC8010E94AB12FFEFCF1ADF0AEACF23
:10357000F801E280F380F0E1EF0EF11C42CF9F9260
:103580008F920E94B1140F900F90B80180910004A7
:10359000909101040E943F1833948ACF1F923F926A
:1035A0005F924F920E94B1140F900F900F900F9066
:1035B000ECCF0115110531F0C8010E943311C8018B
:1035C0000E948A2ECC52DF4F0FB6F894DEBF0FBE9A
:1035D000CDBFDF91CF911F910F91FF90EF90DF90C2
:1035E000CF90BF90AF909F908F907F906F905F90A3
:1035F0004F903F900895AF92BF92CF92DF92EF929B
:10360000FF920F931F93CF93DF9300D0CDB7DEB718
:103610008C016A010E94051490E00396880F991F9F
:10362000800F911FFC01008111817801F2E0EF0E03
:10363000F11C5601065F1F4FF50161915F01FA828F
:10364000E982CE0101960E94B913FFEFEF1AFF0A3B
:10365000E016F10689F70E94201981E00F900F9083
:10366000DF91CF911F910F91FF90EF90DF90CF905E
:10367000BF90AF900895CF92DF92EF92FF920F9399
:103680001F93CF93DF9300D0CDB7DEB77C018A01C3
:103690000E94051490E00396880F991F8E0D9F1DC0
:1036A000DC01CD90DC90B2E0CB0ED11CF12CE12CF2
:1036B000C8010E945312E816F906A0F4D801129628
:1036C000ED91FC91EE0DFF1D6081C7018C0D9D1DDC
:1036D0009A838983CE0101960E94B913BFEFEB1A3A
:1036E000FB0AE6CF0E94201981E00F900F90DF9136
:1036F000CF911F910F91FF90EF90DF90CF900895A1
:103700008F929F92BF92CF92DF92EF92FF920F9390
:103710001F93CF93DF9300D0CDB7DEB78C016B0141
:1037200080E390E00E94A211B82EE82FF0E03396DB
:10373000EE0FFF1FE00FF11FE080F180C6010E9435
:10374000CE12992EFA82E982682FCE0101960E944C
:10375000B913C70101969A838983692DCE01019619
:103760000E94B91382E0E80EF11C912C812CC60155
:103770000E94531288169906A0F4D6011296ED9174
:10378000FC91E80DF91D6081FA82E982CE01019673
:103790000E94B913BFEFEB1AFB0AEFEF8E1A9E0AD5
:1037A000E6CFB3946B2D80E390E00E94EE3180E38E
:1037B00090E00E94A211E82FF0E03396EE0FFF1F79
:1037C000E00FF11FF182E082C6010E94EC12DC01E1
:1037D000FC90C6010E9441131F92FF929F938F930A
:1037E00089E79DE09F938F930E94B1141F92BF922F
:1037F00082E69DE09F938F930E94B1140A5F1F4F52
:103800000FB6F894DEBF0FBECDBFF12C9EE5C92EDA
:103810009DE0D92EFB1490F4D8018C9111969C91C7
:103820000E5F1F4F9F938F93DF92CF920E94B11430
:10383000F3940F900F900F900F90ECCF8AE59DE0DE
:103840009F938F930E94B1140E94201981E00F90E2
:103850000F900F900F90DF91CF911F910F91FF90DC
:10386000EF90DF90CF90BF909F908F900895AF9290
:10387000BF92CF92DF92FF920F931F93CF93DF936C
:10388000F82E6B01EA01590161E070E080E490E0FC
:103890000E94C1328C019501AE0160E470E00E948B
:1038A000392F86E090E00E94EE2DEC016FE070E091
:1038B0000E941616CE010E94CE120F97E1F48A8163
:1038C0009B81B8010E941C33CE010E949513B60162
:1038D0000E941C33CE010E94CE12813D27E0920748
:1038E00009F440C058F48A309105B9F00F97A9F156
:1038F000F0E0E0E014C090E080E0E3CF8A3B2BE012
:10390000920739F0813B2DE0920781F1893B9B4082
:1039100079F7EA81FB81B09602C0EA81FB81809150
:10392000450490914604A0914704B09148048083D7
:103930009183A283B383CE010E94CE128C382AE0F9
:10394000920709F447C0B0F48F309105F1F0853F3C
:103950009140D9F1F0E0E0E01CC0EA81FB81E05B3E
:10396000FF4FDDCFEA81FB817096D9CFEA81FB81E1
:103970007896D5CF893B2BE0920719F08A3B9B4084
:1039800049F7EA81FB81B49604C0EA81FB81EC5AD5
:10399000FF4FF082BE0180910004909101040E94CB
:1039A0003F18C8010E948A2E2097C1F0CE010E94C4
:1039B0003311CE01DF91CF911F910F91FF90DF90D6
:1039C000CF90BF90AF900C948A2EEA81FB81E75B89
:1039D000FF4FDFCFEA81FB813896DBCFDF91CF91BC
:1039E0001F910F91FF90DF90CF90BF90AF900895FF
:1039F000CF93DF93CDB7DEB7C054D1090FB6F8949B
:103A0000DEBF0FBECDBF61EE72E1CE0101960E9416
:103A1000322F9E01285B3F4F28964EAD5FAD289711
:103A2000BE016F5F7F4F83E00E94371CC05CDF4F99
:103A30000FB6F894DEBF0FBECDBFDF91CF910895D2
:103A4000CF93DF93CDB7DEB7C054D1090FB6F8944A
:103A5000DEBF0FBECDBF28966EAD7FAD2897CE01DD
:103A600001960E94322F9E01265B3F4F2A964EAD53
:103A70005FAD2A97BE016F5F7F4F26968FAD269769
:103A80000E94371CC05CDF4F0FB6F894DEBF0FBE3C
:103A9000CDBFDF91CF9108958F929F92AF92BF9249
:103AA000CF92DF92EF92FF920F931F93CF93DF930A
:103AB000CDB7DEB72C970FB6F894DEBF0FBECDBFE3
:103AC0008C01CE0107960E94BE0F8F81843608F0CC
:103AD00046C0CE0107960E94570F882309F43FC0C5
:103AE000CE0107960E94460EF801608B718B828B87
:103AF000938B8489811120C081E0848B868197819A
:103B0000009711F00E948A2EF801178216821092F7
:103B100003041092040484E091E19F938F938381C6
:103B20008F9382818F9381E08F930E94201D0F904D
:103B30000F900F900F900F902C960FB6F894DEBF59
:103B40000FBECDBFDF91CF911F910F91FF90EF90EE
:103B5000DF90CF90BF90AF909F908F900895F80125
:103B60008489882351F1148A81E090E00E94EE2D2F
:103B7000F801978386834089518962897389CE01D0
:103B800001960E94D70ECE0101960E94AF0E83E0EF
:103B900080930304109204042CEE30E13F932F93A2
:103BA000F80193819F9392819F938F930E94201D90
:103BB0000F900F900F900F900F900E94C20C80906A
:103BC000880290908902A0908A02B0908B026819B6
:103BD00079098A099B0928EE33E040E050E00E9411
:103BE0006D3269017A01A8EEB3E00E94FC31860EC5
:103BF000971EA81EB91E8092880290928902A092F8
:103C00008A02B0928B0240918402509185026091A9
:103C10008602709187024C0D5D1D6E1D7F1D4093C5
:103C20008402509385026093860270938702CE01CE
:103C300001960E94D70ECE0101960E94460EF80111
:103C4000608B718B828B938B77CFCF93DF93EC015B
:103C50000E94C20CAB01BC018C859D85AE85BF85E1
:103C60008C599F4FAF4FBF4F84179507A607B707D3
:103C700060F50E94C20C6C877D878E879F87CE017E
:103C80000E944C1D8C89811120C00E94C20CAB0186
:103C9000BC0188859985AA85BB85805D9A48AF4F10
:103CA000BF4F84179507A607B70778F40E94C20C88
:103CB000688779878A879B87E881F9810480F58105
:103CC000E02DCE01DF91CF910994DF91CF9108953E
:103CD0008F929F92AF92BF92DF92EF92FF920F93DB
:103CE0001F93CF93DF93CDB7DEB7CC55D1090FB675
:103CF000F894DEBF0FBECDBF7C01FC01148A628147
:103D000073818E010F5F1F4FC8010E94322F1F93D6
:103D10000F938CED90E19F938F930E94B11447EC29
:103D200050E160ED70E1CE01895A9F4F0E94C811A9
:103D3000CE01895A9F4F0E94460E0F900F900F9010
:103D40000F90F70180889188A288B388005C1F4F8C
:103D500086169706A806B90650F442EB50E16BEBC5
:103D600070E1C8010E94C811C8010E94460E4DE9C9
:103D700050E166EA70E1C8010E94C811C8010E94C2
:103D8000460E4B015C011092E9021092E80210927B
:103D9000EB0210920D0310925403DD24D394D092C1
:103DA000530310924E0361E082E10E94810B61E0B7
:103DB00083E10E94810B8091B9008E7F8093B900CE
:103DC0008091B9008D7F8093B90088E48093B8001A
:103DD00085E48093BC008FEF9CE09093AD028093CC
:103DE000AC0280E09DE09093B1028093B002D0924B
:103DF000EA0288E680930C031092EB0210920D0306
:103E00000E94FB0981113AC00E94641090E0880F63
:103E1000892F881F990B892BD1F0B501A401C80106
:103E20000E94D70EC8010E9482108FE690E19F93F6
:103E30008F93F70183818F9382818F9383E08F9398
:103E40000E94201D0F900F900F900F900F90C801AF
:103E50000E94BE0FF8018081843628F4C8010E94B8
:103E6000570F811166C0B501A401C8010E94D70E89
:103E7000C8010E94821081E490E102C083E090E1D9
:103E80009F938F93F70183818F9382818F9383E038
:103E90008F930E94201D0F900F900F900F900F9006
:103EA000F7014089518962897389C8010E946E14A3
:103EB00087EE9FE09F938F930E94B1141F930F93FF
:103EC00085EB9FE09F938F930E94B11481E090E077
:103ED0000E94EE2DF701978386834089518962897C
:103EE0007389CE01895A9F4F0E94D70ECE01895AFD
:103EF0009F4F0E94AF0E83E080930304109204044E
:103F00000F900F900F900F900F900F90C45ADF4FAB
:103F10000FB6F894DEBF0FBECDBFDF91CF911F91DA
:103F20000F91FF90EF90DF90BF90AF909F908F9098
:103F3000089581E0F701848BC7010E944C1DF701B1
:103F40004089518962897389C8010E946E141F9348
:103F50000F9384E290E19F938F930E94B1140F908E
:103F60000F900F900F90D2CFAF92BF92CF92DF926F
:103F7000EF92FF920F931F93CF93DF938C015B011E
:103F80006A010E9405148F3F19F5BF92AF9282EA31
:103F90009EE09F938F93F80185818F9384818F9307
:103FA00082E08F930E94201D8DB79EB707960FB6B3
:103FB000F8949EBF0FBE8DBF80E0DF91CF911F911F
:103FC0000F91FF90EF90DF90CF90BF90AF9008954A
:103FD000F60101900020E9F73197EC19FD09CF01B6
:103FE0000197089700F57601EF01CC0DDD1DF70173
:103FF00081917F01082E000C990B0E94EA32892BD7
:1040000091F0CE15DF0599F7A601B501C801DF9142
:10401000CF911F910F91FF90EF90DF90CF90BF90C5
:10402000AF900C94FB1ADF92CF9282EC9EE09F93AC
:104030008F93F80185818F9384818F9382E08F9392
:104040000E94201D8DB79EB707960FB6F8949EBFAD
:104050000FBE8DBFB1CFCF92DF92EF92FF920F9341
:104060001F93CF93DF93EC018B017A010E9405141B
:10407000C82E8FEFC81220C01F930F9387E89EE0D1
:104080009F938F938D818F938C818F9382E08F93F9
:104090000E94201DEDB7FEB737960FB6F894FEBF0D
:1040A0000FBEEDBF80E0DF91CF911F910F91FF9088
:1040B000EF90DF90CF900895E881F9810190F08131
:1040C000E02DB701CE0109958111ECCFC7010E9407
:1040D000EC12FC01D0806D2DCE010E94A4118F3F07
:1040E000C9F0C816B9F01F92DF9289E69EE09F934F
:1040F0008F938D818F938C818F9382E08F930E9419
:10410000201D8DB79EB707960FB6F8949EBF0FBEC1
:104110008DBFC8CFA701B801CE01DF91CF911F910C
:104120000F91FF90EF90DF90CF900C943B1BFF928C
:104130000F931F93CF93DF93EC018B01E881F981FB
:104140000190F081E02D09958823D9F0823099F013
:104150008330A1F0813041F483E59EE09F938F93FB
:104160000E94B1140F900F9080E0DF91CF911F91CA
:104170000F91FF9008958DE39EE0F0CF87E29EE0DF
:10418000EDCFC8010E94EC12FC01F0806F2DCE0132
:104190000E94A4118F3FB9F01F92FF9284E09EE02D
:1041A0009F938F938D818F938C818F9382E08F93D8
:1041B0000E94201D8DB79EB707960FB6F8949EBF3C
:1041C0000FBE8DBFD1CFB801CE01DF91CF911F912E
:1041D0000F91FF900C94801BEF92FF920F931F930F
:1041E000CF93DF93CDB7DEB7C054D1090FB6F894A3
:1041F000DEBF0FBECDBF7C018B0161157105B9F427
:1042000083E39DE09F938F930E94B1140F900F90D2
:1042100081E0C05CDF4F0FB6F894DEBF0FBECDBFAC
:10422000DF91CF911F910F91FF90EF900895CB01F7
:104230000E945312892B39F58CE09DE09F938F9358
:104240000E94B114F801648175816D5F7F4F8E010A
:104250000F5F1F4FC8010E94322F1F930F938BEEE9
:104260009CE09F938F93F70185818F9384818F9337
:1042700082E08F930E94201D0FB6F894DEBF0FBE20
:10428000CDBF82E0C6CF80E0C4CFCF92DF92EF9265
:10429000FF920F931F93CF93DF93CDB7DEB7C05438
:1042A000D1090FB6F894DEBF0FBECDBF7C016B0104
:1042B0000E94EC20182F81113AC0C6010E94CE1234
:1042C000853125E0920799F18631E5E09E0779F185
:1042D0008E31F5E09F0759F1823F25E0920739F1D1
:1042E000843AE6E09E0719F1803D974001F1F6011E
:1042F000648175816D5F7F4F8E010F5F1F4FC80115
:104300000E94322F1F930F938CED9DE09F938F930C
:10431000F70185818F9384818F9382E08F930E9430
:10432000201D0FB6F894DEBF0FBECDBF13E0812F66
:10433000C05CDF4F0FB6F894DEBF0FBECDBFDF917C
:10434000CF911F910F91FF90EF90DF90CF90089544
:104350002F923F924F925F926F927F928F929F9295
:10436000AF92BF92CF92DF92EF92FF920F931F9383
:10437000CF93DF93CDB7DEB7C254D1090FB6F8940F
:10438000DEBF0FBECDBF6C018B01FC01778366835E
:1043900080E390E00E94A211282E23961FAE1EAE4D
:1043A00023973601F8E06F0E711CB12CA12C312C33
:1043B000482E512C321409F468C0BE016F5B7F4F48
:1043C000C8010E948E111F930F9323968FAD2397E0
:1043D0008F9322968FAD22978F931F922F92BF9229
:1043E000AF922FEB3CE03F932F930E94B1140E5FEE
:1043F0001F4F86E090E00E94EE2D7C0123966EAD6B
:104400007FAD23970E941616C7010E9453120FB664
:10441000F894DEBF0FBECDBF892B09F05DC0F70158
:10442000648175816D5F7F4F8E010F5F1F4FC801E3
:104430000E94322F1F930F9323968FAD23978F9354
:1044400022968FAD22978F9389E99CE09F938F935B
:10445000F60185818F9384818F9383E08F930E94EF
:10446000201D5F924F921F923F9285E59CE09F93A3
:104470008F930E94B114632D80E390E00E94EE318F
:104480000FB6F894DEBF0FBECDBF8FE29CE09F93C6
:104490008F930E94B1140F900F90F12C0BE21CE04F
:1044A00080E390E00E94A2118F1508F454C0EF2D14
:1044B000F0E03396EE0FFF1FEC0DFD1D81818F9311
:1044C00080818F931F930F930E94B114F3940F90E8
:1044D0000F900F900F90E4CF912C812CC7010E9478
:1044E00053128816990668F4C8010E94A211682F19
:1044F000C7010E94AB120F5F1F4F3FEF831A930A51
:10450000EDCFC7010E94EC12FC019080C7010E9410
:1045100041131F929F929F938F9322E83CE03F9319
:104520002F930E94B114F301019311933F010F9057
:104530000F900F900F900F900F90E114F10431F055
:10454000C7010E943311C7010E948A2E3394FFEFE6
:10455000AF1ABF0A2FCF88E29CE09F938F930E94EF
:10456000B1140F900F90CE5BDF4F0FB6F894DEBF03
:104570000FBECDBFDF91CF911F910F91FF90EF90B4
:10458000DF90CF90BF90AF909F908F907F906F9073
:104590005F904F903F902F9008957F928F929F92BF
:1045A000AF92BF92CF92DF92EF92FF920F931F9341
:1045B000CF93DF9300D000D0CDB7DEB78C01F62EBD
:1045C000E72E80E390E00E94A211782E6F2D7E2DC1
:1045D000C8010E940514772009F467C08F3F09F4D1
:1045E00089C0E82FF0E03396EE0FFF1FE00FF11FB8
:1045F000E080F1801C821B82E72DF0E03396EE0F05
:10460000FF1FE00FF11F80809180BE016D5F7F4F23
:10461000C7010E948E11CB80DC8086E090E00E9472
:10462000EE2D5C01B6010E941616D12CC12CA114EE
:10463000B10451F0C5010E9453126C01C5010E94E2
:104640003311C5010E948A2E6FEF670D80E390E061
:104650000E94EE31C70102968C0D9D1D9F938F9392
:10466000FF92EF928CE99DE09F938F930E94B1148B
:104670000F900F900F900F900F900F9092E0C90E37
:10468000D11CE814F90408F04AC0C6018E0D9F1D24
:104690000E94A211FA82E982682FCE0101960E943F
:1046A000B913EFEFEE1AFE0AECCF88EC9DE09F9372
:1046B0008F93F80185818F9384818F9382E08F930C
:1046C0000E94201D0F900F900F900F900F9080E090
:1046D0000F900F900F900F90DF91CF911F910F913E
:1046E000FF90EF90DF90CF90BF90AF909F908F9012
:1046F0007F900895EF92FF9284EB9DE09F938F93BC
:10470000F80185818F9384818F9382E08F930E943B
:10471000201D0FB6F894DEBF0FBECDBFD8CFF80175
:1047200066817781C8010E94A8210E94201981E03A
:10473000CFCF2F923F924F925F926F927F928F9244
:104740009F92AF92BF92CF92DF92EF92FF920F9320
:104750001F93CF93DF93CDB7DEB7CC59D1090FB6F6
:10476000F894DEBF0FBECDBF8C0186E0E6E0F1E03D
:10477000DE01AF56BF4F01900D928A95E1F7CE0151
:104780008F569F4FC956DF4F99838883C759D040B2
:104790007E0191E8E90EF11C662477246E187F08EB
:1047A000D12CC12C2E01A1E44A0E511CF7017096A8
:1047B000C756DF4FF983E883C959D040CE0101962F
:1047C0001C01C556DF4FC882CB59D040C456DF4FBD
:1047D000D882CC59D040C956DF4FA881B981C7597A
:1047E000D0408D909D90C956DF4FB983A883C7599B
:1047F000D040B401C2010E94322F5F924F92DF92EB
:10480000CF92E7E0FCE0FF93EF930E94B114D70151
:10481000E0E11D92EA95E9F70F900F900F900F904D
:104820000F900F905701C501860D971D0E94A21190
:10483000D5018D935D01C756DF4FE881F981C959D4
:10484000D040AE17BF0779F7FF92EF928EEF9BE053
:104850009F938F930E94B114B401C7010E94292F26
:104860000F900F900F900F90892B09F445C0E2EF45
:10487000FBE0FF93EF930E94B114B401C1010E94C9
:10488000322FFF92EF923F922F92C456DF4F8881D2
:10489000CC59D0408F93C556DF4F9881CB59D0402B
:1048A0009F93A2EDB1E0BF93AF93D80115968C9181
:1048B00015978F9314968C918F93B3E0BF930E94BA
:1048C000F81C68EC70E080E090E00E94900CD80149
:1048D000ED91FC910084F185E02DC8010995D80186
:1048E000ED91FC910680F781E02DC80109950FB686
:1048F000F894DEBF0FBECDBFFFEFCF1ADF0A20E175
:10490000620E711C83E0C816D10409F05ACF80E30F
:1049100090E00E94A2118531E0F11F9294E19F93F3
:104920001F928F9382EC9BE09F938F930E94B11410
:1049300080E390E00E94A2111F928F9383EA9BE094
:104940009F938F93D80115968C9115978F931496FA
:104950008C918F9383E08F930E94201DD801ED915D
:10496000FC910084F185E02DC801099568EC70E0A8
:1049700080E090E00E94900CD801ED91FC910680BF
:10498000F781E02DC80109950FB6F894DEBF0FBE80
:10499000CDBF87E89BE09F938F930E94B1140F9047
:1049A0000F90C456DF4F0FB6F894DEBF0FBECDBFD9
:1049B000DF91CF911F910F91FF90EF90DF90CF90FB
:1049C000BF90AF909F908F907F906F905F904F902F
:1049D0003F902F9008950F931F93CF93DF9300D0B4
:1049E00000D0CDB7DEB78C010E94992319821A82BC
:1049F0001B821C82BE016F5F7F4F81E390E00E94AB
:104A0000681189819A81AB81BC81AC01BD0145509F
:104A10005109610971094C37514561407105A8F18F
:104A2000BF93AF939F938F938CE19FE09F938F935E
:104A3000D80115968C9115978F9314968C918F931E
:104A400083E08F930E94201D68EE73E080E090E089
:104A50000E94900CD801ED91FC910084F185E02D2D
:104A6000C801099568EE73E080E090E00E94900C28
:104A7000D801ED91FC910680F781E02DC8010995E0
:104A80000FB6F894DEBF0FBECDBFBE016F5F7F4F84
:104A900085E390E00E94681189819A81AB81BC8195
:104AA000AC01BD01415051096109710948375105F7
:104AB00061057105A8F1BF93AF939F938F938FEF1B
:104AC0009EE09F938F93D80115968C9115978F93A5
:104AD00014968C918F9383E08F930E94201D68EE33
:104AE00073E080E090E00E94900CD801ED91FC9181
:104AF0000084F185E02DC801099568EE73E080E03F
:104B000090E00E94900CD801ED91FC910680F78115
:104B1000E02DC80109950FB6F894DEBF0FBECDBFDA
:104B200069E370E0C8010E94A82180EE9EE09F9397
:104B30008F930E94B1140F900F900F900F900F90D1
:104B40000F90DF91CF911F910F9108951F920F92B7
:104B50000FB60F9211242F933F934F935F936F9350
:104B60007F938F939F93AF93BF93EF93FF9385E5CD
:104B700093E00E94F20AFF91EF91BF91AF919F9154
:104B80008F917F916F915F914F913F912F910F90F6
:104B90000FBE0F901F9018951F920F920FB60F9295
:104BA00011242F938F939F93EF93FF93E0916503CD
:104BB000F09166038081E0916B03F0916C0382FDBC
:104BC0001BC0908180916E038F5F8F7320916F0364
:104BD000821741F0E0916E03F0E0EB5AFC4F958FA5
:104BE00080936E03FF91EF919F918F912F910F9082
:104BF0000FBE0F901F9018958081F4CF1F920F92D7
:104C00000FB60F9211242F933F938F939F93AF93DF
:104C1000BF938091D4029091D502A091D602B09119
:104C2000D7023091D30223E0230F2D3758F5019698
:104C3000A11DB11D2093D3028093D4029093D5027D
:104C4000A093D602B093D7028091D8029091D90256
:104C5000A091DA02B091DB020196A11DB11D8093F3
:104C6000D8029093D902A093DA02B093DB02BF91ED
:104C7000AF919F918F913F912F910F900FBE0F9009
:104C80001F90189526E8230F0296A11DB11DD2CFC3
:104C90001F920F920FB60F9211242F933F934F93B1
:104CA0005F936F937F938F939F93AF93BF93EF9394
:104CB000FF938091B900887F803609F44AC0F0F5EF
:104CC000883209F4A7C018F5803109F49BC0B8F404
:104CD000882309F4F9C0883009F494C0FF91EF915A
:104CE000BF91AF919F918F917F916F915F914F9104
:104CF0003F912F910F900FBE0F901F901895883104
:104D000009F488C0803251F78093520314C0803474
:104D100009F49DC040F48033B9F38833F9F68093E9
:104D2000520385ECB0C0803509F485C0883509F49C
:104D300096C0883499F60E94CE0CD0CF883909F4F9
:104D40008CC038F5883729F050F4883611F0803758
:104D500029F683E0809354031092D20257C088381A
:104D600009F47BC0803919F0803809F0B7CF809101
:104D7000D202803208F071C0E091D20281E08E0F41
:104D80008093D2028091BB00F0E0EE54FD4F80830F
:104D90003DC0803B39F0E0F4803A09F479C0883AAC
:104DA00009F09CCF84E0809354031092AF021092DC
:104DB000AE02E091AC02F091AD0209958091AE0295
:104DC00081110FC081E08093AE0210928C0209C065
:104DD000803C09F4A6CF883C09F4A3CF883B09F0B6
:104DE0007DCFE091AF0281E08E0F8093AF02F0E0C3
:104DF000E457FD4F80818093BB009091AF0280917A
:104E0000AE0229C080914F038093BB0085EC809354
:104E1000BC0064CF9091510380915003981758F5CE
:104E2000E091510381E08E0F80935103F0E0E25D49
:104E3000FC4F8081E9CFE091510381E08E0F809398
:104E400051038091BB00F0E0E25DFC4F80839091C4
:104E50005103809150039817C8F285E8D8CFE091AC
:104E6000510381E08E0F809351038091BB00F0E0ED
:104E7000E25DFC4F80838091530381115CCF81E020
:104E800080934E0384EA8093BC001092540326CF93
:104E900085EC8093BC00109254038091D202803242
:104EA00030F4E091D202F0E0EE54FD4F10826091B8
:104EB000D20270E0E091B002F091B10282EB92E098
:104EC00009951092D2020ACF1092520334CF1F924A
:104ED0000F920FB60F9211242F933F934F935F932E
:104EE0006F937F938F939F93AF93BF93EF93FF93B2
:104EF000E091E602F091E702309749F0A685B78588
:104F00008585968D91FF14C09C918923A1F4FF9112
:104F1000EF91BF91AF919F918F917F916F915F9131
:104F20004F913F912F910F900FBE0F901F901895AA
:104F30009C91892361F7A389B4899C918589809587
:104F400089238C93868997890197F1F7608D718DFC
:104F5000A685B785558538E020E0CB010197F1F7AC
:104F6000822F90E095958795282F4C91452309F045
:104F70002068315091F7868D81FD20958091DD026A
:104F800090E001968F7399273091DC02381799F0E1
:104F9000A091DD02B0E0AC5BBD4F2C938093DD02AD
:104FA000828D938D0197F1F7A389B4898C919589AE
:104FB000892B8C93ACCF868D8160868FF1CF209129
:104FC0002D0430912E0440912F04509130046091B3
:104FD0003104709132048091330490913404AFEF26
:104FE0000E94953220932D0430932E0440932F0479
:104FF00050933004609331047093320480933304EF
:1050000090933404A0E00E94A13211F40C94580A49
:1050100008958AE494E00E94051685E394E00E94D6
:105020001B1120912D0430912E0440912F0450919A
:105030003004609131047091320480913304909176
:105040003404AFEF0E94953220932D0430932E0448
:1050500040932F04509330046093310470933204D2
:105060008093330490933404A0E00E94A13211F4A1
:105070000E94580A0E94DF270E94DF270E94DF2734
:105080000E94DF270E94DF270E94DF270E94DF2780
:105090000E94DF270C94DF2720912D0430912E04ED
:1050A00040912F045091300460913104709132048A
:1050B0008091330490913404A1E00E9495322093B2
:1050C0002D0430932E0440932F04509330046093AA
:1050D00031047093320480933304909334040E941B
:1050E000A13211F40C94FE0B0895CF93DF9300D0FE
:1050F00000D000D0CDB7DEB71092580310925703FE
:1051000088EE93E0A0E0B0E08093590390935A03B7
:10511000A0935B03B0935C0322E231E0309356032B
:105120002093550325EC30E0309362032093610314
:1051300024EC30E0309364032093630320EC30E0F0
:10514000309366032093650321EC30E030936803CD
:105150002093670322EC30E030936A0320936903C5
:1051600026EC30E030936C0320936B0310926E03B7
:1051700010926F0310927003109271031092F50356
:105180001092F4038093F6039093F703A093F8032F
:10519000B093F90384E391E09093F3038093F203D7
:1051A0000E944C280E944C280E944C280E944C28A7
:1051B0000E944C280E944C280E944C280E944C2897
:1051C0000E944C2820912D0430912E0440912F04F0
:1051D0005091300460913104709132048091330415
:1051E00090913404A1E00E94953220932D043093D5
:1051F0002E0440932F045093300460933104709335
:10520000320480933304909334040E94A13211F449
:105210000E94FE0B109202041092030410920404E8
:1052200010920504109206041092070410920804CC
:105230001092090410920A0410920B0410920C04AC
:1052400010920D0486EA91E0909336048093350421
:1052500010923C0410923B0410923D0410923E04C4
:1052600010923F04109240041092410410924204A4
:105270001092430410924404109245041092460484
:105280001092470410924804109249048BE093E175
:10529000909338048093370481E090E00E94EE2DD3
:1052A00090933A048093390446EF52E16FEF72E134
:1052B000CE0101960E94C811CE0101960E94460EB1
:1052C0006093450470934604809347049093480488
:1052D00089E190E00E94EE2DFC018AE991E0918342
:1052E000808313821482158217821682118610869B
:1052F0001386128615861486108A118A128A138ADA
:10530000148A158A168A178A108E81E0828380EFAC
:1053100092E197878687F093FF03E093FE0384E092
:1053200090E00E94EE2DDC011D921D921D921C92B8
:105330001397909301048093000486E491E0909386
:105340004D0480934C0489EE92E190934F04809336
:105350004E04E0E5F4E088E2DF011D928A95E9F76A
:1053600084E891E090934B0480934A0426960FB60C
:10537000F894DEBF0FBECDBFDF91CF910895CF93DC
:10538000DF93CDB7DEB7DA950FB6F894DEBF0FBE68
:10539000CDBF789484B5826084BD84B5816084BDBE
:1053A00085B5826085BD85B5816085BD80916E00C3
:1053B000816080936E0010928100809181008260F4
:1053C0008093810080918100816080938100809131
:1053D00080008160809380008091B1008460809320
:1053E000B1008091B00081608093B00080917A001C
:1053F000846080937A0080917A00826080937A0042
:1054000080917A00816080937A0080917A00806830
:1054100080937A001092C10064EF71E080E090E028
:105420000E94900C8DE08093050461E00E94CD0BFA
:1054300013E061E0809105040E94810B68EC70E04C
:1054400080E090E00E94900C60E0809105040E9452
:10545000810B68EC70E080E090E00E94900C1150AD
:1054600041F71092290410922804109227041092F8
:10547000260410922504109224048FE190E090936A
:105480002B0480932A0490911A04963108F047C0A7
:1054900021E030E030932504209324042DE130E016
:1054A00030932704209326042DE030E03093290424
:1054B000209328042091680084E0983048F031E07F
:1054C0009E3008F430E081E001C0880F3A95EAF799
:1054D000822B809368002DE630E0983050F02BE668
:1054E00030E09E3030F02CE630E0963110F030E0C5
:1054F00020E03093220420932104292F30E09830BB
:1055000008F089C181E001C0880F9A95EAF780937D
:10551000230480912A0490912B040197F1F7809144
:10552000280490912904892B49F1E091E602F09139
:10553000E70224E0EE30F20709F1309739F0A38951
:10554000B4899C918589809589238C9380912C04C2
:105550008E7F80932C041092DD021092DC028EE08C
:1055600094E09093E7028093E602E0912104F091A9
:105570002204808190912304892B8083109204045B
:10558000109203048E010F531F4F6EE671E1C801A4
:105590000E94322F1F930F9383E691E19F938F9385
:1055A0000E94B114E0916503F091660382E080836C
:1055B000E0916103F09162031082E0916303F09146
:1055C000640380E1808310926D03E0916903F091A0
:1055D0006A0386E08083E0916703F091680380812D
:1055E00080618083E0916703F09168038081886027
:1055F0008083E0916703F0916803808180688083F5
:10560000E0916703F091680380818F7D8083109221
:10561000590310925A0310925B0310925C0380911D
:10562000FE039091FF03DC01ED91FC910480F58174
:10563000E02D099585E394E00E94681E86E591E1DE
:105640009F938F938EE691E19F938F9311E01F9329
:105650000E94201D88E491E19F938F930E94B114D2
:105660008AE494E00E94EB240E94201984E391E1F3
:105670009F938F9380E491E19F938F931F930E9458
:10568000201D0FB6F894DEBF0FBECDBF1E01F1E4A2
:105690002F0E311C3E0121E8620E711CCE010196D5
:1056A0002C010E94C20C6B017C0180910604909138
:1056B0000704A0910804B09109048053984FAF4F9C
:1056C000BF4F8C159D05AE05BF05E0F58091030425
:1056D0008823C1F19091040489130FC0C09206047D
:1056E000D0920704E0920804F09209041092040496
:1056F00060E0809105040E94810B80910A049091E2
:105700000B04A0910C04B0910D0488539F4FAF4F30
:10571000BF4F8C159D05AE05BF05A0F48091050413
:1057200090910204911184C061E00E94810B81E09C
:1057300080930204C0920A04D0920B04E0920C04FD
:10574000F0920D0485E394E00E94251E85E593E028
:105750000E94D20A892B09F40DC285E593E00E94CC
:10576000D20A892B09F406C20091FE031091FF03AF
:1057700085E593E00E94B00A7C01D80113968C91D4
:105780001397811160C0C70199279F938F93ECE80D
:10579000F1E1FF93EF930E94B114D80116968D9119
:1057A0009C91BC016F5F7F4F43E050E00E94FA3252
:1057B000D8011696ED91FC911797E38244E050E0F2
:1057C00068E871E116968D919C910E94132F0F90BD
:1057D0000F900F900F90892BA1F4E3E7F1E1FF9375
:1057E000EF930E94B114D8011C96ED91FC9180E1D9
:1057F000DF011D928A95E9F781E0F80183830F901C
:105800000F90E091FE03F091FF03808D882309F44F
:10581000A4CF108EA2CF9E3040F42850310981E0F1
:1058200001C0880F2A95EAF772CE2E503109F7CFC2
:1058300060E00E94810B10920204809104048F5F4B
:105840008093040477CF14968C9114978111B4C07F
:1058500063E272E1C3010E94322FC70199279F932F
:105860008F938091DE021F928F93EEE0F2E1FF931F
:10587000EF930E94B1148091DE020F900F900F9071
:105880000F900F900F90803158F4D8011C96ED9135
:10589000FC91E80FF11DE0828F5F8093DE02B1CFB3
:1058A000B1E0EB1280C0F8018281882309F458C06E
:1058B000F30101900020E9F73197AF01461957092C
:1058C000D8011C96ED90FC90B301C7010E942333D0
:1058D000892B81F5F70101900020E9F731976F01DD
:1058E000CE18DF08C6010197409720F5F7018081A7
:1058F000082E000C990B0E94E032892BD9F0470149
:10590000FFEF8F1A9F0ACE0CDF1CC814D90441F197
:10591000D401AD904D010A2C000CBB08C5010E94BA
:10592000E032892B91F7B0E3AB1AB108EAE0AE168A
:10593000B10458F3FF92EF927F926F9281EC91E164
:105940009F938F930E94B1140F900F900F900F9020
:105950000F900F90D80113961C921092DE0251CF37
:105960001092DE0281E0D80114968C931497189659
:10597000ED91FC911997118210821D968C911D97C3
:105980008F931C968C918F937F926F92E4EFF1E14D
:10599000FF93EF930E94B1140F900F900F900F9010
:1059A0000F900F902ECFEFE8F1E1FF93EF930E945D
:1059B000B1140F900F90CECFF8018581811165C091
:1059C000C70199272091E102211115C09F938F9360
:1059D00083E892E19F938F930E94B114D8011896A7
:1059E000ED91FC91E08281E08093E1020F900F90B5
:1059F0000F900F9006CF1896ED91FC911997E182C8
:105A00001896ED91FC91E080F180FF92EF929F93C8
:105A10008F93E9E7F2E1FF93EF930E94B114B7018E
:105A2000D8011A968D919C910E94D217F801938704
:105A300082871092E102108E0E9453120F900F90F5
:105A40000F900F900F900F90892BD1F4D8011496DE
:105A50001C92149713961C92139781E058968C937E
:105A6000589750968D919D910D90BC91A02D0196C7
:105A7000A11DB11DF801808B918BA28BB38BC1CE80
:105A800081E0D80115968C93BCCE6E2D82859385CE
:105A90000E94AB12D8011A96ED91FC9181113BC086
:105AA000CF010E945312F82EE92ED8011A96ED91DB
:105AB000FC91648175816D5F7F4FC2010E94322F1E
:105AC000EF92FF925F924F92E8E2F2E1FF93EF9341
:105AD0000E94B114D80115961C92159714961C9229
